{"abi":[{"inputs":[{"internalType":"address","name":"factoryAddress","type":"address"},{"internalType":"address","name":"author","type":"address"},{"internalType":"string","name":"title","type":"string"},{"internalType":"string","name":"content","type":"string"},{"internalType":"string","name":"date","type":"string"}],"stateMutability":"nonpayable","type":"constructor"},{"inputs":[],"name":"blogAuthor","outputs":[{"internalType":"address","name":"","type":"address"}],"stateMutability":"view","type":"function"},{"inputs":[],"name":"blogContent","outputs":[{"internalType":"string","name":"","type":"string"}],"stateMutability":"view","type":"function"},{"inputs":[],"name":"blogCreatedAtDate","outputs":[{"internalType":"string","name":"","type":"string"}],"stateMutability":"view","type":"function"},{"inputs":[],"name":"blogTitle","outputs":[{"internalType":"string","name":"","type":"string"}],"stateMutability":"view","type":"function"},{"inputs":[{"internalType":"string","name":"newTitle","type":"string"},{"internalType":"string","name":"newContent","type":"string"},{"internalType":"string","name":"newDate","type":"string"}],"name":"editBlogPost","outputs":[],"stateMutability":"nonpayable","type":"function"},{"inputs":[],"name":"getBlogPosts","outputs":[{"internalType":"address","name":"author","type":"address"},{"internalType":"string","name":"title","type":"string"},{"internalType":"string","name":"content","type":"string"},{"internalType":"string","name":"date","type":"string"}],"stateMutability":"view","type":"function"},{"inputs":[],"name":"readBlogPost","outputs":[{"internalType":"address","name":"author","type":"address"},{"internalType":"string","name":"title","type":"string"},{"internalType":"string","name":"content","type":"string"},{"internalType":"string","name":"date","type":"string"}],"stateMutability":"view","type":"function"}],"devdoc":{"kind":"dev","methods":{},"version":1},"evm":{"assembly":"    /* \"blogs.sol\":1232:2601  contract BlogPost {... */\n  mstore(0x40, 0x80)\n    /* \"blogs.sol\":1542:1839  constructor (address factoryAddress, address author, string memory title, string memory content, string memory date ) {... */\n  callvalue\n  dup1\n  iszero\n  tag_1\n  jumpi\n  revert(0x00, 0x00)\ntag_1:\n  pop\n  mload(0x40)\n  sub(codesize, bytecodeSize)\n  dup1\n  bytecodeSize\n  dup4\n  codecopy\n  dup2\n  dup2\n  add\n  0x40\n  mstore\n  dup2\n  add\n  swap1\n  tag_2\n  swap2\n  swap1\n  tag_3\n  jump\t// in\ntag_2:\n    /* \"blogs.sol\":1696:1710  factoryAddress */\n  dup5\n    /* \"blogs.sol\":1670:1677  factory */\n  0x00\n  0x00\n    /* \"blogs.sol\":1670:1711  factory = BlogPostFactory(factoryAddress) */\n  0x0100\n  exp\n  dup2\n  sload\n  dup2\n  0xffffffffffffffffffffffffffffffffffffffff\n  mul\n  not\n  and\n  swap1\n  dup4\n  0xffffffffffffffffffffffffffffffffffffffff\n  and\n  mul\n  or\n  swap1\n  sstore\n  pop\n    /* \"blogs.sol\":1734:1740  author */\n  dup4\n    /* \"blogs.sol\":1721:1731  blogAuthor */\n  0x01\n  0x00\n    /* \"blogs.sol\":1721:1740  blogAuthor = author */\n  0x0100\n  exp\n  dup2\n  sload\n  dup2\n  0xffffffffffffffffffffffffffffffffffffffff\n  mul\n  not\n  and\n  swap1\n  dup4\n  0xffffffffffffffffffffffffffffffffffffffff\n  and\n  mul\n  or\n  swap1\n  sstore\n  pop\n    /* \"blogs.sol\":1762:1767  title */\n  dup3\n    /* \"blogs.sol\":1750:1759  blogTitle */\n  0x02\n    /* \"blogs.sol\":1750:1767  blogTitle = title */\n  swap1\n  dup2\n  tag_6\n  swap2\n  swap1\n  tag_7\n  jump\t// in\ntag_6:\n  pop\n    /* \"blogs.sol\":1791:1798  content */\n  dup2\n    /* \"blogs.sol\":1777:1788  blogContent */\n  0x03\n    /* \"blogs.sol\":1777:1798  blogContent = content */\n  swap1\n  dup2\n  tag_8\n  swap2\n  swap1\n  tag_7\n  jump\t// in\ntag_8:\n  pop\n    /* \"blogs.sol\":1828:1832  date */\n  dup1\n    /* \"blogs.sol\":1808:1825  blogCreatedAtDate */\n  0x04\n    /* \"blogs.sol\":1808:1832  blogCreatedAtDate = date */\n  swap1\n  dup2\n  tag_9\n  swap2\n  swap1\n  tag_7\n  jump\t// in\ntag_9:\n  pop\n    /* \"blogs.sol\":1542:1839  constructor (address factoryAddress, address author, string memory title, string memory content, string memory date ) {... */\n  pop\n  pop\n  pop\n  pop\n  pop\n    /* \"blogs.sol\":1232:2601  contract BlogPost {... */\n  jump(tag_10)\n    /* \"#utility.yul\":7:82   */\ntag_11:\n    /* \"#utility.yul\":40:46   */\n  0x00\n    /* \"#utility.yul\":73:75   */\n  0x40\n    /* \"#utility.yul\":67:76   */\n  mload\n    /* \"#utility.yul\":57:76   */\n  swap1\n  pop\n    /* \"#utility.yul\":7:82   */\n  swap1\n  jump\t// out\n    /* \"#utility.yul\":88:205   */\ntag_12:\n    /* \"#utility.yul\":197:198   */\n  0x00\n    /* \"#utility.yul\":194:195   */\n  0x00\n    /* \"#utility.yul\":187:199   */\n  revert\n    /* \"#utility.yul\":211:328   */\ntag_13:\n    /* \"#utility.yul\":320:321   */\n  0x00\n    /* \"#utility.yul\":317:318   */\n  0x00\n    /* \"#utility.yul\":310:322   */\n  revert\n    /* \"#utility.yul\":334:460   */\ntag_14:\n    /* \"#utility.yul\":371:378   */\n  0x00\n    /* \"#utility.yul\":411:453   */\n  0xffffffffffffffffffffffffffffffffffffffff\n    /* \"#utility.yul\":404:409   */\n  dup3\n    /* \"#utility.yul\":400:454   */\n  and\n    /* \"#utility.yul\":389:454   */\n  swap1\n  pop\n    /* \"#utility.yul\":334:460   */\n  swap2\n  swap1\n  pop\n  jump\t// out\n    /* \"#utility.yul\":466:562   */\ntag_15:\n    /* \"#utility.yul\":503:510   */\n  0x00\n    /* \"#utility.yul\":532:556   */\n  tag_53\n    /* \"#utility.yul\":550:555   */\n  dup3\n    /* \"#utility.yul\":532:556   */\n  tag_14\n  jump\t// in\ntag_53:\n    /* \"#utility.yul\":521:556   */\n  swap1\n  pop\n    /* \"#utility.yul\":466:562   */\n  swap2\n  swap1\n  pop\n  jump\t// out\n    /* \"#utility.yul\":568:690   */\ntag_16:\n    /* \"#utility.yul\":641:665   */\n  tag_55\n    /* \"#utility.yul\":659:664   */\n  dup2\n    /* \"#utility.yul\":641:665   */\n  tag_15\n  jump\t// in\ntag_55:\n    /* \"#utility.yul\":634:639   */\n  dup2\n    /* \"#utility.yul\":631:666   */\n  eq\n    /* \"#utility.yul\":621:684   */\n  tag_56\n  jumpi\n    /* \"#utility.yul\":680:681   */\n  0x00\n    /* \"#utility.yul\":677:678   */\n  0x00\n    /* \"#utility.yul\":670:682   */\n  revert\n    /* \"#utility.yul\":621:684   */\ntag_56:\n    /* \"#utility.yul\":568:690   */\n  pop\n  jump\t// out\n    /* \"#utility.yul\":696:839   */\ntag_17:\n    /* \"#utility.yul\":753:758   */\n  0x00\n    /* \"#utility.yul\":784:790   */\n  dup2\n    /* \"#utility.yul\":778:791   */\n  mload\n    /* \"#utility.yul\":769:791   */\n  swap1\n  pop\n    /* \"#utility.yul\":800:833   */\n  tag_58\n    /* \"#utility.yul\":827:832   */\n  dup2\n    /* \"#utility.yul\":800:833   */\n  tag_16\n  jump\t// in\ntag_58:\n    /* \"#utility.yul\":696:839   */\n  swap3\n  swap2\n  pop\n  pop\n  jump\t// out\n    /* \"#utility.yul\":845:962   */\ntag_18:\n    /* \"#utility.yul\":954:955   */\n  0x00\n    /* \"#utility.yul\":951:952   */\n  0x00\n    /* \"#utility.yul\":944:956   */\n  revert\n    /* \"#utility.yul\":968:1085   */\ntag_19:\n    /* \"#utility.yul\":1077:1078   */\n  0x00\n    /* \"#utility.yul\":1074:1075   */\n  0x00\n    /* \"#utility.yul\":1067:1079   */\n  revert\n    /* \"#utility.yul\":1091:1193   */\ntag_20:\n    /* \"#utility.yul\":1132:1138   */\n  0x00\n    /* \"#utility.yul\":1183:1185   */\n  0x1f\n    /* \"#utility.yul\":1179:1186   */\n  not\n    /* \"#utility.yul\":1174:1176   */\n  0x1f\n    /* \"#utility.yul\":1167:1172   */\n  dup4\n    /* \"#utility.yul\":1163:1177   */\n  add\n    /* \"#utility.yul\":1159:1187   */\n  and\n    /* \"#utility.yul\":1149:1187   */\n  swap1\n  pop\n    /* \"#utility.yul\":1091:1193   */\n  swap2\n  swap1\n  pop\n  jump\t// out\n    /* \"#utility.yul\":1199:1379   */\ntag_21:\n    /* \"#utility.yul\":1247:1324   */\n  0x4e487b7100000000000000000000000000000000000000000000000000000000\n    /* \"#utility.yul\":1244:1245   */\n  0x00\n    /* \"#utility.yul\":1237:1325   */\n  mstore\n    /* \"#utility.yul\":1344:1348   */\n  0x41\n    /* \"#utility.yul\":1341:1342   */\n  0x04\n    /* \"#utility.yul\":1334:1349   */\n  mstore\n    /* \"#utility.yul\":1368:1372   */\n  0x24\n    /* \"#utility.yul\":1365:1366   */\n  0x00\n    /* \"#utility.yul\":1358:1373   */\n  revert\n    /* \"#utility.yul\":1385:1666   */\ntag_22:\n    /* \"#utility.yul\":1468:1495   */\n  tag_64\n    /* \"#utility.yul\":1490:1494   */\n  dup3\n    /* \"#utility.yul\":1468:1495   */\n  tag_20\n  jump\t// in\ntag_64:\n    /* \"#utility.yul\":1460:1466   */\n  dup2\n    /* \"#utility.yul\":1456:1496   */\n  add\n    /* \"#utility.yul\":1598:1604   */\n  dup2\n    /* \"#utility.yul\":1586:1596   */\n  dup2\n    /* \"#utility.yul\":1583:1605   */\n  lt\n    /* \"#utility.yul\":1562:1580   */\n  0xffffffffffffffff\n    /* \"#utility.yul\":1550:1560   */\n  dup3\n    /* \"#utility.yul\":1547:1581   */\n  gt\n    /* \"#utility.yul\":1544:1606   */\n  or\n    /* \"#utility.yul\":1541:1629   */\n  iszero\n  tag_65\n  jumpi\n    /* \"#utility.yul\":1609:1627   */\n  tag_66\n  tag_21\n  jump\t// in\ntag_66:\n    /* \"#utility.yul\":1541:1629   */\ntag_65:\n    /* \"#utility.yul\":1649:1659   */\n  dup1\n    /* \"#utility.yul\":1645:1647   */\n  0x40\n    /* \"#utility.yul\":1638:1660   */\n  mstore\n    /* \"#utility.yul\":1428:1666   */\n  pop\n    /* \"#utility.yul\":1385:1666   */\n  pop\n  pop\n  jump\t// out\n    /* \"#utility.yul\":1672:1801   */\ntag_23:\n    /* \"#utility.yul\":1706:1712   */\n  0x00\n    /* \"#utility.yul\":1733:1753   */\n  tag_68\n  tag_11\n  jump\t// in\ntag_68:\n    /* \"#utility.yul\":1723:1753   */\n  swap1\n  pop\n    /* \"#utility.yul\":1762:1795   */\n  tag_69\n    /* \"#utility.yul\":1790:1794   */\n  dup3\n    /* \"#utility.yul\":1782:1788   */\n  dup3\n    /* \"#utility.yul\":1762:1795   */\n  tag_22\n  jump\t// in\ntag_69:\n    /* \"#utility.yul\":1672:1801   */\n  swap2\n  swap1\n  pop\n  jump\t// out\n    /* \"#utility.yul\":1807:2115   */\ntag_24:\n    /* \"#utility.yul\":1869:1873   */\n  0x00\n    /* \"#utility.yul\":1959:1977   */\n  0xffffffffffffffff\n    /* \"#utility.yul\":1951:1957   */\n  dup3\n    /* \"#utility.yul\":1948:1978   */\n  gt\n    /* \"#utility.yul\":1945:2001   */\n  iszero\n  tag_71\n  jumpi\n    /* \"#utility.yul\":1981:1999   */\n  tag_72\n  tag_21\n  jump\t// in\ntag_72:\n    /* \"#utility.yul\":1945:2001   */\ntag_71:\n    /* \"#utility.yul\":2019:2048   */\n  tag_73\n    /* \"#utility.yul\":2041:2047   */\n  dup3\n    /* \"#utility.yul\":2019:2048   */\n  tag_20\n  jump\t// in\ntag_73:\n    /* \"#utility.yul\":2011:2048   */\n  swap1\n  pop\n    /* \"#utility.yul\":2103:2107   */\n  0x20\n    /* \"#utility.yul\":2097:2101   */\n  dup2\n    /* \"#utility.yul\":2093:2108   */\n  add\n    /* \"#utility.yul\":2085:2108   */\n  swap1\n  pop\n    /* \"#utility.yul\":1807:2115   */\n  swap2\n  swap1\n  pop\n  jump\t// out\n    /* \"#utility.yul\":2121:2260   */\ntag_25:\n    /* \"#utility.yul\":2210:2216   */\n  dup3\n    /* \"#utility.yul\":2205:2208   */\n  dup2\n    /* \"#utility.yul\":2200:2203   */\n  dup4\n    /* \"#utility.yul\":2194:2217   */\n  mcopy\n    /* \"#utility.yul\":2251:2252   */\n  0x00\n    /* \"#utility.yul\":2242:2248   */\n  dup4\n    /* \"#utility.yul\":2237:2240   */\n  dup4\n    /* \"#utility.yul\":2233:2249   */\n  add\n    /* \"#utility.yul\":2226:2253   */\n  mstore\n    /* \"#utility.yul\":2121:2260   */\n  pop\n  pop\n  pop\n  jump\t// out\n    /* \"#utility.yul\":2266:2700   */\ntag_26:\n    /* \"#utility.yul\":2355:2360   */\n  0x00\n    /* \"#utility.yul\":2380:2446   */\n  tag_76\n    /* \"#utility.yul\":2396:2445   */\n  tag_77\n    /* \"#utility.yul\":2438:2444   */\n  dup5\n    /* \"#utility.yul\":2396:2445   */\n  tag_24\n  jump\t// in\ntag_77:\n    /* \"#utility.yul\":2380:2446   */\n  tag_23\n  jump\t// in\ntag_76:\n    /* \"#utility.yul\":2371:2446   */\n  swap1\n  pop\n    /* \"#utility.yul\":2469:2475   */\n  dup3\n    /* \"#utility.yul\":2462:2467   */\n  dup2\n    /* \"#utility.yul\":2455:2476   */\n  mstore\n    /* \"#utility.yul\":2507:2511   */\n  0x20\n    /* \"#utility.yul\":2500:2505   */\n  dup2\n    /* \"#utility.yul\":2496:2512   */\n  add\n    /* \"#utility.yul\":2545:2548   */\n  dup5\n    /* \"#utility.yul\":2536:2542   */\n  dup5\n    /* \"#utility.yul\":2531:2534   */\n  dup5\n    /* \"#utility.yul\":2527:2543   */\n  add\n    /* \"#utility.yul\":2524:2549   */\n  gt\n    /* \"#utility.yul\":2521:2633   */\n  iszero\n  tag_78\n  jumpi\n    /* \"#utility.yul\":2552:2631   */\n  tag_79\n  tag_19\n  jump\t// in\ntag_79:\n    /* \"#utility.yul\":2521:2633   */\ntag_78:\n    /* \"#utility.yul\":2642:2694   */\n  tag_80\n    /* \"#utility.yul\":2687:2693   */\n  dup5\n    /* \"#utility.yul\":2682:2685   */\n  dup3\n    /* \"#utility.yul\":2677:2680   */\n  dup6\n    /* \"#utility.yul\":2642:2694   */\n  tag_25\n  jump\t// in\ntag_80:\n    /* \"#utility.yul\":2361:2700   */\n  pop\n    /* \"#utility.yul\":2266:2700   */\n  swap4\n  swap3\n  pop\n  pop\n  pop\n  jump\t// out\n    /* \"#utility.yul\":2720:3075   */\ntag_27:\n    /* \"#utility.yul\":2787:2792   */\n  0x00\n    /* \"#utility.yul\":2836:2839   */\n  dup3\n    /* \"#utility.yul\":2829:2833   */\n  0x1f\n    /* \"#utility.yul\":2821:2827   */\n  dup4\n    /* \"#utility.yul\":2817:2834   */\n  add\n    /* \"#utility.yul\":2813:2840   */\n  slt\n    /* \"#utility.yul\":2803:2925   */\n  tag_82\n  jumpi\n    /* \"#utility.yul\":2844:2923   */\n  tag_83\n  tag_18\n  jump\t// in\ntag_83:\n    /* \"#utility.yul\":2803:2925   */\ntag_82:\n    /* \"#utility.yul\":2954:2960   */\n  dup2\n    /* \"#utility.yul\":2948:2961   */\n  mload\n    /* \"#utility.yul\":2979:3069   */\n  tag_84\n    /* \"#utility.yul\":3065:3068   */\n  dup5\n    /* \"#utility.yul\":3057:3063   */\n  dup3\n    /* \"#utility.yul\":3050:3054   */\n  0x20\n    /* \"#utility.yul\":3042:3048   */\n  dup7\n    /* \"#utility.yul\":3038:3055   */\n  add\n    /* \"#utility.yul\":2979:3069   */\n  tag_26\n  jump\t// in\ntag_84:\n    /* \"#utility.yul\":2970:3069   */\n  swap2\n  pop\n    /* \"#utility.yul\":2793:3075   */\n  pop\n    /* \"#utility.yul\":2720:3075   */\n  swap3\n  swap2\n  pop\n  pop\n  jump\t// out\n    /* \"#utility.yul\":3081:4577   */\ntag_3:\n    /* \"#utility.yul\":3217:3223   */\n  0x00\n    /* \"#utility.yul\":3225:3231   */\n  0x00\n    /* \"#utility.yul\":3233:3239   */\n  0x00\n    /* \"#utility.yul\":3241:3247   */\n  0x00\n    /* \"#utility.yul\":3249:3255   */\n  0x00\n    /* \"#utility.yul\":3298:3301   */\n  0xa0\n    /* \"#utility.yul\":3286:3295   */\n  dup7\n    /* \"#utility.yul\":3277:3284   */\n  dup9\n    /* \"#utility.yul\":3273:3296   */\n  sub\n    /* \"#utility.yul\":3269:3302   */\n  slt\n    /* \"#utility.yul\":3266:3386   */\n  iszero\n  tag_86\n  jumpi\n    /* \"#utility.yul\":3305:3384   */\n  tag_87\n  tag_12\n  jump\t// in\ntag_87:\n    /* \"#utility.yul\":3266:3386   */\ntag_86:\n    /* \"#utility.yul\":3425:3426   */\n  0x00\n    /* \"#utility.yul\":3450:3514   */\n  tag_88\n    /* \"#utility.yul\":3506:3513   */\n  dup9\n    /* \"#utility.yul\":3497:3503   */\n  dup3\n    /* \"#utility.yul\":3486:3495   */\n  dup10\n    /* \"#utility.yul\":3482:3504   */\n  add\n    /* \"#utility.yul\":3450:3514   */\n  tag_17\n  jump\t// in\ntag_88:\n    /* \"#utility.yul\":3440:3514   */\n  swap6\n  pop\n    /* \"#utility.yul\":3396:3524   */\n  pop\n    /* \"#utility.yul\":3563:3565   */\n  0x20\n    /* \"#utility.yul\":3589:3653   */\n  tag_89\n    /* \"#utility.yul\":3645:3652   */\n  dup9\n    /* \"#utility.yul\":3636:3642   */\n  dup3\n    /* \"#utility.yul\":3625:3634   */\n  dup10\n    /* \"#utility.yul\":3621:3643   */\n  add\n    /* \"#utility.yul\":3589:3653   */\n  tag_17\n  jump\t// in\ntag_89:\n    /* \"#utility.yul\":3579:3653   */\n  swap5\n  pop\n    /* \"#utility.yul\":3534:3663   */\n  pop\n    /* \"#utility.yul\":3723:3725   */\n  0x40\n    /* \"#utility.yul\":3712:3721   */\n  dup7\n    /* \"#utility.yul\":3708:3726   */\n  add\n    /* \"#utility.yul\":3702:3727   */\n  mload\n    /* \"#utility.yul\":3754:3772   */\n  0xffffffffffffffff\n    /* \"#utility.yul\":3746:3752   */\n  dup2\n    /* \"#utility.yul\":3743:3773   */\n  gt\n    /* \"#utility.yul\":3740:3857   */\n  iszero\n  tag_90\n  jumpi\n    /* \"#utility.yul\":3776:3855   */\n  tag_91\n  tag_13\n  jump\t// in\ntag_91:\n    /* \"#utility.yul\":3740:3857   */\ntag_90:\n    /* \"#utility.yul\":3881:3955   */\n  tag_92\n    /* \"#utility.yul\":3947:3954   */\n  dup9\n    /* \"#utility.yul\":3938:3944   */\n  dup3\n    /* \"#utility.yul\":3927:3936   */\n  dup10\n    /* \"#utility.yul\":3923:3945   */\n  add\n    /* \"#utility.yul\":3881:3955   */\n  tag_27\n  jump\t// in\ntag_92:\n    /* \"#utility.yul\":3871:3955   */\n  swap4\n  pop\n    /* \"#utility.yul\":3673:3965   */\n  pop\n    /* \"#utility.yul\":4025:4027   */\n  0x60\n    /* \"#utility.yul\":4014:4023   */\n  dup7\n    /* \"#utility.yul\":4010:4028   */\n  add\n    /* \"#utility.yul\":4004:4029   */\n  mload\n    /* \"#utility.yul\":4056:4074   */\n  0xffffffffffffffff\n    /* \"#utility.yul\":4048:4054   */\n  dup2\n    /* \"#utility.yul\":4045:4075   */\n  gt\n    /* \"#utility.yul\":4042:4159   */\n  iszero\n  tag_93\n  jumpi\n    /* \"#utility.yul\":4078:4157   */\n  tag_94\n  tag_13\n  jump\t// in\ntag_94:\n    /* \"#utility.yul\":4042:4159   */\ntag_93:\n    /* \"#utility.yul\":4183:4257   */\n  tag_95\n    /* \"#utility.yul\":4249:4256   */\n  dup9\n    /* \"#utility.yul\":4240:4246   */\n  dup3\n    /* \"#utility.yul\":4229:4238   */\n  dup10\n    /* \"#utility.yul\":4225:4247   */\n  add\n    /* \"#utility.yul\":4183:4257   */\n  tag_27\n  jump\t// in\ntag_95:\n    /* \"#utility.yul\":4173:4257   */\n  swap3\n  pop\n    /* \"#utility.yul\":3975:4267   */\n  pop\n    /* \"#utility.yul\":4327:4330   */\n  0x80\n    /* \"#utility.yul\":4316:4325   */\n  dup7\n    /* \"#utility.yul\":4312:4331   */\n  add\n    /* \"#utility.yul\":4306:4332   */\n  mload\n    /* \"#utility.yul\":4359:4377   */\n  0xffffffffffffffff\n    /* \"#utility.yul\":4351:4357   */\n  dup2\n    /* \"#utility.yul\":4348:4378   */\n  gt\n    /* \"#utility.yul\":4345:4462   */\n  iszero\n  tag_96\n  jumpi\n    /* \"#utility.yul\":4381:4460   */\n  tag_97\n  tag_13\n  jump\t// in\ntag_97:\n    /* \"#utility.yul\":4345:4462   */\ntag_96:\n    /* \"#utility.yul\":4486:4560   */\n  tag_98\n    /* \"#utility.yul\":4552:4559   */\n  dup9\n    /* \"#utility.yul\":4543:4549   */\n  dup3\n    /* \"#utility.yul\":4532:4541   */\n  dup10\n    /* \"#utility.yul\":4528:4550   */\n  add\n    /* \"#utility.yul\":4486:4560   */\n  tag_27\n  jump\t// in\ntag_98:\n    /* \"#utility.yul\":4476:4560   */\n  swap2\n  pop\n    /* \"#utility.yul\":4277:4570   */\n  pop\n    /* \"#utility.yul\":3081:4577   */\n  swap3\n  swap6\n  pop\n  swap3\n  swap6\n  swap1\n  swap4\n  pop\n  jump\t// out\n    /* \"#utility.yul\":4583:4682   */\ntag_28:\n    /* \"#utility.yul\":4635:4641   */\n  0x00\n    /* \"#utility.yul\":4669:4674   */\n  dup2\n    /* \"#utility.yul\":4663:4675   */\n  mload\n    /* \"#utility.yul\":4653:4675   */\n  swap1\n  pop\n    /* \"#utility.yul\":4583:4682   */\n  swap2\n  swap1\n  pop\n  jump\t// out\n    /* \"#utility.yul\":4688:4868   */\ntag_29:\n    /* \"#utility.yul\":4736:4813   */\n  0x4e487b7100000000000000000000000000000000000000000000000000000000\n    /* \"#utility.yul\":4733:4734   */\n  0x00\n    /* \"#utility.yul\":4726:4814   */\n  mstore\n    /* \"#utility.yul\":4833:4837   */\n  0x22\n    /* \"#utility.yul\":4830:4831   */\n  0x04\n    /* \"#utility.yul\":4823:4838   */\n  mstore\n    /* \"#utility.yul\":4857:4861   */\n  0x24\n    /* \"#utility.yul\":4854:4855   */\n  0x00\n    /* \"#utility.yul\":4847:4862   */\n  revert\n    /* \"#utility.yul\":4874:5194   */\ntag_30:\n    /* \"#utility.yul\":4918:4924   */\n  0x00\n    /* \"#utility.yul\":4955:4956   */\n  0x02\n    /* \"#utility.yul\":4949:4953   */\n  dup3\n    /* \"#utility.yul\":4945:4957   */\n  div\n    /* \"#utility.yul\":4935:4957   */\n  swap1\n  pop\n    /* \"#utility.yul\":5002:5003   */\n  0x01\n    /* \"#utility.yul\":4996:5000   */\n  dup3\n    /* \"#utility.yul\":4992:5004   */\n  and\n    /* \"#utility.yul\":5023:5041   */\n  dup1\n    /* \"#utility.yul\":5013:5094   */\n  tag_102\n  jumpi\n    /* \"#utility.yul\":5079:5083   */\n  0x7f\n    /* \"#utility.yul\":5071:5077   */\n  dup3\n    /* \"#utility.yul\":5067:5084   */\n  and\n    /* \"#utility.yul\":5057:5084   */\n  swap2\n  pop\n    /* \"#utility.yul\":5013:5094   */\ntag_102:\n    /* \"#utility.yul\":5141:5143   */\n  0x20\n    /* \"#utility.yul\":5133:5139   */\n  dup3\n    /* \"#utility.yul\":5130:5144   */\n  lt\n    /* \"#utility.yul\":5110:5128   */\n  dup2\n    /* \"#utility.yul\":5107:5145   */\n  sub\n    /* \"#utility.yul\":5104:5188   */\n  tag_103\n  jumpi\n    /* \"#utility.yul\":5160:5178   */\n  tag_104\n  tag_29\n  jump\t// in\ntag_104:\n    /* \"#utility.yul\":5104:5188   */\ntag_103:\n    /* \"#utility.yul\":4925:5194   */\n  pop\n    /* \"#utility.yul\":4874:5194   */\n  swap2\n  swap1\n  pop\n  jump\t// out\n    /* \"#utility.yul\":5200:5341   */\ntag_31:\n    /* \"#utility.yul\":5249:5253   */\n  0x00\n    /* \"#utility.yul\":5272:5275   */\n  dup2\n    /* \"#utility.yul\":5264:5275   */\n  swap1\n  pop\n    /* \"#utility.yul\":5295:5298   */\n  dup2\n    /* \"#utility.yul\":5292:5293   */\n  0x00\n    /* \"#utility.yul\":5285:5299   */\n  mstore\n    /* \"#utility.yul\":5329:5333   */\n  0x20\n    /* \"#utility.yul\":5326:5327   */\n  0x00\n    /* \"#utility.yul\":5316:5334   */\n  keccak256\n    /* \"#utility.yul\":5308:5334   */\n  swap1\n  pop\n    /* \"#utility.yul\":5200:5341   */\n  swap2\n  swap1\n  pop\n  jump\t// out\n    /* \"#utility.yul\":5347:5440   */\ntag_32:\n    /* \"#utility.yul\":5384:5390   */\n  0x00\n    /* \"#utility.yul\":5431:5433   */\n  0x20\n    /* \"#utility.yul\":5426:5428   */\n  0x1f\n    /* \"#utility.yul\":5419:5424   */\n  dup4\n    /* \"#utility.yul\":5415:5429   */\n  add\n    /* \"#utility.yul\":5411:5434   */\n  div\n    /* \"#utility.yul\":5401:5434   */\n  swap1\n  pop\n    /* \"#utility.yul\":5347:5440   */\n  swap2\n  swap1\n  pop\n  jump\t// out\n    /* \"#utility.yul\":5446:5553   */\ntag_33:\n    /* \"#utility.yul\":5490:5498   */\n  0x00\n    /* \"#utility.yul\":5540:5545   */\n  dup3\n    /* \"#utility.yul\":5534:5538   */\n  dup3\n    /* \"#utility.yul\":5530:5546   */\n  shl\n    /* \"#utility.yul\":5509:5546   */\n  swap1\n  pop\n    /* \"#utility.yul\":5446:5553   */\n  swap3\n  swap2\n  pop\n  pop\n  jump\t// out\n    /* \"#utility.yul\":5559:5952   */\ntag_34:\n    /* \"#utility.yul\":5628:5634   */\n  0x00\n    /* \"#utility.yul\":5678:5679   */\n  0x08\n    /* \"#utility.yul\":5666:5676   */\n  dup4\n    /* \"#utility.yul\":5662:5680   */\n  mul\n    /* \"#utility.yul\":5701:5798   */\n  tag_109\n    /* \"#utility.yul\":5731:5797   */\n  0xffffffffffffffffffffffffffffffffffffffffffffffffffffffffffffffff\n    /* \"#utility.yul\":5720:5729   */\n  dup3\n    /* \"#utility.yul\":5701:5798   */\n  tag_33\n  jump\t// in\ntag_109:\n    /* \"#utility.yul\":5819:5858   */\n  tag_110\n    /* \"#utility.yul\":5849:5857   */\n  dup7\n    /* \"#utility.yul\":5838:5847   */\n  dup4\n    /* \"#utility.yul\":5819:5858   */\n  tag_33\n  jump\t// in\ntag_110:\n    /* \"#utility.yul\":5807:5858   */\n  swap6\n  pop\n    /* \"#utility.yul\":5891:5895   */\n  dup1\n    /* \"#utility.yul\":5887:5896   */\n  not\n    /* \"#utility.yul\":5880:5885   */\n  dup5\n    /* \"#utility.yul\":5876:5897   */\n  and\n    /* \"#utility.yul\":5867:5897   */\n  swap4\n  pop\n    /* \"#utility.yul\":5940:5944   */\n  dup1\n    /* \"#utility.yul\":5930:5938   */\n  dup7\n    /* \"#utility.yul\":5926:5945   */\n  and\n    /* \"#utility.yul\":5919:5924   */\n  dup5\n    /* \"#utility.yul\":5916:5946   */\n  or\n    /* \"#utility.yul\":5906:5946   */\n  swap3\n  pop\n    /* \"#utility.yul\":5635:5952   */\n  pop\n  pop\n    /* \"#utility.yul\":5559:5952   */\n  swap4\n  swap3\n  pop\n  pop\n  pop\n  jump\t// out\n    /* \"#utility.yul\":5958:6035   */\ntag_35:\n    /* \"#utility.yul\":5995:6002   */\n  0x00\n    /* \"#utility.yul\":6024:6029   */\n  dup2\n    /* \"#utility.yul\":6013:6029   */\n  swap1\n  pop\n    /* \"#utility.yul\":5958:6035   */\n  swap2\n  swap1\n  pop\n  jump\t// out\n    /* \"#utility.yul\":6041:6101   */\ntag_36:\n    /* \"#utility.yul\":6069:6072   */\n  0x00\n    /* \"#utility.yul\":6090:6095   */\n  dup2\n    /* \"#utility.yul\":6083:6095   */\n  swap1\n  pop\n    /* \"#utility.yul\":6041:6101   */\n  swap2\n  swap1\n  pop\n  jump\t// out\n    /* \"#utility.yul\":6107:6249   */\ntag_37:\n    /* \"#utility.yul\":6157:6166   */\n  0x00\n    /* \"#utility.yul\":6190:6243   */\n  tag_114\n    /* \"#utility.yul\":6208:6242   */\n  tag_115\n    /* \"#utility.yul\":6217:6241   */\n  tag_116\n    /* \"#utility.yul\":6235:6240   */\n  dup5\n    /* \"#utility.yul\":6217:6241   */\n  tag_35\n  jump\t// in\ntag_116:\n    /* \"#utility.yul\":6208:6242   */\n  tag_36\n  jump\t// in\ntag_115:\n    /* \"#utility.yul\":6190:6243   */\n  tag_35\n  jump\t// in\ntag_114:\n    /* \"#utility.yul\":6177:6243   */\n  swap1\n  pop\n    /* \"#utility.yul\":6107:6249   */\n  swap2\n  swap1\n  pop\n  jump\t// out\n    /* \"#utility.yul\":6255:6330   */\ntag_38:\n    /* \"#utility.yul\":6298:6301   */\n  0x00\n    /* \"#utility.yul\":6319:6324   */\n  dup2\n    /* \"#utility.yul\":6312:6324   */\n  swap1\n  pop\n    /* \"#utility.yul\":6255:6330   */\n  swap2\n  swap1\n  pop\n  jump\t// out\n    /* \"#utility.yul\":6336:6605   */\ntag_39:\n    /* \"#utility.yul\":6446:6485   */\n  tag_119\n    /* \"#utility.yul\":6477:6484   */\n  dup4\n    /* \"#utility.yul\":6446:6485   */\n  tag_37\n  jump\t// in\ntag_119:\n    /* \"#utility.yul\":6507:6598   */\n  tag_120\n    /* \"#utility.yul\":6556:6597   */\n  tag_121\n    /* \"#utility.yul\":6580:6596   */\n  dup3\n    /* \"#utility.yul\":6556:6597   */\n  tag_38\n  jump\t// in\ntag_121:\n    /* \"#utility.yul\":6548:6554   */\n  dup5\n    /* \"#utility.yul\":6541:6545   */\n  dup5\n    /* \"#utility.yul\":6535:6546   */\n  sload\n    /* \"#utility.yul\":6507:6598   */\n  tag_34\n  jump\t// in\ntag_120:\n    /* \"#utility.yul\":6501:6505   */\n  dup3\n    /* \"#utility.yul\":6494:6599   */\n  sstore\n    /* \"#utility.yul\":6412:6605   */\n  pop\n    /* \"#utility.yul\":6336:6605   */\n  pop\n  pop\n  pop\n  jump\t// out\n    /* \"#utility.yul\":6611:6684   */\ntag_40:\n    /* \"#utility.yul\":6656:6659   */\n  0x00\n    /* \"#utility.yul\":6677:6678   */\n  0x00\n    /* \"#utility.yul\":6670:6678   */\n  swap1\n  pop\n    /* \"#utility.yul\":6611:6684   */\n  swap1\n  jump\t// out\n    /* \"#utility.yul\":6690:6879   */\ntag_41:\n    /* \"#utility.yul\":6767:6799   */\n  tag_124\n  tag_40\n  jump\t// in\ntag_124:\n    /* \"#utility.yul\":6808:6873   */\n  tag_125\n    /* \"#utility.yul\":6866:6872   */\n  dup2\n    /* \"#utility.yul\":6858:6864   */\n  dup5\n    /* \"#utility.yul\":6852:6856   */\n  dup5\n    /* \"#utility.yul\":6808:6873   */\n  tag_39\n  jump\t// in\ntag_125:\n    /* \"#utility.yul\":6743:6879   */\n  pop\n    /* \"#utility.yul\":6690:6879   */\n  pop\n  pop\n  jump\t// out\n    /* \"#utility.yul\":6885:7071   */\ntag_42:\n    /* \"#utility.yul\":6945:7065   */\ntag_127:\n    /* \"#utility.yul\":6962:6965   */\n  dup2\n    /* \"#utility.yul\":6955:6960   */\n  dup2\n    /* \"#utility.yul\":6952:6966   */\n  lt\n    /* \"#utility.yul\":6945:7065   */\n  iszero\n  tag_129\n  jumpi\n    /* \"#utility.yul\":7016:7055   */\n  tag_130\n    /* \"#utility.yul\":7053:7054   */\n  0x00\n    /* \"#utility.yul\":7046:7051   */\n  dup3\n    /* \"#utility.yul\":7016:7055   */\n  tag_41\n  jump\t// in\ntag_130:\n    /* \"#utility.yul\":6989:6990   */\n  0x01\n    /* \"#utility.yul\":6982:6987   */\n  dup2\n    /* \"#utility.yul\":6978:6991   */\n  add\n    /* \"#utility.yul\":6969:6991   */\n  swap1\n  pop\n    /* \"#utility.yul\":6945:7065   */\n  jump(tag_127)\ntag_129:\n    /* \"#utility.yul\":6885:7071   */\n  pop\n  pop\n  jump\t// out\n    /* \"#utility.yul\":7077:7620   */\ntag_43:\n    /* \"#utility.yul\":7178:7180   */\n  0x1f\n    /* \"#utility.yul\":7173:7176   */\n  dup3\n    /* \"#utility.yul\":7170:7181   */\n  gt\n    /* \"#utility.yul\":7167:7613   */\n  iszero\n  tag_132\n  jumpi\n    /* \"#utility.yul\":7212:7250   */\n  tag_133\n    /* \"#utility.yul\":7244:7249   */\n  dup2\n    /* \"#utility.yul\":7212:7250   */\n  tag_31\n  jump\t// in\ntag_133:\n    /* \"#utility.yul\":7296:7325   */\n  tag_134\n    /* \"#utility.yul\":7314:7324   */\n  dup5\n    /* \"#utility.yul\":7296:7325   */\n  tag_32\n  jump\t// in\ntag_134:\n    /* \"#utility.yul\":7286:7294   */\n  dup2\n    /* \"#utility.yul\":7282:7326   */\n  add\n    /* \"#utility.yul\":7479:7481   */\n  0x20\n    /* \"#utility.yul\":7467:7477   */\n  dup6\n    /* \"#utility.yul\":7464:7482   */\n  lt\n    /* \"#utility.yul\":7461:7510   */\n  iszero\n  tag_135\n  jumpi\n    /* \"#utility.yul\":7500:7508   */\n  dup2\n    /* \"#utility.yul\":7485:7508   */\n  swap1\n  pop\n    /* \"#utility.yul\":7461:7510   */\ntag_135:\n    /* \"#utility.yul\":7523:7603   */\n  tag_136\n    /* \"#utility.yul\":7579:7601   */\n  tag_137\n    /* \"#utility.yul\":7597:7600   */\n  dup6\n    /* \"#utility.yul\":7579:7601   */\n  tag_32\n  jump\t// in\ntag_137:\n    /* \"#utility.yul\":7569:7577   */\n  dup4\n    /* \"#utility.yul\":7565:7602   */\n  add\n    /* \"#utility.yul\":7552:7563   */\n  dup3\n    /* \"#utility.yul\":7523:7603   */\n  tag_42\n  jump\t// in\ntag_136:\n    /* \"#utility.yul\":7182:7613   */\n  pop\n  pop\n    /* \"#utility.yul\":7167:7613   */\ntag_132:\n    /* \"#utility.yul\":7077:7620   */\n  pop\n  pop\n  pop\n  jump\t// out\n    /* \"#utility.yul\":7626:7743   */\ntag_44:\n    /* \"#utility.yul\":7680:7688   */\n  0x00\n    /* \"#utility.yul\":7730:7735   */\n  dup3\n    /* \"#utility.yul\":7724:7728   */\n  dup3\n    /* \"#utility.yul\":7720:7736   */\n  shr\n    /* \"#utility.yul\":7699:7736   */\n  swap1\n  pop\n    /* \"#utility.yul\":7626:7743   */\n  swap3\n  swap2\n  pop\n  pop\n  jump\t// out\n    /* \"#utility.yul\":7749:7918   */\ntag_45:\n    /* \"#utility.yul\":7793:7799   */\n  0x00\n    /* \"#utility.yul\":7826:7877   */\n  tag_140\n    /* \"#utility.yul\":7874:7875   */\n  0x00\n    /* \"#utility.yul\":7870:7876   */\n  not\n    /* \"#utility.yul\":7862:7867   */\n  dup5\n    /* \"#utility.yul\":7859:7860   */\n  0x08\n    /* \"#utility.yul\":7855:7868   */\n  mul\n    /* \"#utility.yul\":7826:7877   */\n  tag_44\n  jump\t// in\ntag_140:\n    /* \"#utility.yul\":7822:7878   */\n  not\n    /* \"#utility.yul\":7907:7911   */\n  dup1\n    /* \"#utility.yul\":7901:7905   */\n  dup4\n    /* \"#utility.yul\":7897:7912   */\n  and\n    /* \"#utility.yul\":7887:7912   */\n  swap2\n  pop\n    /* \"#utility.yul\":7800:7918   */\n  pop\n    /* \"#utility.yul\":7749:7918   */\n  swap3\n  swap2\n  pop\n  pop\n  jump\t// out\n    /* \"#utility.yul\":7923:8218   */\ntag_46:\n    /* \"#utility.yul\":7999:8003   */\n  0x00\n    /* \"#utility.yul\":8145:8174   */\n  tag_142\n    /* \"#utility.yul\":8170:8173   */\n  dup4\n    /* \"#utility.yul\":8164:8168   */\n  dup4\n    /* \"#utility.yul\":8145:8174   */\n  tag_45\n  jump\t// in\ntag_142:\n    /* \"#utility.yul\":8137:8174   */\n  swap2\n  pop\n    /* \"#utility.yul\":8207:8210   */\n  dup3\n    /* \"#utility.yul\":8204:8205   */\n  0x02\n    /* \"#utility.yul\":8200:8211   */\n  mul\n    /* \"#utility.yul\":8194:8198   */\n  dup3\n    /* \"#utility.yul\":8191:8212   */\n  or\n    /* \"#utility.yul\":8183:8212   */\n  swap1\n  pop\n    /* \"#utility.yul\":7923:8218   */\n  swap3\n  swap2\n  pop\n  pop\n  jump\t// out\n    /* \"#utility.yul\":8223:9618   */\ntag_7:\n    /* \"#utility.yul\":8340:8377   */\n  tag_144\n    /* \"#utility.yul\":8373:8376   */\n  dup3\n    /* \"#utility.yul\":8340:8377   */\n  tag_28\n  jump\t// in\ntag_144:\n    /* \"#utility.yul\":8442:8460   */\n  0xffffffffffffffff\n    /* \"#utility.yul\":8434:8440   */\n  dup2\n    /* \"#utility.yul\":8431:8461   */\n  gt\n    /* \"#utility.yul\":8428:8484   */\n  iszero\n  tag_145\n  jumpi\n    /* \"#utility.yul\":8464:8482   */\n  tag_146\n  tag_21\n  jump\t// in\ntag_146:\n    /* \"#utility.yul\":8428:8484   */\ntag_145:\n    /* \"#utility.yul\":8508:8546   */\n  tag_147\n    /* \"#utility.yul\":8540:8544   */\n  dup3\n    /* \"#utility.yul\":8534:8545   */\n  sload\n    /* \"#utility.yul\":8508:8546   */\n  tag_30\n  jump\t// in\ntag_147:\n    /* \"#utility.yul\":8593:8660   */\n  tag_148\n    /* \"#utility.yul\":8653:8659   */\n  dup3\n    /* \"#utility.yul\":8645:8651   */\n  dup3\n    /* \"#utility.yul\":8639:8643   */\n  dup6\n    /* \"#utility.yul\":8593:8660   */\n  tag_43\n  jump\t// in\ntag_148:\n    /* \"#utility.yul\":8687:8688   */\n  0x00\n    /* \"#utility.yul\":8711:8715   */\n  0x20\n    /* \"#utility.yul\":8698:8715   */\n  swap1\n  pop\n    /* \"#utility.yul\":8743:8745   */\n  0x1f\n    /* \"#utility.yul\":8735:8741   */\n  dup4\n    /* \"#utility.yul\":8732:8746   */\n  gt\n    /* \"#utility.yul\":8760:8761   */\n  0x01\n    /* \"#utility.yul\":8755:9373   */\n  dup2\n  eq\n  tag_150\n  jumpi\n    /* \"#utility.yul\":9417:9418   */\n  0x00\n    /* \"#utility.yul\":9434:9440   */\n  dup5\n    /* \"#utility.yul\":9431:9508   */\n  iszero\n  tag_151\n  jumpi\n    /* \"#utility.yul\":9483:9492   */\n  dup3\n    /* \"#utility.yul\":9478:9481   */\n  dup8\n    /* \"#utility.yul\":9474:9493   */\n  add\n    /* \"#utility.yul\":9468:9494   */\n  mload\n    /* \"#utility.yul\":9459:9494   */\n  swap1\n  pop\n    /* \"#utility.yul\":9431:9508   */\ntag_151:\n    /* \"#utility.yul\":9534:9601   */\n  tag_152\n    /* \"#utility.yul\":9594:9600   */\n  dup6\n    /* \"#utility.yul\":9587:9592   */\n  dup3\n    /* \"#utility.yul\":9534:9601   */\n  tag_46\n  jump\t// in\ntag_152:\n    /* \"#utility.yul\":9528:9532   */\n  dup7\n    /* \"#utility.yul\":9521:9602   */\n  sstore\n    /* \"#utility.yul\":9390:9612   */\n  pop\n    /* \"#utility.yul\":8725:9612   */\n  jump(tag_149)\n    /* \"#utility.yul\":8755:9373   */\ntag_150:\n    /* \"#utility.yul\":8807:8811   */\n  0x1f\n    /* \"#utility.yul\":8803:8812   */\n  not\n    /* \"#utility.yul\":8795:8801   */\n  dup5\n    /* \"#utility.yul\":8791:8813   */\n  and\n    /* \"#utility.yul\":8841:8878   */\n  tag_153\n    /* \"#utility.yul\":8873:8877   */\n  dup7\n    /* \"#utility.yul\":8841:8878   */\n  tag_31\n  jump\t// in\ntag_153:\n    /* \"#utility.yul\":8900:8901   */\n  0x00\n    /* \"#utility.yul\":8914:9122   */\ntag_154:\n    /* \"#utility.yul\":8928:8935   */\n  dup3\n    /* \"#utility.yul\":8925:8926   */\n  dup2\n    /* \"#utility.yul\":8922:8936   */\n  lt\n    /* \"#utility.yul\":8914:9122   */\n  iszero\n  tag_156\n  jumpi\n    /* \"#utility.yul\":9007:9016   */\n  dup5\n    /* \"#utility.yul\":9002:9005   */\n  dup10\n    /* \"#utility.yul\":8998:9017   */\n  add\n    /* \"#utility.yul\":8992:9018   */\n  mload\n    /* \"#utility.yul\":8984:8990   */\n  dup3\n    /* \"#utility.yul\":8977:9019   */\n  sstore\n    /* \"#utility.yul\":9058:9059   */\n  0x01\n    /* \"#utility.yul\":9050:9056   */\n  dup3\n    /* \"#utility.yul\":9046:9060   */\n  add\n    /* \"#utility.yul\":9036:9060   */\n  swap2\n  pop\n    /* \"#utility.yul\":9105:9107   */\n  0x20\n    /* \"#utility.yul\":9094:9103   */\n  dup6\n    /* \"#utility.yul\":9090:9108   */\n  add\n    /* \"#utility.yul\":9077:9108   */\n  swap5\n  pop\n    /* \"#utility.yul\":8951:8955   */\n  0x20\n    /* \"#utility.yul\":8948:8949   */\n  dup2\n    /* \"#utility.yul\":8944:8956   */\n  add\n    /* \"#utility.yul\":8939:8956   */\n  swap1\n  pop\n    /* \"#utility.yul\":8914:9122   */\n  jump(tag_154)\ntag_156:\n    /* \"#utility.yul\":9150:9156   */\n  dup7\n    /* \"#utility.yul\":9141:9148   */\n  dup4\n    /* \"#utility.yul\":9138:9157   */\n  lt\n    /* \"#utility.yul\":9135:9314   */\n  iszero\n  tag_157\n  jumpi\n    /* \"#utility.yul\":9208:9217   */\n  dup5\n    /* \"#utility.yul\":9203:9206   */\n  dup10\n    /* \"#utility.yul\":9199:9218   */\n  add\n    /* \"#utility.yul\":9193:9219   */\n  mload\n    /* \"#utility.yul\":9251:9299   */\n  tag_158\n    /* \"#utility.yul\":9293:9297   */\n  0x1f\n    /* \"#utility.yul\":9285:9291   */\n  dup10\n    /* \"#utility.yul\":9281:9298   */\n  and\n    /* \"#utility.yul\":9270:9279   */\n  dup3\n    /* \"#utility.yul\":9251:9299   */\n  tag_45\n  jump\t// in\ntag_158:\n    /* \"#utility.yul\":9243:9249   */\n  dup4\n    /* \"#utility.yul\":9236:9300   */\n  sstore\n    /* \"#utility.yul\":9158:9314   */\n  pop\n    /* \"#utility.yul\":9135:9314   */\ntag_157:\n    /* \"#utility.yul\":9360:9361   */\n  0x01\n    /* \"#utility.yul\":9356:9357   */\n  0x02\n    /* \"#utility.yul\":9348:9354   */\n  dup9\n    /* \"#utility.yul\":9344:9358   */\n  mul\n    /* \"#utility.yul\":9340:9362   */\n  add\n    /* \"#utility.yul\":9334:9338   */\n  dup9\n    /* \"#utility.yul\":9327:9363   */\n  sstore\n    /* \"#utility.yul\":8762:9373   */\n  pop\n  pop\n  pop\n    /* \"#utility.yul\":8725:9612   */\ntag_149:\n  pop\n    /* \"#utility.yul\":8315:9618   */\n  pop\n  pop\n  pop\n    /* \"#utility.yul\":8223:9618   */\n  pop\n  pop\n  jump\t// out\n    /* \"blogs.sol\":1232:2601  contract BlogPost {... */\ntag_10:\n  dataSize(sub_0)\n  dup1\n  dataOffset(sub_0)\n  0x00\n  codecopy\n  0x00\n  return\nstop\n\nsub_0: assembly {\n        /* \"blogs.sol\":1232:2601  contract BlogPost {... */\n      mstore(0x40, 0x80)\n      callvalue\n      dup1\n      iszero\n      tag_1\n      jumpi\n      revert(0x00, 0x00)\n    tag_1:\n      pop\n      jumpi(tag_2, lt(calldatasize, 0x04))\n      shr(0xe0, calldataload(0x00))\n      dup1\n      0x5e8ae07d\n      gt\n      tag_10\n      jumpi\n      dup1\n      0x5e8ae07d\n      eq\n      tag_6\n      jumpi\n      dup1\n      0x8c8a2adc\n      eq\n      tag_7\n      jumpi\n      dup1\n      0xc46b0b14\n      eq\n      tag_8\n      jumpi\n      dup1\n      0xe8a25269\n      eq\n      tag_9\n      jumpi\n      jump(tag_2)\n    tag_10:\n      dup1\n      0x15ecd356\n      eq\n      tag_3\n      jumpi\n      dup1\n      0x26942bf0\n      eq\n      tag_4\n      jumpi\n      dup1\n      0x42f40c21\n      eq\n      tag_5\n      jumpi\n    tag_2:\n      revert(0x00, 0x00)\n        /* \"blogs.sol\":1845:2066  function editBlogPost(string memory newTitle, string memory newContent, string memory newDate) public restricted {... */\n    tag_3:\n      tag_11\n      0x04\n      dup1\n      calldatasize\n      sub\n      dup2\n      add\n      swap1\n      tag_12\n      swap2\n      swap1\n      tag_13\n      jump\t// in\n    tag_12:\n      tag_14\n      jump\t// in\n    tag_11:\n      stop\n        /* \"blogs.sol\":1385:1416  string public blogCreatedAtDate */\n    tag_4:\n      tag_15\n      tag_16\n      jump\t// in\n    tag_15:\n      mload(0x40)\n      tag_17\n      swap2\n      swap1\n      tag_18\n      jump\t// in\n    tag_17:\n      mload(0x40)\n      dup1\n      swap2\n      sub\n      swap1\n      return\n        /* \"blogs.sol\":1354:1379  string public blogContent */\n    tag_5:\n      tag_19\n      tag_20\n      jump\t// in\n    tag_19:\n      mload(0x40)\n      tag_21\n      swap2\n      swap1\n      tag_18\n      jump\t// in\n    tag_21:\n      mload(0x40)\n      dup1\n      swap2\n      sub\n      swap1\n      return\n        /* \"blogs.sol\":2395:2598  function getBlogPosts() public view returns(address author, string memory title, string memory content, string memory date) {... */\n    tag_6:\n      tag_22\n      tag_23\n      jump\t// in\n    tag_22:\n      mload(0x40)\n      tag_24\n      swap5\n      swap4\n      swap3\n      swap2\n      swap1\n      tag_25\n      jump\t// in\n    tag_24:\n      mload(0x40)\n      dup1\n      swap2\n      sub\n      swap1\n      return\n        /* \"blogs.sol\":2072:2389  function readBlogPost() external view returns(address author, string memory title, string memory content, string memory date) {... */\n    tag_7:\n      tag_26\n      tag_27\n      jump\t// in\n    tag_26:\n      mload(0x40)\n      tag_28\n      swap5\n      swap4\n      swap3\n      swap2\n      swap1\n      tag_25\n      jump\t// in\n    tag_28:\n      mload(0x40)\n      dup1\n      swap2\n      sub\n      swap1\n      return\n        /* \"blogs.sol\":1294:1319  address public blogAuthor */\n    tag_8:\n      tag_29\n      tag_30\n      jump\t// in\n    tag_29:\n      mload(0x40)\n      tag_31\n      swap2\n      swap1\n      tag_32\n      jump\t// in\n    tag_31:\n      mload(0x40)\n      dup1\n      swap2\n      sub\n      swap1\n      return\n        /* \"blogs.sol\":1325:1348  string public blogTitle */\n    tag_9:\n      tag_33\n      tag_34\n      jump\t// in\n    tag_33:\n      mload(0x40)\n      tag_35\n      swap2\n      swap1\n      tag_18\n      jump\t// in\n    tag_35:\n      mload(0x40)\n      dup1\n      swap2\n      sub\n      swap1\n      return\n        /* \"blogs.sol\":1845:2066  function editBlogPost(string memory newTitle, string memory newContent, string memory newDate) public restricted {... */\n    tag_14:\n        /* \"blogs.sol\":1478:1488  blogAuthor */\n      0x01\n      0x00\n      swap1\n      sload\n      swap1\n      0x0100\n      exp\n      swap1\n      div\n      0xffffffffffffffffffffffffffffffffffffffff\n      and\n        /* \"blogs.sol\":1464:1488  msg.sender == blogAuthor */\n      0xffffffffffffffffffffffffffffffffffffffff\n      and\n        /* \"blogs.sol\":1464:1474  msg.sender */\n      caller\n        /* \"blogs.sol\":1464:1488  msg.sender == blogAuthor */\n      0xffffffffffffffffffffffffffffffffffffffff\n      and\n      eq\n        /* \"blogs.sol\":1456:1518  require(msg.sender == blogAuthor, \"Caller is not the manager\") */\n      tag_37\n      jumpi\n      mload(0x40)\n      0x08c379a000000000000000000000000000000000000000000000000000000000\n      dup2\n      mstore\n      0x04\n      add\n      tag_38\n      swap1\n      tag_39\n      jump\t// in\n    tag_38:\n      mload(0x40)\n      dup1\n      swap2\n      sub\n      swap1\n      revert\n    tag_37:\n        /* \"blogs.sol\":1980:1988  newTitle */\n      dup3\n        /* \"blogs.sol\":1968:1977  blogTitle */\n      0x02\n        /* \"blogs.sol\":1968:1988  blogTitle = newTitle */\n      swap1\n      dup2\n      tag_41\n      swap2\n      swap1\n      tag_42\n      jump\t// in\n    tag_41:\n      pop\n        /* \"blogs.sol\":2012:2022  newContent */\n      dup2\n        /* \"blogs.sol\":1998:2009  blogContent */\n      0x03\n        /* \"blogs.sol\":1998:2022  blogContent = newContent */\n      swap1\n      dup2\n      tag_43\n      swap2\n      swap1\n      tag_42\n      jump\t// in\n    tag_43:\n      pop\n        /* \"blogs.sol\":2052:2059  newDate */\n      dup1\n        /* \"blogs.sol\":2032:2049  blogCreatedAtDate */\n      0x04\n        /* \"blogs.sol\":2032:2059  blogCreatedAtDate = newDate */\n      swap1\n      dup2\n      tag_44\n      swap2\n      swap1\n      tag_42\n      jump\t// in\n    tag_44:\n      pop\n        /* \"blogs.sol\":1845:2066  function editBlogPost(string memory newTitle, string memory newContent, string memory newDate) public restricted {... */\n      pop\n      pop\n      pop\n      jump\t// out\n        /* \"blogs.sol\":1385:1416  string public blogCreatedAtDate */\n    tag_16:\n      0x04\n      dup1\n      sload\n      tag_45\n      swap1\n      tag_46\n      jump\t// in\n    tag_45:\n      dup1\n      0x1f\n      add\n      0x20\n      dup1\n      swap2\n      div\n      mul\n      0x20\n      add\n      mload(0x40)\n      swap1\n      dup2\n      add\n      0x40\n      mstore\n      dup1\n      swap3\n      swap2\n      swap1\n      dup2\n      dup2\n      mstore\n      0x20\n      add\n      dup3\n      dup1\n      sload\n      tag_47\n      swap1\n      tag_46\n      jump\t// in\n    tag_47:\n      dup1\n      iszero\n      tag_48\n      jumpi\n      dup1\n      0x1f\n      lt\n      tag_49\n      jumpi\n      0x0100\n      dup1\n      dup4\n      sload\n      div\n      mul\n      dup4\n      mstore\n      swap2\n      0x20\n      add\n      swap2\n      jump(tag_48)\n    tag_49:\n      dup3\n      add\n      swap2\n      swap1\n      0x00\n      mstore\n      keccak256(0x00, 0x20)\n      swap1\n    tag_50:\n      dup2\n      sload\n      dup2\n      mstore\n      swap1\n      0x01\n      add\n      swap1\n      0x20\n      add\n      dup1\n      dup4\n      gt\n      tag_50\n      jumpi\n      dup3\n      swap1\n      sub\n      0x1f\n      and\n      dup3\n      add\n      swap2\n    tag_48:\n      pop\n      pop\n      pop\n      pop\n      pop\n      dup2\n      jump\t// out\n        /* \"blogs.sol\":1354:1379  string public blogContent */\n    tag_20:\n      0x03\n      dup1\n      sload\n      tag_51\n      swap1\n      tag_46\n      jump\t// in\n    tag_51:\n      dup1\n      0x1f\n      add\n      0x20\n      dup1\n      swap2\n      div\n      mul\n      0x20\n      add\n      mload(0x40)\n      swap1\n      dup2\n      add\n      0x40\n      mstore\n      dup1\n      swap3\n      swap2\n      swap1\n      dup2\n      dup2\n      mstore\n      0x20\n      add\n      dup3\n      dup1\n      sload\n      tag_52\n      swap1\n      tag_46\n      jump\t// in\n    tag_52:\n      dup1\n      iszero\n      tag_53\n      jumpi\n      dup1\n      0x1f\n      lt\n      tag_54\n      jumpi\n      0x0100\n      dup1\n      dup4\n      sload\n      div\n      mul\n      dup4\n      mstore\n      swap2\n      0x20\n      add\n      swap2\n      jump(tag_53)\n    tag_54:\n      dup3\n      add\n      swap2\n      swap1\n      0x00\n      mstore\n      keccak256(0x00, 0x20)\n      swap1\n    tag_55:\n      dup2\n      sload\n      dup2\n      mstore\n      swap1\n      0x01\n      add\n      swap1\n      0x20\n      add\n      dup1\n      dup4\n      gt\n      tag_55\n      jumpi\n      dup3\n      swap1\n      sub\n      0x1f\n      and\n      dup3\n      add\n      swap2\n    tag_53:\n      pop\n      pop\n      pop\n      pop\n      pop\n      dup2\n      jump\t// out\n        /* \"blogs.sol\":2395:2598  function getBlogPosts() public view returns(address author, string memory title, string memory content, string memory date) {... */\n    tag_23:\n        /* \"blogs.sol\":2439:2453  address author */\n      0x00\n        /* \"blogs.sol\":2455:2474  string memory title */\n      0x60\n        /* \"blogs.sol\":2476:2497  string memory content */\n      dup1\n        /* \"blogs.sol\":2499:2517  string memory date */\n      0x60\n        /* \"blogs.sol\":2537:2547  blogAuthor */\n      0x01\n      0x00\n      swap1\n      sload\n      swap1\n      0x0100\n      exp\n      swap1\n      div\n      0xffffffffffffffffffffffffffffffffffffffff\n      and\n        /* \"blogs.sol\":2549:2558  blogTitle */\n      0x02\n        /* \"blogs.sol\":2560:2571  blogContent */\n      0x03\n        /* \"blogs.sol\":2573:2590  blogCreatedAtDate */\n      0x04\n        /* \"blogs.sol\":2529:2591  return (blogAuthor, blogTitle, blogContent, blogCreatedAtDate) */\n      dup3\n      dup1\n      sload\n      tag_57\n      swap1\n      tag_46\n      jump\t// in\n    tag_57:\n      dup1\n      0x1f\n      add\n      0x20\n      dup1\n      swap2\n      div\n      mul\n      0x20\n      add\n      mload(0x40)\n      swap1\n      dup2\n      add\n      0x40\n      mstore\n      dup1\n      swap3\n      swap2\n      swap1\n      dup2\n      dup2\n      mstore\n      0x20\n      add\n      dup3\n      dup1\n      sload\n      tag_58\n      swap1\n      tag_46\n      jump\t// in\n    tag_58:\n      dup1\n      iszero\n      tag_59\n      jumpi\n      dup1\n      0x1f\n      lt\n      tag_60\n      jumpi\n      0x0100\n      dup1\n      dup4\n      sload\n      div\n      mul\n      dup4\n      mstore\n      swap2\n      0x20\n      add\n      swap2\n      jump(tag_59)\n    tag_60:\n      dup3\n      add\n      swap2\n      swap1\n      0x00\n      mstore\n      keccak256(0x00, 0x20)\n      swap1\n    tag_61:\n      dup2\n      sload\n      dup2\n      mstore\n      swap1\n      0x01\n      add\n      swap1\n      0x20\n      add\n      dup1\n      dup4\n      gt\n      tag_61\n      jumpi\n      dup3\n      swap1\n      sub\n      0x1f\n      and\n      dup3\n      add\n      swap2\n    tag_59:\n      pop\n      pop\n      pop\n      pop\n      pop\n      swap3\n      pop\n      dup2\n      dup1\n      sload\n      tag_62\n      swap1\n      tag_46\n      jump\t// in\n    tag_62:\n      dup1\n      0x1f\n      add\n      0x20\n      dup1\n      swap2\n      div\n      mul\n      0x20\n      add\n      mload(0x40)\n      swap1\n      dup2\n      add\n      0x40\n      mstore\n      dup1\n      swap3\n      swap2\n      swap1\n      dup2\n      dup2\n      mstore\n      0x20\n      add\n      dup3\n      dup1\n      sload\n      tag_63\n      swap1\n      tag_46\n      jump\t// in\n    tag_63:\n      dup1\n      iszero\n      tag_64\n      jumpi\n      dup1\n      0x1f\n      lt\n      tag_65\n      jumpi\n      0x0100\n      dup1\n      dup4\n      sload\n      div\n      mul\n      dup4\n      mstore\n      swap2\n      0x20\n      add\n      swap2\n      jump(tag_64)\n    tag_65:\n      dup3\n      add\n      swap2\n      swap1\n      0x00\n      mstore\n      keccak256(0x00, 0x20)\n      swap1\n    tag_66:\n      dup2\n      sload\n      dup2\n      mstore\n      swap1\n      0x01\n      add\n      swap1\n      0x20\n      add\n      dup1\n      dup4\n      gt\n      tag_66\n      jumpi\n      dup3\n      swap1\n      sub\n      0x1f\n      and\n      dup3\n      add\n      swap2\n    tag_64:\n      pop\n      pop\n      pop\n      pop\n      pop\n      swap2\n      pop\n      dup1\n      dup1\n      sload\n      tag_67\n      swap1\n      tag_46\n      jump\t// in\n    tag_67:\n      dup1\n      0x1f\n      add\n      0x20\n      dup1\n      swap2\n      div\n      mul\n      0x20\n      add\n      mload(0x40)\n      swap1\n      dup2\n      add\n      0x40\n      mstore\n      dup1\n      swap3\n      swap2\n      swap1\n      dup2\n      dup2\n      mstore\n      0x20\n      add\n      dup3\n      dup1\n      sload\n      tag_68\n      swap1\n      tag_46\n      jump\t// in\n    tag_68:\n      dup1\n      iszero\n      tag_69\n      jumpi\n      dup1\n      0x1f\n      lt\n      tag_70\n      jumpi\n      0x0100\n      dup1\n      dup4\n      sload\n      div\n      mul\n      dup4\n      mstore\n      swap2\n      0x20\n      add\n      swap2\n      jump(tag_69)\n    tag_70:\n      dup3\n      add\n      swap2\n      swap1\n      0x00\n      mstore\n      keccak256(0x00, 0x20)\n      swap1\n    tag_71:\n      dup2\n      sload\n      dup2\n      mstore\n      swap1\n      0x01\n      add\n      swap1\n      0x20\n      add\n      dup1\n      dup4\n      gt\n      tag_71\n      jumpi\n      dup3\n      swap1\n      sub\n      0x1f\n      and\n      dup3\n      add\n      swap2\n    tag_69:\n      pop\n      pop\n      pop\n      pop\n      pop\n      swap1\n      pop\n      swap4\n      pop\n      swap4\n      pop\n      swap4\n      pop\n      swap4\n      pop\n        /* \"blogs.sol\":2395:2598  function getBlogPosts() public view returns(address author, string memory title, string memory content, string memory date) {... */\n      swap1\n      swap2\n      swap3\n      swap4\n      jump\t// out\n        /* \"blogs.sol\":2072:2389  function readBlogPost() external view returns(address author, string memory title, string memory content, string memory date) {... */\n    tag_27:\n        /* \"blogs.sol\":2118:2132  address author */\n      0x00\n        /* \"blogs.sol\":2134:2153  string memory title */\n      0x60\n        /* \"blogs.sol\":2155:2176  string memory content */\n      dup1\n        /* \"blogs.sol\":2178:2196  string memory date */\n      0x60\n        /* \"blogs.sol\":2216:2223  factory */\n      0x00\n      0x00\n      swap1\n      sload\n      swap1\n      0x0100\n      exp\n      swap1\n      div\n      0xffffffffffffffffffffffffffffffffffffffff\n      and\n        /* \"blogs.sol\":2216:2244  factory.isSubscribedToAuthor */\n      0xffffffffffffffffffffffffffffffffffffffff\n      and\n      0x85d481f3\n        /* \"blogs.sol\":2245:2255  blogAuthor */\n      0x01\n      0x00\n      swap1\n      sload\n      swap1\n      0x0100\n      exp\n      swap1\n      div\n      0xffffffffffffffffffffffffffffffffffffffff\n      and\n        /* \"blogs.sol\":2257:2267  msg.sender */\n      caller\n        /* \"blogs.sol\":2216:2268  factory.isSubscribedToAuthor(blogAuthor, msg.sender) */\n      mload(0x40)\n      dup4\n      0xffffffff\n      and\n      0xe0\n      shl\n      dup2\n      mstore\n      0x04\n      add\n      tag_73\n      swap3\n      swap2\n      swap1\n      tag_74\n      jump\t// in\n    tag_73:\n      0x20\n      mload(0x40)\n      dup1\n      dup4\n      sub\n      dup2\n      dup7\n      gas\n      staticcall\n      iszero\n      dup1\n      iszero\n      tag_76\n      jumpi\n      returndatacopy(0x00, 0x00, returndatasize)\n      revert(0x00, returndatasize)\n    tag_76:\n      pop\n      pop\n      pop\n      pop\n      mload(0x40)\n      returndatasize\n      not(0x1f)\n      0x1f\n      dup3\n      add\n      and\n      dup3\n      add\n      dup1\n      0x40\n      mstore\n      pop\n      dup2\n      add\n      swap1\n      tag_77\n      swap2\n      swap1\n      tag_78\n      jump\t// in\n    tag_77:\n        /* \"blogs.sol\":2208:2310  require(factory.isSubscribedToAuthor(blogAuthor, msg.sender), \"User is not subscribed to this author\") */\n      tag_79\n      jumpi\n      mload(0x40)\n      0x08c379a000000000000000000000000000000000000000000000000000000000\n      dup2\n      mstore\n      0x04\n      add\n      tag_80\n      swap1\n      tag_81\n      jump\t// in\n    tag_80:\n      mload(0x40)\n      dup1\n      swap2\n      sub\n      swap1\n      revert\n    tag_79:\n        /* \"blogs.sol\":2328:2338  blogAuthor */\n      0x01\n      0x00\n      swap1\n      sload\n      swap1\n      0x0100\n      exp\n      swap1\n      div\n      0xffffffffffffffffffffffffffffffffffffffff\n      and\n        /* \"blogs.sol\":2340:2349  blogTitle */\n      0x02\n        /* \"blogs.sol\":2351:2362  blogContent */\n      0x03\n        /* \"blogs.sol\":2364:2381  blogCreatedAtDate */\n      0x04\n        /* \"blogs.sol\":2320:2382  return (blogAuthor, blogTitle, blogContent, blogCreatedAtDate) */\n      dup3\n      dup1\n      sload\n      tag_82\n      swap1\n      tag_46\n      jump\t// in\n    tag_82:\n      dup1\n      0x1f\n      add\n      0x20\n      dup1\n      swap2\n      div\n      mul\n      0x20\n      add\n      mload(0x40)\n      swap1\n      dup2\n      add\n      0x40\n      mstore\n      dup1\n      swap3\n      swap2\n      swap1\n      dup2\n      dup2\n      mstore\n      0x20\n      add\n      dup3\n      dup1\n      sload\n      tag_83\n      swap1\n      tag_46\n      jump\t// in\n    tag_83:\n      dup1\n      iszero\n      tag_84\n      jumpi\n      dup1\n      0x1f\n      lt\n      tag_85\n      jumpi\n      0x0100\n      dup1\n      dup4\n      sload\n      div\n      mul\n      dup4\n      mstore\n      swap2\n      0x20\n      add\n      swap2\n      jump(tag_84)\n    tag_85:\n      dup3\n      add\n      swap2\n      swap1\n      0x00\n      mstore\n      keccak256(0x00, 0x20)\n      swap1\n    tag_86:\n      dup2\n      sload\n      dup2\n      mstore\n      swap1\n      0x01\n      add\n      swap1\n      0x20\n      add\n      dup1\n      dup4\n      gt\n      tag_86\n      jumpi\n      dup3\n      swap1\n      sub\n      0x1f\n      and\n      dup3\n      add\n      swap2\n    tag_84:\n      pop\n      pop\n      pop\n      pop\n      pop\n      swap3\n      pop\n      dup2\n      dup1\n      sload\n      tag_87\n      swap1\n      tag_46\n      jump\t// in\n    tag_87:\n      dup1\n      0x1f\n      add\n      0x20\n      dup1\n      swap2\n      div\n      mul\n      0x20\n      add\n      mload(0x40)\n      swap1\n      dup2\n      add\n      0x40\n      mstore\n      dup1\n      swap3\n      swap2\n      swap1\n      dup2\n      dup2\n      mstore\n      0x20\n      add\n      dup3\n      dup1\n      sload\n      tag_88\n      swap1\n      tag_46\n      jump\t// in\n    tag_88:\n      dup1\n      iszero\n      tag_89\n      jumpi\n      dup1\n      0x1f\n      lt\n      tag_90\n      jumpi\n      0x0100\n      dup1\n      dup4\n      sload\n      div\n      mul\n      dup4\n      mstore\n      swap2\n      0x20\n      add\n      swap2\n      jump(tag_89)\n    tag_90:\n      dup3\n      add\n      swap2\n      swap1\n      0x00\n      mstore\n      keccak256(0x00, 0x20)\n      swap1\n    tag_91:\n      dup2\n      sload\n      dup2\n      mstore\n      swap1\n      0x01\n      add\n      swap1\n      0x20\n      add\n      dup1\n      dup4\n      gt\n      tag_91\n      jumpi\n      dup3\n      swap1\n      sub\n      0x1f\n      and\n      dup3\n      add\n      swap2\n    tag_89:\n      pop\n      pop\n      pop\n      pop\n      pop\n      swap2\n      pop\n      dup1\n      dup1\n      sload\n      tag_92\n      swap1\n      tag_46\n      jump\t// in\n    tag_92:\n      dup1\n      0x1f\n      add\n      0x20\n      dup1\n      swap2\n      div\n      mul\n      0x20\n      add\n      mload(0x40)\n      swap1\n      dup2\n      add\n      0x40\n      mstore\n      dup1\n      swap3\n      swap2\n      swap1\n      dup2\n      dup2\n      mstore\n      0x20\n      add\n      dup3\n      dup1\n      sload\n      tag_93\n      swap1\n      tag_46\n      jump\t// in\n    tag_93:\n      dup1\n      iszero\n      tag_94\n      jumpi\n      dup1\n      0x1f\n      lt\n      tag_95\n      jumpi\n      0x0100\n      dup1\n      dup4\n      sload\n      div\n      mul\n      dup4\n      mstore\n      swap2\n      0x20\n      add\n      swap2\n      jump(tag_94)\n    tag_95:\n      dup3\n      add\n      swap2\n      swap1\n      0x00\n      mstore\n      keccak256(0x00, 0x20)\n      swap1\n    tag_96:\n      dup2\n      sload\n      dup2\n      mstore\n      swap1\n      0x01\n      add\n      swap1\n      0x20\n      add\n      dup1\n      dup4\n      gt\n      tag_96\n      jumpi\n      dup3\n      swap1\n      sub\n      0x1f\n      and\n      dup3\n      add\n      swap2\n    tag_94:\n      pop\n      pop\n      pop\n      pop\n      pop\n      swap1\n      pop\n      swap4\n      pop\n      swap4\n      pop\n      swap4\n      pop\n      swap4\n      pop\n        /* \"blogs.sol\":2072:2389  function readBlogPost() external view returns(address author, string memory title, string memory content, string memory date) {... */\n      swap1\n      swap2\n      swap3\n      swap4\n      jump\t// out\n        /* \"blogs.sol\":1294:1319  address public blogAuthor */\n    tag_30:\n      0x01\n      0x00\n      swap1\n      sload\n      swap1\n      0x0100\n      exp\n      swap1\n      div\n      0xffffffffffffffffffffffffffffffffffffffff\n      and\n      dup2\n      jump\t// out\n        /* \"blogs.sol\":1325:1348  string public blogTitle */\n    tag_34:\n      0x02\n      dup1\n      sload\n      tag_97\n      swap1\n      tag_46\n      jump\t// in\n    tag_97:\n      dup1\n      0x1f\n      add\n      0x20\n      dup1\n      swap2\n      div\n      mul\n      0x20\n      add\n      mload(0x40)\n      swap1\n      dup2\n      add\n      0x40\n      mstore\n      dup1\n      swap3\n      swap2\n      swap1\n      dup2\n      dup2\n      mstore\n      0x20\n      add\n      dup3\n      dup1\n      sload\n      tag_98\n      swap1\n      tag_46\n      jump\t// in\n    tag_98:\n      dup1\n      iszero\n      tag_99\n      jumpi\n      dup1\n      0x1f\n      lt\n      tag_100\n      jumpi\n      0x0100\n      dup1\n      dup4\n      sload\n      div\n      mul\n      dup4\n      mstore\n      swap2\n      0x20\n      add\n      swap2\n      jump(tag_99)\n    tag_100:\n      dup3\n      add\n      swap2\n      swap1\n      0x00\n      mstore\n      keccak256(0x00, 0x20)\n      swap1\n    tag_101:\n      dup2\n      sload\n      dup2\n      mstore\n      swap1\n      0x01\n      add\n      swap1\n      0x20\n      add\n      dup1\n      dup4\n      gt\n      tag_101\n      jumpi\n      dup3\n      swap1\n      sub\n      0x1f\n      and\n      dup3\n      add\n      swap2\n    tag_99:\n      pop\n      pop\n      pop\n      pop\n      pop\n      dup2\n      jump\t// out\n        /* \"#utility.yul\":7:82   */\n    tag_102:\n        /* \"#utility.yul\":40:46   */\n      0x00\n        /* \"#utility.yul\":73:75   */\n      0x40\n        /* \"#utility.yul\":67:76   */\n      mload\n        /* \"#utility.yul\":57:76   */\n      swap1\n      pop\n        /* \"#utility.yul\":7:82   */\n      swap1\n      jump\t// out\n        /* \"#utility.yul\":88:205   */\n    tag_103:\n        /* \"#utility.yul\":197:198   */\n      0x00\n        /* \"#utility.yul\":194:195   */\n      0x00\n        /* \"#utility.yul\":187:199   */\n      revert\n        /* \"#utility.yul\":211:328   */\n    tag_104:\n        /* \"#utility.yul\":320:321   */\n      0x00\n        /* \"#utility.yul\":317:318   */\n      0x00\n        /* \"#utility.yul\":310:322   */\n      revert\n        /* \"#utility.yul\":334:451   */\n    tag_105:\n        /* \"#utility.yul\":443:444   */\n      0x00\n        /* \"#utility.yul\":440:441   */\n      0x00\n        /* \"#utility.yul\":433:445   */\n      revert\n        /* \"#utility.yul\":457:574   */\n    tag_106:\n        /* \"#utility.yul\":566:567   */\n      0x00\n        /* \"#utility.yul\":563:564   */\n      0x00\n        /* \"#utility.yul\":556:568   */\n      revert\n        /* \"#utility.yul\":580:682   */\n    tag_107:\n        /* \"#utility.yul\":621:627   */\n      0x00\n        /* \"#utility.yul\":672:674   */\n      0x1f\n        /* \"#utility.yul\":668:675   */\n      not\n        /* \"#utility.yul\":663:665   */\n      0x1f\n        /* \"#utility.yul\":656:661   */\n      dup4\n        /* \"#utility.yul\":652:666   */\n      add\n        /* \"#utility.yul\":648:676   */\n      and\n        /* \"#utility.yul\":638:676   */\n      swap1\n      pop\n        /* \"#utility.yul\":580:682   */\n      swap2\n      swap1\n      pop\n      jump\t// out\n        /* \"#utility.yul\":688:868   */\n    tag_108:\n        /* \"#utility.yul\":736:813   */\n      0x4e487b7100000000000000000000000000000000000000000000000000000000\n        /* \"#utility.yul\":733:734   */\n      0x00\n        /* \"#utility.yul\":726:814   */\n      mstore\n        /* \"#utility.yul\":833:837   */\n      0x41\n        /* \"#utility.yul\":830:831   */\n      0x04\n        /* \"#utility.yul\":823:838   */\n      mstore\n        /* \"#utility.yul\":857:861   */\n      0x24\n        /* \"#utility.yul\":854:855   */\n      0x00\n        /* \"#utility.yul\":847:862   */\n      revert\n        /* \"#utility.yul\":874:1155   */\n    tag_109:\n        /* \"#utility.yul\":957:984   */\n      tag_155\n        /* \"#utility.yul\":979:983   */\n      dup3\n        /* \"#utility.yul\":957:984   */\n      tag_107\n      jump\t// in\n    tag_155:\n        /* \"#utility.yul\":949:955   */\n      dup2\n        /* \"#utility.yul\":945:985   */\n      add\n        /* \"#utility.yul\":1087:1093   */\n      dup2\n        /* \"#utility.yul\":1075:1085   */\n      dup2\n        /* \"#utility.yul\":1072:1094   */\n      lt\n        /* \"#utility.yul\":1051:1069   */\n      0xffffffffffffffff\n        /* \"#utility.yul\":1039:1049   */\n      dup3\n        /* \"#utility.yul\":1036:1070   */\n      gt\n        /* \"#utility.yul\":1033:1095   */\n      or\n        /* \"#utility.yul\":1030:1118   */\n      iszero\n      tag_156\n      jumpi\n        /* \"#utility.yul\":1098:1116   */\n      tag_157\n      tag_108\n      jump\t// in\n    tag_157:\n        /* \"#utility.yul\":1030:1118   */\n    tag_156:\n        /* \"#utility.yul\":1138:1148   */\n      dup1\n        /* \"#utility.yul\":1134:1136   */\n      0x40\n        /* \"#utility.yul\":1127:1149   */\n      mstore\n        /* \"#utility.yul\":917:1155   */\n      pop\n        /* \"#utility.yul\":874:1155   */\n      pop\n      pop\n      jump\t// out\n        /* \"#utility.yul\":1161:1290   */\n    tag_110:\n        /* \"#utility.yul\":1195:1201   */\n      0x00\n        /* \"#utility.yul\":1222:1242   */\n      tag_159\n      tag_102\n      jump\t// in\n    tag_159:\n        /* \"#utility.yul\":1212:1242   */\n      swap1\n      pop\n        /* \"#utility.yul\":1251:1284   */\n      tag_160\n        /* \"#utility.yul\":1279:1283   */\n      dup3\n        /* \"#utility.yul\":1271:1277   */\n      dup3\n        /* \"#utility.yul\":1251:1284   */\n      tag_109\n      jump\t// in\n    tag_160:\n        /* \"#utility.yul\":1161:1290   */\n      swap2\n      swap1\n      pop\n      jump\t// out\n        /* \"#utility.yul\":1296:1604   */\n    tag_111:\n        /* \"#utility.yul\":1358:1362   */\n      0x00\n        /* \"#utility.yul\":1448:1466   */\n      0xffffffffffffffff\n        /* \"#utility.yul\":1440:1446   */\n      dup3\n        /* \"#utility.yul\":1437:1467   */\n      gt\n        /* \"#utility.yul\":1434:1490   */\n      iszero\n      tag_162\n      jumpi\n        /* \"#utility.yul\":1470:1488   */\n      tag_163\n      tag_108\n      jump\t// in\n    tag_163:\n        /* \"#utility.yul\":1434:1490   */\n    tag_162:\n        /* \"#utility.yul\":1508:1537   */\n      tag_164\n        /* \"#utility.yul\":1530:1536   */\n      dup3\n        /* \"#utility.yul\":1508:1537   */\n      tag_107\n      jump\t// in\n    tag_164:\n        /* \"#utility.yul\":1500:1537   */\n      swap1\n      pop\n        /* \"#utility.yul\":1592:1596   */\n      0x20\n        /* \"#utility.yul\":1586:1590   */\n      dup2\n        /* \"#utility.yul\":1582:1597   */\n      add\n        /* \"#utility.yul\":1574:1597   */\n      swap1\n      pop\n        /* \"#utility.yul\":1296:1604   */\n      swap2\n      swap1\n      pop\n      jump\t// out\n        /* \"#utility.yul\":1610:1758   */\n    tag_112:\n        /* \"#utility.yul\":1708:1714   */\n      dup3\n        /* \"#utility.yul\":1703:1706   */\n      dup2\n        /* \"#utility.yul\":1698:1701   */\n      dup4\n        /* \"#utility.yul\":1685:1715   */\n      calldatacopy\n        /* \"#utility.yul\":1749:1750   */\n      0x00\n        /* \"#utility.yul\":1740:1746   */\n      dup4\n        /* \"#utility.yul\":1735:1738   */\n      dup4\n        /* \"#utility.yul\":1731:1747   */\n      add\n        /* \"#utility.yul\":1724:1751   */\n      mstore\n        /* \"#utility.yul\":1610:1758   */\n      pop\n      pop\n      pop\n      jump\t// out\n        /* \"#utility.yul\":1764:2189   */\n    tag_113:\n        /* \"#utility.yul\":1842:1847   */\n      0x00\n        /* \"#utility.yul\":1867:1933   */\n      tag_167\n        /* \"#utility.yul\":1883:1932   */\n      tag_168\n        /* \"#utility.yul\":1925:1931   */\n      dup5\n        /* \"#utility.yul\":1883:1932   */\n      tag_111\n      jump\t// in\n    tag_168:\n        /* \"#utility.yul\":1867:1933   */\n      tag_110\n      jump\t// in\n    tag_167:\n        /* \"#utility.yul\":1858:1933   */\n      swap1\n      pop\n        /* \"#utility.yul\":1956:1962   */\n      dup3\n        /* \"#utility.yul\":1949:1954   */\n      dup2\n        /* \"#utility.yul\":1942:1963   */\n      mstore\n        /* \"#utility.yul\":1994:1998   */\n      0x20\n        /* \"#utility.yul\":1987:1992   */\n      dup2\n        /* \"#utility.yul\":1983:1999   */\n      add\n        /* \"#utility.yul\":2032:2035   */\n      dup5\n        /* \"#utility.yul\":2023:2029   */\n      dup5\n        /* \"#utility.yul\":2018:2021   */\n      dup5\n        /* \"#utility.yul\":2014:2030   */\n      add\n        /* \"#utility.yul\":2011:2036   */\n      gt\n        /* \"#utility.yul\":2008:2120   */\n      iszero\n      tag_169\n      jumpi\n        /* \"#utility.yul\":2039:2118   */\n      tag_170\n      tag_106\n      jump\t// in\n    tag_170:\n        /* \"#utility.yul\":2008:2120   */\n    tag_169:\n        /* \"#utility.yul\":2129:2183   */\n      tag_171\n        /* \"#utility.yul\":2176:2182   */\n      dup5\n        /* \"#utility.yul\":2171:2174   */\n      dup3\n        /* \"#utility.yul\":2166:2169   */\n      dup6\n        /* \"#utility.yul\":2129:2183   */\n      tag_112\n      jump\t// in\n    tag_171:\n        /* \"#utility.yul\":1848:2189   */\n      pop\n        /* \"#utility.yul\":1764:2189   */\n      swap4\n      swap3\n      pop\n      pop\n      pop\n      jump\t// out\n        /* \"#utility.yul\":2209:2549   */\n    tag_114:\n        /* \"#utility.yul\":2265:2270   */\n      0x00\n        /* \"#utility.yul\":2314:2317   */\n      dup3\n        /* \"#utility.yul\":2307:2311   */\n      0x1f\n        /* \"#utility.yul\":2299:2305   */\n      dup4\n        /* \"#utility.yul\":2295:2312   */\n      add\n        /* \"#utility.yul\":2291:2318   */\n      slt\n        /* \"#utility.yul\":2281:2403   */\n      tag_173\n      jumpi\n        /* \"#utility.yul\":2322:2401   */\n      tag_174\n      tag_105\n      jump\t// in\n    tag_174:\n        /* \"#utility.yul\":2281:2403   */\n    tag_173:\n        /* \"#utility.yul\":2439:2445   */\n      dup2\n        /* \"#utility.yul\":2426:2446   */\n      calldataload\n        /* \"#utility.yul\":2464:2543   */\n      tag_175\n        /* \"#utility.yul\":2539:2542   */\n      dup5\n        /* \"#utility.yul\":2531:2537   */\n      dup3\n        /* \"#utility.yul\":2524:2528   */\n      0x20\n        /* \"#utility.yul\":2516:2522   */\n      dup7\n        /* \"#utility.yul\":2512:2529   */\n      add\n        /* \"#utility.yul\":2464:2543   */\n      tag_113\n      jump\t// in\n    tag_175:\n        /* \"#utility.yul\":2455:2543   */\n      swap2\n      pop\n        /* \"#utility.yul\":2271:2549   */\n      pop\n        /* \"#utility.yul\":2209:2549   */\n      swap3\n      swap2\n      pop\n      pop\n      jump\t// out\n        /* \"#utility.yul\":2555:3714   */\n    tag_13:\n        /* \"#utility.yul\":2662:2668   */\n      0x00\n        /* \"#utility.yul\":2670:2676   */\n      0x00\n        /* \"#utility.yul\":2678:2684   */\n      0x00\n        /* \"#utility.yul\":2727:2729   */\n      0x60\n        /* \"#utility.yul\":2715:2724   */\n      dup5\n        /* \"#utility.yul\":2706:2713   */\n      dup7\n        /* \"#utility.yul\":2702:2725   */\n      sub\n        /* \"#utility.yul\":2698:2730   */\n      slt\n        /* \"#utility.yul\":2695:2814   */\n      iszero\n      tag_177\n      jumpi\n        /* \"#utility.yul\":2733:2812   */\n      tag_178\n      tag_103\n      jump\t// in\n    tag_178:\n        /* \"#utility.yul\":2695:2814   */\n    tag_177:\n        /* \"#utility.yul\":2881:2882   */\n      0x00\n        /* \"#utility.yul\":2870:2879   */\n      dup5\n        /* \"#utility.yul\":2866:2883   */\n      add\n        /* \"#utility.yul\":2853:2884   */\n      calldataload\n        /* \"#utility.yul\":2911:2929   */\n      0xffffffffffffffff\n        /* \"#utility.yul\":2903:2909   */\n      dup2\n        /* \"#utility.yul\":2900:2930   */\n      gt\n        /* \"#utility.yul\":2897:3014   */\n      iszero\n      tag_179\n      jumpi\n        /* \"#utility.yul\":2933:3012   */\n      tag_180\n      tag_104\n      jump\t// in\n    tag_180:\n        /* \"#utility.yul\":2897:3014   */\n    tag_179:\n        /* \"#utility.yul\":3038:3101   */\n      tag_181\n        /* \"#utility.yul\":3093:3100   */\n      dup7\n        /* \"#utility.yul\":3084:3090   */\n      dup3\n        /* \"#utility.yul\":3073:3082   */\n      dup8\n        /* \"#utility.yul\":3069:3091   */\n      add\n        /* \"#utility.yul\":3038:3101   */\n      tag_114\n      jump\t// in\n    tag_181:\n        /* \"#utility.yul\":3028:3101   */\n      swap4\n      pop\n        /* \"#utility.yul\":2824:3111   */\n      pop\n        /* \"#utility.yul\":3178:3180   */\n      0x20\n        /* \"#utility.yul\":3167:3176   */\n      dup5\n        /* \"#utility.yul\":3163:3181   */\n      add\n        /* \"#utility.yul\":3150:3182   */\n      calldataload\n        /* \"#utility.yul\":3209:3227   */\n      0xffffffffffffffff\n        /* \"#utility.yul\":3201:3207   */\n      dup2\n        /* \"#utility.yul\":3198:3228   */\n      gt\n        /* \"#utility.yul\":3195:3312   */\n      iszero\n      tag_182\n      jumpi\n        /* \"#utility.yul\":3231:3310   */\n      tag_183\n      tag_104\n      jump\t// in\n    tag_183:\n        /* \"#utility.yul\":3195:3312   */\n    tag_182:\n        /* \"#utility.yul\":3336:3399   */\n      tag_184\n        /* \"#utility.yul\":3391:3398   */\n      dup7\n        /* \"#utility.yul\":3382:3388   */\n      dup3\n        /* \"#utility.yul\":3371:3380   */\n      dup8\n        /* \"#utility.yul\":3367:3389   */\n      add\n        /* \"#utility.yul\":3336:3399   */\n      tag_114\n      jump\t// in\n    tag_184:\n        /* \"#utility.yul\":3326:3399   */\n      swap3\n      pop\n        /* \"#utility.yul\":3121:3409   */\n      pop\n        /* \"#utility.yul\":3476:3478   */\n      0x40\n        /* \"#utility.yul\":3465:3474   */\n      dup5\n        /* \"#utility.yul\":3461:3479   */\n      add\n        /* \"#utility.yul\":3448:3480   */\n      calldataload\n        /* \"#utility.yul\":3507:3525   */\n      0xffffffffffffffff\n        /* \"#utility.yul\":3499:3505   */\n      dup2\n        /* \"#utility.yul\":3496:3526   */\n      gt\n        /* \"#utility.yul\":3493:3610   */\n      iszero\n      tag_185\n      jumpi\n        /* \"#utility.yul\":3529:3608   */\n      tag_186\n      tag_104\n      jump\t// in\n    tag_186:\n        /* \"#utility.yul\":3493:3610   */\n    tag_185:\n        /* \"#utility.yul\":3634:3697   */\n      tag_187\n        /* \"#utility.yul\":3689:3696   */\n      dup7\n        /* \"#utility.yul\":3680:3686   */\n      dup3\n        /* \"#utility.yul\":3669:3678   */\n      dup8\n        /* \"#utility.yul\":3665:3687   */\n      add\n        /* \"#utility.yul\":3634:3697   */\n      tag_114\n      jump\t// in\n    tag_187:\n        /* \"#utility.yul\":3624:3697   */\n      swap2\n      pop\n        /* \"#utility.yul\":3419:3707   */\n      pop\n        /* \"#utility.yul\":2555:3714   */\n      swap3\n      pop\n      swap3\n      pop\n      swap3\n      jump\t// out\n        /* \"#utility.yul\":3720:3819   */\n    tag_115:\n        /* \"#utility.yul\":3772:3778   */\n      0x00\n        /* \"#utility.yul\":3806:3811   */\n      dup2\n        /* \"#utility.yul\":3800:3812   */\n      mload\n        /* \"#utility.yul\":3790:3812   */\n      swap1\n      pop\n        /* \"#utility.yul\":3720:3819   */\n      swap2\n      swap1\n      pop\n      jump\t// out\n        /* \"#utility.yul\":3825:3994   */\n    tag_116:\n        /* \"#utility.yul\":3909:3920   */\n      0x00\n        /* \"#utility.yul\":3943:3949   */\n      dup3\n        /* \"#utility.yul\":3938:3941   */\n      dup3\n        /* \"#utility.yul\":3931:3950   */\n      mstore\n        /* \"#utility.yul\":3983:3987   */\n      0x20\n        /* \"#utility.yul\":3978:3981   */\n      dup3\n        /* \"#utility.yul\":3974:3988   */\n      add\n        /* \"#utility.yul\":3959:3988   */\n      swap1\n      pop\n        /* \"#utility.yul\":3825:3994   */\n      swap3\n      swap2\n      pop\n      pop\n      jump\t// out\n        /* \"#utility.yul\":4000:4139   */\n    tag_117:\n        /* \"#utility.yul\":4089:4095   */\n      dup3\n        /* \"#utility.yul\":4084:4087   */\n      dup2\n        /* \"#utility.yul\":4079:4082   */\n      dup4\n        /* \"#utility.yul\":4073:4096   */\n      mcopy\n        /* \"#utility.yul\":4130:4131   */\n      0x00\n        /* \"#utility.yul\":4121:4127   */\n      dup4\n        /* \"#utility.yul\":4116:4119   */\n      dup4\n        /* \"#utility.yul\":4112:4128   */\n      add\n        /* \"#utility.yul\":4105:4132   */\n      mstore\n        /* \"#utility.yul\":4000:4139   */\n      pop\n      pop\n      pop\n      jump\t// out\n        /* \"#utility.yul\":4145:4522   */\n    tag_118:\n        /* \"#utility.yul\":4233:4236   */\n      0x00\n        /* \"#utility.yul\":4261:4300   */\n      tag_192\n        /* \"#utility.yul\":4294:4299   */\n      dup3\n        /* \"#utility.yul\":4261:4300   */\n      tag_115\n      jump\t// in\n    tag_192:\n        /* \"#utility.yul\":4316:4387   */\n      tag_193\n        /* \"#utility.yul\":4380:4386   */\n      dup2\n        /* \"#utility.yul\":4375:4378   */\n      dup6\n        /* \"#utility.yul\":4316:4387   */\n      tag_116\n      jump\t// in\n    tag_193:\n        /* \"#utility.yul\":4309:4387   */\n      swap4\n      pop\n        /* \"#utility.yul\":4396:4461   */\n      tag_194\n        /* \"#utility.yul\":4454:4460   */\n      dup2\n        /* \"#utility.yul\":4449:4452   */\n      dup6\n        /* \"#utility.yul\":4442:4446   */\n      0x20\n        /* \"#utility.yul\":4435:4440   */\n      dup7\n        /* \"#utility.yul\":4431:4447   */\n      add\n        /* \"#utility.yul\":4396:4461   */\n      tag_117\n      jump\t// in\n    tag_194:\n        /* \"#utility.yul\":4486:4515   */\n      tag_195\n        /* \"#utility.yul\":4508:4514   */\n      dup2\n        /* \"#utility.yul\":4486:4515   */\n      tag_107\n      jump\t// in\n    tag_195:\n        /* \"#utility.yul\":4481:4484   */\n      dup5\n        /* \"#utility.yul\":4477:4516   */\n      add\n        /* \"#utility.yul\":4470:4516   */\n      swap2\n      pop\n        /* \"#utility.yul\":4237:4522   */\n      pop\n        /* \"#utility.yul\":4145:4522   */\n      swap3\n      swap2\n      pop\n      pop\n      jump\t// out\n        /* \"#utility.yul\":4528:4841   */\n    tag_18:\n        /* \"#utility.yul\":4641:4645   */\n      0x00\n        /* \"#utility.yul\":4679:4681   */\n      0x20\n        /* \"#utility.yul\":4668:4677   */\n      dup3\n        /* \"#utility.yul\":4664:4682   */\n      add\n        /* \"#utility.yul\":4656:4682   */\n      swap1\n      pop\n        /* \"#utility.yul\":4728:4737   */\n      dup2\n        /* \"#utility.yul\":4722:4726   */\n      dup2\n        /* \"#utility.yul\":4718:4738   */\n      sub\n        /* \"#utility.yul\":4714:4715   */\n      0x00\n        /* \"#utility.yul\":4703:4712   */\n      dup4\n        /* \"#utility.yul\":4699:4716   */\n      add\n        /* \"#utility.yul\":4692:4739   */\n      mstore\n        /* \"#utility.yul\":4756:4834   */\n      tag_197\n        /* \"#utility.yul\":4829:4833   */\n      dup2\n        /* \"#utility.yul\":4820:4826   */\n      dup5\n        /* \"#utility.yul\":4756:4834   */\n      tag_118\n      jump\t// in\n    tag_197:\n        /* \"#utility.yul\":4748:4834   */\n      swap1\n      pop\n        /* \"#utility.yul\":4528:4841   */\n      swap3\n      swap2\n      pop\n      pop\n      jump\t// out\n        /* \"#utility.yul\":4847:4973   */\n    tag_119:\n        /* \"#utility.yul\":4884:4891   */\n      0x00\n        /* \"#utility.yul\":4924:4966   */\n      0xffffffffffffffffffffffffffffffffffffffff\n        /* \"#utility.yul\":4917:4922   */\n      dup3\n        /* \"#utility.yul\":4913:4967   */\n      and\n        /* \"#utility.yul\":4902:4967   */\n      swap1\n      pop\n        /* \"#utility.yul\":4847:4973   */\n      swap2\n      swap1\n      pop\n      jump\t// out\n        /* \"#utility.yul\":4979:5075   */\n    tag_120:\n        /* \"#utility.yul\":5016:5023   */\n      0x00\n        /* \"#utility.yul\":5045:5069   */\n      tag_200\n        /* \"#utility.yul\":5063:5068   */\n      dup3\n        /* \"#utility.yul\":5045:5069   */\n      tag_119\n      jump\t// in\n    tag_200:\n        /* \"#utility.yul\":5034:5069   */\n      swap1\n      pop\n        /* \"#utility.yul\":4979:5075   */\n      swap2\n      swap1\n      pop\n      jump\t// out\n        /* \"#utility.yul\":5081:5199   */\n    tag_121:\n        /* \"#utility.yul\":5168:5192   */\n      tag_202\n        /* \"#utility.yul\":5186:5191   */\n      dup2\n        /* \"#utility.yul\":5168:5192   */\n      tag_120\n      jump\t// in\n    tag_202:\n        /* \"#utility.yul\":5163:5166   */\n      dup3\n        /* \"#utility.yul\":5156:5193   */\n      mstore\n        /* \"#utility.yul\":5081:5199   */\n      pop\n      pop\n      jump\t// out\n        /* \"#utility.yul\":5205:6031   */\n    tag_25:\n        /* \"#utility.yul\":5442:5446   */\n      0x00\n        /* \"#utility.yul\":5480:5483   */\n      0x80\n        /* \"#utility.yul\":5469:5478   */\n      dup3\n        /* \"#utility.yul\":5465:5484   */\n      add\n        /* \"#utility.yul\":5457:5484   */\n      swap1\n      pop\n        /* \"#utility.yul\":5494:5565   */\n      tag_204\n        /* \"#utility.yul\":5562:5563   */\n      0x00\n        /* \"#utility.yul\":5551:5560   */\n      dup4\n        /* \"#utility.yul\":5547:5564   */\n      add\n        /* \"#utility.yul\":5538:5544   */\n      dup8\n        /* \"#utility.yul\":5494:5565   */\n      tag_121\n      jump\t// in\n    tag_204:\n        /* \"#utility.yul\":5612:5621   */\n      dup2\n        /* \"#utility.yul\":5606:5610   */\n      dup2\n        /* \"#utility.yul\":5602:5622   */\n      sub\n        /* \"#utility.yul\":5597:5599   */\n      0x20\n        /* \"#utility.yul\":5586:5595   */\n      dup4\n        /* \"#utility.yul\":5582:5600   */\n      add\n        /* \"#utility.yul\":5575:5623   */\n      mstore\n        /* \"#utility.yul\":5640:5718   */\n      tag_205\n        /* \"#utility.yul\":5713:5717   */\n      dup2\n        /* \"#utility.yul\":5704:5710   */\n      dup7\n        /* \"#utility.yul\":5640:5718   */\n      tag_118\n      jump\t// in\n    tag_205:\n        /* \"#utility.yul\":5632:5718   */\n      swap1\n      pop\n        /* \"#utility.yul\":5765:5774   */\n      dup2\n        /* \"#utility.yul\":5759:5763   */\n      dup2\n        /* \"#utility.yul\":5755:5775   */\n      sub\n        /* \"#utility.yul\":5750:5752   */\n      0x40\n        /* \"#utility.yul\":5739:5748   */\n      dup4\n        /* \"#utility.yul\":5735:5753   */\n      add\n        /* \"#utility.yul\":5728:5776   */\n      mstore\n        /* \"#utility.yul\":5793:5871   */\n      tag_206\n        /* \"#utility.yul\":5866:5870   */\n      dup2\n        /* \"#utility.yul\":5857:5863   */\n      dup6\n        /* \"#utility.yul\":5793:5871   */\n      tag_118\n      jump\t// in\n    tag_206:\n        /* \"#utility.yul\":5785:5871   */\n      swap1\n      pop\n        /* \"#utility.yul\":5918:5927   */\n      dup2\n        /* \"#utility.yul\":5912:5916   */\n      dup2\n        /* \"#utility.yul\":5908:5928   */\n      sub\n        /* \"#utility.yul\":5903:5905   */\n      0x60\n        /* \"#utility.yul\":5892:5901   */\n      dup4\n        /* \"#utility.yul\":5888:5906   */\n      add\n        /* \"#utility.yul\":5881:5929   */\n      mstore\n        /* \"#utility.yul\":5946:6024   */\n      tag_207\n        /* \"#utility.yul\":6019:6023   */\n      dup2\n        /* \"#utility.yul\":6010:6016   */\n      dup5\n        /* \"#utility.yul\":5946:6024   */\n      tag_118\n      jump\t// in\n    tag_207:\n        /* \"#utility.yul\":5938:6024   */\n      swap1\n      pop\n        /* \"#utility.yul\":5205:6031   */\n      swap6\n      swap5\n      pop\n      pop\n      pop\n      pop\n      pop\n      jump\t// out\n        /* \"#utility.yul\":6037:6259   */\n    tag_32:\n        /* \"#utility.yul\":6130:6134   */\n      0x00\n        /* \"#utility.yul\":6168:6170   */\n      0x20\n        /* \"#utility.yul\":6157:6166   */\n      dup3\n        /* \"#utility.yul\":6153:6171   */\n      add\n        /* \"#utility.yul\":6145:6171   */\n      swap1\n      pop\n        /* \"#utility.yul\":6181:6252   */\n      tag_209\n        /* \"#utility.yul\":6249:6250   */\n      0x00\n        /* \"#utility.yul\":6238:6247   */\n      dup4\n        /* \"#utility.yul\":6234:6251   */\n      add\n        /* \"#utility.yul\":6225:6231   */\n      dup5\n        /* \"#utility.yul\":6181:6252   */\n      tag_121\n      jump\t// in\n    tag_209:\n        /* \"#utility.yul\":6037:6259   */\n      swap3\n      swap2\n      pop\n      pop\n      jump\t// out\n        /* \"#utility.yul\":6265:6440   */\n    tag_122:\n        /* \"#utility.yul\":6405:6432   */\n      0x43616c6c6572206973206e6f7420746865206d616e6167657200000000000000\n        /* \"#utility.yul\":6401:6402   */\n      0x00\n        /* \"#utility.yul\":6393:6399   */\n      dup3\n        /* \"#utility.yul\":6389:6403   */\n      add\n        /* \"#utility.yul\":6382:6433   */\n      mstore\n        /* \"#utility.yul\":6265:6440   */\n      pop\n      jump\t// out\n        /* \"#utility.yul\":6446:6812   */\n    tag_123:\n        /* \"#utility.yul\":6588:6591   */\n      0x00\n        /* \"#utility.yul\":6609:6676   */\n      tag_212\n        /* \"#utility.yul\":6673:6675   */\n      0x19\n        /* \"#utility.yul\":6668:6671   */\n      dup4\n        /* \"#utility.yul\":6609:6676   */\n      tag_116\n      jump\t// in\n    tag_212:\n        /* \"#utility.yul\":6602:6676   */\n      swap2\n      pop\n        /* \"#utility.yul\":6685:6778   */\n      tag_213\n        /* \"#utility.yul\":6774:6777   */\n      dup3\n        /* \"#utility.yul\":6685:6778   */\n      tag_122\n      jump\t// in\n    tag_213:\n        /* \"#utility.yul\":6803:6805   */\n      0x20\n        /* \"#utility.yul\":6798:6801   */\n      dup3\n        /* \"#utility.yul\":6794:6806   */\n      add\n        /* \"#utility.yul\":6787:6806   */\n      swap1\n      pop\n        /* \"#utility.yul\":6446:6812   */\n      swap2\n      swap1\n      pop\n      jump\t// out\n        /* \"#utility.yul\":6818:7237   */\n    tag_39:\n        /* \"#utility.yul\":6984:6988   */\n      0x00\n        /* \"#utility.yul\":7022:7024   */\n      0x20\n        /* \"#utility.yul\":7011:7020   */\n      dup3\n        /* \"#utility.yul\":7007:7025   */\n      add\n        /* \"#utility.yul\":6999:7025   */\n      swap1\n      pop\n        /* \"#utility.yul\":7071:7080   */\n      dup2\n        /* \"#utility.yul\":7065:7069   */\n      dup2\n        /* \"#utility.yul\":7061:7081   */\n      sub\n        /* \"#utility.yul\":7057:7058   */\n      0x00\n        /* \"#utility.yul\":7046:7055   */\n      dup4\n        /* \"#utility.yul\":7042:7059   */\n      add\n        /* \"#utility.yul\":7035:7082   */\n      mstore\n        /* \"#utility.yul\":7099:7230   */\n      tag_215\n        /* \"#utility.yul\":7225:7229   */\n      dup2\n        /* \"#utility.yul\":7099:7230   */\n      tag_123\n      jump\t// in\n    tag_215:\n        /* \"#utility.yul\":7091:7230   */\n      swap1\n      pop\n        /* \"#utility.yul\":6818:7237   */\n      swap2\n      swap1\n      pop\n      jump\t// out\n        /* \"#utility.yul\":7243:7423   */\n    tag_124:\n        /* \"#utility.yul\":7291:7368   */\n      0x4e487b7100000000000000000000000000000000000000000000000000000000\n        /* \"#utility.yul\":7288:7289   */\n      0x00\n        /* \"#utility.yul\":7281:7369   */\n      mstore\n        /* \"#utility.yul\":7388:7392   */\n      0x22\n        /* \"#utility.yul\":7385:7386   */\n      0x04\n        /* \"#utility.yul\":7378:7393   */\n      mstore\n        /* \"#utility.yul\":7412:7416   */\n      0x24\n        /* \"#utility.yul\":7409:7410   */\n      0x00\n        /* \"#utility.yul\":7402:7417   */\n      revert\n        /* \"#utility.yul\":7429:7749   */\n    tag_46:\n        /* \"#utility.yul\":7473:7479   */\n      0x00\n        /* \"#utility.yul\":7510:7511   */\n      0x02\n        /* \"#utility.yul\":7504:7508   */\n      dup3\n        /* \"#utility.yul\":7500:7512   */\n      div\n        /* \"#utility.yul\":7490:7512   */\n      swap1\n      pop\n        /* \"#utility.yul\":7557:7558   */\n      0x01\n        /* \"#utility.yul\":7551:7555   */\n      dup3\n        /* \"#utility.yul\":7547:7559   */\n      and\n        /* \"#utility.yul\":7578:7596   */\n      dup1\n        /* \"#utility.yul\":7568:7649   */\n      tag_218\n      jumpi\n        /* \"#utility.yul\":7634:7638   */\n      0x7f\n        /* \"#utility.yul\":7626:7632   */\n      dup3\n        /* \"#utility.yul\":7622:7639   */\n      and\n        /* \"#utility.yul\":7612:7639   */\n      swap2\n      pop\n        /* \"#utility.yul\":7568:7649   */\n    tag_218:\n        /* \"#utility.yul\":7696:7698   */\n      0x20\n        /* \"#utility.yul\":7688:7694   */\n      dup3\n        /* \"#utility.yul\":7685:7699   */\n      lt\n        /* \"#utility.yul\":7665:7683   */\n      dup2\n        /* \"#utility.yul\":7662:7700   */\n      sub\n        /* \"#utility.yul\":7659:7743   */\n      tag_219\n      jumpi\n        /* \"#utility.yul\":7715:7733   */\n      tag_220\n      tag_124\n      jump\t// in\n    tag_220:\n        /* \"#utility.yul\":7659:7743   */\n    tag_219:\n        /* \"#utility.yul\":7480:7749   */\n      pop\n        /* \"#utility.yul\":7429:7749   */\n      swap2\n      swap1\n      pop\n      jump\t// out\n        /* \"#utility.yul\":7755:7896   */\n    tag_125:\n        /* \"#utility.yul\":7804:7808   */\n      0x00\n        /* \"#utility.yul\":7827:7830   */\n      dup2\n        /* \"#utility.yul\":7819:7830   */\n      swap1\n      pop\n        /* \"#utility.yul\":7850:7853   */\n      dup2\n        /* \"#utility.yul\":7847:7848   */\n      0x00\n        /* \"#utility.yul\":7840:7854   */\n      mstore\n        /* \"#utility.yul\":7884:7888   */\n      0x20\n        /* \"#utility.yul\":7881:7882   */\n      0x00\n        /* \"#utility.yul\":7871:7889   */\n      keccak256\n        /* \"#utility.yul\":7863:7889   */\n      swap1\n      pop\n        /* \"#utility.yul\":7755:7896   */\n      swap2\n      swap1\n      pop\n      jump\t// out\n        /* \"#utility.yul\":7902:7995   */\n    tag_126:\n        /* \"#utility.yul\":7939:7945   */\n      0x00\n        /* \"#utility.yul\":7986:7988   */\n      0x20\n        /* \"#utility.yul\":7981:7983   */\n      0x1f\n        /* \"#utility.yul\":7974:7979   */\n      dup4\n        /* \"#utility.yul\":7970:7984   */\n      add\n        /* \"#utility.yul\":7966:7989   */\n      div\n        /* \"#utility.yul\":7956:7989   */\n      swap1\n      pop\n        /* \"#utility.yul\":7902:7995   */\n      swap2\n      swap1\n      pop\n      jump\t// out\n        /* \"#utility.yul\":8001:8108   */\n    tag_127:\n        /* \"#utility.yul\":8045:8053   */\n      0x00\n        /* \"#utility.yul\":8095:8100   */\n      dup3\n        /* \"#utility.yul\":8089:8093   */\n      dup3\n        /* \"#utility.yul\":8085:8101   */\n      shl\n        /* \"#utility.yul\":8064:8101   */\n      swap1\n      pop\n        /* \"#utility.yul\":8001:8108   */\n      swap3\n      swap2\n      pop\n      pop\n      jump\t// out\n        /* \"#utility.yul\":8114:8507   */\n    tag_128:\n        /* \"#utility.yul\":8183:8189   */\n      0x00\n        /* \"#utility.yul\":8233:8234   */\n      0x08\n        /* \"#utility.yul\":8221:8231   */\n      dup4\n        /* \"#utility.yul\":8217:8235   */\n      mul\n        /* \"#utility.yul\":8256:8353   */\n      tag_225\n        /* \"#utility.yul\":8286:8352   */\n      0xffffffffffffffffffffffffffffffffffffffffffffffffffffffffffffffff\n        /* \"#utility.yul\":8275:8284   */\n      dup3\n        /* \"#utility.yul\":8256:8353   */\n      tag_127\n      jump\t// in\n    tag_225:\n        /* \"#utility.yul\":8374:8413   */\n      tag_226\n        /* \"#utility.yul\":8404:8412   */\n      dup7\n        /* \"#utility.yul\":8393:8402   */\n      dup4\n        /* \"#utility.yul\":8374:8413   */\n      tag_127\n      jump\t// in\n    tag_226:\n        /* \"#utility.yul\":8362:8413   */\n      swap6\n      pop\n        /* \"#utility.yul\":8446:8450   */\n      dup1\n        /* \"#utility.yul\":8442:8451   */\n      not\n        /* \"#utility.yul\":8435:8440   */\n      dup5\n        /* \"#utility.yul\":8431:8452   */\n      and\n        /* \"#utility.yul\":8422:8452   */\n      swap4\n      pop\n        /* \"#utility.yul\":8495:8499   */\n      dup1\n        /* \"#utility.yul\":8485:8493   */\n      dup7\n        /* \"#utility.yul\":8481:8500   */\n      and\n        /* \"#utility.yul\":8474:8479   */\n      dup5\n        /* \"#utility.yul\":8471:8501   */\n      or\n        /* \"#utility.yul\":8461:8501   */\n      swap3\n      pop\n        /* \"#utility.yul\":8190:8507   */\n      pop\n      pop\n        /* \"#utility.yul\":8114:8507   */\n      swap4\n      swap3\n      pop\n      pop\n      pop\n      jump\t// out\n        /* \"#utility.yul\":8513:8590   */\n    tag_129:\n        /* \"#utility.yul\":8550:8557   */\n      0x00\n        /* \"#utility.yul\":8579:8584   */\n      dup2\n        /* \"#utility.yul\":8568:8584   */\n      swap1\n      pop\n        /* \"#utility.yul\":8513:8590   */\n      swap2\n      swap1\n      pop\n      jump\t// out\n        /* \"#utility.yul\":8596:8656   */\n    tag_130:\n        /* \"#utility.yul\":8624:8627   */\n      0x00\n        /* \"#utility.yul\":8645:8650   */\n      dup2\n        /* \"#utility.yul\":8638:8650   */\n      swap1\n      pop\n        /* \"#utility.yul\":8596:8656   */\n      swap2\n      swap1\n      pop\n      jump\t// out\n        /* \"#utility.yul\":8662:8804   */\n    tag_131:\n        /* \"#utility.yul\":8712:8721   */\n      0x00\n        /* \"#utility.yul\":8745:8798   */\n      tag_230\n        /* \"#utility.yul\":8763:8797   */\n      tag_231\n        /* \"#utility.yul\":8772:8796   */\n      tag_232\n        /* \"#utility.yul\":8790:8795   */\n      dup5\n        /* \"#utility.yul\":8772:8796   */\n      tag_129\n      jump\t// in\n    tag_232:\n        /* \"#utility.yul\":8763:8797   */\n      tag_130\n      jump\t// in\n    tag_231:\n        /* \"#utility.yul\":8745:8798   */\n      tag_129\n      jump\t// in\n    tag_230:\n        /* \"#utility.yul\":8732:8798   */\n      swap1\n      pop\n        /* \"#utility.yul\":8662:8804   */\n      swap2\n      swap1\n      pop\n      jump\t// out\n        /* \"#utility.yul\":8810:8885   */\n    tag_132:\n        /* \"#utility.yul\":8853:8856   */\n      0x00\n        /* \"#utility.yul\":8874:8879   */\n      dup2\n        /* \"#utility.yul\":8867:8879   */\n      swap1\n      pop\n        /* \"#utility.yul\":8810:8885   */\n      swap2\n      swap1\n      pop\n      jump\t// out\n        /* \"#utility.yul\":8891:9160   */\n    tag_133:\n        /* \"#utility.yul\":9001:9040   */\n      tag_235\n        /* \"#utility.yul\":9032:9039   */\n      dup4\n        /* \"#utility.yul\":9001:9040   */\n      tag_131\n      jump\t// in\n    tag_235:\n        /* \"#utility.yul\":9062:9153   */\n      tag_236\n        /* \"#utility.yul\":9111:9152   */\n      tag_237\n        /* \"#utility.yul\":9135:9151   */\n      dup3\n        /* \"#utility.yul\":9111:9152   */\n      tag_132\n      jump\t// in\n    tag_237:\n        /* \"#utility.yul\":9103:9109   */\n      dup5\n        /* \"#utility.yul\":9096:9100   */\n      dup5\n        /* \"#utility.yul\":9090:9101   */\n      sload\n        /* \"#utility.yul\":9062:9153   */\n      tag_128\n      jump\t// in\n    tag_236:\n        /* \"#utility.yul\":9056:9060   */\n      dup3\n        /* \"#utility.yul\":9049:9154   */\n      sstore\n        /* \"#utility.yul\":8967:9160   */\n      pop\n        /* \"#utility.yul\":8891:9160   */\n      pop\n      pop\n      pop\n      jump\t// out\n        /* \"#utility.yul\":9166:9239   */\n    tag_134:\n        /* \"#utility.yul\":9211:9214   */\n      0x00\n        /* \"#utility.yul\":9232:9233   */\n      0x00\n        /* \"#utility.yul\":9225:9233   */\n      swap1\n      pop\n        /* \"#utility.yul\":9166:9239   */\n      swap1\n      jump\t// out\n        /* \"#utility.yul\":9245:9434   */\n    tag_135:\n        /* \"#utility.yul\":9322:9354   */\n      tag_240\n      tag_134\n      jump\t// in\n    tag_240:\n        /* \"#utility.yul\":9363:9428   */\n      tag_241\n        /* \"#utility.yul\":9421:9427   */\n      dup2\n        /* \"#utility.yul\":9413:9419   */\n      dup5\n        /* \"#utility.yul\":9407:9411   */\n      dup5\n        /* \"#utility.yul\":9363:9428   */\n      tag_133\n      jump\t// in\n    tag_241:\n        /* \"#utility.yul\":9298:9434   */\n      pop\n        /* \"#utility.yul\":9245:9434   */\n      pop\n      pop\n      jump\t// out\n        /* \"#utility.yul\":9440:9626   */\n    tag_136:\n        /* \"#utility.yul\":9500:9620   */\n    tag_243:\n        /* \"#utility.yul\":9517:9520   */\n      dup2\n        /* \"#utility.yul\":9510:9515   */\n      dup2\n        /* \"#utility.yul\":9507:9521   */\n      lt\n        /* \"#utility.yul\":9500:9620   */\n      iszero\n      tag_245\n      jumpi\n        /* \"#utility.yul\":9571:9610   */\n      tag_246\n        /* \"#utility.yul\":9608:9609   */\n      0x00\n        /* \"#utility.yul\":9601:9606   */\n      dup3\n        /* \"#utility.yul\":9571:9610   */\n      tag_135\n      jump\t// in\n    tag_246:\n        /* \"#utility.yul\":9544:9545   */\n      0x01\n        /* \"#utility.yul\":9537:9542   */\n      dup2\n        /* \"#utility.yul\":9533:9546   */\n      add\n        /* \"#utility.yul\":9524:9546   */\n      swap1\n      pop\n        /* \"#utility.yul\":9500:9620   */\n      jump(tag_243)\n    tag_245:\n        /* \"#utility.yul\":9440:9626   */\n      pop\n      pop\n      jump\t// out\n        /* \"#utility.yul\":9632:10175   */\n    tag_137:\n        /* \"#utility.yul\":9733:9735   */\n      0x1f\n        /* \"#utility.yul\":9728:9731   */\n      dup3\n        /* \"#utility.yul\":9725:9736   */\n      gt\n        /* \"#utility.yul\":9722:10168   */\n      iszero\n      tag_248\n      jumpi\n        /* \"#utility.yul\":9767:9805   */\n      tag_249\n        /* \"#utility.yul\":9799:9804   */\n      dup2\n        /* \"#utility.yul\":9767:9805   */\n      tag_125\n      jump\t// in\n    tag_249:\n        /* \"#utility.yul\":9851:9880   */\n      tag_250\n        /* \"#utility.yul\":9869:9879   */\n      dup5\n        /* \"#utility.yul\":9851:9880   */\n      tag_126\n      jump\t// in\n    tag_250:\n        /* \"#utility.yul\":9841:9849   */\n      dup2\n        /* \"#utility.yul\":9837:9881   */\n      add\n        /* \"#utility.yul\":10034:10036   */\n      0x20\n        /* \"#utility.yul\":10022:10032   */\n      dup6\n        /* \"#utility.yul\":10019:10037   */\n      lt\n        /* \"#utility.yul\":10016:10065   */\n      iszero\n      tag_251\n      jumpi\n        /* \"#utility.yul\":10055:10063   */\n      dup2\n        /* \"#utility.yul\":10040:10063   */\n      swap1\n      pop\n        /* \"#utility.yul\":10016:10065   */\n    tag_251:\n        /* \"#utility.yul\":10078:10158   */\n      tag_252\n        /* \"#utility.yul\":10134:10156   */\n      tag_253\n        /* \"#utility.yul\":10152:10155   */\n      dup6\n        /* \"#utility.yul\":10134:10156   */\n      tag_126\n      jump\t// in\n    tag_253:\n        /* \"#utility.yul\":10124:10132   */\n      dup4\n        /* \"#utility.yul\":10120:10157   */\n      add\n        /* \"#utility.yul\":10107:10118   */\n      dup3\n        /* \"#utility.yul\":10078:10158   */\n      tag_136\n      jump\t// in\n    tag_252:\n        /* \"#utility.yul\":9737:10168   */\n      pop\n      pop\n        /* \"#utility.yul\":9722:10168   */\n    tag_248:\n        /* \"#utility.yul\":9632:10175   */\n      pop\n      pop\n      pop\n      jump\t// out\n        /* \"#utility.yul\":10181:10298   */\n    tag_138:\n        /* \"#utility.yul\":10235:10243   */\n      0x00\n        /* \"#utility.yul\":10285:10290   */\n      dup3\n        /* \"#utility.yul\":10279:10283   */\n      dup3\n        /* \"#utility.yul\":10275:10291   */\n      shr\n        /* \"#utility.yul\":10254:10291   */\n      swap1\n      pop\n        /* \"#utility.yul\":10181:10298   */\n      swap3\n      swap2\n      pop\n      pop\n      jump\t// out\n        /* \"#utility.yul\":10304:10473   */\n    tag_139:\n        /* \"#utility.yul\":10348:10354   */\n      0x00\n        /* \"#utility.yul\":10381:10432   */\n      tag_256\n        /* \"#utility.yul\":10429:10430   */\n      0x00\n        /* \"#utility.yul\":10425:10431   */\n      not\n        /* \"#utility.yul\":10417:10422   */\n      dup5\n        /* \"#utility.yul\":10414:10415   */\n      0x08\n        /* \"#utility.yul\":10410:10423   */\n      mul\n        /* \"#utility.yul\":10381:10432   */\n      tag_138\n      jump\t// in\n    tag_256:\n        /* \"#utility.yul\":10377:10433   */\n      not\n        /* \"#utility.yul\":10462:10466   */\n      dup1\n        /* \"#utility.yul\":10456:10460   */\n      dup4\n        /* \"#utility.yul\":10452:10467   */\n      and\n        /* \"#utility.yul\":10442:10467   */\n      swap2\n      pop\n        /* \"#utility.yul\":10355:10473   */\n      pop\n        /* \"#utility.yul\":10304:10473   */\n      swap3\n      swap2\n      pop\n      pop\n      jump\t// out\n        /* \"#utility.yul\":10478:10773   */\n    tag_140:\n        /* \"#utility.yul\":10554:10558   */\n      0x00\n        /* \"#utility.yul\":10700:10729   */\n      tag_258\n        /* \"#utility.yul\":10725:10728   */\n      dup4\n        /* \"#utility.yul\":10719:10723   */\n      dup4\n        /* \"#utility.yul\":10700:10729   */\n      tag_139\n      jump\t// in\n    tag_258:\n        /* \"#utility.yul\":10692:10729   */\n      swap2\n      pop\n        /* \"#utility.yul\":10762:10765   */\n      dup3\n        /* \"#utility.yul\":10759:10760   */\n      0x02\n        /* \"#utility.yul\":10755:10766   */\n      mul\n        /* \"#utility.yul\":10749:10753   */\n      dup3\n        /* \"#utility.yul\":10746:10767   */\n      or\n        /* \"#utility.yul\":10738:10767   */\n      swap1\n      pop\n        /* \"#utility.yul\":10478:10773   */\n      swap3\n      swap2\n      pop\n      pop\n      jump\t// out\n        /* \"#utility.yul\":10778:12173   */\n    tag_42:\n        /* \"#utility.yul\":10895:10932   */\n      tag_260\n        /* \"#utility.yul\":10928:10931   */\n      dup3\n        /* \"#utility.yul\":10895:10932   */\n      tag_115\n      jump\t// in\n    tag_260:\n        /* \"#utility.yul\":10997:11015   */\n      0xffffffffffffffff\n        /* \"#utility.yul\":10989:10995   */\n      dup2\n        /* \"#utility.yul\":10986:11016   */\n      gt\n        /* \"#utility.yul\":10983:11039   */\n      iszero\n      tag_261\n      jumpi\n        /* \"#utility.yul\":11019:11037   */\n      tag_262\n      tag_108\n      jump\t// in\n    tag_262:\n        /* \"#utility.yul\":10983:11039   */\n    tag_261:\n        /* \"#utility.yul\":11063:11101   */\n      tag_263\n        /* \"#utility.yul\":11095:11099   */\n      dup3\n        /* \"#utility.yul\":11089:11100   */\n      sload\n        /* \"#utility.yul\":11063:11101   */\n      tag_46\n      jump\t// in\n    tag_263:\n        /* \"#utility.yul\":11148:11215   */\n      tag_264\n        /* \"#utility.yul\":11208:11214   */\n      dup3\n        /* \"#utility.yul\":11200:11206   */\n      dup3\n        /* \"#utility.yul\":11194:11198   */\n      dup6\n        /* \"#utility.yul\":11148:11215   */\n      tag_137\n      jump\t// in\n    tag_264:\n        /* \"#utility.yul\":11242:11243   */\n      0x00\n        /* \"#utility.yul\":11266:11270   */\n      0x20\n        /* \"#utility.yul\":11253:11270   */\n      swap1\n      pop\n        /* \"#utility.yul\":11298:11300   */\n      0x1f\n        /* \"#utility.yul\":11290:11296   */\n      dup4\n        /* \"#utility.yul\":11287:11301   */\n      gt\n        /* \"#utility.yul\":11315:11316   */\n      0x01\n        /* \"#utility.yul\":11310:11928   */\n      dup2\n      eq\n      tag_266\n      jumpi\n        /* \"#utility.yul\":11972:11973   */\n      0x00\n        /* \"#utility.yul\":11989:11995   */\n      dup5\n        /* \"#utility.yul\":11986:12063   */\n      iszero\n      tag_267\n      jumpi\n        /* \"#utility.yul\":12038:12047   */\n      dup3\n        /* \"#utility.yul\":12033:12036   */\n      dup8\n        /* \"#utility.yul\":12029:12048   */\n      add\n        /* \"#utility.yul\":12023:12049   */\n      mload\n        /* \"#utility.yul\":12014:12049   */\n      swap1\n      pop\n        /* \"#utility.yul\":11986:12063   */\n    tag_267:\n        /* \"#utility.yul\":12089:12156   */\n      tag_268\n        /* \"#utility.yul\":12149:12155   */\n      dup6\n        /* \"#utility.yul\":12142:12147   */\n      dup3\n        /* \"#utility.yul\":12089:12156   */\n      tag_140\n      jump\t// in\n    tag_268:\n        /* \"#utility.yul\":12083:12087   */\n      dup7\n        /* \"#utility.yul\":12076:12157   */\n      sstore\n        /* \"#utility.yul\":11945:12167   */\n      pop\n        /* \"#utility.yul\":11280:12167   */\n      jump(tag_265)\n        /* \"#utility.yul\":11310:11928   */\n    tag_266:\n        /* \"#utility.yul\":11362:11366   */\n      0x1f\n        /* \"#utility.yul\":11358:11367   */\n      not\n        /* \"#utility.yul\":11350:11356   */\n      dup5\n        /* \"#utility.yul\":11346:11368   */\n      and\n        /* \"#utility.yul\":11396:11433   */\n      tag_269\n        /* \"#utility.yul\":11428:11432   */\n      dup7\n        /* \"#utility.yul\":11396:11433   */\n      tag_125\n      jump\t// in\n    tag_269:\n        /* \"#utility.yul\":11455:11456   */\n      0x00\n        /* \"#utility.yul\":11469:11677   */\n    tag_270:\n        /* \"#utility.yul\":11483:11490   */\n      dup3\n        /* \"#utility.yul\":11480:11481   */\n      dup2\n        /* \"#utility.yul\":11477:11491   */\n      lt\n        /* \"#utility.yul\":11469:11677   */\n      iszero\n      tag_272\n      jumpi\n        /* \"#utility.yul\":11562:11571   */\n      dup5\n        /* \"#utility.yul\":11557:11560   */\n      dup10\n        /* \"#utility.yul\":11553:11572   */\n      add\n        /* \"#utility.yul\":11547:11573   */\n      mload\n        /* \"#utility.yul\":11539:11545   */\n      dup3\n        /* \"#utility.yul\":11532:11574   */\n      sstore\n        /* \"#utility.yul\":11613:11614   */\n      0x01\n        /* \"#utility.yul\":11605:11611   */\n      dup3\n        /* \"#utility.yul\":11601:11615   */\n      add\n        /* \"#utility.yul\":11591:11615   */\n      swap2\n      pop\n        /* \"#utility.yul\":11660:11662   */\n      0x20\n        /* \"#utility.yul\":11649:11658   */\n      dup6\n        /* \"#utility.yul\":11645:11663   */\n      add\n        /* \"#utility.yul\":11632:11663   */\n      swap5\n      pop\n        /* \"#utility.yul\":11506:11510   */\n      0x20\n        /* \"#utility.yul\":11503:11504   */\n      dup2\n        /* \"#utility.yul\":11499:11511   */\n      add\n        /* \"#utility.yul\":11494:11511   */\n      swap1\n      pop\n        /* \"#utility.yul\":11469:11677   */\n      jump(tag_270)\n    tag_272:\n        /* \"#utility.yul\":11705:11711   */\n      dup7\n        /* \"#utility.yul\":11696:11703   */\n      dup4\n        /* \"#utility.yul\":11693:11712   */\n      lt\n        /* \"#utility.yul\":11690:11869   */\n      iszero\n      tag_273\n      jumpi\n        /* \"#utility.yul\":11763:11772   */\n      dup5\n        /* \"#utility.yul\":11758:11761   */\n      dup10\n        /* \"#utility.yul\":11754:11773   */\n      add\n        /* \"#utility.yul\":11748:11774   */\n      mload\n        /* \"#utility.yul\":11806:11854   */\n      tag_274\n        /* \"#utility.yul\":11848:11852   */\n      0x1f\n        /* \"#utility.yul\":11840:11846   */\n      dup10\n        /* \"#utility.yul\":11836:11853   */\n      and\n        /* \"#utility.yul\":11825:11834   */\n      dup3\n        /* \"#utility.yul\":11806:11854   */\n      tag_139\n      jump\t// in\n    tag_274:\n        /* \"#utility.yul\":11798:11804   */\n      dup4\n        /* \"#utility.yul\":11791:11855   */\n      sstore\n        /* \"#utility.yul\":11713:11869   */\n      pop\n        /* \"#utility.yul\":11690:11869   */\n    tag_273:\n        /* \"#utility.yul\":11915:11916   */\n      0x01\n        /* \"#utility.yul\":11911:11912   */\n      0x02\n        /* \"#utility.yul\":11903:11909   */\n      dup9\n        /* \"#utility.yul\":11899:11913   */\n      mul\n        /* \"#utility.yul\":11895:11917   */\n      add\n        /* \"#utility.yul\":11889:11893   */\n      dup9\n        /* \"#utility.yul\":11882:11918   */\n      sstore\n        /* \"#utility.yul\":11317:11928   */\n      pop\n      pop\n      pop\n        /* \"#utility.yul\":11280:12167   */\n    tag_265:\n      pop\n        /* \"#utility.yul\":10870:12173   */\n      pop\n      pop\n      pop\n        /* \"#utility.yul\":10778:12173   */\n      pop\n      pop\n      jump\t// out\n        /* \"#utility.yul\":12179:12511   */\n    tag_74:\n        /* \"#utility.yul\":12300:12304   */\n      0x00\n        /* \"#utility.yul\":12338:12340   */\n      0x40\n        /* \"#utility.yul\":12327:12336   */\n      dup3\n        /* \"#utility.yul\":12323:12341   */\n      add\n        /* \"#utility.yul\":12315:12341   */\n      swap1\n      pop\n        /* \"#utility.yul\":12351:12422   */\n      tag_276\n        /* \"#utility.yul\":12419:12420   */\n      0x00\n        /* \"#utility.yul\":12408:12417   */\n      dup4\n        /* \"#utility.yul\":12404:12421   */\n      add\n        /* \"#utility.yul\":12395:12401   */\n      dup6\n        /* \"#utility.yul\":12351:12422   */\n      tag_121\n      jump\t// in\n    tag_276:\n        /* \"#utility.yul\":12432:12504   */\n      tag_277\n        /* \"#utility.yul\":12500:12502   */\n      0x20\n        /* \"#utility.yul\":12489:12498   */\n      dup4\n        /* \"#utility.yul\":12485:12503   */\n      add\n        /* \"#utility.yul\":12476:12482   */\n      dup5\n        /* \"#utility.yul\":12432:12504   */\n      tag_121\n      jump\t// in\n    tag_277:\n        /* \"#utility.yul\":12179:12511   */\n      swap4\n      swap3\n      pop\n      pop\n      pop\n      jump\t// out\n        /* \"#utility.yul\":12517:12607   */\n    tag_141:\n        /* \"#utility.yul\":12551:12558   */\n      0x00\n        /* \"#utility.yul\":12594:12599   */\n      dup2\n        /* \"#utility.yul\":12587:12600   */\n      iszero\n        /* \"#utility.yul\":12580:12601   */\n      iszero\n        /* \"#utility.yul\":12569:12601   */\n      swap1\n      pop\n        /* \"#utility.yul\":12517:12607   */\n      swap2\n      swap1\n      pop\n      jump\t// out\n        /* \"#utility.yul\":12613:12729   */\n    tag_142:\n        /* \"#utility.yul\":12683:12704   */\n      tag_280\n        /* \"#utility.yul\":12698:12703   */\n      dup2\n        /* \"#utility.yul\":12683:12704   */\n      tag_141\n      jump\t// in\n    tag_280:\n        /* \"#utility.yul\":12676:12681   */\n      dup2\n        /* \"#utility.yul\":12673:12705   */\n      eq\n        /* \"#utility.yul\":12663:12723   */\n      tag_281\n      jumpi\n        /* \"#utility.yul\":12719:12720   */\n      0x00\n        /* \"#utility.yul\":12716:12717   */\n      0x00\n        /* \"#utility.yul\":12709:12721   */\n      revert\n        /* \"#utility.yul\":12663:12723   */\n    tag_281:\n        /* \"#utility.yul\":12613:12729   */\n      pop\n      jump\t// out\n        /* \"#utility.yul\":12735:12872   */\n    tag_143:\n        /* \"#utility.yul\":12789:12794   */\n      0x00\n        /* \"#utility.yul\":12820:12826   */\n      dup2\n        /* \"#utility.yul\":12814:12827   */\n      mload\n        /* \"#utility.yul\":12805:12827   */\n      swap1\n      pop\n        /* \"#utility.yul\":12836:12866   */\n      tag_283\n        /* \"#utility.yul\":12860:12865   */\n      dup2\n        /* \"#utility.yul\":12836:12866   */\n      tag_142\n      jump\t// in\n    tag_283:\n        /* \"#utility.yul\":12735:12872   */\n      swap3\n      swap2\n      pop\n      pop\n      jump\t// out\n        /* \"#utility.yul\":12878:13223   */\n    tag_78:\n        /* \"#utility.yul\":12945:12951   */\n      0x00\n        /* \"#utility.yul\":12994:12996   */\n      0x20\n        /* \"#utility.yul\":12982:12991   */\n      dup3\n        /* \"#utility.yul\":12973:12980   */\n      dup5\n        /* \"#utility.yul\":12969:12992   */\n      sub\n        /* \"#utility.yul\":12965:12997   */\n      slt\n        /* \"#utility.yul\":12962:13081   */\n      iszero\n      tag_285\n      jumpi\n        /* \"#utility.yul\":13000:13079   */\n      tag_286\n      tag_103\n      jump\t// in\n    tag_286:\n        /* \"#utility.yul\":12962:13081   */\n    tag_285:\n        /* \"#utility.yul\":13120:13121   */\n      0x00\n        /* \"#utility.yul\":13145:13206   */\n      tag_287\n        /* \"#utility.yul\":13198:13205   */\n      dup5\n        /* \"#utility.yul\":13189:13195   */\n      dup3\n        /* \"#utility.yul\":13178:13187   */\n      dup6\n        /* \"#utility.yul\":13174:13196   */\n      add\n        /* \"#utility.yul\":13145:13206   */\n      tag_143\n      jump\t// in\n    tag_287:\n        /* \"#utility.yul\":13135:13206   */\n      swap2\n      pop\n        /* \"#utility.yul\":13091:13216   */\n      pop\n        /* \"#utility.yul\":12878:13223   */\n      swap3\n      swap2\n      pop\n      pop\n      jump\t// out\n        /* \"#utility.yul\":13229:13453   */\n    tag_144:\n        /* \"#utility.yul\":13369:13403   */\n      0x55736572206973206e6f74207375627363726962656420746f20746869732061\n        /* \"#utility.yul\":13365:13366   */\n      0x00\n        /* \"#utility.yul\":13357:13363   */\n      dup3\n        /* \"#utility.yul\":13353:13367   */\n      add\n        /* \"#utility.yul\":13346:13404   */\n      mstore\n        /* \"#utility.yul\":13438:13445   */\n      0x7574686f72000000000000000000000000000000000000000000000000000000\n        /* \"#utility.yul\":13433:13435   */\n      0x20\n        /* \"#utility.yul\":13425:13431   */\n      dup3\n        /* \"#utility.yul\":13421:13436   */\n      add\n        /* \"#utility.yul\":13414:13446   */\n      mstore\n        /* \"#utility.yul\":13229:13453   */\n      pop\n      jump\t// out\n        /* \"#utility.yul\":13459:13825   */\n    tag_145:\n        /* \"#utility.yul\":13601:13604   */\n      0x00\n        /* \"#utility.yul\":13622:13689   */\n      tag_290\n        /* \"#utility.yul\":13686:13688   */\n      0x25\n        /* \"#utility.yul\":13681:13684   */\n      dup4\n        /* \"#utility.yul\":13622:13689   */\n      tag_116\n      jump\t// in\n    tag_290:\n        /* \"#utility.yul\":13615:13689   */\n      swap2\n      pop\n        /* \"#utility.yul\":13698:13791   */\n      tag_291\n        /* \"#utility.yul\":13787:13790   */\n      dup3\n        /* \"#utility.yul\":13698:13791   */\n      tag_144\n      jump\t// in\n    tag_291:\n        /* \"#utility.yul\":13816:13818   */\n      0x40\n        /* \"#utility.yul\":13811:13814   */\n      dup3\n        /* \"#utility.yul\":13807:13819   */\n      add\n        /* \"#utility.yul\":13800:13819   */\n      swap1\n      pop\n        /* \"#utility.yul\":13459:13825   */\n      swap2\n      swap1\n      pop\n      jump\t// out\n        /* \"#utility.yul\":13831:14250   */\n    tag_81:\n        /* \"#utility.yul\":13997:14001   */\n      0x00\n        /* \"#utility.yul\":14035:14037   */\n      0x20\n        /* \"#utility.yul\":14024:14033   */\n      dup3\n        /* \"#utility.yul\":14020:14038   */\n      add\n        /* \"#utility.yul\":14012:14038   */\n      swap1\n      pop\n        /* \"#utility.yul\":14084:14093   */\n      dup2\n        /* \"#utility.yul\":14078:14082   */\n      dup2\n        /* \"#utility.yul\":14074:14094   */\n      sub\n        /* \"#utility.yul\":14070:14071   */\n      0x00\n        /* \"#utility.yul\":14059:14068   */\n      dup4\n        /* \"#utility.yul\":14055:14072   */\n      add\n        /* \"#utility.yul\":14048:14095   */\n      mstore\n        /* \"#utility.yul\":14112:14243   */\n      tag_293\n        /* \"#utility.yul\":14238:14242   */\n      dup2\n        /* \"#utility.yul\":14112:14243   */\n      tag_145\n      jump\t// in\n    tag_293:\n        /* \"#utility.yul\":14104:14243   */\n      swap1\n      pop\n        /* \"#utility.yul\":13831:14250   */\n      swap2\n      swap1\n      pop\n      jump\t// out\n\n    auxdata: 0xa264697066735822122082d2b8ddfa0d97ed7fe2324f9c4b7defc3e58333164d6f7cfde8bd45ab4eff7d64736f6c634300081c0033\n}\n","bytecode":{"linkReferences":{},"object":"608060405234801561000f575f5ffd5b5060405161168138038061168183398181016040528101906100319190610291565b845f5f6101000a81548173ffffffffffffffffffffffffffffffffffffffff021916908373ffffffffffffffffffffffffffffffffffffffff1602179055508360015f6101000a81548173ffffffffffffffffffffffffffffffffffffffff021916908373ffffffffffffffffffffffffffffffffffffffff16021790555082600290816100bf919061056c565b5081600390816100cf919061056c565b5080600490816100df919061056c565b50505050505061063b565b5f604051905090565b5f5ffd5b5f5ffd5b5f73ffffffffffffffffffffffffffffffffffffffff82169050919050565b5f610124826100fb565b9050919050565b6101348161011a565b811461013e575f5ffd5b50565b5f8151905061014f8161012b565b92915050565b5f5ffd5b5f5ffd5b5f601f19601f8301169050919050565b7f4e487b71000000000000000000000000000000000000000000000000000000005f52604160045260245ffd5b6101a38261015d565b810181811067ffffffffffffffff821117156101c2576101c161016d565b5b80604052505050565b5f6101d46100ea565b90506101e0828261019a565b919050565b5f67ffffffffffffffff8211156101ff576101fe61016d565b5b6102088261015d565b9050602081019050919050565b8281835e5f83830152505050565b5f610235610230846101e5565b6101cb565b90508281526020810184848401111561025157610250610159565b5b61025c848285610215565b509392505050565b5f82601f83011261027857610277610155565b5b8151610288848260208601610223565b91505092915050565b5f5f5f5f5f60a086880312156102aa576102a96100f3565b5b5f6102b788828901610141565b95505060206102c888828901610141565b945050604086015167ffffffffffffffff8111156102e9576102e86100f7565b5b6102f588828901610264565b935050606086015167ffffffffffffffff811115610316576103156100f7565b5b61032288828901610264565b925050608086015167ffffffffffffffff811115610343576103426100f7565b5b61034f88828901610264565b9150509295509295909350565b5f81519050919050565b7f4e487b71000000000000000000000000000000000000000000000000000000005f52602260045260245ffd5b5f60028204905060018216806103aa57607f821691505b6020821081036103bd576103bc610366565b5b50919050565b5f819050815f5260205f209050919050565b5f6020601f8301049050919050565b5f82821b905092915050565b5f6008830261041f7fffffffffffffffffffffffffffffffffffffffffffffffffffffffffffffffff826103e4565b61042986836103e4565b95508019841693508086168417925050509392505050565b5f819050919050565b5f819050919050565b5f61046d61046861046384610441565b61044a565b610441565b9050919050565b5f819050919050565b61048683610453565b61049a61049282610474565b8484546103f0565b825550505050565b5f5f905090565b6104b16104a2565b6104bc81848461047d565b505050565b5b818110156104df576104d45f826104a9565b6001810190506104c2565b5050565b601f821115610524576104f5816103c3565b6104fe846103d5565b8101602085101561050d578190505b610521610519856103d5565b8301826104c1565b50505b505050565b5f82821c905092915050565b5f6105445f1984600802610529565b1980831691505092915050565b5f61055c8383610535565b9150826002028217905092915050565b6105758261035c565b67ffffffffffffffff81111561058e5761058d61016d565b5b6105988254610393565b6105a38282856104e3565b5f60209050601f8311600181146105d4575f84156105c2578287015190505b6105cc8582610551565b865550610633565b601f1984166105e2866103c3565b5f5b82811015610609578489015182556001820191506020850194506020810190506105e4565b868310156106265784890151610622601f891682610535565b8355505b6001600288020188555050505b505050505050565b611039806106485f395ff3fe608060405234801561000f575f5ffd5b506004361061007b575f3560e01c80635e8ae07d116100595780635e8ae07d146100d75780638c8a2adc146100f8578063c46b0b1414610119578063e8a25269146101375761007b565b806315ecd3561461007f57806326942bf01461009b57806342f40c21146100b9575b5f5ffd5b610099600480360381019061009491906109dd565b610155565b005b6100a3610219565b6040516100b09190610ae1565b60405180910390f35b6100c16102a5565b6040516100ce9190610ae1565b60405180910390f35b6100df610331565b6040516100ef9493929190610b40565b60405180910390f35b61010061050b565b6040516101109493929190610b40565b60405180910390f35b6101216107df565b60405161012e9190610b98565b60405180910390f35b61013f610804565b60405161014c9190610ae1565b60405180910390f35b60015f9054906101000a900473ffffffffffffffffffffffffffffffffffffffff1673ffffffffffffffffffffffffffffffffffffffff163373ffffffffffffffffffffffffffffffffffffffff16146101e4576040517f08c379a00000000000000000000000000000000000000000000000000000000081526004016101db90610bfb565b60405180910390fd5b82600290816101f39190610e1f565b5081600390816102039190610e1f565b5080600490816102139190610e1f565b50505050565b6004805461022690610c46565b80601f016020809104026020016040519081016040528092919081815260200182805461025290610c46565b801561029d5780601f106102745761010080835404028352916020019161029d565b820191905f5260205f20905b81548152906001019060200180831161028057829003601f168201915b505050505081565b600380546102b290610c46565b80601f01602080910402602001604051908101604052809291908181526020018280546102de90610c46565b80156103295780601f1061030057610100808354040283529160200191610329565b820191905f5260205f20905b81548152906001019060200180831161030c57829003601f168201915b505050505081565b5f606080606060015f9054906101000a900473ffffffffffffffffffffffffffffffffffffffff1660026003600482805461036b90610c46565b80601f016020809104026020016040519081016040528092919081815260200182805461039790610c46565b80156103e25780601f106103b9576101008083540402835291602001916103e2565b820191905f5260205f20905b8154815290600101906020018083116103c557829003601f168201915b505050505092508180546103f590610c46565b80601f016020809104026020016040519081016040528092919081815260200182805461042190610c46565b801561046c5780601f106104435761010080835404028352916020019161046c565b820191905f5260205f20905b81548152906001019060200180831161044f57829003601f168201915b5050505050915080805461047f90610c46565b80601f01602080910402602001604051908101604052809291908181526020018280546104ab90610c46565b80156104f65780601f106104cd576101008083540402835291602001916104f6565b820191905f5260205f20905b8154815290600101906020018083116104d957829003601f168201915b50505050509050935093509350935090919293565b5f60608060605f5f9054906101000a900473ffffffffffffffffffffffffffffffffffffffff1673ffffffffffffffffffffffffffffffffffffffff166385d481f360015f9054906101000a900473ffffffffffffffffffffffffffffffffffffffff16336040518363ffffffff1660e01b815260040161058d929190610eee565b602060405180830381865afa1580156105a8573d5f5f3e3d5ffd5b505050506040513d601f19601f820116820180604052508101906105cc9190610f4a565b61060b576040517f08c379a000000000000000000000000000000000000000000000000000000000815260040161060290610fe5565b60405180910390fd5b60015f9054906101000a900473ffffffffffffffffffffffffffffffffffffffff1660026003600482805461063f90610c46565b80601f016020809104026020016040519081016040528092919081815260200182805461066b90610c46565b80156106b65780601f1061068d576101008083540402835291602001916106b6565b820191905f5260205f20905b81548152906001019060200180831161069957829003601f168201915b505050505092508180546106c990610c46565b80601f01602080910402602001604051908101604052809291908181526020018280546106f590610c46565b80156107405780601f1061071757610100808354040283529160200191610740565b820191905f5260205f20905b81548152906001019060200180831161072357829003601f168201915b5050505050915080805461075390610c46565b80601f016020809104026020016040519081016040528092919081815260200182805461077f90610c46565b80156107ca5780601f106107a1576101008083540402835291602001916107ca565b820191905f5260205f20905b8154815290600101906020018083116107ad57829003601f168201915b50505050509050935093509350935090919293565b60015f9054906101000a900473ffffffffffffffffffffffffffffffffffffffff1681565b6002805461081190610c46565b80601f016020809104026020016040519081016040528092919081815260200182805461083d90610c46565b80156108885780601f1061085f57610100808354040283529160200191610888565b820191905f5260205f20905b81548152906001019060200180831161086b57829003601f168201915b505050505081565b5f604051905090565b5f5ffd5b5f5ffd5b5f5ffd5b5f5ffd5b5f601f19601f8301169050919050565b7f4e487b71000000000000000000000000000000000000000000000000000000005f52604160045260245ffd5b6108ef826108a9565b810181811067ffffffffffffffff8211171561090e5761090d6108b9565b5b80604052505050565b5f610920610890565b905061092c82826108e6565b919050565b5f67ffffffffffffffff82111561094b5761094a6108b9565b5b610954826108a9565b9050602081019050919050565b828183375f83830152505050565b5f61098161097c84610931565b610917565b90508281526020810184848401111561099d5761099c6108a5565b5b6109a8848285610961565b509392505050565b5f82601f8301126109c4576109c36108a1565b5b81356109d484826020860161096f565b91505092915050565b5f5f5f606084860312156109f4576109f3610899565b5b5f84013567ffffffffffffffff811115610a1157610a1061089d565b5b610a1d868287016109b0565b935050602084013567ffffffffffffffff811115610a3e57610a3d61089d565b5b610a4a868287016109b0565b925050604084013567ffffffffffffffff811115610a6b57610a6a61089d565b5b610a77868287016109b0565b9150509250925092565b5f81519050919050565b5f82825260208201905092915050565b8281835e5f83830152505050565b5f610ab382610a81565b610abd8185610a8b565b9350610acd818560208601610a9b565b610ad6816108a9565b840191505092915050565b5f6020820190508181035f830152610af98184610aa9565b905092915050565b5f73ffffffffffffffffffffffffffffffffffffffff82169050919050565b5f610b2a82610b01565b9050919050565b610b3a81610b20565b82525050565b5f608082019050610b535f830187610b31565b8181036020830152610b658186610aa9565b90508181036040830152610b798185610aa9565b90508181036060830152610b8d8184610aa9565b905095945050505050565b5f602082019050610bab5f830184610b31565b92915050565b7f43616c6c6572206973206e6f7420746865206d616e61676572000000000000005f82015250565b5f610be5601983610a8b565b9150610bf082610bb1565b602082019050919050565b5f6020820190508181035f830152610c1281610bd9565b9050919050565b7f4e487b71000000000000000000000000000000000000000000000000000000005f52602260045260245ffd5b5f6002820490506001821680610c5d57607f821691505b602082108103610c7057610c6f610c19565b5b50919050565b5f819050815f5260205f209050919050565b5f6020601f8301049050919050565b5f82821b905092915050565b5f60088302610cd27fffffffffffffffffffffffffffffffffffffffffffffffffffffffffffffffff82610c97565b610cdc8683610c97565b95508019841693508086168417925050509392505050565b5f819050919050565b5f819050919050565b5f610d20610d1b610d1684610cf4565b610cfd565b610cf4565b9050919050565b5f819050919050565b610d3983610d06565b610d4d610d4582610d27565b848454610ca3565b825550505050565b5f5f905090565b610d64610d55565b610d6f818484610d30565b505050565b5b81811015610d9257610d875f82610d5c565b600181019050610d75565b5050565b601f821115610dd757610da881610c76565b610db184610c88565b81016020851015610dc0578190505b610dd4610dcc85610c88565b830182610d74565b50505b505050565b5f82821c905092915050565b5f610df75f1984600802610ddc565b1980831691505092915050565b5f610e0f8383610de8565b9150826002028217905092915050565b610e2882610a81565b67ffffffffffffffff811115610e4157610e406108b9565b5b610e4b8254610c46565b610e56828285610d96565b5f60209050601f831160018114610e87575f8415610e75578287015190505b610e7f8582610e04565b865550610ee6565b601f198416610e9586610c76565b5f5b82811015610ebc57848901518255600182019150602085019450602081019050610e97565b86831015610ed95784890151610ed5601f891682610de8565b8355505b6001600288020188555050505b505050505050565b5f604082019050610f015f830185610b31565b610f0e6020830184610b31565b9392505050565b5f8115159050919050565b610f2981610f15565b8114610f33575f5ffd5b50565b5f81519050610f4481610f20565b92915050565b5f60208284031215610f5f57610f5e610899565b5b5f610f6c84828501610f36565b91505092915050565b7f55736572206973206e6f74207375627363726962656420746f207468697320615f8201527f7574686f72000000000000000000000000000000000000000000000000000000602082015250565b5f610fcf602583610a8b565b9150610fda82610f75565b604082019050919050565b5f6020820190508181035f830152610ffc81610fc3565b905091905056fea264697066735822122082d2b8ddfa0d97ed7fe2324f9c4b7defc3e58333164d6f7cfde8bd45ab4eff7d64736f6c634300081c0033","opcodes":"PUSH1 0x80 PUSH1 0x40 MSTORE CALLVALUE DUP1 ISZERO PUSH2 0xF JUMPI PUSH0 PUSH0 REVERT JUMPDEST POP PUSH1 0x40 MLOAD PUSH2 0x1681 CODESIZE SUB DUP1 PUSH2 0x1681 DUP4 CODECOPY DUP2 DUP2 ADD PUSH1 0x40 MSTORE DUP2 ADD SWAP1 PUSH2 0x31 SWAP2 SWAP1 PUSH2 0x291 JUMP JUMPDEST DUP5 PUSH0 PUSH0 PUSH2 0x100 EXP DUP2 SLOAD DUP2 PUSH20 0xFFFFFFFFFFFFFFFFFFFFFFFFFFFFFFFFFFFFFFFF MUL NOT AND SWAP1 DUP4 PUSH20 0xFFFFFFFFFFFFFFFFFFFFFFFFFFFFFFFFFFFFFFFF AND MUL OR SWAP1 SSTORE POP DUP4 PUSH1 0x1 PUSH0 PUSH2 0x100 EXP DUP2 SLOAD DUP2 PUSH20 0xFFFFFFFFFFFFFFFFFFFFFFFFFFFFFFFFFFFFFFFF MUL NOT AND SWAP1 DUP4 PUSH20 0xFFFFFFFFFFFFFFFFFFFFFFFFFFFFFFFFFFFFFFFF AND MUL OR SWAP1 SSTORE POP DUP3 PUSH1 0x2 SWAP1 DUP2 PUSH2 0xBF SWAP2 SWAP1 PUSH2 0x56C JUMP JUMPDEST POP DUP2 PUSH1 0x3 SWAP1 DUP2 PUSH2 0xCF SWAP2 SWAP1 PUSH2 0x56C JUMP JUMPDEST POP DUP1 PUSH1 0x4 SWAP1 DUP2 PUSH2 0xDF SWAP2 SWAP1 PUSH2 0x56C JUMP JUMPDEST POP POP POP POP POP POP PUSH2 0x63B JUMP JUMPDEST PUSH0 PUSH1 0x40 MLOAD SWAP1 POP SWAP1 JUMP JUMPDEST PUSH0 PUSH0 REVERT JUMPDEST PUSH0 PUSH0 REVERT JUMPDEST PUSH0 PUSH20 0xFFFFFFFFFFFFFFFFFFFFFFFFFFFFFFFFFFFFFFFF DUP3 AND SWAP1 POP SWAP2 SWAP1 POP JUMP JUMPDEST PUSH0 PUSH2 0x124 DUP3 PUSH2 0xFB JUMP JUMPDEST SWAP1 POP SWAP2 SWAP1 POP JUMP JUMPDEST PUSH2 0x134 DUP2 PUSH2 0x11A JUMP JUMPDEST DUP2 EQ PUSH2 0x13E JUMPI PUSH0 PUSH0 REVERT JUMPDEST POP JUMP JUMPDEST PUSH0 DUP2 MLOAD SWAP1 POP PUSH2 0x14F DUP2 PUSH2 0x12B JUMP JUMPDEST SWAP3 SWAP2 POP POP JUMP JUMPDEST PUSH0 PUSH0 REVERT JUMPDEST PUSH0 PUSH0 REVERT JUMPDEST PUSH0 PUSH1 0x1F NOT PUSH1 0x1F DUP4 ADD AND SWAP1 POP SWAP2 SWAP1 POP JUMP JUMPDEST PUSH32 0x4E487B7100000000000000000000000000000000000000000000000000000000 PUSH0 MSTORE PUSH1 0x41 PUSH1 0x4 MSTORE PUSH1 0x24 PUSH0 REVERT JUMPDEST PUSH2 0x1A3 DUP3 PUSH2 0x15D JUMP JUMPDEST DUP2 ADD DUP2 DUP2 LT PUSH8 0xFFFFFFFFFFFFFFFF DUP3 GT OR ISZERO PUSH2 0x1C2 JUMPI PUSH2 0x1C1 PUSH2 0x16D JUMP JUMPDEST JUMPDEST DUP1 PUSH1 0x40 MSTORE POP POP POP JUMP JUMPDEST PUSH0 PUSH2 0x1D4 PUSH2 0xEA JUMP JUMPDEST SWAP1 POP PUSH2 0x1E0 DUP3 DUP3 PUSH2 0x19A JUMP JUMPDEST SWAP2 SWAP1 POP JUMP JUMPDEST PUSH0 PUSH8 0xFFFFFFFFFFFFFFFF DUP3 GT ISZERO PUSH2 0x1FF JUMPI PUSH2 0x1FE PUSH2 0x16D JUMP JUMPDEST JUMPDEST PUSH2 0x208 DUP3 PUSH2 0x15D JUMP JUMPDEST SWAP1 POP PUSH1 0x20 DUP2 ADD SWAP1 POP SWAP2 SWAP1 POP JUMP JUMPDEST DUP3 DUP2 DUP4 MCOPY PUSH0 DUP4 DUP4 ADD MSTORE POP POP POP JUMP JUMPDEST PUSH0 PUSH2 0x235 PUSH2 0x230 DUP5 PUSH2 0x1E5 JUMP JUMPDEST PUSH2 0x1CB JUMP JUMPDEST SWAP1 POP DUP3 DUP2 MSTORE PUSH1 0x20 DUP2 ADD DUP5 DUP5 DUP5 ADD GT ISZERO PUSH2 0x251 JUMPI PUSH2 0x250 PUSH2 0x159 JUMP JUMPDEST JUMPDEST PUSH2 0x25C DUP5 DUP3 DUP6 PUSH2 0x215 JUMP JUMPDEST POP SWAP4 SWAP3 POP POP POP JUMP JUMPDEST PUSH0 DUP3 PUSH1 0x1F DUP4 ADD SLT PUSH2 0x278 JUMPI PUSH2 0x277 PUSH2 0x155 JUMP JUMPDEST JUMPDEST DUP2 MLOAD PUSH2 0x288 DUP5 DUP3 PUSH1 0x20 DUP7 ADD PUSH2 0x223 JUMP JUMPDEST SWAP2 POP POP SWAP3 SWAP2 POP POP JUMP JUMPDEST PUSH0 PUSH0 PUSH0 PUSH0 PUSH0 PUSH1 0xA0 DUP7 DUP9 SUB SLT ISZERO PUSH2 0x2AA JUMPI PUSH2 0x2A9 PUSH2 0xF3 JUMP JUMPDEST JUMPDEST PUSH0 PUSH2 0x2B7 DUP9 DUP3 DUP10 ADD PUSH2 0x141 JUMP JUMPDEST SWAP6 POP POP PUSH1 0x20 PUSH2 0x2C8 DUP9 DUP3 DUP10 ADD PUSH2 0x141 JUMP JUMPDEST SWAP5 POP POP PUSH1 0x40 DUP7 ADD MLOAD PUSH8 0xFFFFFFFFFFFFFFFF DUP2 GT ISZERO PUSH2 0x2E9 JUMPI PUSH2 0x2E8 PUSH2 0xF7 JUMP JUMPDEST JUMPDEST PUSH2 0x2F5 DUP9 DUP3 DUP10 ADD PUSH2 0x264 JUMP JUMPDEST SWAP4 POP POP PUSH1 0x60 DUP7 ADD MLOAD PUSH8 0xFFFFFFFFFFFFFFFF DUP2 GT ISZERO PUSH2 0x316 JUMPI PUSH2 0x315 PUSH2 0xF7 JUMP JUMPDEST JUMPDEST PUSH2 0x322 DUP9 DUP3 DUP10 ADD PUSH2 0x264 JUMP JUMPDEST SWAP3 POP POP PUSH1 0x80 DUP7 ADD MLOAD PUSH8 0xFFFFFFFFFFFFFFFF DUP2 GT ISZERO PUSH2 0x343 JUMPI PUSH2 0x342 PUSH2 0xF7 JUMP JUMPDEST JUMPDEST PUSH2 0x34F DUP9 DUP3 DUP10 ADD PUSH2 0x264 JUMP JUMPDEST SWAP2 POP POP SWAP3 SWAP6 POP SWAP3 SWAP6 SWAP1 SWAP4 POP JUMP JUMPDEST PUSH0 DUP2 MLOAD SWAP1 POP SWAP2 SWAP1 POP JUMP JUMPDEST PUSH32 0x4E487B7100000000000000000000000000000000000000000000000000000000 PUSH0 MSTORE PUSH1 0x22 PUSH1 0x4 MSTORE PUSH1 0x24 PUSH0 REVERT JUMPDEST PUSH0 PUSH1 0x2 DUP3 DIV SWAP1 POP PUSH1 0x1 DUP3 AND DUP1 PUSH2 0x3AA JUMPI PUSH1 0x7F DUP3 AND SWAP2 POP JUMPDEST PUSH1 0x20 DUP3 LT DUP2 SUB PUSH2 0x3BD JUMPI PUSH2 0x3BC PUSH2 0x366 JUMP JUMPDEST JUMPDEST POP SWAP2 SWAP1 POP JUMP JUMPDEST PUSH0 DUP2 SWAP1 POP DUP2 PUSH0 MSTORE PUSH1 0x20 PUSH0 KECCAK256 SWAP1 POP SWAP2 SWAP1 POP JUMP JUMPDEST PUSH0 PUSH1 0x20 PUSH1 0x1F DUP4 ADD DIV SWAP1 POP SWAP2 SWAP1 POP JUMP JUMPDEST PUSH0 DUP3 DUP3 SHL SWAP1 POP SWAP3 SWAP2 POP POP JUMP JUMPDEST PUSH0 PUSH1 0x8 DUP4 MUL PUSH2 0x41F PUSH32 0xFFFFFFFFFFFFFFFFFFFFFFFFFFFFFFFFFFFFFFFFFFFFFFFFFFFFFFFFFFFFFFFF DUP3 PUSH2 0x3E4 JUMP JUMPDEST PUSH2 0x429 DUP7 DUP4 PUSH2 0x3E4 JUMP JUMPDEST SWAP6 POP DUP1 NOT DUP5 AND SWAP4 POP DUP1 DUP7 AND DUP5 OR SWAP3 POP POP POP SWAP4 SWAP3 POP POP POP JUMP JUMPDEST PUSH0 DUP2 SWAP1 POP SWAP2 SWAP1 POP JUMP JUMPDEST PUSH0 DUP2 SWAP1 POP SWAP2 SWAP1 POP JUMP JUMPDEST PUSH0 PUSH2 0x46D PUSH2 0x468 PUSH2 0x463 DUP5 PUSH2 0x441 JUMP JUMPDEST PUSH2 0x44A JUMP JUMPDEST PUSH2 0x441 JUMP JUMPDEST SWAP1 POP SWAP2 SWAP1 POP JUMP JUMPDEST PUSH0 DUP2 SWAP1 POP SWAP2 SWAP1 POP JUMP JUMPDEST PUSH2 0x486 DUP4 PUSH2 0x453 JUMP JUMPDEST PUSH2 0x49A PUSH2 0x492 DUP3 PUSH2 0x474 JUMP JUMPDEST DUP5 DUP5 SLOAD PUSH2 0x3F0 JUMP JUMPDEST DUP3 SSTORE POP POP POP POP JUMP JUMPDEST PUSH0 PUSH0 SWAP1 POP SWAP1 JUMP JUMPDEST PUSH2 0x4B1 PUSH2 0x4A2 JUMP JUMPDEST PUSH2 0x4BC DUP2 DUP5 DUP5 PUSH2 0x47D JUMP JUMPDEST POP POP POP JUMP JUMPDEST JUMPDEST DUP2 DUP2 LT ISZERO PUSH2 0x4DF JUMPI PUSH2 0x4D4 PUSH0 DUP3 PUSH2 0x4A9 JUMP JUMPDEST PUSH1 0x1 DUP2 ADD SWAP1 POP PUSH2 0x4C2 JUMP JUMPDEST POP POP JUMP JUMPDEST PUSH1 0x1F DUP3 GT ISZERO PUSH2 0x524 JUMPI PUSH2 0x4F5 DUP2 PUSH2 0x3C3 JUMP JUMPDEST PUSH2 0x4FE DUP5 PUSH2 0x3D5 JUMP JUMPDEST DUP2 ADD PUSH1 0x20 DUP6 LT ISZERO PUSH2 0x50D JUMPI DUP2 SWAP1 POP JUMPDEST PUSH2 0x521 PUSH2 0x519 DUP6 PUSH2 0x3D5 JUMP JUMPDEST DUP4 ADD DUP3 PUSH2 0x4C1 JUMP JUMPDEST POP POP JUMPDEST POP POP POP JUMP JUMPDEST PUSH0 DUP3 DUP3 SHR SWAP1 POP SWAP3 SWAP2 POP POP JUMP JUMPDEST PUSH0 PUSH2 0x544 PUSH0 NOT DUP5 PUSH1 0x8 MUL PUSH2 0x529 JUMP JUMPDEST NOT DUP1 DUP4 AND SWAP2 POP POP SWAP3 SWAP2 POP POP JUMP JUMPDEST PUSH0 PUSH2 0x55C DUP4 DUP4 PUSH2 0x535 JUMP JUMPDEST SWAP2 POP DUP3 PUSH1 0x2 MUL DUP3 OR SWAP1 POP SWAP3 SWAP2 POP POP JUMP JUMPDEST PUSH2 0x575 DUP3 PUSH2 0x35C JUMP JUMPDEST PUSH8 0xFFFFFFFFFFFFFFFF DUP2 GT ISZERO PUSH2 0x58E JUMPI PUSH2 0x58D PUSH2 0x16D JUMP JUMPDEST JUMPDEST PUSH2 0x598 DUP3 SLOAD PUSH2 0x393 JUMP JUMPDEST PUSH2 0x5A3 DUP3 DUP3 DUP6 PUSH2 0x4E3 JUMP JUMPDEST PUSH0 PUSH1 0x20 SWAP1 POP PUSH1 0x1F DUP4 GT PUSH1 0x1 DUP2 EQ PUSH2 0x5D4 JUMPI PUSH0 DUP5 ISZERO PUSH2 0x5C2 JUMPI DUP3 DUP8 ADD MLOAD SWAP1 POP JUMPDEST PUSH2 0x5CC DUP6 DUP3 PUSH2 0x551 JUMP JUMPDEST DUP7 SSTORE POP PUSH2 0x633 JUMP JUMPDEST PUSH1 0x1F NOT DUP5 AND PUSH2 0x5E2 DUP7 PUSH2 0x3C3 JUMP JUMPDEST PUSH0 JUMPDEST DUP3 DUP2 LT ISZERO PUSH2 0x609 JUMPI DUP5 DUP10 ADD MLOAD DUP3 SSTORE PUSH1 0x1 DUP3 ADD SWAP2 POP PUSH1 0x20 DUP6 ADD SWAP5 POP PUSH1 0x20 DUP2 ADD SWAP1 POP PUSH2 0x5E4 JUMP JUMPDEST DUP7 DUP4 LT ISZERO PUSH2 0x626 JUMPI DUP5 DUP10 ADD MLOAD PUSH2 0x622 PUSH1 0x1F DUP10 AND DUP3 PUSH2 0x535 JUMP JUMPDEST DUP4 SSTORE POP JUMPDEST PUSH1 0x1 PUSH1 0x2 DUP9 MUL ADD DUP9 SSTORE POP POP POP JUMPDEST POP POP POP POP POP POP JUMP JUMPDEST PUSH2 0x1039 DUP1 PUSH2 0x648 PUSH0 CODECOPY PUSH0 RETURN INVALID PUSH1 0x80 PUSH1 0x40 MSTORE CALLVALUE DUP1 ISZERO PUSH2 0xF JUMPI PUSH0 PUSH0 REVERT JUMPDEST POP PUSH1 0x4 CALLDATASIZE LT PUSH2 0x7B JUMPI PUSH0 CALLDATALOAD PUSH1 0xE0 SHR DUP1 PUSH4 0x5E8AE07D GT PUSH2 0x59 JUMPI DUP1 PUSH4 0x5E8AE07D EQ PUSH2 0xD7 JUMPI DUP1 PUSH4 0x8C8A2ADC EQ PUSH2 0xF8 JUMPI DUP1 PUSH4 0xC46B0B14 EQ PUSH2 0x119 JUMPI DUP1 PUSH4 0xE8A25269 EQ PUSH2 0x137 JUMPI PUSH2 0x7B JUMP JUMPDEST DUP1 PUSH4 0x15ECD356 EQ PUSH2 0x7F JUMPI DUP1 PUSH4 0x26942BF0 EQ PUSH2 0x9B JUMPI DUP1 PUSH4 0x42F40C21 EQ PUSH2 0xB9 JUMPI JUMPDEST PUSH0 PUSH0 REVERT JUMPDEST PUSH2 0x99 PUSH1 0x4 DUP1 CALLDATASIZE SUB DUP2 ADD SWAP1 PUSH2 0x94 SWAP2 SWAP1 PUSH2 0x9DD JUMP JUMPDEST PUSH2 0x155 JUMP JUMPDEST STOP JUMPDEST PUSH2 0xA3 PUSH2 0x219 JUMP JUMPDEST PUSH1 0x40 MLOAD PUSH2 0xB0 SWAP2 SWAP1 PUSH2 0xAE1 JUMP JUMPDEST PUSH1 0x40 MLOAD DUP1 SWAP2 SUB SWAP1 RETURN JUMPDEST PUSH2 0xC1 PUSH2 0x2A5 JUMP JUMPDEST PUSH1 0x40 MLOAD PUSH2 0xCE SWAP2 SWAP1 PUSH2 0xAE1 JUMP JUMPDEST PUSH1 0x40 MLOAD DUP1 SWAP2 SUB SWAP1 RETURN JUMPDEST PUSH2 0xDF PUSH2 0x331 JUMP JUMPDEST PUSH1 0x40 MLOAD PUSH2 0xEF SWAP5 SWAP4 SWAP3 SWAP2 SWAP1 PUSH2 0xB40 JUMP JUMPDEST PUSH1 0x40 MLOAD DUP1 SWAP2 SUB SWAP1 RETURN JUMPDEST PUSH2 0x100 PUSH2 0x50B JUMP JUMPDEST PUSH1 0x40 MLOAD PUSH2 0x110 SWAP5 SWAP4 SWAP3 SWAP2 SWAP1 PUSH2 0xB40 JUMP JUMPDEST PUSH1 0x40 MLOAD DUP1 SWAP2 SUB SWAP1 RETURN JUMPDEST PUSH2 0x121 PUSH2 0x7DF JUMP JUMPDEST PUSH1 0x40 MLOAD PUSH2 0x12E SWAP2 SWAP1 PUSH2 0xB98 JUMP JUMPDEST PUSH1 0x40 MLOAD DUP1 SWAP2 SUB SWAP1 RETURN JUMPDEST PUSH2 0x13F PUSH2 0x804 JUMP JUMPDEST PUSH1 0x40 MLOAD PUSH2 0x14C SWAP2 SWAP1 PUSH2 0xAE1 JUMP JUMPDEST PUSH1 0x40 MLOAD DUP1 SWAP2 SUB SWAP1 RETURN JUMPDEST PUSH1 0x1 PUSH0 SWAP1 SLOAD SWAP1 PUSH2 0x100 EXP SWAP1 DIV PUSH20 0xFFFFFFFFFFFFFFFFFFFFFFFFFFFFFFFFFFFFFFFF AND PUSH20 0xFFFFFFFFFFFFFFFFFFFFFFFFFFFFFFFFFFFFFFFF AND CALLER PUSH20 0xFFFFFFFFFFFFFFFFFFFFFFFFFFFFFFFFFFFFFFFF AND EQ PUSH2 0x1E4 JUMPI PUSH1 0x40 MLOAD PUSH32 0x8C379A000000000000000000000000000000000000000000000000000000000 DUP2 MSTORE PUSH1 0x4 ADD PUSH2 0x1DB SWAP1 PUSH2 0xBFB JUMP JUMPDEST PUSH1 0x40 MLOAD DUP1 SWAP2 SUB SWAP1 REVERT JUMPDEST DUP3 PUSH1 0x2 SWAP1 DUP2 PUSH2 0x1F3 SWAP2 SWAP1 PUSH2 0xE1F JUMP JUMPDEST POP DUP2 PUSH1 0x3 SWAP1 DUP2 PUSH2 0x203 SWAP2 SWAP1 PUSH2 0xE1F JUMP JUMPDEST POP DUP1 PUSH1 0x4 SWAP1 DUP2 PUSH2 0x213 SWAP2 SWAP1 PUSH2 0xE1F JUMP JUMPDEST POP POP POP POP JUMP JUMPDEST PUSH1 0x4 DUP1 SLOAD PUSH2 0x226 SWAP1 PUSH2 0xC46 JUMP JUMPDEST DUP1 PUSH1 0x1F ADD PUSH1 0x20 DUP1 SWAP2 DIV MUL PUSH1 0x20 ADD PUSH1 0x40 MLOAD SWAP1 DUP2 ADD PUSH1 0x40 MSTORE DUP1 SWAP3 SWAP2 SWAP1 DUP2 DUP2 MSTORE PUSH1 0x20 ADD DUP3 DUP1 SLOAD PUSH2 0x252 SWAP1 PUSH2 0xC46 JUMP JUMPDEST DUP1 ISZERO PUSH2 0x29D JUMPI DUP1 PUSH1 0x1F LT PUSH2 0x274 JUMPI PUSH2 0x100 DUP1 DUP4 SLOAD DIV MUL DUP4 MSTORE SWAP2 PUSH1 0x20 ADD SWAP2 PUSH2 0x29D JUMP JUMPDEST DUP3 ADD SWAP2 SWAP1 PUSH0 MSTORE PUSH1 0x20 PUSH0 KECCAK256 SWAP1 JUMPDEST DUP2 SLOAD DUP2 MSTORE SWAP1 PUSH1 0x1 ADD SWAP1 PUSH1 0x20 ADD DUP1 DUP4 GT PUSH2 0x280 JUMPI DUP3 SWAP1 SUB PUSH1 0x1F AND DUP3 ADD SWAP2 JUMPDEST POP POP POP POP POP DUP2 JUMP JUMPDEST PUSH1 0x3 DUP1 SLOAD PUSH2 0x2B2 SWAP1 PUSH2 0xC46 JUMP JUMPDEST DUP1 PUSH1 0x1F ADD PUSH1 0x20 DUP1 SWAP2 DIV MUL PUSH1 0x20 ADD PUSH1 0x40 MLOAD SWAP1 DUP2 ADD PUSH1 0x40 MSTORE DUP1 SWAP3 SWAP2 SWAP1 DUP2 DUP2 MSTORE PUSH1 0x20 ADD DUP3 DUP1 SLOAD PUSH2 0x2DE SWAP1 PUSH2 0xC46 JUMP JUMPDEST DUP1 ISZERO PUSH2 0x329 JUMPI DUP1 PUSH1 0x1F LT PUSH2 0x300 JUMPI PUSH2 0x100 DUP1 DUP4 SLOAD DIV MUL DUP4 MSTORE SWAP2 PUSH1 0x20 ADD SWAP2 PUSH2 0x329 JUMP JUMPDEST DUP3 ADD SWAP2 SWAP1 PUSH0 MSTORE PUSH1 0x20 PUSH0 KECCAK256 SWAP1 JUMPDEST DUP2 SLOAD DUP2 MSTORE SWAP1 PUSH1 0x1 ADD SWAP1 PUSH1 0x20 ADD DUP1 DUP4 GT PUSH2 0x30C JUMPI DUP3 SWAP1 SUB PUSH1 0x1F AND DUP3 ADD SWAP2 JUMPDEST POP POP POP POP POP DUP2 JUMP JUMPDEST PUSH0 PUSH1 0x60 DUP1 PUSH1 0x60 PUSH1 0x1 PUSH0 SWAP1 SLOAD SWAP1 PUSH2 0x100 EXP SWAP1 DIV PUSH20 0xFFFFFFFFFFFFFFFFFFFFFFFFFFFFFFFFFFFFFFFF AND PUSH1 0x2 PUSH1 0x3 PUSH1 0x4 DUP3 DUP1 SLOAD PUSH2 0x36B SWAP1 PUSH2 0xC46 JUMP JUMPDEST DUP1 PUSH1 0x1F ADD PUSH1 0x20 DUP1 SWAP2 DIV MUL PUSH1 0x20 ADD PUSH1 0x40 MLOAD SWAP1 DUP2 ADD PUSH1 0x40 MSTORE DUP1 SWAP3 SWAP2 SWAP1 DUP2 DUP2 MSTORE PUSH1 0x20 ADD DUP3 DUP1 SLOAD PUSH2 0x397 SWAP1 PUSH2 0xC46 JUMP JUMPDEST DUP1 ISZERO PUSH2 0x3E2 JUMPI DUP1 PUSH1 0x1F LT PUSH2 0x3B9 JUMPI PUSH2 0x100 DUP1 DUP4 SLOAD DIV MUL DUP4 MSTORE SWAP2 PUSH1 0x20 ADD SWAP2 PUSH2 0x3E2 JUMP JUMPDEST DUP3 ADD SWAP2 SWAP1 PUSH0 MSTORE PUSH1 0x20 PUSH0 KECCAK256 SWAP1 JUMPDEST DUP2 SLOAD DUP2 MSTORE SWAP1 PUSH1 0x1 ADD SWAP1 PUSH1 0x20 ADD DUP1 DUP4 GT PUSH2 0x3C5 JUMPI DUP3 SWAP1 SUB PUSH1 0x1F AND DUP3 ADD SWAP2 JUMPDEST POP POP POP POP POP SWAP3 POP DUP2 DUP1 SLOAD PUSH2 0x3F5 SWAP1 PUSH2 0xC46 JUMP JUMPDEST DUP1 PUSH1 0x1F ADD PUSH1 0x20 DUP1 SWAP2 DIV MUL PUSH1 0x20 ADD PUSH1 0x40 MLOAD SWAP1 DUP2 ADD PUSH1 0x40 MSTORE DUP1 SWAP3 SWAP2 SWAP1 DUP2 DUP2 MSTORE PUSH1 0x20 ADD DUP3 DUP1 SLOAD PUSH2 0x421 SWAP1 PUSH2 0xC46 JUMP JUMPDEST DUP1 ISZERO PUSH2 0x46C JUMPI DUP1 PUSH1 0x1F LT PUSH2 0x443 JUMPI PUSH2 0x100 DUP1 DUP4 SLOAD DIV MUL DUP4 MSTORE SWAP2 PUSH1 0x20 ADD SWAP2 PUSH2 0x46C JUMP JUMPDEST DUP3 ADD SWAP2 SWAP1 PUSH0 MSTORE PUSH1 0x20 PUSH0 KECCAK256 SWAP1 JUMPDEST DUP2 SLOAD DUP2 MSTORE SWAP1 PUSH1 0x1 ADD SWAP1 PUSH1 0x20 ADD DUP1 DUP4 GT PUSH2 0x44F JUMPI DUP3 SWAP1 SUB PUSH1 0x1F AND DUP3 ADD SWAP2 JUMPDEST POP POP POP POP POP SWAP2 POP DUP1 DUP1 SLOAD PUSH2 0x47F SWAP1 PUSH2 0xC46 JUMP JUMPDEST DUP1 PUSH1 0x1F ADD PUSH1 0x20 DUP1 SWAP2 DIV MUL PUSH1 0x20 ADD PUSH1 0x40 MLOAD SWAP1 DUP2 ADD PUSH1 0x40 MSTORE DUP1 SWAP3 SWAP2 SWAP1 DUP2 DUP2 MSTORE PUSH1 0x20 ADD DUP3 DUP1 SLOAD PUSH2 0x4AB SWAP1 PUSH2 0xC46 JUMP JUMPDEST DUP1 ISZERO PUSH2 0x4F6 JUMPI DUP1 PUSH1 0x1F LT PUSH2 0x4CD JUMPI PUSH2 0x100 DUP1 DUP4 SLOAD DIV MUL DUP4 MSTORE SWAP2 PUSH1 0x20 ADD SWAP2 PUSH2 0x4F6 JUMP JUMPDEST DUP3 ADD SWAP2 SWAP1 PUSH0 MSTORE PUSH1 0x20 PUSH0 KECCAK256 SWAP1 JUMPDEST DUP2 SLOAD DUP2 MSTORE SWAP1 PUSH1 0x1 ADD SWAP1 PUSH1 0x20 ADD DUP1 DUP4 GT PUSH2 0x4D9 JUMPI DUP3 SWAP1 SUB PUSH1 0x1F AND DUP3 ADD SWAP2 JUMPDEST POP POP POP POP POP SWAP1 POP SWAP4 POP SWAP4 POP SWAP4 POP SWAP4 POP SWAP1 SWAP2 SWAP3 SWAP4 JUMP JUMPDEST PUSH0 PUSH1 0x60 DUP1 PUSH1 0x60 PUSH0 PUSH0 SWAP1 SLOAD SWAP1 PUSH2 0x100 EXP SWAP1 DIV PUSH20 0xFFFFFFFFFFFFFFFFFFFFFFFFFFFFFFFFFFFFFFFF AND PUSH20 0xFFFFFFFFFFFFFFFFFFFFFFFFFFFFFFFFFFFFFFFF AND PUSH4 0x85D481F3 PUSH1 0x1 PUSH0 SWAP1 SLOAD SWAP1 PUSH2 0x100 EXP SWAP1 DIV PUSH20 0xFFFFFFFFFFFFFFFFFFFFFFFFFFFFFFFFFFFFFFFF AND CALLER PUSH1 0x40 MLOAD DUP4 PUSH4 0xFFFFFFFF AND PUSH1 0xE0 SHL DUP2 MSTORE PUSH1 0x4 ADD PUSH2 0x58D SWAP3 SWAP2 SWAP1 PUSH2 0xEEE JUMP JUMPDEST PUSH1 0x20 PUSH1 0x40 MLOAD DUP1 DUP4 SUB DUP2 DUP7 GAS STATICCALL ISZERO DUP1 ISZERO PUSH2 0x5A8 JUMPI RETURNDATASIZE PUSH0 PUSH0 RETURNDATACOPY RETURNDATASIZE PUSH0 REVERT JUMPDEST POP POP POP POP PUSH1 0x40 MLOAD RETURNDATASIZE PUSH1 0x1F NOT PUSH1 0x1F DUP3 ADD AND DUP3 ADD DUP1 PUSH1 0x40 MSTORE POP DUP2 ADD SWAP1 PUSH2 0x5CC SWAP2 SWAP1 PUSH2 0xF4A JUMP JUMPDEST PUSH2 0x60B JUMPI PUSH1 0x40 MLOAD PUSH32 0x8C379A000000000000000000000000000000000000000000000000000000000 DUP2 MSTORE PUSH1 0x4 ADD PUSH2 0x602 SWAP1 PUSH2 0xFE5 JUMP JUMPDEST PUSH1 0x40 MLOAD DUP1 SWAP2 SUB SWAP1 REVERT JUMPDEST PUSH1 0x1 PUSH0 SWAP1 SLOAD SWAP1 PUSH2 0x100 EXP SWAP1 DIV PUSH20 0xFFFFFFFFFFFFFFFFFFFFFFFFFFFFFFFFFFFFFFFF AND PUSH1 0x2 PUSH1 0x3 PUSH1 0x4 DUP3 DUP1 SLOAD PUSH2 0x63F SWAP1 PUSH2 0xC46 JUMP JUMPDEST DUP1 PUSH1 0x1F ADD PUSH1 0x20 DUP1 SWAP2 DIV MUL PUSH1 0x20 ADD PUSH1 0x40 MLOAD SWAP1 DUP2 ADD PUSH1 0x40 MSTORE DUP1 SWAP3 SWAP2 SWAP1 DUP2 DUP2 MSTORE PUSH1 0x20 ADD DUP3 DUP1 SLOAD PUSH2 0x66B SWAP1 PUSH2 0xC46 JUMP JUMPDEST DUP1 ISZERO PUSH2 0x6B6 JUMPI DUP1 PUSH1 0x1F LT PUSH2 0x68D JUMPI PUSH2 0x100 DUP1 DUP4 SLOAD DIV MUL DUP4 MSTORE SWAP2 PUSH1 0x20 ADD SWAP2 PUSH2 0x6B6 JUMP JUMPDEST DUP3 ADD SWAP2 SWAP1 PUSH0 MSTORE PUSH1 0x20 PUSH0 KECCAK256 SWAP1 JUMPDEST DUP2 SLOAD DUP2 MSTORE SWAP1 PUSH1 0x1 ADD SWAP1 PUSH1 0x20 ADD DUP1 DUP4 GT PUSH2 0x699 JUMPI DUP3 SWAP1 SUB PUSH1 0x1F AND DUP3 ADD SWAP2 JUMPDEST POP POP POP POP POP SWAP3 POP DUP2 DUP1 SLOAD PUSH2 0x6C9 SWAP1 PUSH2 0xC46 JUMP JUMPDEST DUP1 PUSH1 0x1F ADD PUSH1 0x20 DUP1 SWAP2 DIV MUL PUSH1 0x20 ADD PUSH1 0x40 MLOAD SWAP1 DUP2 ADD PUSH1 0x40 MSTORE DUP1 SWAP3 SWAP2 SWAP1 DUP2 DUP2 MSTORE PUSH1 0x20 ADD DUP3 DUP1 SLOAD PUSH2 0x6F5 SWAP1 PUSH2 0xC46 JUMP JUMPDEST DUP1 ISZERO PUSH2 0x740 JUMPI DUP1 PUSH1 0x1F LT PUSH2 0x717 JUMPI PUSH2 0x100 DUP1 DUP4 SLOAD DIV MUL DUP4 MSTORE SWAP2 PUSH1 0x20 ADD SWAP2 PUSH2 0x740 JUMP JUMPDEST DUP3 ADD SWAP2 SWAP1 PUSH0 MSTORE PUSH1 0x20 PUSH0 KECCAK256 SWAP1 JUMPDEST DUP2 SLOAD DUP2 MSTORE SWAP1 PUSH1 0x1 ADD SWAP1 PUSH1 0x20 ADD DUP1 DUP4 GT PUSH2 0x723 JUMPI DUP3 SWAP1 SUB PUSH1 0x1F AND DUP3 ADD SWAP2 JUMPDEST POP POP POP POP POP SWAP2 POP DUP1 DUP1 SLOAD PUSH2 0x753 SWAP1 PUSH2 0xC46 JUMP JUMPDEST DUP1 PUSH1 0x1F ADD PUSH1 0x20 DUP1 SWAP2 DIV MUL PUSH1 0x20 ADD PUSH1 0x40 MLOAD SWAP1 DUP2 ADD PUSH1 0x40 MSTORE DUP1 SWAP3 SWAP2 SWAP1 DUP2 DUP2 MSTORE PUSH1 0x20 ADD DUP3 DUP1 SLOAD PUSH2 0x77F SWAP1 PUSH2 0xC46 JUMP JUMPDEST DUP1 ISZERO PUSH2 0x7CA JUMPI DUP1 PUSH1 0x1F LT PUSH2 0x7A1 JUMPI PUSH2 0x100 DUP1 DUP4 SLOAD DIV MUL DUP4 MSTORE SWAP2 PUSH1 0x20 ADD SWAP2 PUSH2 0x7CA JUMP JUMPDEST DUP3 ADD SWAP2 SWAP1 PUSH0 MSTORE PUSH1 0x20 PUSH0 KECCAK256 SWAP1 JUMPDEST DUP2 SLOAD DUP2 MSTORE SWAP1 PUSH1 0x1 ADD SWAP1 PUSH1 0x20 ADD DUP1 DUP4 GT PUSH2 0x7AD JUMPI DUP3 SWAP1 SUB PUSH1 0x1F AND DUP3 ADD SWAP2 JUMPDEST POP POP POP POP POP SWAP1 POP SWAP4 POP SWAP4 POP SWAP4 POP SWAP4 POP SWAP1 SWAP2 SWAP3 SWAP4 JUMP JUMPDEST PUSH1 0x1 PUSH0 SWAP1 SLOAD SWAP1 PUSH2 0x100 EXP SWAP1 DIV PUSH20 0xFFFFFFFFFFFFFFFFFFFFFFFFFFFFFFFFFFFFFFFF AND DUP2 JUMP JUMPDEST PUSH1 0x2 DUP1 SLOAD PUSH2 0x811 SWAP1 PUSH2 0xC46 JUMP JUMPDEST DUP1 PUSH1 0x1F ADD PUSH1 0x20 DUP1 SWAP2 DIV MUL PUSH1 0x20 ADD PUSH1 0x40 MLOAD SWAP1 DUP2 ADD PUSH1 0x40 MSTORE DUP1 SWAP3 SWAP2 SWAP1 DUP2 DUP2 MSTORE PUSH1 0x20 ADD DUP3 DUP1 SLOAD PUSH2 0x83D SWAP1 PUSH2 0xC46 JUMP JUMPDEST DUP1 ISZERO PUSH2 0x888 JUMPI DUP1 PUSH1 0x1F LT PUSH2 0x85F JUMPI PUSH2 0x100 DUP1 DUP4 SLOAD DIV MUL DUP4 MSTORE SWAP2 PUSH1 0x20 ADD SWAP2 PUSH2 0x888 JUMP JUMPDEST DUP3 ADD SWAP2 SWAP1 PUSH0 MSTORE PUSH1 0x20 PUSH0 KECCAK256 SWAP1 JUMPDEST DUP2 SLOAD DUP2 MSTORE SWAP1 PUSH1 0x1 ADD SWAP1 PUSH1 0x20 ADD DUP1 DUP4 GT PUSH2 0x86B JUMPI DUP3 SWAP1 SUB PUSH1 0x1F AND DUP3 ADD SWAP2 JUMPDEST POP POP POP POP POP DUP2 JUMP JUMPDEST PUSH0 PUSH1 0x40 MLOAD SWAP1 POP SWAP1 JUMP JUMPDEST PUSH0 PUSH0 REVERT JUMPDEST PUSH0 PUSH0 REVERT JUMPDEST PUSH0 PUSH0 REVERT JUMPDEST PUSH0 PUSH0 REVERT JUMPDEST PUSH0 PUSH1 0x1F NOT PUSH1 0x1F DUP4 ADD AND SWAP1 POP SWAP2 SWAP1 POP JUMP JUMPDEST PUSH32 0x4E487B7100000000000000000000000000000000000000000000000000000000 PUSH0 MSTORE PUSH1 0x41 PUSH1 0x4 MSTORE PUSH1 0x24 PUSH0 REVERT JUMPDEST PUSH2 0x8EF DUP3 PUSH2 0x8A9 JUMP JUMPDEST DUP2 ADD DUP2 DUP2 LT PUSH8 0xFFFFFFFFFFFFFFFF DUP3 GT OR ISZERO PUSH2 0x90E JUMPI PUSH2 0x90D PUSH2 0x8B9 JUMP JUMPDEST JUMPDEST DUP1 PUSH1 0x40 MSTORE POP POP POP JUMP JUMPDEST PUSH0 PUSH2 0x920 PUSH2 0x890 JUMP JUMPDEST SWAP1 POP PUSH2 0x92C DUP3 DUP3 PUSH2 0x8E6 JUMP JUMPDEST SWAP2 SWAP1 POP JUMP JUMPDEST PUSH0 PUSH8 0xFFFFFFFFFFFFFFFF DUP3 GT ISZERO PUSH2 0x94B JUMPI PUSH2 0x94A PUSH2 0x8B9 JUMP JUMPDEST JUMPDEST PUSH2 0x954 DUP3 PUSH2 0x8A9 JUMP JUMPDEST SWAP1 POP PUSH1 0x20 DUP2 ADD SWAP1 POP SWAP2 SWAP1 POP JUMP JUMPDEST DUP3 DUP2 DUP4 CALLDATACOPY PUSH0 DUP4 DUP4 ADD MSTORE POP POP POP JUMP JUMPDEST PUSH0 PUSH2 0x981 PUSH2 0x97C DUP5 PUSH2 0x931 JUMP JUMPDEST PUSH2 0x917 JUMP JUMPDEST SWAP1 POP DUP3 DUP2 MSTORE PUSH1 0x20 DUP2 ADD DUP5 DUP5 DUP5 ADD GT ISZERO PUSH2 0x99D JUMPI PUSH2 0x99C PUSH2 0x8A5 JUMP JUMPDEST JUMPDEST PUSH2 0x9A8 DUP5 DUP3 DUP6 PUSH2 0x961 JUMP JUMPDEST POP SWAP4 SWAP3 POP POP POP JUMP JUMPDEST PUSH0 DUP3 PUSH1 0x1F DUP4 ADD SLT PUSH2 0x9C4 JUMPI PUSH2 0x9C3 PUSH2 0x8A1 JUMP JUMPDEST JUMPDEST DUP2 CALLDATALOAD PUSH2 0x9D4 DUP5 DUP3 PUSH1 0x20 DUP7 ADD PUSH2 0x96F JUMP JUMPDEST SWAP2 POP POP SWAP3 SWAP2 POP POP JUMP JUMPDEST PUSH0 PUSH0 PUSH0 PUSH1 0x60 DUP5 DUP7 SUB SLT ISZERO PUSH2 0x9F4 JUMPI PUSH2 0x9F3 PUSH2 0x899 JUMP JUMPDEST JUMPDEST PUSH0 DUP5 ADD CALLDATALOAD PUSH8 0xFFFFFFFFFFFFFFFF DUP2 GT ISZERO PUSH2 0xA11 JUMPI PUSH2 0xA10 PUSH2 0x89D JUMP JUMPDEST JUMPDEST PUSH2 0xA1D DUP7 DUP3 DUP8 ADD PUSH2 0x9B0 JUMP JUMPDEST SWAP4 POP POP PUSH1 0x20 DUP5 ADD CALLDATALOAD PUSH8 0xFFFFFFFFFFFFFFFF DUP2 GT ISZERO PUSH2 0xA3E JUMPI PUSH2 0xA3D PUSH2 0x89D JUMP JUMPDEST JUMPDEST PUSH2 0xA4A DUP7 DUP3 DUP8 ADD PUSH2 0x9B0 JUMP JUMPDEST SWAP3 POP POP PUSH1 0x40 DUP5 ADD CALLDATALOAD PUSH8 0xFFFFFFFFFFFFFFFF DUP2 GT ISZERO PUSH2 0xA6B JUMPI PUSH2 0xA6A PUSH2 0x89D JUMP JUMPDEST JUMPDEST PUSH2 0xA77 DUP7 DUP3 DUP8 ADD PUSH2 0x9B0 JUMP JUMPDEST SWAP2 POP POP SWAP3 POP SWAP3 POP SWAP3 JUMP JUMPDEST PUSH0 DUP2 MLOAD SWAP1 POP SWAP2 SWAP1 POP JUMP JUMPDEST PUSH0 DUP3 DUP3 MSTORE PUSH1 0x20 DUP3 ADD SWAP1 POP SWAP3 SWAP2 POP POP JUMP JUMPDEST DUP3 DUP2 DUP4 MCOPY PUSH0 DUP4 DUP4 ADD MSTORE POP POP POP JUMP JUMPDEST PUSH0 PUSH2 0xAB3 DUP3 PUSH2 0xA81 JUMP JUMPDEST PUSH2 0xABD DUP2 DUP6 PUSH2 0xA8B JUMP JUMPDEST SWAP4 POP PUSH2 0xACD DUP2 DUP6 PUSH1 0x20 DUP7 ADD PUSH2 0xA9B JUMP JUMPDEST PUSH2 0xAD6 DUP2 PUSH2 0x8A9 JUMP JUMPDEST DUP5 ADD SWAP2 POP POP SWAP3 SWAP2 POP POP JUMP JUMPDEST PUSH0 PUSH1 0x20 DUP3 ADD SWAP1 POP DUP2 DUP2 SUB PUSH0 DUP4 ADD MSTORE PUSH2 0xAF9 DUP2 DUP5 PUSH2 0xAA9 JUMP JUMPDEST SWAP1 POP SWAP3 SWAP2 POP POP JUMP JUMPDEST PUSH0 PUSH20 0xFFFFFFFFFFFFFFFFFFFFFFFFFFFFFFFFFFFFFFFF DUP3 AND SWAP1 POP SWAP2 SWAP1 POP JUMP JUMPDEST PUSH0 PUSH2 0xB2A DUP3 PUSH2 0xB01 JUMP JUMPDEST SWAP1 POP SWAP2 SWAP1 POP JUMP JUMPDEST PUSH2 0xB3A DUP2 PUSH2 0xB20 JUMP JUMPDEST DUP3 MSTORE POP POP JUMP JUMPDEST PUSH0 PUSH1 0x80 DUP3 ADD SWAP1 POP PUSH2 0xB53 PUSH0 DUP4 ADD DUP8 PUSH2 0xB31 JUMP JUMPDEST DUP2 DUP2 SUB PUSH1 0x20 DUP4 ADD MSTORE PUSH2 0xB65 DUP2 DUP7 PUSH2 0xAA9 JUMP JUMPDEST SWAP1 POP DUP2 DUP2 SUB PUSH1 0x40 DUP4 ADD MSTORE PUSH2 0xB79 DUP2 DUP6 PUSH2 0xAA9 JUMP JUMPDEST SWAP1 POP DUP2 DUP2 SUB PUSH1 0x60 DUP4 ADD MSTORE PUSH2 0xB8D DUP2 DUP5 PUSH2 0xAA9 JUMP JUMPDEST SWAP1 POP SWAP6 SWAP5 POP POP POP POP POP JUMP JUMPDEST PUSH0 PUSH1 0x20 DUP3 ADD SWAP1 POP PUSH2 0xBAB PUSH0 DUP4 ADD DUP5 PUSH2 0xB31 JUMP JUMPDEST SWAP3 SWAP2 POP POP JUMP JUMPDEST PUSH32 0x43616C6C6572206973206E6F7420746865206D616E6167657200000000000000 PUSH0 DUP3 ADD MSTORE POP JUMP JUMPDEST PUSH0 PUSH2 0xBE5 PUSH1 0x19 DUP4 PUSH2 0xA8B JUMP JUMPDEST SWAP2 POP PUSH2 0xBF0 DUP3 PUSH2 0xBB1 JUMP JUMPDEST PUSH1 0x20 DUP3 ADD SWAP1 POP SWAP2 SWAP1 POP JUMP JUMPDEST PUSH0 PUSH1 0x20 DUP3 ADD SWAP1 POP DUP2 DUP2 SUB PUSH0 DUP4 ADD MSTORE PUSH2 0xC12 DUP2 PUSH2 0xBD9 JUMP JUMPDEST SWAP1 POP SWAP2 SWAP1 POP JUMP JUMPDEST PUSH32 0x4E487B7100000000000000000000000000000000000000000000000000000000 PUSH0 MSTORE PUSH1 0x22 PUSH1 0x4 MSTORE PUSH1 0x24 PUSH0 REVERT JUMPDEST PUSH0 PUSH1 0x2 DUP3 DIV SWAP1 POP PUSH1 0x1 DUP3 AND DUP1 PUSH2 0xC5D JUMPI PUSH1 0x7F DUP3 AND SWAP2 POP JUMPDEST PUSH1 0x20 DUP3 LT DUP2 SUB PUSH2 0xC70 JUMPI PUSH2 0xC6F PUSH2 0xC19 JUMP JUMPDEST JUMPDEST POP SWAP2 SWAP1 POP JUMP JUMPDEST PUSH0 DUP2 SWAP1 POP DUP2 PUSH0 MSTORE PUSH1 0x20 PUSH0 KECCAK256 SWAP1 POP SWAP2 SWAP1 POP JUMP JUMPDEST PUSH0 PUSH1 0x20 PUSH1 0x1F DUP4 ADD DIV SWAP1 POP SWAP2 SWAP1 POP JUMP JUMPDEST PUSH0 DUP3 DUP3 SHL SWAP1 POP SWAP3 SWAP2 POP POP JUMP JUMPDEST PUSH0 PUSH1 0x8 DUP4 MUL PUSH2 0xCD2 PUSH32 0xFFFFFFFFFFFFFFFFFFFFFFFFFFFFFFFFFFFFFFFFFFFFFFFFFFFFFFFFFFFFFFFF DUP3 PUSH2 0xC97 JUMP JUMPDEST PUSH2 0xCDC DUP7 DUP4 PUSH2 0xC97 JUMP JUMPDEST SWAP6 POP DUP1 NOT DUP5 AND SWAP4 POP DUP1 DUP7 AND DUP5 OR SWAP3 POP POP POP SWAP4 SWAP3 POP POP POP JUMP JUMPDEST PUSH0 DUP2 SWAP1 POP SWAP2 SWAP1 POP JUMP JUMPDEST PUSH0 DUP2 SWAP1 POP SWAP2 SWAP1 POP JUMP JUMPDEST PUSH0 PUSH2 0xD20 PUSH2 0xD1B PUSH2 0xD16 DUP5 PUSH2 0xCF4 JUMP JUMPDEST PUSH2 0xCFD JUMP JUMPDEST PUSH2 0xCF4 JUMP JUMPDEST SWAP1 POP SWAP2 SWAP1 POP JUMP JUMPDEST PUSH0 DUP2 SWAP1 POP SWAP2 SWAP1 POP JUMP JUMPDEST PUSH2 0xD39 DUP4 PUSH2 0xD06 JUMP JUMPDEST PUSH2 0xD4D PUSH2 0xD45 DUP3 PUSH2 0xD27 JUMP JUMPDEST DUP5 DUP5 SLOAD PUSH2 0xCA3 JUMP JUMPDEST DUP3 SSTORE POP POP POP POP JUMP JUMPDEST PUSH0 PUSH0 SWAP1 POP SWAP1 JUMP JUMPDEST PUSH2 0xD64 PUSH2 0xD55 JUMP JUMPDEST PUSH2 0xD6F DUP2 DUP5 DUP5 PUSH2 0xD30 JUMP JUMPDEST POP POP POP JUMP JUMPDEST JUMPDEST DUP2 DUP2 LT ISZERO PUSH2 0xD92 JUMPI PUSH2 0xD87 PUSH0 DUP3 PUSH2 0xD5C JUMP JUMPDEST PUSH1 0x1 DUP2 ADD SWAP1 POP PUSH2 0xD75 JUMP JUMPDEST POP POP JUMP JUMPDEST PUSH1 0x1F DUP3 GT ISZERO PUSH2 0xDD7 JUMPI PUSH2 0xDA8 DUP2 PUSH2 0xC76 JUMP JUMPDEST PUSH2 0xDB1 DUP5 PUSH2 0xC88 JUMP JUMPDEST DUP2 ADD PUSH1 0x20 DUP6 LT ISZERO PUSH2 0xDC0 JUMPI DUP2 SWAP1 POP JUMPDEST PUSH2 0xDD4 PUSH2 0xDCC DUP6 PUSH2 0xC88 JUMP JUMPDEST DUP4 ADD DUP3 PUSH2 0xD74 JUMP JUMPDEST POP POP JUMPDEST POP POP POP JUMP JUMPDEST PUSH0 DUP3 DUP3 SHR SWAP1 POP SWAP3 SWAP2 POP POP JUMP JUMPDEST PUSH0 PUSH2 0xDF7 PUSH0 NOT DUP5 PUSH1 0x8 MUL PUSH2 0xDDC JUMP JUMPDEST NOT DUP1 DUP4 AND SWAP2 POP POP SWAP3 SWAP2 POP POP JUMP JUMPDEST PUSH0 PUSH2 0xE0F DUP4 DUP4 PUSH2 0xDE8 JUMP JUMPDEST SWAP2 POP DUP3 PUSH1 0x2 MUL DUP3 OR SWAP1 POP SWAP3 SWAP2 POP POP JUMP JUMPDEST PUSH2 0xE28 DUP3 PUSH2 0xA81 JUMP JUMPDEST PUSH8 0xFFFFFFFFFFFFFFFF DUP2 GT ISZERO PUSH2 0xE41 JUMPI PUSH2 0xE40 PUSH2 0x8B9 JUMP JUMPDEST JUMPDEST PUSH2 0xE4B DUP3 SLOAD PUSH2 0xC46 JUMP JUMPDEST PUSH2 0xE56 DUP3 DUP3 DUP6 PUSH2 0xD96 JUMP JUMPDEST PUSH0 PUSH1 0x20 SWAP1 POP PUSH1 0x1F DUP4 GT PUSH1 0x1 DUP2 EQ PUSH2 0xE87 JUMPI PUSH0 DUP5 ISZERO PUSH2 0xE75 JUMPI DUP3 DUP8 ADD MLOAD SWAP1 POP JUMPDEST PUSH2 0xE7F DUP6 DUP3 PUSH2 0xE04 JUMP JUMPDEST DUP7 SSTORE POP PUSH2 0xEE6 JUMP JUMPDEST PUSH1 0x1F NOT DUP5 AND PUSH2 0xE95 DUP7 PUSH2 0xC76 JUMP JUMPDEST PUSH0 JUMPDEST DUP3 DUP2 LT ISZERO PUSH2 0xEBC JUMPI DUP5 DUP10 ADD MLOAD DUP3 SSTORE PUSH1 0x1 DUP3 ADD SWAP2 POP PUSH1 0x20 DUP6 ADD SWAP5 POP PUSH1 0x20 DUP2 ADD SWAP1 POP PUSH2 0xE97 JUMP JUMPDEST DUP7 DUP4 LT ISZERO PUSH2 0xED9 JUMPI DUP5 DUP10 ADD MLOAD PUSH2 0xED5 PUSH1 0x1F DUP10 AND DUP3 PUSH2 0xDE8 JUMP JUMPDEST DUP4 SSTORE POP JUMPDEST PUSH1 0x1 PUSH1 0x2 DUP9 MUL ADD DUP9 SSTORE POP POP POP JUMPDEST POP POP POP POP POP POP JUMP JUMPDEST PUSH0 PUSH1 0x40 DUP3 ADD SWAP1 POP PUSH2 0xF01 PUSH0 DUP4 ADD DUP6 PUSH2 0xB31 JUMP JUMPDEST PUSH2 0xF0E PUSH1 0x20 DUP4 ADD DUP5 PUSH2 0xB31 JUMP JUMPDEST SWAP4 SWAP3 POP POP POP JUMP JUMPDEST PUSH0 DUP2 ISZERO ISZERO SWAP1 POP SWAP2 SWAP1 POP JUMP JUMPDEST PUSH2 0xF29 DUP2 PUSH2 0xF15 JUMP JUMPDEST DUP2 EQ PUSH2 0xF33 JUMPI PUSH0 PUSH0 REVERT JUMPDEST POP JUMP JUMPDEST PUSH0 DUP2 MLOAD SWAP1 POP PUSH2 0xF44 DUP2 PUSH2 0xF20 JUMP JUMPDEST SWAP3 SWAP2 POP POP JUMP JUMPDEST PUSH0 PUSH1 0x20 DUP3 DUP5 SUB SLT ISZERO PUSH2 0xF5F JUMPI PUSH2 0xF5E PUSH2 0x899 JUMP JUMPDEST JUMPDEST PUSH0 PUSH2 0xF6C DUP5 DUP3 DUP6 ADD PUSH2 0xF36 JUMP JUMPDEST SWAP2 POP POP SWAP3 SWAP2 POP POP JUMP JUMPDEST PUSH32 0x55736572206973206E6F74207375627363726962656420746F20746869732061 PUSH0 DUP3 ADD MSTORE PUSH32 0x7574686F72000000000000000000000000000000000000000000000000000000 PUSH1 0x20 DUP3 ADD MSTORE POP JUMP JUMPDEST PUSH0 PUSH2 0xFCF PUSH1 0x25 DUP4 PUSH2 0xA8B JUMP JUMPDEST SWAP2 POP PUSH2 0xFDA DUP3 PUSH2 0xF75 JUMP JUMPDEST PUSH1 0x40 DUP3 ADD SWAP1 POP SWAP2 SWAP1 POP JUMP JUMPDEST PUSH0 PUSH1 0x20 DUP3 ADD SWAP1 POP DUP2 DUP2 SUB PUSH0 DUP4 ADD MSTORE PUSH2 0xFFC DUP2 PUSH2 0xFC3 JUMP JUMPDEST SWAP1 POP SWAP2 SWAP1 POP JUMP INVALID LOG2 PUSH5 0x6970667358 0x22 SLT KECCAK256 DUP3 0xD2 0xB8 0xDD STATICCALL 0xD SWAP8 0xED PUSH32 0xE2324F9C4B7DEFC3E58333164D6F7CFDE8BD45AB4EFF7D64736F6C634300081C STOP CALLER "},"gasEstimates":{"creation":{"codeDepositCost":"830600","executionCost":"infinite","totalCost":"infinite"},"external":{"blogAuthor()":"2552","blogContent()":"infinite","blogCreatedAtDate()":"infinite","blogTitle()":"infinite","editBlogPost(string,string,string)":"infinite","getBlogPosts()":"infinite","readBlogPost()":"infinite"}},"methodIdentifiers":{"blogAuthor()":"c46b0b14","blogContent()":"42f40c21","blogCreatedAtDate()":"26942bf0","blogTitle()":"e8a25269","editBlogPost(string,string,string)":"15ecd356","getBlogPosts()":"5e8ae07d","readBlogPost()":"8c8a2adc"}},"storageLayout":{"storage":[{"astId":129,"contract":"blogs.sol:BlogPost","label":"factory","offset":0,"slot":"0","type":"t_contract(BlogPostFactory)126"},{"astId":131,"contract":"blogs.sol:BlogPost","label":"blogAuthor","offset":0,"slot":"1","type":"t_address"},{"astId":133,"contract":"blogs.sol:BlogPost","label":"blogTitle","offset":0,"slot":"2","type":"t_string_storage"},{"astId":135,"contract":"blogs.sol:BlogPost","label":"blogContent","offset":0,"slot":"3","type":"t_string_storage"},{"astId":137,"contract":"blogs.sol:BlogPost","label":"blogCreatedAtDate","offset":0,"slot":"4","type":"t_string_storage"}],"types":{"t_address":{"encoding":"inplace","label":"address","numberOfBytes":"20"},"t_contract(BlogPostFactory)126":{"encoding":"inplace","label":"contract BlogPostFactory","numberOfBytes":"20"},"t_string_storage":{"encoding":"bytes","label":"string","numberOfBytes":"32"}}},"transientStorageLayout":{"storage":[],"types":null},"userdoc":{"kind":"user","methods":{},"version":1}}