{"abi":[{"inputs":[{"internalType":"string","name":"title","type":"string"},{"internalType":"string","name":"postContent","type":"string"},{"internalType":"string","name":"date","type":"string"}],"name":"createBlogPost","outputs":[],"stateMutability":"nonpayable","type":"function"},{"inputs":[{"internalType":"uint256","name":"","type":"uint256"}],"name":"deployedBlogPosts","outputs":[{"internalType":"address","name":"","type":"address"}],"stateMutability":"view","type":"function"},{"inputs":[],"name":"getDeployedBlogPosts","outputs":[{"internalType":"address[]","name":"","type":"address[]"}],"stateMutability":"view","type":"function"},{"inputs":[{"internalType":"address","name":"_author","type":"address"},{"internalType":"address","name":"_reader","type":"address"}],"name":"isSubscribedToAuthor","outputs":[{"internalType":"bool","name":"","type":"bool"}],"stateMutability":"view","type":"function"},{"inputs":[{"internalType":"uint256","name":"_fee","type":"uint256"}],"name":"setSubscriptionFee","outputs":[],"stateMutability":"nonpayable","type":"function"},{"inputs":[{"internalType":"address","name":"_author","type":"address"}],"name":"subscribeToAuthor","outputs":[],"stateMutability":"payable","type":"function"},{"inputs":[{"internalType":"address","name":"","type":"address"},{"internalType":"address","name":"","type":"address"}],"name":"subscribed","outputs":[{"internalType":"bool","name":"","type":"bool"}],"stateMutability":"view","type":"function"},{"inputs":[{"internalType":"address","name":"","type":"address"}],"name":"subscriptionFees","outputs":[{"internalType":"uint256","name":"","type":"uint256"}],"stateMutability":"view","type":"function"}],"devdoc":{"kind":"dev","methods":{},"version":1},"evm":{"assembly":"    /* \"blogs.sol\":59:1230  contract BlogPostFactory {... */\n  mstore(0x40, 0x80)\n  callvalue\n  dup1\n  iszero\n  tag_1\n  jumpi\n  revert(0x00, 0x00)\ntag_1:\n  pop\n  dataSize(sub_0)\n  dup1\n  dataOffset(sub_0)\n  0x00\n  codecopy\n  0x00\n  return\nstop\n\nsub_0: assembly {\n        /* \"blogs.sol\":59:1230  contract BlogPostFactory {... */\n      mstore(0x40, 0x80)\n      jumpi(tag_1, lt(calldatasize, 0x04))\n      shr(0xe0, calldataload(0x00))\n      dup1\n      0x85d481f3\n      gt\n      tag_10\n      jumpi\n      dup1\n      0x85d481f3\n      eq\n      tag_6\n      jumpi\n      dup1\n      0xa6519899\n      eq\n      tag_7\n      jumpi\n      dup1\n      0xce278e75\n      eq\n      tag_8\n      jumpi\n      dup1\n      0xf9f01c23\n      eq\n      tag_9\n      jumpi\n      jump(tag_1)\n    tag_10:\n      dup1\n      0x0194424c\n      eq\n      tag_2\n      jumpi\n      dup1\n      0x2e9b93ed\n      eq\n      tag_3\n      jumpi\n      dup1\n      0x3bdd49cf\n      eq\n      tag_4\n      jumpi\n      dup1\n      0x6ac84956\n      eq\n      tag_5\n      jumpi\n    tag_1:\n      revert(0x00, 0x00)\n        /* \"blogs.sol\":130:181  mapping(address => uint256) public subscriptionFees */\n    tag_2:\n      callvalue\n      dup1\n      iszero\n      tag_11\n      jumpi\n      revert(0x00, 0x00)\n    tag_11:\n      pop\n      tag_12\n      0x04\n      dup1\n      calldatasize\n      sub\n      dup2\n      add\n      swap1\n      tag_13\n      swap2\n      swap1\n      tag_14\n      jump\t// in\n    tag_13:\n      tag_15\n      jump\t// in\n    tag_12:\n      mload(0x40)\n      tag_16\n      swap2\n      swap1\n      tag_17\n      jump\t// in\n    tag_16:\n      mload(0x40)\n      dup1\n      swap2\n      sub\n      swap1\n      return\n        /* \"blogs.sol\":187:249  mapping(address => mapping(address => bool)) public subscribed */\n    tag_3:\n      callvalue\n      dup1\n      iszero\n      tag_18\n      jumpi\n      revert(0x00, 0x00)\n    tag_18:\n      pop\n      tag_19\n      0x04\n      dup1\n      calldatasize\n      sub\n      dup2\n      add\n      swap1\n      tag_20\n      swap2\n      swap1\n      tag_21\n      jump\t// in\n    tag_20:\n      tag_22\n      jump\t// in\n    tag_19:\n      mload(0x40)\n      tag_23\n      swap2\n      swap1\n      tag_24\n      jump\t// in\n    tag_23:\n      mload(0x40)\n      dup1\n      swap2\n      sub\n      swap1\n      return\n        /* \"blogs.sol\":524:635  function getDeployedBlogPosts() public view returns(address[] memory) {... */\n    tag_4:\n      callvalue\n      dup1\n      iszero\n      tag_25\n      jumpi\n      revert(0x00, 0x00)\n    tag_25:\n      pop\n      tag_26\n      tag_27\n      jump\t// in\n    tag_26:\n      mload(0x40)\n      tag_28\n      swap2\n      swap1\n      tag_29\n      jump\t// in\n    tag_28:\n      mload(0x40)\n      dup1\n      swap2\n      sub\n      swap1\n      return\n        /* \"blogs.sol\":641:744  function setSubscriptionFee(uint256 _fee) external {... */\n    tag_5:\n      callvalue\n      dup1\n      iszero\n      tag_30\n      jumpi\n      revert(0x00, 0x00)\n    tag_30:\n      pop\n      tag_31\n      0x04\n      dup1\n      calldatasize\n      sub\n      dup2\n      add\n      swap1\n      tag_32\n      swap2\n      swap1\n      tag_33\n      jump\t// in\n    tag_32:\n      tag_34\n      jump\t// in\n    tag_31:\n      stop\n        /* \"blogs.sol\":1083:1228  function isSubscribedToAuthor(address _author, address _reader) external view returns (bool) {... */\n    tag_6:\n      callvalue\n      dup1\n      iszero\n      tag_35\n      jumpi\n      revert(0x00, 0x00)\n    tag_35:\n      pop\n      tag_36\n      0x04\n      dup1\n      calldatasize\n      sub\n      dup2\n      add\n      swap1\n      tag_37\n      swap2\n      swap1\n      tag_21\n      jump\t// in\n    tag_37:\n      tag_38\n      jump\t// in\n    tag_36:\n      mload(0x40)\n      tag_39\n      swap2\n      swap1\n      tag_24\n      jump\t// in\n    tag_39:\n      mload(0x40)\n      dup1\n      swap2\n      sub\n      swap1\n      return\n        /* \"blogs.sol\":90:124  address[] public deployedBlogPosts */\n    tag_7:\n      callvalue\n      dup1\n      iszero\n      tag_40\n      jumpi\n      revert(0x00, 0x00)\n    tag_40:\n      pop\n      tag_41\n      0x04\n      dup1\n      calldatasize\n      sub\n      dup2\n      add\n      swap1\n      tag_42\n      swap2\n      swap1\n      tag_33\n      jump\t// in\n    tag_42:\n      tag_43\n      jump\t// in\n    tag_41:\n      mload(0x40)\n      tag_44\n      swap2\n      swap1\n      tag_45\n      jump\t// in\n    tag_44:\n      mload(0x40)\n      dup1\n      swap2\n      sub\n      swap1\n      return\n        /* \"blogs.sol\":750:1077  function subscribeToAuthor(address _author) external payable {... */\n    tag_8:\n      tag_46\n      0x04\n      dup1\n      calldatasize\n      sub\n      dup2\n      add\n      swap1\n      tag_47\n      swap2\n      swap1\n      tag_14\n      jump\t// in\n    tag_47:\n      tag_48\n      jump\t// in\n    tag_46:\n      stop\n        /* \"blogs.sol\":261:518  function createBlogPost(string memory title, string memory postContent, string memory date) public {... */\n    tag_9:\n      callvalue\n      dup1\n      iszero\n      tag_49\n      jumpi\n      revert(0x00, 0x00)\n    tag_49:\n      pop\n      tag_50\n      0x04\n      dup1\n      calldatasize\n      sub\n      dup2\n      add\n      swap1\n      tag_51\n      swap2\n      swap1\n      tag_52\n      jump\t// in\n    tag_51:\n      tag_53\n      jump\t// in\n    tag_50:\n      stop\n        /* \"blogs.sol\":130:181  mapping(address => uint256) public subscriptionFees */\n    tag_15:\n      mstore(0x20, 0x01)\n      dup1\n      0x00\n      mstore\n      keccak256(0x00, 0x40)\n      0x00\n      swap2\n      pop\n      swap1\n      pop\n      sload\n      dup2\n      jump\t// out\n        /* \"blogs.sol\":187:249  mapping(address => mapping(address => bool)) public subscribed */\n    tag_22:\n      mstore(0x20, 0x02)\n      dup2\n      0x00\n      mstore\n      mstore(0x20, keccak256(0x00, 0x40))\n      dup1\n      0x00\n      mstore\n      keccak256(0x00, 0x40)\n      0x00\n      swap2\n      pop\n      swap2\n      pop\n      swap1\n      sload\n      swap1\n      0x0100\n      exp\n      swap1\n      div\n      0xff\n      and\n      dup2\n      jump\t// out\n        /* \"blogs.sol\":524:635  function getDeployedBlogPosts() public view returns(address[] memory) {... */\n    tag_27:\n        /* \"blogs.sol\":576:592  address[] memory */\n      0x60\n        /* \"blogs.sol\":611:628  deployedBlogPosts */\n      0x00\n        /* \"blogs.sol\":604:628  return deployedBlogPosts */\n      dup1\n      sload\n      dup1\n      0x20\n      mul\n      0x20\n      add\n      mload(0x40)\n      swap1\n      dup2\n      add\n      0x40\n      mstore\n      dup1\n      swap3\n      swap2\n      swap1\n      dup2\n      dup2\n      mstore\n      0x20\n      add\n      dup3\n      dup1\n      sload\n      dup1\n      iszero\n      tag_55\n      jumpi\n      0x20\n      mul\n      dup3\n      add\n      swap2\n      swap1\n      0x00\n      mstore\n      keccak256(0x00, 0x20)\n      swap1\n    tag_56:\n      dup2\n      0x00\n      swap1\n      sload\n      swap1\n      0x0100\n      exp\n      swap1\n      div\n      0xffffffffffffffffffffffffffffffffffffffff\n      and\n      0xffffffffffffffffffffffffffffffffffffffff\n      and\n      dup2\n      mstore\n      0x20\n      add\n      swap1\n      0x01\n      add\n      swap1\n      dup1\n      dup4\n      gt\n      tag_56\n      jumpi\n    tag_55:\n      pop\n      pop\n      pop\n      pop\n      pop\n      swap1\n      pop\n        /* \"blogs.sol\":524:635  function getDeployedBlogPosts() public view returns(address[] memory) {... */\n      swap1\n      jump\t// out\n        /* \"blogs.sol\":641:744  function setSubscriptionFee(uint256 _fee) external {... */\n    tag_34:\n        /* \"blogs.sol\":733:737  _fee */\n      dup1\n        /* \"blogs.sol\":702:718  subscriptionFees */\n      0x01\n        /* \"blogs.sol\":702:730  subscriptionFees[msg.sender] */\n      0x00\n        /* \"blogs.sol\":719:729  msg.sender */\n      caller\n        /* \"blogs.sol\":702:730  subscriptionFees[msg.sender] */\n      0xffffffffffffffffffffffffffffffffffffffff\n      and\n      0xffffffffffffffffffffffffffffffffffffffff\n      and\n      dup2\n      mstore\n      0x20\n      add\n      swap1\n      dup2\n      mstore\n      0x20\n      add\n      0x00\n      keccak256\n        /* \"blogs.sol\":702:737  subscriptionFees[msg.sender] = _fee */\n      dup2\n      swap1\n      sstore\n      pop\n        /* \"blogs.sol\":641:744  function setSubscriptionFee(uint256 _fee) external {... */\n      pop\n      jump\t// out\n        /* \"blogs.sol\":1083:1228  function isSubscribedToAuthor(address _author, address _reader) external view returns (bool) {... */\n    tag_38:\n        /* \"blogs.sol\":1170:1174  bool */\n      0x00\n        /* \"blogs.sol\":1193:1203  subscribed */\n      0x02\n        /* \"blogs.sol\":1193:1212  subscribed[_author] */\n      0x00\n        /* \"blogs.sol\":1204:1211  _author */\n      dup5\n        /* \"blogs.sol\":1193:1212  subscribed[_author] */\n      0xffffffffffffffffffffffffffffffffffffffff\n      and\n      0xffffffffffffffffffffffffffffffffffffffff\n      and\n      dup2\n      mstore\n      0x20\n      add\n      swap1\n      dup2\n      mstore\n      0x20\n      add\n      0x00\n      keccak256\n        /* \"blogs.sol\":1193:1221  subscribed[_author][_reader] */\n      0x00\n        /* \"blogs.sol\":1213:1220  _reader */\n      dup4\n        /* \"blogs.sol\":1193:1221  subscribed[_author][_reader] */\n      0xffffffffffffffffffffffffffffffffffffffff\n      and\n      0xffffffffffffffffffffffffffffffffffffffff\n      and\n      dup2\n      mstore\n      0x20\n      add\n      swap1\n      dup2\n      mstore\n      0x20\n      add\n      0x00\n      keccak256\n      0x00\n      swap1\n      sload\n      swap1\n      0x0100\n      exp\n      swap1\n      div\n      0xff\n      and\n        /* \"blogs.sol\":1186:1221  return subscribed[_author][_reader] */\n      swap1\n      pop\n        /* \"blogs.sol\":1083:1228  function isSubscribedToAuthor(address _author, address _reader) external view returns (bool) {... */\n      swap3\n      swap2\n      pop\n      pop\n      jump\t// out\n        /* \"blogs.sol\":90:124  address[] public deployedBlogPosts */\n    tag_43:\n      0x00\n      dup2\n      dup2\n      sload\n      dup2\n      lt\n      tag_59\n      jumpi\n      0x00\n      dup1\n      revert\n    tag_59:\n      swap1\n      0x00\n      mstore\n      keccak256(0x00, 0x20)\n      add\n      0x00\n      swap2\n      pop\n      sload\n      swap1\n      0x0100\n      exp\n      swap1\n      div\n      0xffffffffffffffffffffffffffffffffffffffff\n      and\n      dup2\n      jump\t// out\n        /* \"blogs.sol\":750:1077  function subscribeToAuthor(address _author) external payable {... */\n    tag_48:\n        /* \"blogs.sol\":821:832  uint256 fee */\n      0x00\n        /* \"blogs.sol\":835:851  subscriptionFees */\n      0x01\n        /* \"blogs.sol\":835:860  subscriptionFees[_author] */\n      0x00\n        /* \"blogs.sol\":852:859  _author */\n      dup4\n        /* \"blogs.sol\":835:860  subscriptionFees[_author] */\n      0xffffffffffffffffffffffffffffffffffffffff\n      and\n      0xffffffffffffffffffffffffffffffffffffffff\n      and\n      dup2\n      mstore\n      0x20\n      add\n      swap1\n      dup2\n      mstore\n      0x20\n      add\n      0x00\n      keccak256\n      sload\n        /* \"blogs.sol\":821:860  uint256 fee = subscriptionFees[_author] */\n      swap1\n      pop\n        /* \"blogs.sol\":884:885  0 */\n      0x00\n        /* \"blogs.sol\":878:881  fee */\n      dup2\n        /* \"blogs.sol\":878:885  fee > 0 */\n      gt\n        /* \"blogs.sol\":870:927  require(fee > 0, \"Author has not set a subscription fee\") */\n      tag_62\n      jumpi\n      mload(0x40)\n      0x08c379a000000000000000000000000000000000000000000000000000000000\n      dup2\n      mstore\n      0x04\n      add\n      tag_63\n      swap1\n      tag_64\n      jump\t// in\n    tag_63:\n      mload(0x40)\n      dup1\n      swap2\n      sub\n      swap1\n      revert\n    tag_62:\n        /* \"blogs.sol\":958:961  fee */\n      dup1\n        /* \"blogs.sol\":945:954  msg.value */\n      callvalue\n        /* \"blogs.sol\":945:961  msg.value == fee */\n      eq\n        /* \"blogs.sol\":937:997  require(msg.value == fee, \"Incorrect subscription fee sent\") */\n      tag_65\n      jumpi\n      mload(0x40)\n      0x08c379a000000000000000000000000000000000000000000000000000000000\n      dup2\n      mstore\n      0x04\n      add\n      tag_66\n      swap1\n      tag_67\n      jump\t// in\n    tag_66:\n      mload(0x40)\n      dup1\n      swap2\n      sub\n      swap1\n      revert\n    tag_65:\n        /* \"blogs.sol\":1016:1026  subscribed */\n      0x02\n        /* \"blogs.sol\":1016:1035  subscribed[_author] */\n      0x00\n        /* \"blogs.sol\":1027:1034  _author */\n      dup4\n        /* \"blogs.sol\":1016:1035  subscribed[_author] */\n      0xffffffffffffffffffffffffffffffffffffffff\n      and\n      0xffffffffffffffffffffffffffffffffffffffff\n      and\n      dup2\n      mstore\n      0x20\n      add\n      swap1\n      dup2\n      mstore\n      0x20\n      add\n      0x00\n      keccak256\n        /* \"blogs.sol\":1016:1047  subscribed[_author][msg.sender] */\n      0x00\n        /* \"blogs.sol\":1036:1046  msg.sender */\n      caller\n        /* \"blogs.sol\":1016:1047  subscribed[_author][msg.sender] */\n      0xffffffffffffffffffffffffffffffffffffffff\n      and\n      0xffffffffffffffffffffffffffffffffffffffff\n      and\n      dup2\n      mstore\n      0x20\n      add\n      swap1\n      dup2\n      mstore\n      0x20\n      add\n      0x00\n      keccak256\n      0x00\n      swap1\n      sload\n      swap1\n      0x0100\n      exp\n      swap1\n      div\n      0xff\n      and\n        /* \"blogs.sol\":1015:1047  !subscribed[_author][msg.sender] */\n      iszero\n        /* \"blogs.sol\":1007:1070  require(!subscribed[_author][msg.sender], \"Already subscribed\") */\n      tag_68\n      jumpi\n      mload(0x40)\n      0x08c379a000000000000000000000000000000000000000000000000000000000\n      dup2\n      mstore\n      0x04\n      add\n      tag_69\n      swap1\n      tag_70\n      jump\t// in\n    tag_69:\n      mload(0x40)\n      dup1\n      swap2\n      sub\n      swap1\n      revert\n    tag_68:\n        /* \"blogs.sol\":811:1077  {... */\n      pop\n        /* \"blogs.sol\":750:1077  function subscribeToAuthor(address _author) external payable {... */\n      pop\n      jump\t// out\n        /* \"blogs.sol\":261:518  function createBlogPost(string memory title, string memory postContent, string memory date) public {... */\n    tag_53:\n        /* \"blogs.sol\":370:389  address newBlogPost */\n      0x00\n        /* \"blogs.sol\":421:425  this */\n      address\n        /* \"blogs.sol\":428:438  msg.sender */\n      caller\n        /* \"blogs.sol\":440:445  title */\n      dup6\n        /* \"blogs.sol\":447:458  postContent */\n      dup6\n        /* \"blogs.sol\":460:464  date */\n      dup6\n        /* \"blogs.sol\":400:465  new BlogPost(address(this), msg.sender, title, postContent, date) */\n      mload(0x40)\n      tag_72\n      swap1\n      tag_73\n      jump\t// in\n    tag_72:\n      tag_74\n      swap6\n      swap5\n      swap4\n      swap3\n      swap2\n      swap1\n      tag_75\n      jump\t// in\n    tag_74:\n      mload(0x40)\n      dup1\n      swap2\n      sub\n      swap1\n      0x00\n      create\n      dup1\n      iszero\n      dup1\n      iszero\n      tag_76\n      jumpi\n      returndatacopy(0x00, 0x00, returndatasize)\n      revert(0x00, returndatasize)\n    tag_76:\n      pop\n        /* \"blogs.sol\":370:466  address newBlogPost = address(new BlogPost(address(this), msg.sender, title, postContent, date)) */\n      swap1\n      pop\n        /* \"blogs.sol\":476:493  deployedBlogPosts */\n      0x00\n        /* \"blogs.sol\":499:510  newBlogPost */\n      dup2\n        /* \"blogs.sol\":476:511  deployedBlogPosts.push(newBlogPost) */\n      swap1\n      dup1\n      0x01\n      dup2\n      sload\n      add\n      dup1\n      dup3\n      sstore\n      dup1\n      swap2\n      pop\n      pop\n      0x01\n      swap1\n      sub\n      swap1\n      0x00\n      mstore\n      keccak256(0x00, 0x20)\n      add\n      0x00\n      swap1\n      swap2\n      swap1\n      swap2\n      swap1\n      swap2\n      0x0100\n      exp\n      dup2\n      sload\n      dup2\n      0xffffffffffffffffffffffffffffffffffffffff\n      mul\n      not\n      and\n      swap1\n      dup4\n      0xffffffffffffffffffffffffffffffffffffffff\n      and\n      mul\n      or\n      swap1\n      sstore\n      pop\n        /* \"blogs.sol\":360:518  {... */\n      pop\n        /* \"blogs.sol\":261:518  function createBlogPost(string memory title, string memory postContent, string memory date) public {... */\n      pop\n      pop\n      pop\n      jump\t// out\n    tag_73:\n      dataSize(sub_0)\n      dup1\n      dataOffset(sub_0)\n      dup4\n      codecopy\n      add\n      swap1\n      jump\t// out\n        /* \"#utility.yul\":7:82   */\n    tag_78:\n        /* \"#utility.yul\":40:46   */\n      0x00\n        /* \"#utility.yul\":73:75   */\n      0x40\n        /* \"#utility.yul\":67:76   */\n      mload\n        /* \"#utility.yul\":57:76   */\n      swap1\n      pop\n        /* \"#utility.yul\":7:82   */\n      swap1\n      jump\t// out\n        /* \"#utility.yul\":88:205   */\n    tag_79:\n        /* \"#utility.yul\":197:198   */\n      0x00\n        /* \"#utility.yul\":194:195   */\n      0x00\n        /* \"#utility.yul\":187:199   */\n      revert\n        /* \"#utility.yul\":211:328   */\n    tag_80:\n        /* \"#utility.yul\":320:321   */\n      0x00\n        /* \"#utility.yul\":317:318   */\n      0x00\n        /* \"#utility.yul\":310:322   */\n      revert\n        /* \"#utility.yul\":334:460   */\n    tag_81:\n        /* \"#utility.yul\":371:378   */\n      0x00\n        /* \"#utility.yul\":411:453   */\n      0xffffffffffffffffffffffffffffffffffffffff\n        /* \"#utility.yul\":404:409   */\n      dup3\n        /* \"#utility.yul\":400:454   */\n      and\n        /* \"#utility.yul\":389:454   */\n      swap1\n      pop\n        /* \"#utility.yul\":334:460   */\n      swap2\n      swap1\n      pop\n      jump\t// out\n        /* \"#utility.yul\":466:562   */\n    tag_82:\n        /* \"#utility.yul\":503:510   */\n      0x00\n        /* \"#utility.yul\":532:556   */\n      tag_125\n        /* \"#utility.yul\":550:555   */\n      dup3\n        /* \"#utility.yul\":532:556   */\n      tag_81\n      jump\t// in\n    tag_125:\n        /* \"#utility.yul\":521:556   */\n      swap1\n      pop\n        /* \"#utility.yul\":466:562   */\n      swap2\n      swap1\n      pop\n      jump\t// out\n        /* \"#utility.yul\":568:690   */\n    tag_83:\n        /* \"#utility.yul\":641:665   */\n      tag_127\n        /* \"#utility.yul\":659:664   */\n      dup2\n        /* \"#utility.yul\":641:665   */\n      tag_82\n      jump\t// in\n    tag_127:\n        /* \"#utility.yul\":634:639   */\n      dup2\n        /* \"#utility.yul\":631:666   */\n      eq\n        /* \"#utility.yul\":621:684   */\n      tag_128\n      jumpi\n        /* \"#utility.yul\":680:681   */\n      0x00\n        /* \"#utility.yul\":677:678   */\n      0x00\n        /* \"#utility.yul\":670:682   */\n      revert\n        /* \"#utility.yul\":621:684   */\n    tag_128:\n        /* \"#utility.yul\":568:690   */\n      pop\n      jump\t// out\n        /* \"#utility.yul\":696:835   */\n    tag_84:\n        /* \"#utility.yul\":742:747   */\n      0x00\n        /* \"#utility.yul\":780:786   */\n      dup2\n        /* \"#utility.yul\":767:787   */\n      calldataload\n        /* \"#utility.yul\":758:787   */\n      swap1\n      pop\n        /* \"#utility.yul\":796:829   */\n      tag_130\n        /* \"#utility.yul\":823:828   */\n      dup2\n        /* \"#utility.yul\":796:829   */\n      tag_83\n      jump\t// in\n    tag_130:\n        /* \"#utility.yul\":696:835   */\n      swap3\n      swap2\n      pop\n      pop\n      jump\t// out\n        /* \"#utility.yul\":841:1170   */\n    tag_14:\n        /* \"#utility.yul\":900:906   */\n      0x00\n        /* \"#utility.yul\":949:951   */\n      0x20\n        /* \"#utility.yul\":937:946   */\n      dup3\n        /* \"#utility.yul\":928:935   */\n      dup5\n        /* \"#utility.yul\":924:947   */\n      sub\n        /* \"#utility.yul\":920:952   */\n      slt\n        /* \"#utility.yul\":917:1036   */\n      iszero\n      tag_132\n      jumpi\n        /* \"#utility.yul\":955:1034   */\n      tag_133\n      tag_79\n      jump\t// in\n    tag_133:\n        /* \"#utility.yul\":917:1036   */\n    tag_132:\n        /* \"#utility.yul\":1075:1076   */\n      0x00\n        /* \"#utility.yul\":1100:1153   */\n      tag_134\n        /* \"#utility.yul\":1145:1152   */\n      dup5\n        /* \"#utility.yul\":1136:1142   */\n      dup3\n        /* \"#utility.yul\":1125:1134   */\n      dup6\n        /* \"#utility.yul\":1121:1143   */\n      add\n        /* \"#utility.yul\":1100:1153   */\n      tag_84\n      jump\t// in\n    tag_134:\n        /* \"#utility.yul\":1090:1153   */\n      swap2\n      pop\n        /* \"#utility.yul\":1046:1163   */\n      pop\n        /* \"#utility.yul\":841:1170   */\n      swap3\n      swap2\n      pop\n      pop\n      jump\t// out\n        /* \"#utility.yul\":1176:1253   */\n    tag_85:\n        /* \"#utility.yul\":1213:1220   */\n      0x00\n        /* \"#utility.yul\":1242:1247   */\n      dup2\n        /* \"#utility.yul\":1231:1247   */\n      swap1\n      pop\n        /* \"#utility.yul\":1176:1253   */\n      swap2\n      swap1\n      pop\n      jump\t// out\n        /* \"#utility.yul\":1259:1377   */\n    tag_86:\n        /* \"#utility.yul\":1346:1370   */\n      tag_137\n        /* \"#utility.yul\":1364:1369   */\n      dup2\n        /* \"#utility.yul\":1346:1370   */\n      tag_85\n      jump\t// in\n    tag_137:\n        /* \"#utility.yul\":1341:1344   */\n      dup3\n        /* \"#utility.yul\":1334:1371   */\n      mstore\n        /* \"#utility.yul\":1259:1377   */\n      pop\n      pop\n      jump\t// out\n        /* \"#utility.yul\":1383:1605   */\n    tag_17:\n        /* \"#utility.yul\":1476:1480   */\n      0x00\n        /* \"#utility.yul\":1514:1516   */\n      0x20\n        /* \"#utility.yul\":1503:1512   */\n      dup3\n        /* \"#utility.yul\":1499:1517   */\n      add\n        /* \"#utility.yul\":1491:1517   */\n      swap1\n      pop\n        /* \"#utility.yul\":1527:1598   */\n      tag_139\n        /* \"#utility.yul\":1595:1596   */\n      0x00\n        /* \"#utility.yul\":1584:1593   */\n      dup4\n        /* \"#utility.yul\":1580:1597   */\n      add\n        /* \"#utility.yul\":1571:1577   */\n      dup5\n        /* \"#utility.yul\":1527:1598   */\n      tag_86\n      jump\t// in\n    tag_139:\n        /* \"#utility.yul\":1383:1605   */\n      swap3\n      swap2\n      pop\n      pop\n      jump\t// out\n        /* \"#utility.yul\":1611:2085   */\n    tag_21:\n        /* \"#utility.yul\":1679:1685   */\n      0x00\n        /* \"#utility.yul\":1687:1693   */\n      0x00\n        /* \"#utility.yul\":1736:1738   */\n      0x40\n        /* \"#utility.yul\":1724:1733   */\n      dup4\n        /* \"#utility.yul\":1715:1722   */\n      dup6\n        /* \"#utility.yul\":1711:1734   */\n      sub\n        /* \"#utility.yul\":1707:1739   */\n      slt\n        /* \"#utility.yul\":1704:1823   */\n      iszero\n      tag_141\n      jumpi\n        /* \"#utility.yul\":1742:1821   */\n      tag_142\n      tag_79\n      jump\t// in\n    tag_142:\n        /* \"#utility.yul\":1704:1823   */\n    tag_141:\n        /* \"#utility.yul\":1862:1863   */\n      0x00\n        /* \"#utility.yul\":1887:1940   */\n      tag_143\n        /* \"#utility.yul\":1932:1939   */\n      dup6\n        /* \"#utility.yul\":1923:1929   */\n      dup3\n        /* \"#utility.yul\":1912:1921   */\n      dup7\n        /* \"#utility.yul\":1908:1930   */\n      add\n        /* \"#utility.yul\":1887:1940   */\n      tag_84\n      jump\t// in\n    tag_143:\n        /* \"#utility.yul\":1877:1940   */\n      swap3\n      pop\n        /* \"#utility.yul\":1833:1950   */\n      pop\n        /* \"#utility.yul\":1989:1991   */\n      0x20\n        /* \"#utility.yul\":2015:2068   */\n      tag_144\n        /* \"#utility.yul\":2060:2067   */\n      dup6\n        /* \"#utility.yul\":2051:2057   */\n      dup3\n        /* \"#utility.yul\":2040:2049   */\n      dup7\n        /* \"#utility.yul\":2036:2058   */\n      add\n        /* \"#utility.yul\":2015:2068   */\n      tag_84\n      jump\t// in\n    tag_144:\n        /* \"#utility.yul\":2005:2068   */\n      swap2\n      pop\n        /* \"#utility.yul\":1960:2078   */\n      pop\n        /* \"#utility.yul\":1611:2085   */\n      swap3\n      pop\n      swap3\n      swap1\n      pop\n      jump\t// out\n        /* \"#utility.yul\":2091:2181   */\n    tag_87:\n        /* \"#utility.yul\":2125:2132   */\n      0x00\n        /* \"#utility.yul\":2168:2173   */\n      dup2\n        /* \"#utility.yul\":2161:2174   */\n      iszero\n        /* \"#utility.yul\":2154:2175   */\n      iszero\n        /* \"#utility.yul\":2143:2175   */\n      swap1\n      pop\n        /* \"#utility.yul\":2091:2181   */\n      swap2\n      swap1\n      pop\n      jump\t// out\n        /* \"#utility.yul\":2187:2296   */\n    tag_88:\n        /* \"#utility.yul\":2268:2289   */\n      tag_147\n        /* \"#utility.yul\":2283:2288   */\n      dup2\n        /* \"#utility.yul\":2268:2289   */\n      tag_87\n      jump\t// in\n    tag_147:\n        /* \"#utility.yul\":2263:2266   */\n      dup3\n        /* \"#utility.yul\":2256:2290   */\n      mstore\n        /* \"#utility.yul\":2187:2296   */\n      pop\n      pop\n      jump\t// out\n        /* \"#utility.yul\":2302:2512   */\n    tag_24:\n        /* \"#utility.yul\":2389:2393   */\n      0x00\n        /* \"#utility.yul\":2427:2429   */\n      0x20\n        /* \"#utility.yul\":2416:2425   */\n      dup3\n        /* \"#utility.yul\":2412:2430   */\n      add\n        /* \"#utility.yul\":2404:2430   */\n      swap1\n      pop\n        /* \"#utility.yul\":2440:2505   */\n      tag_149\n        /* \"#utility.yul\":2502:2503   */\n      0x00\n        /* \"#utility.yul\":2491:2500   */\n      dup4\n        /* \"#utility.yul\":2487:2504   */\n      add\n        /* \"#utility.yul\":2478:2484   */\n      dup5\n        /* \"#utility.yul\":2440:2505   */\n      tag_88\n      jump\t// in\n    tag_149:\n        /* \"#utility.yul\":2302:2512   */\n      swap3\n      swap2\n      pop\n      pop\n      jump\t// out\n        /* \"#utility.yul\":2518:2632   */\n    tag_89:\n        /* \"#utility.yul\":2585:2591   */\n      0x00\n        /* \"#utility.yul\":2619:2624   */\n      dup2\n        /* \"#utility.yul\":2613:2625   */\n      mload\n        /* \"#utility.yul\":2603:2625   */\n      swap1\n      pop\n        /* \"#utility.yul\":2518:2632   */\n      swap2\n      swap1\n      pop\n      jump\t// out\n        /* \"#utility.yul\":2638:2822   */\n    tag_90:\n        /* \"#utility.yul\":2737:2748   */\n      0x00\n        /* \"#utility.yul\":2771:2777   */\n      dup3\n        /* \"#utility.yul\":2766:2769   */\n      dup3\n        /* \"#utility.yul\":2759:2778   */\n      mstore\n        /* \"#utility.yul\":2811:2815   */\n      0x20\n        /* \"#utility.yul\":2806:2809   */\n      dup3\n        /* \"#utility.yul\":2802:2816   */\n      add\n        /* \"#utility.yul\":2787:2816   */\n      swap1\n      pop\n        /* \"#utility.yul\":2638:2822   */\n      swap3\n      swap2\n      pop\n      pop\n      jump\t// out\n        /* \"#utility.yul\":2828:2960   */\n    tag_91:\n        /* \"#utility.yul\":2895:2899   */\n      0x00\n        /* \"#utility.yul\":2918:2921   */\n      dup2\n        /* \"#utility.yul\":2910:2921   */\n      swap1\n      pop\n        /* \"#utility.yul\":2948:2952   */\n      0x20\n        /* \"#utility.yul\":2943:2946   */\n      dup3\n        /* \"#utility.yul\":2939:2953   */\n      add\n        /* \"#utility.yul\":2931:2953   */\n      swap1\n      pop\n        /* \"#utility.yul\":2828:2960   */\n      swap2\n      swap1\n      pop\n      jump\t// out\n        /* \"#utility.yul\":2966:3074   */\n    tag_92:\n        /* \"#utility.yul\":3043:3067   */\n      tag_154\n        /* \"#utility.yul\":3061:3066   */\n      dup2\n        /* \"#utility.yul\":3043:3067   */\n      tag_82\n      jump\t// in\n    tag_154:\n        /* \"#utility.yul\":3038:3041   */\n      dup3\n        /* \"#utility.yul\":3031:3068   */\n      mstore\n        /* \"#utility.yul\":2966:3074   */\n      pop\n      pop\n      jump\t// out\n        /* \"#utility.yul\":3080:3259   */\n    tag_93:\n        /* \"#utility.yul\":3149:3159   */\n      0x00\n        /* \"#utility.yul\":3170:3216   */\n      tag_156\n        /* \"#utility.yul\":3212:3215   */\n      dup4\n        /* \"#utility.yul\":3204:3210   */\n      dup4\n        /* \"#utility.yul\":3170:3216   */\n      tag_92\n      jump\t// in\n    tag_156:\n        /* \"#utility.yul\":3248:3252   */\n      0x20\n        /* \"#utility.yul\":3243:3246   */\n      dup4\n        /* \"#utility.yul\":3239:3253   */\n      add\n        /* \"#utility.yul\":3225:3253   */\n      swap1\n      pop\n        /* \"#utility.yul\":3080:3259   */\n      swap3\n      swap2\n      pop\n      pop\n      jump\t// out\n        /* \"#utility.yul\":3265:3378   */\n    tag_94:\n        /* \"#utility.yul\":3335:3339   */\n      0x00\n        /* \"#utility.yul\":3367:3371   */\n      0x20\n        /* \"#utility.yul\":3362:3365   */\n      dup3\n        /* \"#utility.yul\":3358:3372   */\n      add\n        /* \"#utility.yul\":3350:3372   */\n      swap1\n      pop\n        /* \"#utility.yul\":3265:3378   */\n      swap2\n      swap1\n      pop\n      jump\t// out\n        /* \"#utility.yul\":3414:4146   */\n    tag_95:\n        /* \"#utility.yul\":3533:3536   */\n      0x00\n        /* \"#utility.yul\":3562:3616   */\n      tag_159\n        /* \"#utility.yul\":3610:3615   */\n      dup3\n        /* \"#utility.yul\":3562:3616   */\n      tag_89\n      jump\t// in\n    tag_159:\n        /* \"#utility.yul\":3632:3718   */\n      tag_160\n        /* \"#utility.yul\":3711:3717   */\n      dup2\n        /* \"#utility.yul\":3706:3709   */\n      dup6\n        /* \"#utility.yul\":3632:3718   */\n      tag_90\n      jump\t// in\n    tag_160:\n        /* \"#utility.yul\":3625:3718   */\n      swap4\n      pop\n        /* \"#utility.yul\":3742:3798   */\n      tag_161\n        /* \"#utility.yul\":3792:3797   */\n      dup4\n        /* \"#utility.yul\":3742:3798   */\n      tag_91\n      jump\t// in\n    tag_161:\n        /* \"#utility.yul\":3821:3828   */\n      dup1\n        /* \"#utility.yul\":3852:3853   */\n      0x00\n        /* \"#utility.yul\":3837:4121   */\n    tag_162:\n        /* \"#utility.yul\":3862:3868   */\n      dup4\n        /* \"#utility.yul\":3859:3860   */\n      dup2\n        /* \"#utility.yul\":3856:3869   */\n      lt\n        /* \"#utility.yul\":3837:4121   */\n      iszero\n      tag_164\n      jumpi\n        /* \"#utility.yul\":3938:3944   */\n      dup2\n        /* \"#utility.yul\":3932:3945   */\n      mload\n        /* \"#utility.yul\":3965:4028   */\n      tag_165\n        /* \"#utility.yul\":4024:4027   */\n      dup9\n        /* \"#utility.yul\":4009:4022   */\n      dup3\n        /* \"#utility.yul\":3965:4028   */\n      tag_93\n      jump\t// in\n    tag_165:\n        /* \"#utility.yul\":3958:4028   */\n      swap8\n      pop\n        /* \"#utility.yul\":4051:4111   */\n      tag_166\n        /* \"#utility.yul\":4104:4110   */\n      dup4\n        /* \"#utility.yul\":4051:4111   */\n      tag_94\n      jump\t// in\n    tag_166:\n        /* \"#utility.yul\":4041:4111   */\n      swap3\n      pop\n        /* \"#utility.yul\":3897:4121   */\n      pop\n        /* \"#utility.yul\":3884:3885   */\n      0x01\n        /* \"#utility.yul\":3881:3882   */\n      dup2\n        /* \"#utility.yul\":3877:3886   */\n      add\n        /* \"#utility.yul\":3872:3886   */\n      swap1\n      pop\n        /* \"#utility.yul\":3837:4121   */\n      jump(tag_162)\n    tag_164:\n        /* \"#utility.yul\":3841:3855   */\n      pop\n        /* \"#utility.yul\":4137:4140   */\n      dup6\n        /* \"#utility.yul\":4130:4140   */\n      swap4\n      pop\n        /* \"#utility.yul\":3538:4146   */\n      pop\n      pop\n      pop\n        /* \"#utility.yul\":3414:4146   */\n      swap3\n      swap2\n      pop\n      pop\n      jump\t// out\n        /* \"#utility.yul\":4152:4525   */\n    tag_29:\n        /* \"#utility.yul\":4295:4299   */\n      0x00\n        /* \"#utility.yul\":4333:4335   */\n      0x20\n        /* \"#utility.yul\":4322:4331   */\n      dup3\n        /* \"#utility.yul\":4318:4336   */\n      add\n        /* \"#utility.yul\":4310:4336   */\n      swap1\n      pop\n        /* \"#utility.yul\":4382:4391   */\n      dup2\n        /* \"#utility.yul\":4376:4380   */\n      dup2\n        /* \"#utility.yul\":4372:4392   */\n      sub\n        /* \"#utility.yul\":4368:4369   */\n      0x00\n        /* \"#utility.yul\":4357:4366   */\n      dup4\n        /* \"#utility.yul\":4353:4370   */\n      add\n        /* \"#utility.yul\":4346:4393   */\n      mstore\n        /* \"#utility.yul\":4410:4518   */\n      tag_168\n        /* \"#utility.yul\":4513:4517   */\n      dup2\n        /* \"#utility.yul\":4504:4510   */\n      dup5\n        /* \"#utility.yul\":4410:4518   */\n      tag_95\n      jump\t// in\n    tag_168:\n        /* \"#utility.yul\":4402:4518   */\n      swap1\n      pop\n        /* \"#utility.yul\":4152:4525   */\n      swap3\n      swap2\n      pop\n      pop\n      jump\t// out\n        /* \"#utility.yul\":4531:4653   */\n    tag_96:\n        /* \"#utility.yul\":4604:4628   */\n      tag_170\n        /* \"#utility.yul\":4622:4627   */\n      dup2\n        /* \"#utility.yul\":4604:4628   */\n      tag_85\n      jump\t// in\n    tag_170:\n        /* \"#utility.yul\":4597:4602   */\n      dup2\n        /* \"#utility.yul\":4594:4629   */\n      eq\n        /* \"#utility.yul\":4584:4647   */\n      tag_171\n      jumpi\n        /* \"#utility.yul\":4643:4644   */\n      0x00\n        /* \"#utility.yul\":4640:4641   */\n      0x00\n        /* \"#utility.yul\":4633:4645   */\n      revert\n        /* \"#utility.yul\":4584:4647   */\n    tag_171:\n        /* \"#utility.yul\":4531:4653   */\n      pop\n      jump\t// out\n        /* \"#utility.yul\":4659:4798   */\n    tag_97:\n        /* \"#utility.yul\":4705:4710   */\n      0x00\n        /* \"#utility.yul\":4743:4749   */\n      dup2\n        /* \"#utility.yul\":4730:4750   */\n      calldataload\n        /* \"#utility.yul\":4721:4750   */\n      swap1\n      pop\n        /* \"#utility.yul\":4759:4792   */\n      tag_173\n        /* \"#utility.yul\":4786:4791   */\n      dup2\n        /* \"#utility.yul\":4759:4792   */\n      tag_96\n      jump\t// in\n    tag_173:\n        /* \"#utility.yul\":4659:4798   */\n      swap3\n      swap2\n      pop\n      pop\n      jump\t// out\n        /* \"#utility.yul\":4804:5133   */\n    tag_33:\n        /* \"#utility.yul\":4863:4869   */\n      0x00\n        /* \"#utility.yul\":4912:4914   */\n      0x20\n        /* \"#utility.yul\":4900:4909   */\n      dup3\n        /* \"#utility.yul\":4891:4898   */\n      dup5\n        /* \"#utility.yul\":4887:4910   */\n      sub\n        /* \"#utility.yul\":4883:4915   */\n      slt\n        /* \"#utility.yul\":4880:4999   */\n      iszero\n      tag_175\n      jumpi\n        /* \"#utility.yul\":4918:4997   */\n      tag_176\n      tag_79\n      jump\t// in\n    tag_176:\n        /* \"#utility.yul\":4880:4999   */\n    tag_175:\n        /* \"#utility.yul\":5038:5039   */\n      0x00\n        /* \"#utility.yul\":5063:5116   */\n      tag_177\n        /* \"#utility.yul\":5108:5115   */\n      dup5\n        /* \"#utility.yul\":5099:5105   */\n      dup3\n        /* \"#utility.yul\":5088:5097   */\n      dup6\n        /* \"#utility.yul\":5084:5106   */\n      add\n        /* \"#utility.yul\":5063:5116   */\n      tag_97\n      jump\t// in\n    tag_177:\n        /* \"#utility.yul\":5053:5116   */\n      swap2\n      pop\n        /* \"#utility.yul\":5009:5126   */\n      pop\n        /* \"#utility.yul\":4804:5133   */\n      swap3\n      swap2\n      pop\n      pop\n      jump\t// out\n        /* \"#utility.yul\":5139:5257   */\n    tag_98:\n        /* \"#utility.yul\":5226:5250   */\n      tag_179\n        /* \"#utility.yul\":5244:5249   */\n      dup2\n        /* \"#utility.yul\":5226:5250   */\n      tag_82\n      jump\t// in\n    tag_179:\n        /* \"#utility.yul\":5221:5224   */\n      dup3\n        /* \"#utility.yul\":5214:5251   */\n      mstore\n        /* \"#utility.yul\":5139:5257   */\n      pop\n      pop\n      jump\t// out\n        /* \"#utility.yul\":5263:5485   */\n    tag_45:\n        /* \"#utility.yul\":5356:5360   */\n      0x00\n        /* \"#utility.yul\":5394:5396   */\n      0x20\n        /* \"#utility.yul\":5383:5392   */\n      dup3\n        /* \"#utility.yul\":5379:5397   */\n      add\n        /* \"#utility.yul\":5371:5397   */\n      swap1\n      pop\n        /* \"#utility.yul\":5407:5478   */\n      tag_181\n        /* \"#utility.yul\":5475:5476   */\n      0x00\n        /* \"#utility.yul\":5464:5473   */\n      dup4\n        /* \"#utility.yul\":5460:5477   */\n      add\n        /* \"#utility.yul\":5451:5457   */\n      dup5\n        /* \"#utility.yul\":5407:5478   */\n      tag_98\n      jump\t// in\n    tag_181:\n        /* \"#utility.yul\":5263:5485   */\n      swap3\n      swap2\n      pop\n      pop\n      jump\t// out\n        /* \"#utility.yul\":5491:5608   */\n    tag_99:\n        /* \"#utility.yul\":5600:5601   */\n      0x00\n        /* \"#utility.yul\":5597:5598   */\n      0x00\n        /* \"#utility.yul\":5590:5602   */\n      revert\n        /* \"#utility.yul\":5614:5731   */\n    tag_100:\n        /* \"#utility.yul\":5723:5724   */\n      0x00\n        /* \"#utility.yul\":5720:5721   */\n      0x00\n        /* \"#utility.yul\":5713:5725   */\n      revert\n        /* \"#utility.yul\":5737:5839   */\n    tag_101:\n        /* \"#utility.yul\":5778:5784   */\n      0x00\n        /* \"#utility.yul\":5829:5831   */\n      0x1f\n        /* \"#utility.yul\":5825:5832   */\n      not\n        /* \"#utility.yul\":5820:5822   */\n      0x1f\n        /* \"#utility.yul\":5813:5818   */\n      dup4\n        /* \"#utility.yul\":5809:5823   */\n      add\n        /* \"#utility.yul\":5805:5833   */\n      and\n        /* \"#utility.yul\":5795:5833   */\n      swap1\n      pop\n        /* \"#utility.yul\":5737:5839   */\n      swap2\n      swap1\n      pop\n      jump\t// out\n        /* \"#utility.yul\":5845:6025   */\n    tag_102:\n        /* \"#utility.yul\":5893:5970   */\n      0x4e487b7100000000000000000000000000000000000000000000000000000000\n        /* \"#utility.yul\":5890:5891   */\n      0x00\n        /* \"#utility.yul\":5883:5971   */\n      mstore\n        /* \"#utility.yul\":5990:5994   */\n      0x41\n        /* \"#utility.yul\":5987:5988   */\n      0x04\n        /* \"#utility.yul\":5980:5995   */\n      mstore\n        /* \"#utility.yul\":6014:6018   */\n      0x24\n        /* \"#utility.yul\":6011:6012   */\n      0x00\n        /* \"#utility.yul\":6004:6019   */\n      revert\n        /* \"#utility.yul\":6031:6312   */\n    tag_103:\n        /* \"#utility.yul\":6114:6141   */\n      tag_187\n        /* \"#utility.yul\":6136:6140   */\n      dup3\n        /* \"#utility.yul\":6114:6141   */\n      tag_101\n      jump\t// in\n    tag_187:\n        /* \"#utility.yul\":6106:6112   */\n      dup2\n        /* \"#utility.yul\":6102:6142   */\n      add\n        /* \"#utility.yul\":6244:6250   */\n      dup2\n        /* \"#utility.yul\":6232:6242   */\n      dup2\n        /* \"#utility.yul\":6229:6251   */\n      lt\n        /* \"#utility.yul\":6208:6226   */\n      0xffffffffffffffff\n        /* \"#utility.yul\":6196:6206   */\n      dup3\n        /* \"#utility.yul\":6193:6227   */\n      gt\n        /* \"#utility.yul\":6190:6252   */\n      or\n        /* \"#utility.yul\":6187:6275   */\n      iszero\n      tag_188\n      jumpi\n        /* \"#utility.yul\":6255:6273   */\n      tag_189\n      tag_102\n      jump\t// in\n    tag_189:\n        /* \"#utility.yul\":6187:6275   */\n    tag_188:\n        /* \"#utility.yul\":6295:6305   */\n      dup1\n        /* \"#utility.yul\":6291:6293   */\n      0x40\n        /* \"#utility.yul\":6284:6306   */\n      mstore\n        /* \"#utility.yul\":6074:6312   */\n      pop\n        /* \"#utility.yul\":6031:6312   */\n      pop\n      pop\n      jump\t// out\n        /* \"#utility.yul\":6318:6447   */\n    tag_104:\n        /* \"#utility.yul\":6352:6358   */\n      0x00\n        /* \"#utility.yul\":6379:6399   */\n      tag_191\n      tag_78\n      jump\t// in\n    tag_191:\n        /* \"#utility.yul\":6369:6399   */\n      swap1\n      pop\n        /* \"#utility.yul\":6408:6441   */\n      tag_192\n        /* \"#utility.yul\":6436:6440   */\n      dup3\n        /* \"#utility.yul\":6428:6434   */\n      dup3\n        /* \"#utility.yul\":6408:6441   */\n      tag_103\n      jump\t// in\n    tag_192:\n        /* \"#utility.yul\":6318:6447   */\n      swap2\n      swap1\n      pop\n      jump\t// out\n        /* \"#utility.yul\":6453:6761   */\n    tag_105:\n        /* \"#utility.yul\":6515:6519   */\n      0x00\n        /* \"#utility.yul\":6605:6623   */\n      0xffffffffffffffff\n        /* \"#utility.yul\":6597:6603   */\n      dup3\n        /* \"#utility.yul\":6594:6624   */\n      gt\n        /* \"#utility.yul\":6591:6647   */\n      iszero\n      tag_194\n      jumpi\n        /* \"#utility.yul\":6627:6645   */\n      tag_195\n      tag_102\n      jump\t// in\n    tag_195:\n        /* \"#utility.yul\":6591:6647   */\n    tag_194:\n        /* \"#utility.yul\":6665:6694   */\n      tag_196\n        /* \"#utility.yul\":6687:6693   */\n      dup3\n        /* \"#utility.yul\":6665:6694   */\n      tag_101\n      jump\t// in\n    tag_196:\n        /* \"#utility.yul\":6657:6694   */\n      swap1\n      pop\n        /* \"#utility.yul\":6749:6753   */\n      0x20\n        /* \"#utility.yul\":6743:6747   */\n      dup2\n        /* \"#utility.yul\":6739:6754   */\n      add\n        /* \"#utility.yul\":6731:6754   */\n      swap1\n      pop\n        /* \"#utility.yul\":6453:6761   */\n      swap2\n      swap1\n      pop\n      jump\t// out\n        /* \"#utility.yul\":6767:6915   */\n    tag_106:\n        /* \"#utility.yul\":6865:6871   */\n      dup3\n        /* \"#utility.yul\":6860:6863   */\n      dup2\n        /* \"#utility.yul\":6855:6858   */\n      dup4\n        /* \"#utility.yul\":6842:6872   */\n      calldatacopy\n        /* \"#utility.yul\":6906:6907   */\n      0x00\n        /* \"#utility.yul\":6897:6903   */\n      dup4\n        /* \"#utility.yul\":6892:6895   */\n      dup4\n        /* \"#utility.yul\":6888:6904   */\n      add\n        /* \"#utility.yul\":6881:6908   */\n      mstore\n        /* \"#utility.yul\":6767:6915   */\n      pop\n      pop\n      pop\n      jump\t// out\n        /* \"#utility.yul\":6921:7346   */\n    tag_107:\n        /* \"#utility.yul\":6999:7004   */\n      0x00\n        /* \"#utility.yul\":7024:7090   */\n      tag_199\n        /* \"#utility.yul\":7040:7089   */\n      tag_200\n        /* \"#utility.yul\":7082:7088   */\n      dup5\n        /* \"#utility.yul\":7040:7089   */\n      tag_105\n      jump\t// in\n    tag_200:\n        /* \"#utility.yul\":7024:7090   */\n      tag_104\n      jump\t// in\n    tag_199:\n        /* \"#utility.yul\":7015:7090   */\n      swap1\n      pop\n        /* \"#utility.yul\":7113:7119   */\n      dup3\n        /* \"#utility.yul\":7106:7111   */\n      dup2\n        /* \"#utility.yul\":7099:7120   */\n      mstore\n        /* \"#utility.yul\":7151:7155   */\n      0x20\n        /* \"#utility.yul\":7144:7149   */\n      dup2\n        /* \"#utility.yul\":7140:7156   */\n      add\n        /* \"#utility.yul\":7189:7192   */\n      dup5\n        /* \"#utility.yul\":7180:7186   */\n      dup5\n        /* \"#utility.yul\":7175:7178   */\n      dup5\n        /* \"#utility.yul\":7171:7187   */\n      add\n        /* \"#utility.yul\":7168:7193   */\n      gt\n        /* \"#utility.yul\":7165:7277   */\n      iszero\n      tag_201\n      jumpi\n        /* \"#utility.yul\":7196:7275   */\n      tag_202\n      tag_100\n      jump\t// in\n    tag_202:\n        /* \"#utility.yul\":7165:7277   */\n    tag_201:\n        /* \"#utility.yul\":7286:7340   */\n      tag_203\n        /* \"#utility.yul\":7333:7339   */\n      dup5\n        /* \"#utility.yul\":7328:7331   */\n      dup3\n        /* \"#utility.yul\":7323:7326   */\n      dup6\n        /* \"#utility.yul\":7286:7340   */\n      tag_106\n      jump\t// in\n    tag_203:\n        /* \"#utility.yul\":7005:7346   */\n      pop\n        /* \"#utility.yul\":6921:7346   */\n      swap4\n      swap3\n      pop\n      pop\n      pop\n      jump\t// out\n        /* \"#utility.yul\":7366:7706   */\n    tag_108:\n        /* \"#utility.yul\":7422:7427   */\n      0x00\n        /* \"#utility.yul\":7471:7474   */\n      dup3\n        /* \"#utility.yul\":7464:7468   */\n      0x1f\n        /* \"#utility.yul\":7456:7462   */\n      dup4\n        /* \"#utility.yul\":7452:7469   */\n      add\n        /* \"#utility.yul\":7448:7475   */\n      slt\n        /* \"#utility.yul\":7438:7560   */\n      tag_205\n      jumpi\n        /* \"#utility.yul\":7479:7558   */\n      tag_206\n      tag_99\n      jump\t// in\n    tag_206:\n        /* \"#utility.yul\":7438:7560   */\n    tag_205:\n        /* \"#utility.yul\":7596:7602   */\n      dup2\n        /* \"#utility.yul\":7583:7603   */\n      calldataload\n        /* \"#utility.yul\":7621:7700   */\n      tag_207\n        /* \"#utility.yul\":7696:7699   */\n      dup5\n        /* \"#utility.yul\":7688:7694   */\n      dup3\n        /* \"#utility.yul\":7681:7685   */\n      0x20\n        /* \"#utility.yul\":7673:7679   */\n      dup7\n        /* \"#utility.yul\":7669:7686   */\n      add\n        /* \"#utility.yul\":7621:7700   */\n      tag_107\n      jump\t// in\n    tag_207:\n        /* \"#utility.yul\":7612:7700   */\n      swap2\n      pop\n        /* \"#utility.yul\":7428:7706   */\n      pop\n        /* \"#utility.yul\":7366:7706   */\n      swap3\n      swap2\n      pop\n      pop\n      jump\t// out\n        /* \"#utility.yul\":7712:8871   */\n    tag_52:\n        /* \"#utility.yul\":7819:7825   */\n      0x00\n        /* \"#utility.yul\":7827:7833   */\n      0x00\n        /* \"#utility.yul\":7835:7841   */\n      0x00\n        /* \"#utility.yul\":7884:7886   */\n      0x60\n        /* \"#utility.yul\":7872:7881   */\n      dup5\n        /* \"#utility.yul\":7863:7870   */\n      dup7\n        /* \"#utility.yul\":7859:7882   */\n      sub\n        /* \"#utility.yul\":7855:7887   */\n      slt\n        /* \"#utility.yul\":7852:7971   */\n      iszero\n      tag_209\n      jumpi\n        /* \"#utility.yul\":7890:7969   */\n      tag_210\n      tag_79\n      jump\t// in\n    tag_210:\n        /* \"#utility.yul\":7852:7971   */\n    tag_209:\n        /* \"#utility.yul\":8038:8039   */\n      0x00\n        /* \"#utility.yul\":8027:8036   */\n      dup5\n        /* \"#utility.yul\":8023:8040   */\n      add\n        /* \"#utility.yul\":8010:8041   */\n      calldataload\n        /* \"#utility.yul\":8068:8086   */\n      0xffffffffffffffff\n        /* \"#utility.yul\":8060:8066   */\n      dup2\n        /* \"#utility.yul\":8057:8087   */\n      gt\n        /* \"#utility.yul\":8054:8171   */\n      iszero\n      tag_211\n      jumpi\n        /* \"#utility.yul\":8090:8169   */\n      tag_212\n      tag_80\n      jump\t// in\n    tag_212:\n        /* \"#utility.yul\":8054:8171   */\n    tag_211:\n        /* \"#utility.yul\":8195:8258   */\n      tag_213\n        /* \"#utility.yul\":8250:8257   */\n      dup7\n        /* \"#utility.yul\":8241:8247   */\n      dup3\n        /* \"#utility.yul\":8230:8239   */\n      dup8\n        /* \"#utility.yul\":8226:8248   */\n      add\n        /* \"#utility.yul\":8195:8258   */\n      tag_108\n      jump\t// in\n    tag_213:\n        /* \"#utility.yul\":8185:8258   */\n      swap4\n      pop\n        /* \"#utility.yul\":7981:8268   */\n      pop\n        /* \"#utility.yul\":8335:8337   */\n      0x20\n        /* \"#utility.yul\":8324:8333   */\n      dup5\n        /* \"#utility.yul\":8320:8338   */\n      add\n        /* \"#utility.yul\":8307:8339   */\n      calldataload\n        /* \"#utility.yul\":8366:8384   */\n      0xffffffffffffffff\n        /* \"#utility.yul\":8358:8364   */\n      dup2\n        /* \"#utility.yul\":8355:8385   */\n      gt\n        /* \"#utility.yul\":8352:8469   */\n      iszero\n      tag_214\n      jumpi\n        /* \"#utility.yul\":8388:8467   */\n      tag_215\n      tag_80\n      jump\t// in\n    tag_215:\n        /* \"#utility.yul\":8352:8469   */\n    tag_214:\n        /* \"#utility.yul\":8493:8556   */\n      tag_216\n        /* \"#utility.yul\":8548:8555   */\n      dup7\n        /* \"#utility.yul\":8539:8545   */\n      dup3\n        /* \"#utility.yul\":8528:8537   */\n      dup8\n        /* \"#utility.yul\":8524:8546   */\n      add\n        /* \"#utility.yul\":8493:8556   */\n      tag_108\n      jump\t// in\n    tag_216:\n        /* \"#utility.yul\":8483:8556   */\n      swap3\n      pop\n        /* \"#utility.yul\":8278:8566   */\n      pop\n        /* \"#utility.yul\":8633:8635   */\n      0x40\n        /* \"#utility.yul\":8622:8631   */\n      dup5\n        /* \"#utility.yul\":8618:8636   */\n      add\n        /* \"#utility.yul\":8605:8637   */\n      calldataload\n        /* \"#utility.yul\":8664:8682   */\n      0xffffffffffffffff\n        /* \"#utility.yul\":8656:8662   */\n      dup2\n        /* \"#utility.yul\":8653:8683   */\n      gt\n        /* \"#utility.yul\":8650:8767   */\n      iszero\n      tag_217\n      jumpi\n        /* \"#utility.yul\":8686:8765   */\n      tag_218\n      tag_80\n      jump\t// in\n    tag_218:\n        /* \"#utility.yul\":8650:8767   */\n    tag_217:\n        /* \"#utility.yul\":8791:8854   */\n      tag_219\n        /* \"#utility.yul\":8846:8853   */\n      dup7\n        /* \"#utility.yul\":8837:8843   */\n      dup3\n        /* \"#utility.yul\":8826:8835   */\n      dup8\n        /* \"#utility.yul\":8822:8844   */\n      add\n        /* \"#utility.yul\":8791:8854   */\n      tag_108\n      jump\t// in\n    tag_219:\n        /* \"#utility.yul\":8781:8854   */\n      swap2\n      pop\n        /* \"#utility.yul\":8576:8864   */\n      pop\n        /* \"#utility.yul\":7712:8871   */\n      swap3\n      pop\n      swap3\n      pop\n      swap3\n      jump\t// out\n        /* \"#utility.yul\":8877:9046   */\n    tag_109:\n        /* \"#utility.yul\":8961:8972   */\n      0x00\n        /* \"#utility.yul\":8995:9001   */\n      dup3\n        /* \"#utility.yul\":8990:8993   */\n      dup3\n        /* \"#utility.yul\":8983:9002   */\n      mstore\n        /* \"#utility.yul\":9035:9039   */\n      0x20\n        /* \"#utility.yul\":9030:9033   */\n      dup3\n        /* \"#utility.yul\":9026:9040   */\n      add\n        /* \"#utility.yul\":9011:9040   */\n      swap1\n      pop\n        /* \"#utility.yul\":8877:9046   */\n      swap3\n      swap2\n      pop\n      pop\n      jump\t// out\n        /* \"#utility.yul\":9052:9276   */\n    tag_110:\n        /* \"#utility.yul\":9192:9226   */\n      0x417574686f7220686173206e6f7420736574206120737562736372697074696f\n        /* \"#utility.yul\":9188:9189   */\n      0x00\n        /* \"#utility.yul\":9180:9186   */\n      dup3\n        /* \"#utility.yul\":9176:9190   */\n      add\n        /* \"#utility.yul\":9169:9227   */\n      mstore\n        /* \"#utility.yul\":9261:9268   */\n      0x6e20666565000000000000000000000000000000000000000000000000000000\n        /* \"#utility.yul\":9256:9258   */\n      0x20\n        /* \"#utility.yul\":9248:9254   */\n      dup3\n        /* \"#utility.yul\":9244:9259   */\n      add\n        /* \"#utility.yul\":9237:9269   */\n      mstore\n        /* \"#utility.yul\":9052:9276   */\n      pop\n      jump\t// out\n        /* \"#utility.yul\":9282:9648   */\n    tag_111:\n        /* \"#utility.yul\":9424:9427   */\n      0x00\n        /* \"#utility.yul\":9445:9512   */\n      tag_223\n        /* \"#utility.yul\":9509:9511   */\n      0x25\n        /* \"#utility.yul\":9504:9507   */\n      dup4\n        /* \"#utility.yul\":9445:9512   */\n      tag_109\n      jump\t// in\n    tag_223:\n        /* \"#utility.yul\":9438:9512   */\n      swap2\n      pop\n        /* \"#utility.yul\":9521:9614   */\n      tag_224\n        /* \"#utility.yul\":9610:9613   */\n      dup3\n        /* \"#utility.yul\":9521:9614   */\n      tag_110\n      jump\t// in\n    tag_224:\n        /* \"#utility.yul\":9639:9641   */\n      0x40\n        /* \"#utility.yul\":9634:9637   */\n      dup3\n        /* \"#utility.yul\":9630:9642   */\n      add\n        /* \"#utility.yul\":9623:9642   */\n      swap1\n      pop\n        /* \"#utility.yul\":9282:9648   */\n      swap2\n      swap1\n      pop\n      jump\t// out\n        /* \"#utility.yul\":9654:10073   */\n    tag_64:\n        /* \"#utility.yul\":9820:9824   */\n      0x00\n        /* \"#utility.yul\":9858:9860   */\n      0x20\n        /* \"#utility.yul\":9847:9856   */\n      dup3\n        /* \"#utility.yul\":9843:9861   */\n      add\n        /* \"#utility.yul\":9835:9861   */\n      swap1\n      pop\n        /* \"#utility.yul\":9907:9916   */\n      dup2\n        /* \"#utility.yul\":9901:9905   */\n      dup2\n        /* \"#utility.yul\":9897:9917   */\n      sub\n        /* \"#utility.yul\":9893:9894   */\n      0x00\n        /* \"#utility.yul\":9882:9891   */\n      dup4\n        /* \"#utility.yul\":9878:9895   */\n      add\n        /* \"#utility.yul\":9871:9918   */\n      mstore\n        /* \"#utility.yul\":9935:10066   */\n      tag_226\n        /* \"#utility.yul\":10061:10065   */\n      dup2\n        /* \"#utility.yul\":9935:10066   */\n      tag_111\n      jump\t// in\n    tag_226:\n        /* \"#utility.yul\":9927:10066   */\n      swap1\n      pop\n        /* \"#utility.yul\":9654:10073   */\n      swap2\n      swap1\n      pop\n      jump\t// out\n        /* \"#utility.yul\":10079:10260   */\n    tag_112:\n        /* \"#utility.yul\":10219:10252   */\n      0x496e636f727265637420737562736372697074696f6e206665652073656e7400\n        /* \"#utility.yul\":10215:10216   */\n      0x00\n        /* \"#utility.yul\":10207:10213   */\n      dup3\n        /* \"#utility.yul\":10203:10217   */\n      add\n        /* \"#utility.yul\":10196:10253   */\n      mstore\n        /* \"#utility.yul\":10079:10260   */\n      pop\n      jump\t// out\n        /* \"#utility.yul\":10266:10632   */\n    tag_113:\n        /* \"#utility.yul\":10408:10411   */\n      0x00\n        /* \"#utility.yul\":10429:10496   */\n      tag_229\n        /* \"#utility.yul\":10493:10495   */\n      0x1f\n        /* \"#utility.yul\":10488:10491   */\n      dup4\n        /* \"#utility.yul\":10429:10496   */\n      tag_109\n      jump\t// in\n    tag_229:\n        /* \"#utility.yul\":10422:10496   */\n      swap2\n      pop\n        /* \"#utility.yul\":10505:10598   */\n      tag_230\n        /* \"#utility.yul\":10594:10597   */\n      dup3\n        /* \"#utility.yul\":10505:10598   */\n      tag_112\n      jump\t// in\n    tag_230:\n        /* \"#utility.yul\":10623:10625   */\n      0x20\n        /* \"#utility.yul\":10618:10621   */\n      dup3\n        /* \"#utility.yul\":10614:10626   */\n      add\n        /* \"#utility.yul\":10607:10626   */\n      swap1\n      pop\n        /* \"#utility.yul\":10266:10632   */\n      swap2\n      swap1\n      pop\n      jump\t// out\n        /* \"#utility.yul\":10638:11057   */\n    tag_67:\n        /* \"#utility.yul\":10804:10808   */\n      0x00\n        /* \"#utility.yul\":10842:10844   */\n      0x20\n        /* \"#utility.yul\":10831:10840   */\n      dup3\n        /* \"#utility.yul\":10827:10845   */\n      add\n        /* \"#utility.yul\":10819:10845   */\n      swap1\n      pop\n        /* \"#utility.yul\":10891:10900   */\n      dup2\n        /* \"#utility.yul\":10885:10889   */\n      dup2\n        /* \"#utility.yul\":10881:10901   */\n      sub\n        /* \"#utility.yul\":10877:10878   */\n      0x00\n        /* \"#utility.yul\":10866:10875   */\n      dup4\n        /* \"#utility.yul\":10862:10879   */\n      add\n        /* \"#utility.yul\":10855:10902   */\n      mstore\n        /* \"#utility.yul\":10919:11050   */\n      tag_232\n        /* \"#utility.yul\":11045:11049   */\n      dup2\n        /* \"#utility.yul\":10919:11050   */\n      tag_113\n      jump\t// in\n    tag_232:\n        /* \"#utility.yul\":10911:11050   */\n      swap1\n      pop\n        /* \"#utility.yul\":10638:11057   */\n      swap2\n      swap1\n      pop\n      jump\t// out\n        /* \"#utility.yul\":11063:11231   */\n    tag_114:\n        /* \"#utility.yul\":11203:11223   */\n      0x416c726561647920737562736372696265640000000000000000000000000000\n        /* \"#utility.yul\":11199:11200   */\n      0x00\n        /* \"#utility.yul\":11191:11197   */\n      dup3\n        /* \"#utility.yul\":11187:11201   */\n      add\n        /* \"#utility.yul\":11180:11224   */\n      mstore\n        /* \"#utility.yul\":11063:11231   */\n      pop\n      jump\t// out\n        /* \"#utility.yul\":11237:11603   */\n    tag_115:\n        /* \"#utility.yul\":11379:11382   */\n      0x00\n        /* \"#utility.yul\":11400:11467   */\n      tag_235\n        /* \"#utility.yul\":11464:11466   */\n      0x12\n        /* \"#utility.yul\":11459:11462   */\n      dup4\n        /* \"#utility.yul\":11400:11467   */\n      tag_109\n      jump\t// in\n    tag_235:\n        /* \"#utility.yul\":11393:11467   */\n      swap2\n      pop\n        /* \"#utility.yul\":11476:11569   */\n      tag_236\n        /* \"#utility.yul\":11565:11568   */\n      dup3\n        /* \"#utility.yul\":11476:11569   */\n      tag_114\n      jump\t// in\n    tag_236:\n        /* \"#utility.yul\":11594:11596   */\n      0x20\n        /* \"#utility.yul\":11589:11592   */\n      dup3\n        /* \"#utility.yul\":11585:11597   */\n      add\n        /* \"#utility.yul\":11578:11597   */\n      swap1\n      pop\n        /* \"#utility.yul\":11237:11603   */\n      swap2\n      swap1\n      pop\n      jump\t// out\n        /* \"#utility.yul\":11609:12028   */\n    tag_70:\n        /* \"#utility.yul\":11775:11779   */\n      0x00\n        /* \"#utility.yul\":11813:11815   */\n      0x20\n        /* \"#utility.yul\":11802:11811   */\n      dup3\n        /* \"#utility.yul\":11798:11816   */\n      add\n        /* \"#utility.yul\":11790:11816   */\n      swap1\n      pop\n        /* \"#utility.yul\":11862:11871   */\n      dup2\n        /* \"#utility.yul\":11856:11860   */\n      dup2\n        /* \"#utility.yul\":11852:11872   */\n      sub\n        /* \"#utility.yul\":11848:11849   */\n      0x00\n        /* \"#utility.yul\":11837:11846   */\n      dup4\n        /* \"#utility.yul\":11833:11850   */\n      add\n        /* \"#utility.yul\":11826:11873   */\n      mstore\n        /* \"#utility.yul\":11890:12021   */\n      tag_238\n        /* \"#utility.yul\":12016:12020   */\n      dup2\n        /* \"#utility.yul\":11890:12021   */\n      tag_115\n      jump\t// in\n    tag_238:\n        /* \"#utility.yul\":11882:12021   */\n      swap1\n      pop\n        /* \"#utility.yul\":11609:12028   */\n      swap2\n      swap1\n      pop\n      jump\t// out\n        /* \"#utility.yul\":12034:12133   */\n    tag_116:\n        /* \"#utility.yul\":12086:12092   */\n      0x00\n        /* \"#utility.yul\":12120:12125   */\n      dup2\n        /* \"#utility.yul\":12114:12126   */\n      mload\n        /* \"#utility.yul\":12104:12126   */\n      swap1\n      pop\n        /* \"#utility.yul\":12034:12133   */\n      swap2\n      swap1\n      pop\n      jump\t// out\n        /* \"#utility.yul\":12139:12278   */\n    tag_117:\n        /* \"#utility.yul\":12228:12234   */\n      dup3\n        /* \"#utility.yul\":12223:12226   */\n      dup2\n        /* \"#utility.yul\":12218:12221   */\n      dup4\n        /* \"#utility.yul\":12212:12235   */\n      mcopy\n        /* \"#utility.yul\":12269:12270   */\n      0x00\n        /* \"#utility.yul\":12260:12266   */\n      dup4\n        /* \"#utility.yul\":12255:12258   */\n      dup4\n        /* \"#utility.yul\":12251:12267   */\n      add\n        /* \"#utility.yul\":12244:12271   */\n      mstore\n        /* \"#utility.yul\":12139:12278   */\n      pop\n      pop\n      pop\n      jump\t// out\n        /* \"#utility.yul\":12284:12661   */\n    tag_118:\n        /* \"#utility.yul\":12372:12375   */\n      0x00\n        /* \"#utility.yul\":12400:12439   */\n      tag_242\n        /* \"#utility.yul\":12433:12438   */\n      dup3\n        /* \"#utility.yul\":12400:12439   */\n      tag_116\n      jump\t// in\n    tag_242:\n        /* \"#utility.yul\":12455:12526   */\n      tag_243\n        /* \"#utility.yul\":12519:12525   */\n      dup2\n        /* \"#utility.yul\":12514:12517   */\n      dup6\n        /* \"#utility.yul\":12455:12526   */\n      tag_109\n      jump\t// in\n    tag_243:\n        /* \"#utility.yul\":12448:12526   */\n      swap4\n      pop\n        /* \"#utility.yul\":12535:12600   */\n      tag_244\n        /* \"#utility.yul\":12593:12599   */\n      dup2\n        /* \"#utility.yul\":12588:12591   */\n      dup6\n        /* \"#utility.yul\":12581:12585   */\n      0x20\n        /* \"#utility.yul\":12574:12579   */\n      dup7\n        /* \"#utility.yul\":12570:12586   */\n      add\n        /* \"#utility.yul\":12535:12600   */\n      tag_117\n      jump\t// in\n    tag_244:\n        /* \"#utility.yul\":12625:12654   */\n      tag_245\n        /* \"#utility.yul\":12647:12653   */\n      dup2\n        /* \"#utility.yul\":12625:12654   */\n      tag_101\n      jump\t// in\n    tag_245:\n        /* \"#utility.yul\":12620:12623   */\n      dup5\n        /* \"#utility.yul\":12616:12655   */\n      add\n        /* \"#utility.yul\":12609:12655   */\n      swap2\n      pop\n        /* \"#utility.yul\":12376:12661   */\n      pop\n        /* \"#utility.yul\":12284:12661   */\n      swap3\n      swap2\n      pop\n      pop\n      jump\t// out\n        /* \"#utility.yul\":12667:13604   */\n    tag_75:\n        /* \"#utility.yul\":12932:12936   */\n      0x00\n        /* \"#utility.yul\":12970:12973   */\n      0xa0\n        /* \"#utility.yul\":12959:12968   */\n      dup3\n        /* \"#utility.yul\":12955:12974   */\n      add\n        /* \"#utility.yul\":12947:12974   */\n      swap1\n      pop\n        /* \"#utility.yul\":12984:13055   */\n      tag_247\n        /* \"#utility.yul\":13052:13053   */\n      0x00\n        /* \"#utility.yul\":13041:13050   */\n      dup4\n        /* \"#utility.yul\":13037:13054   */\n      add\n        /* \"#utility.yul\":13028:13034   */\n      dup9\n        /* \"#utility.yul\":12984:13055   */\n      tag_98\n      jump\t// in\n    tag_247:\n        /* \"#utility.yul\":13065:13137   */\n      tag_248\n        /* \"#utility.yul\":13133:13135   */\n      0x20\n        /* \"#utility.yul\":13122:13131   */\n      dup4\n        /* \"#utility.yul\":13118:13136   */\n      add\n        /* \"#utility.yul\":13109:13115   */\n      dup8\n        /* \"#utility.yul\":13065:13137   */\n      tag_98\n      jump\t// in\n    tag_248:\n        /* \"#utility.yul\":13184:13193   */\n      dup2\n        /* \"#utility.yul\":13178:13182   */\n      dup2\n        /* \"#utility.yul\":13174:13194   */\n      sub\n        /* \"#utility.yul\":13169:13171   */\n      0x40\n        /* \"#utility.yul\":13158:13167   */\n      dup4\n        /* \"#utility.yul\":13154:13172   */\n      add\n        /* \"#utility.yul\":13147:13195   */\n      mstore\n        /* \"#utility.yul\":13212:13290   */\n      tag_249\n        /* \"#utility.yul\":13285:13289   */\n      dup2\n        /* \"#utility.yul\":13276:13282   */\n      dup7\n        /* \"#utility.yul\":13212:13290   */\n      tag_118\n      jump\t// in\n    tag_249:\n        /* \"#utility.yul\":13204:13290   */\n      swap1\n      pop\n        /* \"#utility.yul\":13337:13346   */\n      dup2\n        /* \"#utility.yul\":13331:13335   */\n      dup2\n        /* \"#utility.yul\":13327:13347   */\n      sub\n        /* \"#utility.yul\":13322:13324   */\n      0x60\n        /* \"#utility.yul\":13311:13320   */\n      dup4\n        /* \"#utility.yul\":13307:13325   */\n      add\n        /* \"#utility.yul\":13300:13348   */\n      mstore\n        /* \"#utility.yul\":13365:13443   */\n      tag_250\n        /* \"#utility.yul\":13438:13442   */\n      dup2\n        /* \"#utility.yul\":13429:13435   */\n      dup6\n        /* \"#utility.yul\":13365:13443   */\n      tag_118\n      jump\t// in\n    tag_250:\n        /* \"#utility.yul\":13357:13443   */\n      swap1\n      pop\n        /* \"#utility.yul\":13491:13500   */\n      dup2\n        /* \"#utility.yul\":13485:13489   */\n      dup2\n        /* \"#utility.yul\":13481:13501   */\n      sub\n        /* \"#utility.yul\":13475:13478   */\n      0x80\n        /* \"#utility.yul\":13464:13473   */\n      dup4\n        /* \"#utility.yul\":13460:13479   */\n      add\n        /* \"#utility.yul\":13453:13502   */\n      mstore\n        /* \"#utility.yul\":13519:13597   */\n      tag_251\n        /* \"#utility.yul\":13592:13596   */\n      dup2\n        /* \"#utility.yul\":13583:13589   */\n      dup5\n        /* \"#utility.yul\":13519:13597   */\n      tag_118\n      jump\t// in\n    tag_251:\n        /* \"#utility.yul\":13511:13597   */\n      swap1\n      pop\n        /* \"#utility.yul\":12667:13604   */\n      swap7\n      swap6\n      pop\n      pop\n      pop\n      pop\n      pop\n      pop\n      jump\t// out\n    stop\n\n    sub_0: assembly {\n            /* \"blogs.sol\":1232:2601  contract BlogPost {... */\n          mstore(0x40, 0x80)\n            /* \"blogs.sol\":1542:1839  constructor (address factoryAddress, address author, string memory title, string memory content, string memory date ) {... */\n          callvalue\n          dup1\n          iszero\n          tag_1\n          jumpi\n          revert(0x00, 0x00)\n        tag_1:\n          pop\n          mload(0x40)\n          sub(codesize, bytecodeSize)\n          dup1\n          bytecodeSize\n          dup4\n          codecopy\n          dup2\n          dup2\n          add\n          0x40\n          mstore\n          dup2\n          add\n          swap1\n          tag_2\n          swap2\n          swap1\n          tag_3\n          jump\t// in\n        tag_2:\n            /* \"blogs.sol\":1696:1710  factoryAddress */\n          dup5\n            /* \"blogs.sol\":1670:1677  factory */\n          0x00\n          0x00\n            /* \"blogs.sol\":1670:1711  factory = BlogPostFactory(factoryAddress) */\n          0x0100\n          exp\n          dup2\n          sload\n          dup2\n          0xffffffffffffffffffffffffffffffffffffffff\n          mul\n          not\n          and\n          swap1\n          dup4\n          0xffffffffffffffffffffffffffffffffffffffff\n          and\n          mul\n          or\n          swap1\n          sstore\n          pop\n            /* \"blogs.sol\":1734:1740  author */\n          dup4\n            /* \"blogs.sol\":1721:1731  blogAuthor */\n          0x01\n          0x00\n            /* \"blogs.sol\":1721:1740  blogAuthor = author */\n          0x0100\n          exp\n          dup2\n          sload\n          dup2\n          0xffffffffffffffffffffffffffffffffffffffff\n          mul\n          not\n          and\n          swap1\n          dup4\n          0xffffffffffffffffffffffffffffffffffffffff\n          and\n          mul\n          or\n          swap1\n          sstore\n          pop\n            /* \"blogs.sol\":1762:1767  title */\n          dup3\n            /* \"blogs.sol\":1750:1759  blogTitle */\n          0x02\n            /* \"blogs.sol\":1750:1767  blogTitle = title */\n          swap1\n          dup2\n          tag_6\n          swap2\n          swap1\n          tag_7\n          jump\t// in\n        tag_6:\n          pop\n            /* \"blogs.sol\":1791:1798  content */\n          dup2\n            /* \"blogs.sol\":1777:1788  blogContent */\n          0x03\n            /* \"blogs.sol\":1777:1798  blogContent = content */\n          swap1\n          dup2\n          tag_8\n          swap2\n          swap1\n          tag_7\n          jump\t// in\n        tag_8:\n          pop\n            /* \"blogs.sol\":1828:1832  date */\n          dup1\n            /* \"blogs.sol\":1808:1825  blogCreatedAtDate */\n          0x04\n            /* \"blogs.sol\":1808:1832  blogCreatedAtDate = date */\n          swap1\n          dup2\n          tag_9\n          swap2\n          swap1\n          tag_7\n          jump\t// in\n        tag_9:\n          pop\n            /* \"blogs.sol\":1542:1839  constructor (address factoryAddress, address author, string memory title, string memory content, string memory date ) {... */\n          pop\n          pop\n          pop\n          pop\n          pop\n            /* \"blogs.sol\":1232:2601  contract BlogPost {... */\n          jump(tag_10)\n            /* \"#utility.yul\":7:82   */\n        tag_11:\n            /* \"#utility.yul\":40:46   */\n          0x00\n            /* \"#utility.yul\":73:75   */\n          0x40\n            /* \"#utility.yul\":67:76   */\n          mload\n            /* \"#utility.yul\":57:76   */\n          swap1\n          pop\n            /* \"#utility.yul\":7:82   */\n          swap1\n          jump\t// out\n            /* \"#utility.yul\":88:205   */\n        tag_12:\n            /* \"#utility.yul\":197:198   */\n          0x00\n            /* \"#utility.yul\":194:195   */\n          0x00\n            /* \"#utility.yul\":187:199   */\n          revert\n            /* \"#utility.yul\":211:328   */\n        tag_13:\n            /* \"#utility.yul\":320:321   */\n          0x00\n            /* \"#utility.yul\":317:318   */\n          0x00\n            /* \"#utility.yul\":310:322   */\n          revert\n            /* \"#utility.yul\":334:460   */\n        tag_14:\n            /* \"#utility.yul\":371:378   */\n          0x00\n            /* \"#utility.yul\":411:453   */\n          0xffffffffffffffffffffffffffffffffffffffff\n            /* \"#utility.yul\":404:409   */\n          dup3\n            /* \"#utility.yul\":400:454   */\n          and\n            /* \"#utility.yul\":389:454   */\n          swap1\n          pop\n            /* \"#utility.yul\":334:460   */\n          swap2\n          swap1\n          pop\n          jump\t// out\n            /* \"#utility.yul\":466:562   */\n        tag_15:\n            /* \"#utility.yul\":503:510   */\n          0x00\n            /* \"#utility.yul\":532:556   */\n          tag_53\n            /* \"#utility.yul\":550:555   */\n          dup3\n            /* \"#utility.yul\":532:556   */\n          tag_14\n          jump\t// in\n        tag_53:\n            /* \"#utility.yul\":521:556   */\n          swap1\n          pop\n            /* \"#utility.yul\":466:562   */\n          swap2\n          swap1\n          pop\n          jump\t// out\n            /* \"#utility.yul\":568:690   */\n        tag_16:\n            /* \"#utility.yul\":641:665   */\n          tag_55\n            /* \"#utility.yul\":659:664   */\n          dup2\n            /* \"#utility.yul\":641:665   */\n          tag_15\n          jump\t// in\n        tag_55:\n            /* \"#utility.yul\":634:639   */\n          dup2\n            /* \"#utility.yul\":631:666   */\n          eq\n            /* \"#utility.yul\":621:684   */\n          tag_56\n          jumpi\n            /* \"#utility.yul\":680:681   */\n          0x00\n            /* \"#utility.yul\":677:678   */\n          0x00\n            /* \"#utility.yul\":670:682   */\n          revert\n            /* \"#utility.yul\":621:684   */\n        tag_56:\n            /* \"#utility.yul\":568:690   */\n          pop\n          jump\t// out\n            /* \"#utility.yul\":696:839   */\n        tag_17:\n            /* \"#utility.yul\":753:758   */\n          0x00\n            /* \"#utility.yul\":784:790   */\n          dup2\n            /* \"#utility.yul\":778:791   */\n          mload\n            /* \"#utility.yul\":769:791   */\n          swap1\n          pop\n            /* \"#utility.yul\":800:833   */\n          tag_58\n            /* \"#utility.yul\":827:832   */\n          dup2\n            /* \"#utility.yul\":800:833   */\n          tag_16\n          jump\t// in\n        tag_58:\n            /* \"#utility.yul\":696:839   */\n          swap3\n          swap2\n          pop\n          pop\n          jump\t// out\n            /* \"#utility.yul\":845:962   */\n        tag_18:\n            /* \"#utility.yul\":954:955   */\n          0x00\n            /* \"#utility.yul\":951:952   */\n          0x00\n            /* \"#utility.yul\":944:956   */\n          revert\n            /* \"#utility.yul\":968:1085   */\n        tag_19:\n            /* \"#utility.yul\":1077:1078   */\n          0x00\n            /* \"#utility.yul\":1074:1075   */\n          0x00\n            /* \"#utility.yul\":1067:1079   */\n          revert\n            /* \"#utility.yul\":1091:1193   */\n        tag_20:\n            /* \"#utility.yul\":1132:1138   */\n          0x00\n            /* \"#utility.yul\":1183:1185   */\n          0x1f\n            /* \"#utility.yul\":1179:1186   */\n          not\n            /* \"#utility.yul\":1174:1176   */\n          0x1f\n            /* \"#utility.yul\":1167:1172   */\n          dup4\n            /* \"#utility.yul\":1163:1177   */\n          add\n            /* \"#utility.yul\":1159:1187   */\n          and\n            /* \"#utility.yul\":1149:1187   */\n          swap1\n          pop\n            /* \"#utility.yul\":1091:1193   */\n          swap2\n          swap1\n          pop\n          jump\t// out\n            /* \"#utility.yul\":1199:1379   */\n        tag_21:\n            /* \"#utility.yul\":1247:1324   */\n          0x4e487b7100000000000000000000000000000000000000000000000000000000\n            /* \"#utility.yul\":1244:1245   */\n          0x00\n            /* \"#utility.yul\":1237:1325   */\n          mstore\n            /* \"#utility.yul\":1344:1348   */\n          0x41\n            /* \"#utility.yul\":1341:1342   */\n          0x04\n            /* \"#utility.yul\":1334:1349   */\n          mstore\n            /* \"#utility.yul\":1368:1372   */\n          0x24\n            /* \"#utility.yul\":1365:1366   */\n          0x00\n            /* \"#utility.yul\":1358:1373   */\n          revert\n            /* \"#utility.yul\":1385:1666   */\n        tag_22:\n            /* \"#utility.yul\":1468:1495   */\n          tag_64\n            /* \"#utility.yul\":1490:1494   */\n          dup3\n            /* \"#utility.yul\":1468:1495   */\n          tag_20\n          jump\t// in\n        tag_64:\n            /* \"#utility.yul\":1460:1466   */\n          dup2\n            /* \"#utility.yul\":1456:1496   */\n          add\n            /* \"#utility.yul\":1598:1604   */\n          dup2\n            /* \"#utility.yul\":1586:1596   */\n          dup2\n            /* \"#utility.yul\":1583:1605   */\n          lt\n            /* \"#utility.yul\":1562:1580   */\n          0xffffffffffffffff\n            /* \"#utility.yul\":1550:1560   */\n          dup3\n            /* \"#utility.yul\":1547:1581   */\n          gt\n            /* \"#utility.yul\":1544:1606   */\n          or\n            /* \"#utility.yul\":1541:1629   */\n          iszero\n          tag_65\n          jumpi\n            /* \"#utility.yul\":1609:1627   */\n          tag_66\n          tag_21\n          jump\t// in\n        tag_66:\n            /* \"#utility.yul\":1541:1629   */\n        tag_65:\n            /* \"#utility.yul\":1649:1659   */\n          dup1\n            /* \"#utility.yul\":1645:1647   */\n          0x40\n            /* \"#utility.yul\":1638:1660   */\n          mstore\n            /* \"#utility.yul\":1428:1666   */\n          pop\n            /* \"#utility.yul\":1385:1666   */\n          pop\n          pop\n          jump\t// out\n            /* \"#utility.yul\":1672:1801   */\n        tag_23:\n            /* \"#utility.yul\":1706:1712   */\n          0x00\n            /* \"#utility.yul\":1733:1753   */\n          tag_68\n          tag_11\n          jump\t// in\n        tag_68:\n            /* \"#utility.yul\":1723:1753   */\n          swap1\n          pop\n            /* \"#utility.yul\":1762:1795   */\n          tag_69\n            /* \"#utility.yul\":1790:1794   */\n          dup3\n            /* \"#utility.yul\":1782:1788   */\n          dup3\n            /* \"#utility.yul\":1762:1795   */\n          tag_22\n          jump\t// in\n        tag_69:\n            /* \"#utility.yul\":1672:1801   */\n          swap2\n          swap1\n          pop\n          jump\t// out\n            /* \"#utility.yul\":1807:2115   */\n        tag_24:\n            /* \"#utility.yul\":1869:1873   */\n          0x00\n            /* \"#utility.yul\":1959:1977   */\n          0xffffffffffffffff\n            /* \"#utility.yul\":1951:1957   */\n          dup3\n            /* \"#utility.yul\":1948:1978   */\n          gt\n            /* \"#utility.yul\":1945:2001   */\n          iszero\n          tag_71\n          jumpi\n            /* \"#utility.yul\":1981:1999   */\n          tag_72\n          tag_21\n          jump\t// in\n        tag_72:\n            /* \"#utility.yul\":1945:2001   */\n        tag_71:\n            /* \"#utility.yul\":2019:2048   */\n          tag_73\n            /* \"#utility.yul\":2041:2047   */\n          dup3\n            /* \"#utility.yul\":2019:2048   */\n          tag_20\n          jump\t// in\n        tag_73:\n            /* \"#utility.yul\":2011:2048   */\n          swap1\n          pop\n            /* \"#utility.yul\":2103:2107   */\n          0x20\n            /* \"#utility.yul\":2097:2101   */\n          dup2\n            /* \"#utility.yul\":2093:2108   */\n          add\n            /* \"#utility.yul\":2085:2108   */\n          swap1\n          pop\n            /* \"#utility.yul\":1807:2115   */\n          swap2\n          swap1\n          pop\n          jump\t// out\n            /* \"#utility.yul\":2121:2260   */\n        tag_25:\n            /* \"#utility.yul\":2210:2216   */\n          dup3\n            /* \"#utility.yul\":2205:2208   */\n          dup2\n            /* \"#utility.yul\":2200:2203   */\n          dup4\n            /* \"#utility.yul\":2194:2217   */\n          mcopy\n            /* \"#utility.yul\":2251:2252   */\n          0x00\n            /* \"#utility.yul\":2242:2248   */\n          dup4\n            /* \"#utility.yul\":2237:2240   */\n          dup4\n            /* \"#utility.yul\":2233:2249   */\n          add\n            /* \"#utility.yul\":2226:2253   */\n          mstore\n            /* \"#utility.yul\":2121:2260   */\n          pop\n          pop\n          pop\n          jump\t// out\n            /* \"#utility.yul\":2266:2700   */\n        tag_26:\n            /* \"#utility.yul\":2355:2360   */\n          0x00\n            /* \"#utility.yul\":2380:2446   */\n          tag_76\n            /* \"#utility.yul\":2396:2445   */\n          tag_77\n            /* \"#utility.yul\":2438:2444   */\n          dup5\n            /* \"#utility.yul\":2396:2445   */\n          tag_24\n          jump\t// in\n        tag_77:\n            /* \"#utility.yul\":2380:2446   */\n          tag_23\n          jump\t// in\n        tag_76:\n            /* \"#utility.yul\":2371:2446   */\n          swap1\n          pop\n            /* \"#utility.yul\":2469:2475   */\n          dup3\n            /* \"#utility.yul\":2462:2467   */\n          dup2\n            /* \"#utility.yul\":2455:2476   */\n          mstore\n            /* \"#utility.yul\":2507:2511   */\n          0x20\n            /* \"#utility.yul\":2500:2505   */\n          dup2\n            /* \"#utility.yul\":2496:2512   */\n          add\n            /* \"#utility.yul\":2545:2548   */\n          dup5\n            /* \"#utility.yul\":2536:2542   */\n          dup5\n            /* \"#utility.yul\":2531:2534   */\n          dup5\n            /* \"#utility.yul\":2527:2543   */\n          add\n            /* \"#utility.yul\":2524:2549   */\n          gt\n            /* \"#utility.yul\":2521:2633   */\n          iszero\n          tag_78\n          jumpi\n            /* \"#utility.yul\":2552:2631   */\n          tag_79\n          tag_19\n          jump\t// in\n        tag_79:\n            /* \"#utility.yul\":2521:2633   */\n        tag_78:\n            /* \"#utility.yul\":2642:2694   */\n          tag_80\n            /* \"#utility.yul\":2687:2693   */\n          dup5\n            /* \"#utility.yul\":2682:2685   */\n          dup3\n            /* \"#utility.yul\":2677:2680   */\n          dup6\n            /* \"#utility.yul\":2642:2694   */\n          tag_25\n          jump\t// in\n        tag_80:\n            /* \"#utility.yul\":2361:2700   */\n          pop\n            /* \"#utility.yul\":2266:2700   */\n          swap4\n          swap3\n          pop\n          pop\n          pop\n          jump\t// out\n            /* \"#utility.yul\":2720:3075   */\n        tag_27:\n            /* \"#utility.yul\":2787:2792   */\n          0x00\n            /* \"#utility.yul\":2836:2839   */\n          dup3\n            /* \"#utility.yul\":2829:2833   */\n          0x1f\n            /* \"#utility.yul\":2821:2827   */\n          dup4\n            /* \"#utility.yul\":2817:2834   */\n          add\n            /* \"#utility.yul\":2813:2840   */\n          slt\n            /* \"#utility.yul\":2803:2925   */\n          tag_82\n          jumpi\n            /* \"#utility.yul\":2844:2923   */\n          tag_83\n          tag_18\n          jump\t// in\n        tag_83:\n            /* \"#utility.yul\":2803:2925   */\n        tag_82:\n            /* \"#utility.yul\":2954:2960   */\n          dup2\n            /* \"#utility.yul\":2948:2961   */\n          mload\n            /* \"#utility.yul\":2979:3069   */\n          tag_84\n            /* \"#utility.yul\":3065:3068   */\n          dup5\n            /* \"#utility.yul\":3057:3063   */\n          dup3\n            /* \"#utility.yul\":3050:3054   */\n          0x20\n            /* \"#utility.yul\":3042:3048   */\n          dup7\n            /* \"#utility.yul\":3038:3055   */\n          add\n            /* \"#utility.yul\":2979:3069   */\n          tag_26\n          jump\t// in\n        tag_84:\n            /* \"#utility.yul\":2970:3069   */\n          swap2\n          pop\n            /* \"#utility.yul\":2793:3075   */\n          pop\n            /* \"#utility.yul\":2720:3075   */\n          swap3\n          swap2\n          pop\n          pop\n          jump\t// out\n            /* \"#utility.yul\":3081:4577   */\n        tag_3:\n            /* \"#utility.yul\":3217:3223   */\n          0x00\n            /* \"#utility.yul\":3225:3231   */\n          0x00\n            /* \"#utility.yul\":3233:3239   */\n          0x00\n            /* \"#utility.yul\":3241:3247   */\n          0x00\n            /* \"#utility.yul\":3249:3255   */\n          0x00\n            /* \"#utility.yul\":3298:3301   */\n          0xa0\n            /* \"#utility.yul\":3286:3295   */\n          dup7\n            /* \"#utility.yul\":3277:3284   */\n          dup9\n            /* \"#utility.yul\":3273:3296   */\n          sub\n            /* \"#utility.yul\":3269:3302   */\n          slt\n            /* \"#utility.yul\":3266:3386   */\n          iszero\n          tag_86\n          jumpi\n            /* \"#utility.yul\":3305:3384   */\n          tag_87\n          tag_12\n          jump\t// in\n        tag_87:\n            /* \"#utility.yul\":3266:3386   */\n        tag_86:\n            /* \"#utility.yul\":3425:3426   */\n          0x00\n            /* \"#utility.yul\":3450:3514   */\n          tag_88\n            /* \"#utility.yul\":3506:3513   */\n          dup9\n            /* \"#utility.yul\":3497:3503   */\n          dup3\n            /* \"#utility.yul\":3486:3495   */\n          dup10\n            /* \"#utility.yul\":3482:3504   */\n          add\n            /* \"#utility.yul\":3450:3514   */\n          tag_17\n          jump\t// in\n        tag_88:\n            /* \"#utility.yul\":3440:3514   */\n          swap6\n          pop\n            /* \"#utility.yul\":3396:3524   */\n          pop\n            /* \"#utility.yul\":3563:3565   */\n          0x20\n            /* \"#utility.yul\":3589:3653   */\n          tag_89\n            /* \"#utility.yul\":3645:3652   */\n          dup9\n            /* \"#utility.yul\":3636:3642   */\n          dup3\n            /* \"#utility.yul\":3625:3634   */\n          dup10\n            /* \"#utility.yul\":3621:3643   */\n          add\n            /* \"#utility.yul\":3589:3653   */\n          tag_17\n          jump\t// in\n        tag_89:\n            /* \"#utility.yul\":3579:3653   */\n          swap5\n          pop\n            /* \"#utility.yul\":3534:3663   */\n          pop\n            /* \"#utility.yul\":3723:3725   */\n          0x40\n            /* \"#utility.yul\":3712:3721   */\n          dup7\n            /* \"#utility.yul\":3708:3726   */\n          add\n            /* \"#utility.yul\":3702:3727   */\n          mload\n            /* \"#utility.yul\":3754:3772   */\n          0xffffffffffffffff\n            /* \"#utility.yul\":3746:3752   */\n          dup2\n            /* \"#utility.yul\":3743:3773   */\n          gt\n            /* \"#utility.yul\":3740:3857   */\n          iszero\n          tag_90\n          jumpi\n            /* \"#utility.yul\":3776:3855   */\n          tag_91\n          tag_13\n          jump\t// in\n        tag_91:\n            /* \"#utility.yul\":3740:3857   */\n        tag_90:\n            /* \"#utility.yul\":3881:3955   */\n          tag_92\n            /* \"#utility.yul\":3947:3954   */\n          dup9\n            /* \"#utility.yul\":3938:3944   */\n          dup3\n            /* \"#utility.yul\":3927:3936   */\n          dup10\n            /* \"#utility.yul\":3923:3945   */\n          add\n            /* \"#utility.yul\":3881:3955   */\n          tag_27\n          jump\t// in\n        tag_92:\n            /* \"#utility.yul\":3871:3955   */\n          swap4\n          pop\n            /* \"#utility.yul\":3673:3965   */\n          pop\n            /* \"#utility.yul\":4025:4027   */\n          0x60\n            /* \"#utility.yul\":4014:4023   */\n          dup7\n            /* \"#utility.yul\":4010:4028   */\n          add\n            /* \"#utility.yul\":4004:4029   */\n          mload\n            /* \"#utility.yul\":4056:4074   */\n          0xffffffffffffffff\n            /* \"#utility.yul\":4048:4054   */\n          dup2\n            /* \"#utility.yul\":4045:4075   */\n          gt\n            /* \"#utility.yul\":4042:4159   */\n          iszero\n          tag_93\n          jumpi\n            /* \"#utility.yul\":4078:4157   */\n          tag_94\n          tag_13\n          jump\t// in\n        tag_94:\n            /* \"#utility.yul\":4042:4159   */\n        tag_93:\n            /* \"#utility.yul\":4183:4257   */\n          tag_95\n            /* \"#utility.yul\":4249:4256   */\n          dup9\n            /* \"#utility.yul\":4240:4246   */\n          dup3\n            /* \"#utility.yul\":4229:4238   */\n          dup10\n            /* \"#utility.yul\":4225:4247   */\n          add\n            /* \"#utility.yul\":4183:4257   */\n          tag_27\n          jump\t// in\n        tag_95:\n            /* \"#utility.yul\":4173:4257   */\n          swap3\n          pop\n            /* \"#utility.yul\":3975:4267   */\n          pop\n            /* \"#utility.yul\":4327:4330   */\n          0x80\n            /* \"#utility.yul\":4316:4325   */\n          dup7\n            /* \"#utility.yul\":4312:4331   */\n          add\n            /* \"#utility.yul\":4306:4332   */\n          mload\n            /* \"#utility.yul\":4359:4377   */\n          0xffffffffffffffff\n            /* \"#utility.yul\":4351:4357   */\n          dup2\n            /* \"#utility.yul\":4348:4378   */\n          gt\n            /* \"#utility.yul\":4345:4462   */\n          iszero\n          tag_96\n          jumpi\n            /* \"#utility.yul\":4381:4460   */\n          tag_97\n          tag_13\n          jump\t// in\n        tag_97:\n            /* \"#utility.yul\":4345:4462   */\n        tag_96:\n            /* \"#utility.yul\":4486:4560   */\n          tag_98\n            /* \"#utility.yul\":4552:4559   */\n          dup9\n            /* \"#utility.yul\":4543:4549   */\n          dup3\n            /* \"#utility.yul\":4532:4541   */\n          dup10\n            /* \"#utility.yul\":4528:4550   */\n          add\n            /* \"#utility.yul\":4486:4560   */\n          tag_27\n          jump\t// in\n        tag_98:\n            /* \"#utility.yul\":4476:4560   */\n          swap2\n          pop\n            /* \"#utility.yul\":4277:4570   */\n          pop\n            /* \"#utility.yul\":3081:4577   */\n          swap3\n          swap6\n          pop\n          swap3\n          swap6\n          swap1\n          swap4\n          pop\n          jump\t// out\n            /* \"#utility.yul\":4583:4682   */\n        tag_28:\n            /* \"#utility.yul\":4635:4641   */\n          0x00\n            /* \"#utility.yul\":4669:4674   */\n          dup2\n            /* \"#utility.yul\":4663:4675   */\n          mload\n            /* \"#utility.yul\":4653:4675   */\n          swap1\n          pop\n            /* \"#utility.yul\":4583:4682   */\n          swap2\n          swap1\n          pop\n          jump\t// out\n            /* \"#utility.yul\":4688:4868   */\n        tag_29:\n            /* \"#utility.yul\":4736:4813   */\n          0x4e487b7100000000000000000000000000000000000000000000000000000000\n            /* \"#utility.yul\":4733:4734   */\n          0x00\n            /* \"#utility.yul\":4726:4814   */\n          mstore\n            /* \"#utility.yul\":4833:4837   */\n          0x22\n            /* \"#utility.yul\":4830:4831   */\n          0x04\n            /* \"#utility.yul\":4823:4838   */\n          mstore\n            /* \"#utility.yul\":4857:4861   */\n          0x24\n            /* \"#utility.yul\":4854:4855   */\n          0x00\n            /* \"#utility.yul\":4847:4862   */\n          revert\n            /* \"#utility.yul\":4874:5194   */\n        tag_30:\n            /* \"#utility.yul\":4918:4924   */\n          0x00\n            /* \"#utility.yul\":4955:4956   */\n          0x02\n            /* \"#utility.yul\":4949:4953   */\n          dup3\n            /* \"#utility.yul\":4945:4957   */\n          div\n            /* \"#utility.yul\":4935:4957   */\n          swap1\n          pop\n            /* \"#utility.yul\":5002:5003   */\n          0x01\n            /* \"#utility.yul\":4996:5000   */\n          dup3\n            /* \"#utility.yul\":4992:5004   */\n          and\n            /* \"#utility.yul\":5023:5041   */\n          dup1\n            /* \"#utility.yul\":5013:5094   */\n          tag_102\n          jumpi\n            /* \"#utility.yul\":5079:5083   */\n          0x7f\n            /* \"#utility.yul\":5071:5077   */\n          dup3\n            /* \"#utility.yul\":5067:5084   */\n          and\n            /* \"#utility.yul\":5057:5084   */\n          swap2\n          pop\n            /* \"#utility.yul\":5013:5094   */\n        tag_102:\n            /* \"#utility.yul\":5141:5143   */\n          0x20\n            /* \"#utility.yul\":5133:5139   */\n          dup3\n            /* \"#utility.yul\":5130:5144   */\n          lt\n            /* \"#utility.yul\":5110:5128   */\n          dup2\n            /* \"#utility.yul\":5107:5145   */\n          sub\n            /* \"#utility.yul\":5104:5188   */\n          tag_103\n          jumpi\n            /* \"#utility.yul\":5160:5178   */\n          tag_104\n          tag_29\n          jump\t// in\n        tag_104:\n            /* \"#utility.yul\":5104:5188   */\n        tag_103:\n            /* \"#utility.yul\":4925:5194   */\n          pop\n            /* \"#utility.yul\":4874:5194   */\n          swap2\n          swap1\n          pop\n          jump\t// out\n            /* \"#utility.yul\":5200:5341   */\n        tag_31:\n            /* \"#utility.yul\":5249:5253   */\n          0x00\n            /* \"#utility.yul\":5272:5275   */\n          dup2\n            /* \"#utility.yul\":5264:5275   */\n          swap1\n          pop\n            /* \"#utility.yul\":5295:5298   */\n          dup2\n            /* \"#utility.yul\":5292:5293   */\n          0x00\n            /* \"#utility.yul\":5285:5299   */\n          mstore\n            /* \"#utility.yul\":5329:5333   */\n          0x20\n            /* \"#utility.yul\":5326:5327   */\n          0x00\n            /* \"#utility.yul\":5316:5334   */\n          keccak256\n            /* \"#utility.yul\":5308:5334   */\n          swap1\n          pop\n            /* \"#utility.yul\":5200:5341   */\n          swap2\n          swap1\n          pop\n          jump\t// out\n            /* \"#utility.yul\":5347:5440   */\n        tag_32:\n            /* \"#utility.yul\":5384:5390   */\n          0x00\n            /* \"#utility.yul\":5431:5433   */\n          0x20\n            /* \"#utility.yul\":5426:5428   */\n          0x1f\n            /* \"#utility.yul\":5419:5424   */\n          dup4\n            /* \"#utility.yul\":5415:5429   */\n          add\n            /* \"#utility.yul\":5411:5434   */\n          div\n            /* \"#utility.yul\":5401:5434   */\n          swap1\n          pop\n            /* \"#utility.yul\":5347:5440   */\n          swap2\n          swap1\n          pop\n          jump\t// out\n            /* \"#utility.yul\":5446:5553   */\n        tag_33:\n            /* \"#utility.yul\":5490:5498   */\n          0x00\n            /* \"#utility.yul\":5540:5545   */\n          dup3\n            /* \"#utility.yul\":5534:5538   */\n          dup3\n            /* \"#utility.yul\":5530:5546   */\n          shl\n            /* \"#utility.yul\":5509:5546   */\n          swap1\n          pop\n            /* \"#utility.yul\":5446:5553   */\n          swap3\n          swap2\n          pop\n          pop\n          jump\t// out\n            /* \"#utility.yul\":5559:5952   */\n        tag_34:\n            /* \"#utility.yul\":5628:5634   */\n          0x00\n            /* \"#utility.yul\":5678:5679   */\n          0x08\n            /* \"#utility.yul\":5666:5676   */\n          dup4\n            /* \"#utility.yul\":5662:5680   */\n          mul\n            /* \"#utility.yul\":5701:5798   */\n          tag_109\n            /* \"#utility.yul\":5731:5797   */\n          0xffffffffffffffffffffffffffffffffffffffffffffffffffffffffffffffff\n            /* \"#utility.yul\":5720:5729   */\n          dup3\n            /* \"#utility.yul\":5701:5798   */\n          tag_33\n          jump\t// in\n        tag_109:\n            /* \"#utility.yul\":5819:5858   */\n          tag_110\n            /* \"#utility.yul\":5849:5857   */\n          dup7\n            /* \"#utility.yul\":5838:5847   */\n          dup4\n            /* \"#utility.yul\":5819:5858   */\n          tag_33\n          jump\t// in\n        tag_110:\n            /* \"#utility.yul\":5807:5858   */\n          swap6\n          pop\n            /* \"#utility.yul\":5891:5895   */\n          dup1\n            /* \"#utility.yul\":5887:5896   */\n          not\n            /* \"#utility.yul\":5880:5885   */\n          dup5\n            /* \"#utility.yul\":5876:5897   */\n          and\n            /* \"#utility.yul\":5867:5897   */\n          swap4\n          pop\n            /* \"#utility.yul\":5940:5944   */\n          dup1\n            /* \"#utility.yul\":5930:5938   */\n          dup7\n            /* \"#utility.yul\":5926:5945   */\n          and\n            /* \"#utility.yul\":5919:5924   */\n          dup5\n            /* \"#utility.yul\":5916:5946   */\n          or\n            /* \"#utility.yul\":5906:5946   */\n          swap3\n          pop\n            /* \"#utility.yul\":5635:5952   */\n          pop\n          pop\n            /* \"#utility.yul\":5559:5952   */\n          swap4\n          swap3\n          pop\n          pop\n          pop\n          jump\t// out\n            /* \"#utility.yul\":5958:6035   */\n        tag_35:\n            /* \"#utility.yul\":5995:6002   */\n          0x00\n            /* \"#utility.yul\":6024:6029   */\n          dup2\n            /* \"#utility.yul\":6013:6029   */\n          swap1\n          pop\n            /* \"#utility.yul\":5958:6035   */\n          swap2\n          swap1\n          pop\n          jump\t// out\n            /* \"#utility.yul\":6041:6101   */\n        tag_36:\n            /* \"#utility.yul\":6069:6072   */\n          0x00\n            /* \"#utility.yul\":6090:6095   */\n          dup2\n            /* \"#utility.yul\":6083:6095   */\n          swap1\n          pop\n            /* \"#utility.yul\":6041:6101   */\n          swap2\n          swap1\n          pop\n          jump\t// out\n            /* \"#utility.yul\":6107:6249   */\n        tag_37:\n            /* \"#utility.yul\":6157:6166   */\n          0x00\n            /* \"#utility.yul\":6190:6243   */\n          tag_114\n            /* \"#utility.yul\":6208:6242   */\n          tag_115\n            /* \"#utility.yul\":6217:6241   */\n          tag_116\n            /* \"#utility.yul\":6235:6240   */\n          dup5\n            /* \"#utility.yul\":6217:6241   */\n          tag_35\n          jump\t// in\n        tag_116:\n            /* \"#utility.yul\":6208:6242   */\n          tag_36\n          jump\t// in\n        tag_115:\n            /* \"#utility.yul\":6190:6243   */\n          tag_35\n          jump\t// in\n        tag_114:\n            /* \"#utility.yul\":6177:6243   */\n          swap1\n          pop\n            /* \"#utility.yul\":6107:6249   */\n          swap2\n          swap1\n          pop\n          jump\t// out\n            /* \"#utility.yul\":6255:6330   */\n        tag_38:\n            /* \"#utility.yul\":6298:6301   */\n          0x00\n            /* \"#utility.yul\":6319:6324   */\n          dup2\n            /* \"#utility.yul\":6312:6324   */\n          swap1\n          pop\n            /* \"#utility.yul\":6255:6330   */\n          swap2\n          swap1\n          pop\n          jump\t// out\n            /* \"#utility.yul\":6336:6605   */\n        tag_39:\n            /* \"#utility.yul\":6446:6485   */\n          tag_119\n            /* \"#utility.yul\":6477:6484   */\n          dup4\n            /* \"#utility.yul\":6446:6485   */\n          tag_37\n          jump\t// in\n        tag_119:\n            /* \"#utility.yul\":6507:6598   */\n          tag_120\n            /* \"#utility.yul\":6556:6597   */\n          tag_121\n            /* \"#utility.yul\":6580:6596   */\n          dup3\n            /* \"#utility.yul\":6556:6597   */\n          tag_38\n          jump\t// in\n        tag_121:\n            /* \"#utility.yul\":6548:6554   */\n          dup5\n            /* \"#utility.yul\":6541:6545   */\n          dup5\n            /* \"#utility.yul\":6535:6546   */\n          sload\n            /* \"#utility.yul\":6507:6598   */\n          tag_34\n          jump\t// in\n        tag_120:\n            /* \"#utility.yul\":6501:6505   */\n          dup3\n            /* \"#utility.yul\":6494:6599   */\n          sstore\n            /* \"#utility.yul\":6412:6605   */\n          pop\n            /* \"#utility.yul\":6336:6605   */\n          pop\n          pop\n          pop\n          jump\t// out\n            /* \"#utility.yul\":6611:6684   */\n        tag_40:\n            /* \"#utility.yul\":6656:6659   */\n          0x00\n            /* \"#utility.yul\":6677:6678   */\n          0x00\n            /* \"#utility.yul\":6670:6678   */\n          swap1\n          pop\n            /* \"#utility.yul\":6611:6684   */\n          swap1\n          jump\t// out\n            /* \"#utility.yul\":6690:6879   */\n        tag_41:\n            /* \"#utility.yul\":6767:6799   */\n          tag_124\n          tag_40\n          jump\t// in\n        tag_124:\n            /* \"#utility.yul\":6808:6873   */\n          tag_125\n            /* \"#utility.yul\":6866:6872   */\n          dup2\n            /* \"#utility.yul\":6858:6864   */\n          dup5\n            /* \"#utility.yul\":6852:6856   */\n          dup5\n            /* \"#utility.yul\":6808:6873   */\n          tag_39\n          jump\t// in\n        tag_125:\n            /* \"#utility.yul\":6743:6879   */\n          pop\n            /* \"#utility.yul\":6690:6879   */\n          pop\n          pop\n          jump\t// out\n            /* \"#utility.yul\":6885:7071   */\n        tag_42:\n            /* \"#utility.yul\":6945:7065   */\n        tag_127:\n            /* \"#utility.yul\":6962:6965   */\n          dup2\n            /* \"#utility.yul\":6955:6960   */\n          dup2\n            /* \"#utility.yul\":6952:6966   */\n          lt\n            /* \"#utility.yul\":6945:7065   */\n          iszero\n          tag_129\n          jumpi\n            /* \"#utility.yul\":7016:7055   */\n          tag_130\n            /* \"#utility.yul\":7053:7054   */\n          0x00\n            /* \"#utility.yul\":7046:7051   */\n          dup3\n            /* \"#utility.yul\":7016:7055   */\n          tag_41\n          jump\t// in\n        tag_130:\n            /* \"#utility.yul\":6989:6990   */\n          0x01\n            /* \"#utility.yul\":6982:6987   */\n          dup2\n            /* \"#utility.yul\":6978:6991   */\n          add\n            /* \"#utility.yul\":6969:6991   */\n          swap1\n          pop\n            /* \"#utility.yul\":6945:7065   */\n          jump(tag_127)\n        tag_129:\n            /* \"#utility.yul\":6885:7071   */\n          pop\n          pop\n          jump\t// out\n            /* \"#utility.yul\":7077:7620   */\n        tag_43:\n            /* \"#utility.yul\":7178:7180   */\n          0x1f\n            /* \"#utility.yul\":7173:7176   */\n          dup3\n            /* \"#utility.yul\":7170:7181   */\n          gt\n            /* \"#utility.yul\":7167:7613   */\n          iszero\n          tag_132\n          jumpi\n            /* \"#utility.yul\":7212:7250   */\n          tag_133\n            /* \"#utility.yul\":7244:7249   */\n          dup2\n            /* \"#utility.yul\":7212:7250   */\n          tag_31\n          jump\t// in\n        tag_133:\n            /* \"#utility.yul\":7296:7325   */\n          tag_134\n            /* \"#utility.yul\":7314:7324   */\n          dup5\n            /* \"#utility.yul\":7296:7325   */\n          tag_32\n          jump\t// in\n        tag_134:\n            /* \"#utility.yul\":7286:7294   */\n          dup2\n            /* \"#utility.yul\":7282:7326   */\n          add\n            /* \"#utility.yul\":7479:7481   */\n          0x20\n            /* \"#utility.yul\":7467:7477   */\n          dup6\n            /* \"#utility.yul\":7464:7482   */\n          lt\n            /* \"#utility.yul\":7461:7510   */\n          iszero\n          tag_135\n          jumpi\n            /* \"#utility.yul\":7500:7508   */\n          dup2\n            /* \"#utility.yul\":7485:7508   */\n          swap1\n          pop\n            /* \"#utility.yul\":7461:7510   */\n        tag_135:\n            /* \"#utility.yul\":7523:7603   */\n          tag_136\n            /* \"#utility.yul\":7579:7601   */\n          tag_137\n            /* \"#utility.yul\":7597:7600   */\n          dup6\n            /* \"#utility.yul\":7579:7601   */\n          tag_32\n          jump\t// in\n        tag_137:\n            /* \"#utility.yul\":7569:7577   */\n          dup4\n            /* \"#utility.yul\":7565:7602   */\n          add\n            /* \"#utility.yul\":7552:7563   */\n          dup3\n            /* \"#utility.yul\":7523:7603   */\n          tag_42\n          jump\t// in\n        tag_136:\n            /* \"#utility.yul\":7182:7613   */\n          pop\n          pop\n            /* \"#utility.yul\":7167:7613   */\n        tag_132:\n            /* \"#utility.yul\":7077:7620   */\n          pop\n          pop\n          pop\n          jump\t// out\n            /* \"#utility.yul\":7626:7743   */\n        tag_44:\n            /* \"#utility.yul\":7680:7688   */\n          0x00\n            /* \"#utility.yul\":7730:7735   */\n          dup3\n            /* \"#utility.yul\":7724:7728   */\n          dup3\n            /* \"#utility.yul\":7720:7736   */\n          shr\n            /* \"#utility.yul\":7699:7736   */\n          swap1\n          pop\n            /* \"#utility.yul\":7626:7743   */\n          swap3\n          swap2\n          pop\n          pop\n          jump\t// out\n            /* \"#utility.yul\":7749:7918   */\n        tag_45:\n            /* \"#utility.yul\":7793:7799   */\n          0x00\n            /* \"#utility.yul\":7826:7877   */\n          tag_140\n            /* \"#utility.yul\":7874:7875   */\n          0x00\n            /* \"#utility.yul\":7870:7876   */\n          not\n            /* \"#utility.yul\":7862:7867   */\n          dup5\n            /* \"#utility.yul\":7859:7860   */\n          0x08\n            /* \"#utility.yul\":7855:7868   */\n          mul\n            /* \"#utility.yul\":7826:7877   */\n          tag_44\n          jump\t// in\n        tag_140:\n            /* \"#utility.yul\":7822:7878   */\n          not\n            /* \"#utility.yul\":7907:7911   */\n          dup1\n            /* \"#utility.yul\":7901:7905   */\n          dup4\n            /* \"#utility.yul\":7897:7912   */\n          and\n            /* \"#utility.yul\":7887:7912   */\n          swap2\n          pop\n            /* \"#utility.yul\":7800:7918   */\n          pop\n            /* \"#utility.yul\":7749:7918   */\n          swap3\n          swap2\n          pop\n          pop\n          jump\t// out\n            /* \"#utility.yul\":7923:8218   */\n        tag_46:\n            /* \"#utility.yul\":7999:8003   */\n          0x00\n            /* \"#utility.yul\":8145:8174   */\n          tag_142\n            /* \"#utility.yul\":8170:8173   */\n          dup4\n            /* \"#utility.yul\":8164:8168   */\n          dup4\n            /* \"#utility.yul\":8145:8174   */\n          tag_45\n          jump\t// in\n        tag_142:\n            /* \"#utility.yul\":8137:8174   */\n          swap2\n          pop\n            /* \"#utility.yul\":8207:8210   */\n          dup3\n            /* \"#utility.yul\":8204:8205   */\n          0x02\n            /* \"#utility.yul\":8200:8211   */\n          mul\n            /* \"#utility.yul\":8194:8198   */\n          dup3\n            /* \"#utility.yul\":8191:8212   */\n          or\n            /* \"#utility.yul\":8183:8212   */\n          swap1\n          pop\n            /* \"#utility.yul\":7923:8218   */\n          swap3\n          swap2\n          pop\n          pop\n          jump\t// out\n            /* \"#utility.yul\":8223:9618   */\n        tag_7:\n            /* \"#utility.yul\":8340:8377   */\n          tag_144\n            /* \"#utility.yul\":8373:8376   */\n          dup3\n            /* \"#utility.yul\":8340:8377   */\n          tag_28\n          jump\t// in\n        tag_144:\n            /* \"#utility.yul\":8442:8460   */\n          0xffffffffffffffff\n            /* \"#utility.yul\":8434:8440   */\n          dup2\n            /* \"#utility.yul\":8431:8461   */\n          gt\n            /* \"#utility.yul\":8428:8484   */\n          iszero\n          tag_145\n          jumpi\n            /* \"#utility.yul\":8464:8482   */\n          tag_146\n          tag_21\n          jump\t// in\n        tag_146:\n            /* \"#utility.yul\":8428:8484   */\n        tag_145:\n            /* \"#utility.yul\":8508:8546   */\n          tag_147\n            /* \"#utility.yul\":8540:8544   */\n          dup3\n            /* \"#utility.yul\":8534:8545   */\n          sload\n            /* \"#utility.yul\":8508:8546   */\n          tag_30\n          jump\t// in\n        tag_147:\n            /* \"#utility.yul\":8593:8660   */\n          tag_148\n            /* \"#utility.yul\":8653:8659   */\n          dup3\n            /* \"#utility.yul\":8645:8651   */\n          dup3\n            /* \"#utility.yul\":8639:8643   */\n          dup6\n            /* \"#utility.yul\":8593:8660   */\n          tag_43\n          jump\t// in\n        tag_148:\n            /* \"#utility.yul\":8687:8688   */\n          0x00\n            /* \"#utility.yul\":8711:8715   */\n          0x20\n            /* \"#utility.yul\":8698:8715   */\n          swap1\n          pop\n            /* \"#utility.yul\":8743:8745   */\n          0x1f\n            /* \"#utility.yul\":8735:8741   */\n          dup4\n            /* \"#utility.yul\":8732:8746   */\n          gt\n            /* \"#utility.yul\":8760:8761   */\n          0x01\n            /* \"#utility.yul\":8755:9373   */\n          dup2\n          eq\n          tag_150\n          jumpi\n            /* \"#utility.yul\":9417:9418   */\n          0x00\n            /* \"#utility.yul\":9434:9440   */\n          dup5\n            /* \"#utility.yul\":9431:9508   */\n          iszero\n          tag_151\n          jumpi\n            /* \"#utility.yul\":9483:9492   */\n          dup3\n            /* \"#utility.yul\":9478:9481   */\n          dup8\n            /* \"#utility.yul\":9474:9493   */\n          add\n            /* \"#utility.yul\":9468:9494   */\n          mload\n            /* \"#utility.yul\":9459:9494   */\n          swap1\n          pop\n            /* \"#utility.yul\":9431:9508   */\n        tag_151:\n            /* \"#utility.yul\":9534:9601   */\n          tag_152\n            /* \"#utility.yul\":9594:9600   */\n          dup6\n            /* \"#utility.yul\":9587:9592   */\n          dup3\n            /* \"#utility.yul\":9534:9601   */\n          tag_46\n          jump\t// in\n        tag_152:\n            /* \"#utility.yul\":9528:9532   */\n          dup7\n            /* \"#utility.yul\":9521:9602   */\n          sstore\n            /* \"#utility.yul\":9390:9612   */\n          pop\n            /* \"#utility.yul\":8725:9612   */\n          jump(tag_149)\n            /* \"#utility.yul\":8755:9373   */\n        tag_150:\n            /* \"#utility.yul\":8807:8811   */\n          0x1f\n            /* \"#utility.yul\":8803:8812   */\n          not\n            /* \"#utility.yul\":8795:8801   */\n          dup5\n            /* \"#utility.yul\":8791:8813   */\n          and\n            /* \"#utility.yul\":8841:8878   */\n          tag_153\n            /* \"#utility.yul\":8873:8877   */\n          dup7\n            /* \"#utility.yul\":8841:8878   */\n          tag_31\n          jump\t// in\n        tag_153:\n            /* \"#utility.yul\":8900:8901   */\n          0x00\n            /* \"#utility.yul\":8914:9122   */\n        tag_154:\n            /* \"#utility.yul\":8928:8935   */\n          dup3\n            /* \"#utility.yul\":8925:8926   */\n          dup2\n            /* \"#utility.yul\":8922:8936   */\n          lt\n            /* \"#utility.yul\":8914:9122   */\n          iszero\n          tag_156\n          jumpi\n            /* \"#utility.yul\":9007:9016   */\n          dup5\n            /* \"#utility.yul\":9002:9005   */\n          dup10\n            /* \"#utility.yul\":8998:9017   */\n          add\n            /* \"#utility.yul\":8992:9018   */\n          mload\n            /* \"#utility.yul\":8984:8990   */\n          dup3\n            /* \"#utility.yul\":8977:9019   */\n          sstore\n            /* \"#utility.yul\":9058:9059   */\n          0x01\n            /* \"#utility.yul\":9050:9056   */\n          dup3\n            /* \"#utility.yul\":9046:9060   */\n          add\n            /* \"#utility.yul\":9036:9060   */\n          swap2\n          pop\n            /* \"#utility.yul\":9105:9107   */\n          0x20\n            /* \"#utility.yul\":9094:9103   */\n          dup6\n            /* \"#utility.yul\":9090:9108   */\n          add\n            /* \"#utility.yul\":9077:9108   */\n          swap5\n          pop\n            /* \"#utility.yul\":8951:8955   */\n          0x20\n            /* \"#utility.yul\":8948:8949   */\n          dup2\n            /* \"#utility.yul\":8944:8956   */\n          add\n            /* \"#utility.yul\":8939:8956   */\n          swap1\n          pop\n            /* \"#utility.yul\":8914:9122   */\n          jump(tag_154)\n        tag_156:\n            /* \"#utility.yul\":9150:9156   */\n          dup7\n            /* \"#utility.yul\":9141:9148   */\n          dup4\n            /* \"#utility.yul\":9138:9157   */\n          lt\n            /* \"#utility.yul\":9135:9314   */\n          iszero\n          tag_157\n          jumpi\n            /* \"#utility.yul\":9208:9217   */\n          dup5\n            /* \"#utility.yul\":9203:9206   */\n          dup10\n            /* \"#utility.yul\":9199:9218   */\n          add\n            /* \"#utility.yul\":9193:9219   */\n          mload\n            /* \"#utility.yul\":9251:9299   */\n          tag_158\n            /* \"#utility.yul\":9293:9297   */\n          0x1f\n            /* \"#utility.yul\":9285:9291   */\n          dup10\n            /* \"#utility.yul\":9281:9298   */\n          and\n            /* \"#utility.yul\":9270:9279   */\n          dup3\n            /* \"#utility.yul\":9251:9299   */\n          tag_45\n          jump\t// in\n        tag_158:\n            /* \"#utility.yul\":9243:9249   */\n          dup4\n            /* \"#utility.yul\":9236:9300   */\n          sstore\n            /* \"#utility.yul\":9158:9314   */\n          pop\n            /* \"#utility.yul\":9135:9314   */\n        tag_157:\n            /* \"#utility.yul\":9360:9361   */\n          0x01\n            /* \"#utility.yul\":9356:9357   */\n          0x02\n            /* \"#utility.yul\":9348:9354   */\n          dup9\n            /* \"#utility.yul\":9344:9358   */\n          mul\n            /* \"#utility.yul\":9340:9362   */\n          add\n            /* \"#utility.yul\":9334:9338   */\n          dup9\n            /* \"#utility.yul\":9327:9363   */\n          sstore\n            /* \"#utility.yul\":8762:9373   */\n          pop\n          pop\n          pop\n            /* \"#utility.yul\":8725:9612   */\n        tag_149:\n          pop\n            /* \"#utility.yul\":8315:9618   */\n          pop\n          pop\n          pop\n            /* \"#utility.yul\":8223:9618   */\n          pop\n          pop\n          jump\t// out\n            /* \"blogs.sol\":1232:2601  contract BlogPost {... */\n        tag_10:\n          dataSize(sub_0)\n          dup1\n          dataOffset(sub_0)\n          0x00\n          codecopy\n          0x00\n          return\n        stop\n\n        sub_0: assembly {\n                /* \"blogs.sol\":1232:2601  contract BlogPost {... */\n              mstore(0x40, 0x80)\n              callvalue\n              dup1\n              iszero\n              tag_1\n              jumpi\n              revert(0x00, 0x00)\n            tag_1:\n              pop\n              jumpi(tag_2, lt(calldatasize, 0x04))\n              shr(0xe0, calldataload(0x00))\n              dup1\n              0x5e8ae07d\n              gt\n              tag_10\n              jumpi\n              dup1\n              0x5e8ae07d\n              eq\n              tag_6\n              jumpi\n              dup1\n              0x8c8a2adc\n              eq\n              tag_7\n              jumpi\n              dup1\n              0xc46b0b14\n              eq\n              tag_8\n              jumpi\n              dup1\n              0xe8a25269\n              eq\n              tag_9\n              jumpi\n              jump(tag_2)\n            tag_10:\n              dup1\n              0x15ecd356\n              eq\n              tag_3\n              jumpi\n              dup1\n              0x26942bf0\n              eq\n              tag_4\n              jumpi\n              dup1\n              0x42f40c21\n              eq\n              tag_5\n              jumpi\n            tag_2:\n              revert(0x00, 0x00)\n                /* \"blogs.sol\":1845:2066  function editBlogPost(string memory newTitle, string memory newContent, string memory newDate) public restricted {... */\n            tag_3:\n              tag_11\n              0x04\n              dup1\n              calldatasize\n              sub\n              dup2\n              add\n              swap1\n              tag_12\n              swap2\n              swap1\n              tag_13\n              jump\t// in\n            tag_12:\n              tag_14\n              jump\t// in\n            tag_11:\n              stop\n                /* \"blogs.sol\":1385:1416  string public blogCreatedAtDate */\n            tag_4:\n              tag_15\n              tag_16\n              jump\t// in\n            tag_15:\n              mload(0x40)\n              tag_17\n              swap2\n              swap1\n              tag_18\n              jump\t// in\n            tag_17:\n              mload(0x40)\n              dup1\n              swap2\n              sub\n              swap1\n              return\n                /* \"blogs.sol\":1354:1379  string public blogContent */\n            tag_5:\n              tag_19\n              tag_20\n              jump\t// in\n            tag_19:\n              mload(0x40)\n              tag_21\n              swap2\n              swap1\n              tag_18\n              jump\t// in\n            tag_21:\n              mload(0x40)\n              dup1\n              swap2\n              sub\n              swap1\n              return\n                /* \"blogs.sol\":2395:2598  function getBlogPosts() public view returns(address author, string memory title, string memory content, string memory date) {... */\n            tag_6:\n              tag_22\n              tag_23\n              jump\t// in\n            tag_22:\n              mload(0x40)\n              tag_24\n              swap5\n              swap4\n              swap3\n              swap2\n              swap1\n              tag_25\n              jump\t// in\n            tag_24:\n              mload(0x40)\n              dup1\n              swap2\n              sub\n              swap1\n              return\n                /* \"blogs.sol\":2072:2389  function readBlogPost() external view returns(address author, string memory title, string memory content, string memory date) {... */\n            tag_7:\n              tag_26\n              tag_27\n              jump\t// in\n            tag_26:\n              mload(0x40)\n              tag_28\n              swap5\n              swap4\n              swap3\n              swap2\n              swap1\n              tag_25\n              jump\t// in\n            tag_28:\n              mload(0x40)\n              dup1\n              swap2\n              sub\n              swap1\n              return\n                /* \"blogs.sol\":1294:1319  address public blogAuthor */\n            tag_8:\n              tag_29\n              tag_30\n              jump\t// in\n            tag_29:\n              mload(0x40)\n              tag_31\n              swap2\n              swap1\n              tag_32\n              jump\t// in\n            tag_31:\n              mload(0x40)\n              dup1\n              swap2\n              sub\n              swap1\n              return\n                /* \"blogs.sol\":1325:1348  string public blogTitle */\n            tag_9:\n              tag_33\n              tag_34\n              jump\t// in\n            tag_33:\n              mload(0x40)\n              tag_35\n              swap2\n              swap1\n              tag_18\n              jump\t// in\n            tag_35:\n              mload(0x40)\n              dup1\n              swap2\n              sub\n              swap1\n              return\n                /* \"blogs.sol\":1845:2066  function editBlogPost(string memory newTitle, string memory newContent, string memory newDate) public restricted {... */\n            tag_14:\n                /* \"blogs.sol\":1478:1488  blogAuthor */\n              0x01\n              0x00\n              swap1\n              sload\n              swap1\n              0x0100\n              exp\n              swap1\n              div\n              0xffffffffffffffffffffffffffffffffffffffff\n              and\n                /* \"blogs.sol\":1464:1488  msg.sender == blogAuthor */\n              0xffffffffffffffffffffffffffffffffffffffff\n              and\n                /* \"blogs.sol\":1464:1474  msg.sender */\n              caller\n                /* \"blogs.sol\":1464:1488  msg.sender == blogAuthor */\n              0xffffffffffffffffffffffffffffffffffffffff\n              and\n              eq\n                /* \"blogs.sol\":1456:1518  require(msg.sender == blogAuthor, \"Caller is not the manager\") */\n              tag_37\n              jumpi\n              mload(0x40)\n              0x08c379a000000000000000000000000000000000000000000000000000000000\n              dup2\n              mstore\n              0x04\n              add\n              tag_38\n              swap1\n              tag_39\n              jump\t// in\n            tag_38:\n              mload(0x40)\n              dup1\n              swap2\n              sub\n              swap1\n              revert\n            tag_37:\n                /* \"blogs.sol\":1980:1988  newTitle */\n              dup3\n                /* \"blogs.sol\":1968:1977  blogTitle */\n              0x02\n                /* \"blogs.sol\":1968:1988  blogTitle = newTitle */\n              swap1\n              dup2\n              tag_41\n              swap2\n              swap1\n              tag_42\n              jump\t// in\n            tag_41:\n              pop\n                /* \"blogs.sol\":2012:2022  newContent */\n              dup2\n                /* \"blogs.sol\":1998:2009  blogContent */\n              0x03\n                /* \"blogs.sol\":1998:2022  blogContent = newContent */\n              swap1\n              dup2\n              tag_43\n              swap2\n              swap1\n              tag_42\n              jump\t// in\n            tag_43:\n              pop\n                /* \"blogs.sol\":2052:2059  newDate */\n              dup1\n                /* \"blogs.sol\":2032:2049  blogCreatedAtDate */\n              0x04\n                /* \"blogs.sol\":2032:2059  blogCreatedAtDate = newDate */\n              swap1\n              dup2\n              tag_44\n              swap2\n              swap1\n              tag_42\n              jump\t// in\n            tag_44:\n              pop\n                /* \"blogs.sol\":1845:2066  function editBlogPost(string memory newTitle, string memory newContent, string memory newDate) public restricted {... */\n              pop\n              pop\n              pop\n              jump\t// out\n                /* \"blogs.sol\":1385:1416  string public blogCreatedAtDate */\n            tag_16:\n              0x04\n              dup1\n              sload\n              tag_45\n              swap1\n              tag_46\n              jump\t// in\n            tag_45:\n              dup1\n              0x1f\n              add\n              0x20\n              dup1\n              swap2\n              div\n              mul\n              0x20\n              add\n              mload(0x40)\n              swap1\n              dup2\n              add\n              0x40\n              mstore\n              dup1\n              swap3\n              swap2\n              swap1\n              dup2\n              dup2\n              mstore\n              0x20\n              add\n              dup3\n              dup1\n              sload\n              tag_47\n              swap1\n              tag_46\n              jump\t// in\n            tag_47:\n              dup1\n              iszero\n              tag_48\n              jumpi\n              dup1\n              0x1f\n              lt\n              tag_49\n              jumpi\n              0x0100\n              dup1\n              dup4\n              sload\n              div\n              mul\n              dup4\n              mstore\n              swap2\n              0x20\n              add\n              swap2\n              jump(tag_48)\n            tag_49:\n              dup3\n              add\n              swap2\n              swap1\n              0x00\n              mstore\n              keccak256(0x00, 0x20)\n              swap1\n            tag_50:\n              dup2\n              sload\n              dup2\n              mstore\n              swap1\n              0x01\n              add\n              swap1\n              0x20\n              add\n              dup1\n              dup4\n              gt\n              tag_50\n              jumpi\n              dup3\n              swap1\n              sub\n              0x1f\n              and\n              dup3\n              add\n              swap2\n            tag_48:\n              pop\n              pop\n              pop\n              pop\n              pop\n              dup2\n              jump\t// out\n                /* \"blogs.sol\":1354:1379  string public blogContent */\n            tag_20:\n              0x03\n              dup1\n              sload\n              tag_51\n              swap1\n              tag_46\n              jump\t// in\n            tag_51:\n              dup1\n              0x1f\n              add\n              0x20\n              dup1\n              swap2\n              div\n              mul\n              0x20\n              add\n              mload(0x40)\n              swap1\n              dup2\n              add\n              0x40\n              mstore\n              dup1\n              swap3\n              swap2\n              swap1\n              dup2\n              dup2\n              mstore\n              0x20\n              add\n              dup3\n              dup1\n              sload\n              tag_52\n              swap1\n              tag_46\n              jump\t// in\n            tag_52:\n              dup1\n              iszero\n              tag_53\n              jumpi\n              dup1\n              0x1f\n              lt\n              tag_54\n              jumpi\n              0x0100\n              dup1\n              dup4\n              sload\n              div\n              mul\n              dup4\n              mstore\n              swap2\n              0x20\n              add\n              swap2\n              jump(tag_53)\n            tag_54:\n              dup3\n              add\n              swap2\n              swap1\n              0x00\n              mstore\n              keccak256(0x00, 0x20)\n              swap1\n            tag_55:\n              dup2\n              sload\n              dup2\n              mstore\n              swap1\n              0x01\n              add\n              swap1\n              0x20\n              add\n              dup1\n              dup4\n              gt\n              tag_55\n              jumpi\n              dup3\n              swap1\n              sub\n              0x1f\n              and\n              dup3\n              add\n              swap2\n            tag_53:\n              pop\n              pop\n              pop\n              pop\n              pop\n              dup2\n              jump\t// out\n                /* \"blogs.sol\":2395:2598  function getBlogPosts() public view returns(address author, string memory title, string memory content, string memory date) {... */\n            tag_23:\n                /* \"blogs.sol\":2439:2453  address author */\n              0x00\n                /* \"blogs.sol\":2455:2474  string memory title */\n              0x60\n                /* \"blogs.sol\":2476:2497  string memory content */\n              dup1\n                /* \"blogs.sol\":2499:2517  string memory date */\n              0x60\n                /* \"blogs.sol\":2537:2547  blogAuthor */\n              0x01\n              0x00\n              swap1\n              sload\n              swap1\n              0x0100\n              exp\n              swap1\n              div\n              0xffffffffffffffffffffffffffffffffffffffff\n              and\n                /* \"blogs.sol\":2549:2558  blogTitle */\n              0x02\n                /* \"blogs.sol\":2560:2571  blogContent */\n              0x03\n                /* \"blogs.sol\":2573:2590  blogCreatedAtDate */\n              0x04\n                /* \"blogs.sol\":2529:2591  return (blogAuthor, blogTitle, blogContent, blogCreatedAtDate) */\n              dup3\n              dup1\n              sload\n              tag_57\n              swap1\n              tag_46\n              jump\t// in\n            tag_57:\n              dup1\n              0x1f\n              add\n              0x20\n              dup1\n              swap2\n              div\n              mul\n              0x20\n              add\n              mload(0x40)\n              swap1\n              dup2\n              add\n              0x40\n              mstore\n              dup1\n              swap3\n              swap2\n              swap1\n              dup2\n              dup2\n              mstore\n              0x20\n              add\n              dup3\n              dup1\n              sload\n              tag_58\n              swap1\n              tag_46\n              jump\t// in\n            tag_58:\n              dup1\n              iszero\n              tag_59\n              jumpi\n              dup1\n              0x1f\n              lt\n              tag_60\n              jumpi\n              0x0100\n              dup1\n              dup4\n              sload\n              div\n              mul\n              dup4\n              mstore\n              swap2\n              0x20\n              add\n              swap2\n              jump(tag_59)\n            tag_60:\n              dup3\n              add\n              swap2\n              swap1\n              0x00\n              mstore\n              keccak256(0x00, 0x20)\n              swap1\n            tag_61:\n              dup2\n              sload\n              dup2\n              mstore\n              swap1\n              0x01\n              add\n              swap1\n              0x20\n              add\n              dup1\n              dup4\n              gt\n              tag_61\n              jumpi\n              dup3\n              swap1\n              sub\n              0x1f\n              and\n              dup3\n              add\n              swap2\n            tag_59:\n              pop\n              pop\n              pop\n              pop\n              pop\n              swap3\n              pop\n              dup2\n              dup1\n              sload\n              tag_62\n              swap1\n              tag_46\n              jump\t// in\n            tag_62:\n              dup1\n              0x1f\n              add\n              0x20\n              dup1\n              swap2\n              div\n              mul\n              0x20\n              add\n              mload(0x40)\n              swap1\n              dup2\n              add\n              0x40\n              mstore\n              dup1\n              swap3\n              swap2\n              swap1\n              dup2\n              dup2\n              mstore\n              0x20\n              add\n              dup3\n              dup1\n              sload\n              tag_63\n              swap1\n              tag_46\n              jump\t// in\n            tag_63:\n              dup1\n              iszero\n              tag_64\n              jumpi\n              dup1\n              0x1f\n              lt\n              tag_65\n              jumpi\n              0x0100\n              dup1\n              dup4\n              sload\n              div\n              mul\n              dup4\n              mstore\n              swap2\n              0x20\n              add\n              swap2\n              jump(tag_64)\n            tag_65:\n              dup3\n              add\n              swap2\n              swap1\n              0x00\n              mstore\n              keccak256(0x00, 0x20)\n              swap1\n            tag_66:\n              dup2\n              sload\n              dup2\n              mstore\n              swap1\n              0x01\n              add\n              swap1\n              0x20\n              add\n              dup1\n              dup4\n              gt\n              tag_66\n              jumpi\n              dup3\n              swap1\n              sub\n              0x1f\n              and\n              dup3\n              add\n              swap2\n            tag_64:\n              pop\n              pop\n              pop\n              pop\n              pop\n              swap2\n              pop\n              dup1\n              dup1\n              sload\n              tag_67\n              swap1\n              tag_46\n              jump\t// in\n            tag_67:\n              dup1\n              0x1f\n              add\n              0x20\n              dup1\n              swap2\n              div\n              mul\n              0x20\n              add\n              mload(0x40)\n              swap1\n              dup2\n              add\n              0x40\n              mstore\n              dup1\n              swap3\n              swap2\n              swap1\n              dup2\n              dup2\n              mstore\n              0x20\n              add\n              dup3\n              dup1\n              sload\n              tag_68\n              swap1\n              tag_46\n              jump\t// in\n            tag_68:\n              dup1\n              iszero\n              tag_69\n              jumpi\n              dup1\n              0x1f\n              lt\n              tag_70\n              jumpi\n              0x0100\n              dup1\n              dup4\n              sload\n              div\n              mul\n              dup4\n              mstore\n              swap2\n              0x20\n              add\n              swap2\n              jump(tag_69)\n            tag_70:\n              dup3\n              add\n              swap2\n              swap1\n              0x00\n              mstore\n              keccak256(0x00, 0x20)\n              swap1\n            tag_71:\n              dup2\n              sload\n              dup2\n              mstore\n              swap1\n              0x01\n              add\n              swap1\n              0x20\n              add\n              dup1\n              dup4\n              gt\n              tag_71\n              jumpi\n              dup3\n              swap1\n              sub\n              0x1f\n              and\n              dup3\n              add\n              swap2\n            tag_69:\n              pop\n              pop\n              pop\n              pop\n              pop\n              swap1\n              pop\n              swap4\n              pop\n              swap4\n              pop\n              swap4\n              pop\n              swap4\n              pop\n                /* \"blogs.sol\":2395:2598  function getBlogPosts() public view returns(address author, string memory title, string memory content, string memory date) {... */\n              swap1\n              swap2\n              swap3\n              swap4\n              jump\t// out\n                /* \"blogs.sol\":2072:2389  function readBlogPost() external view returns(address author, string memory title, string memory content, string memory date) {... */\n            tag_27:\n                /* \"blogs.sol\":2118:2132  address author */\n              0x00\n                /* \"blogs.sol\":2134:2153  string memory title */\n              0x60\n                /* \"blogs.sol\":2155:2176  string memory content */\n              dup1\n                /* \"blogs.sol\":2178:2196  string memory date */\n              0x60\n                /* \"blogs.sol\":2216:2223  factory */\n              0x00\n              0x00\n              swap1\n              sload\n              swap1\n              0x0100\n              exp\n              swap1\n              div\n              0xffffffffffffffffffffffffffffffffffffffff\n              and\n                /* \"blogs.sol\":2216:2244  factory.isSubscribedToAuthor */\n              0xffffffffffffffffffffffffffffffffffffffff\n              and\n              0x85d481f3\n                /* \"blogs.sol\":2245:2255  blogAuthor */\n              0x01\n              0x00\n              swap1\n              sload\n              swap1\n              0x0100\n              exp\n              swap1\n              div\n              0xffffffffffffffffffffffffffffffffffffffff\n              and\n                /* \"blogs.sol\":2257:2267  msg.sender */\n              caller\n                /* \"blogs.sol\":2216:2268  factory.isSubscribedToAuthor(blogAuthor, msg.sender) */\n              mload(0x40)\n              dup4\n              0xffffffff\n              and\n              0xe0\n              shl\n              dup2\n              mstore\n              0x04\n              add\n              tag_73\n              swap3\n              swap2\n              swap1\n              tag_74\n              jump\t// in\n            tag_73:\n              0x20\n              mload(0x40)\n              dup1\n              dup4\n              sub\n              dup2\n              dup7\n              gas\n              staticcall\n              iszero\n              dup1\n              iszero\n              tag_76\n              jumpi\n              returndatacopy(0x00, 0x00, returndatasize)\n              revert(0x00, returndatasize)\n            tag_76:\n              pop\n              pop\n              pop\n              pop\n              mload(0x40)\n              returndatasize\n              not(0x1f)\n              0x1f\n              dup3\n              add\n              and\n              dup3\n              add\n              dup1\n              0x40\n              mstore\n              pop\n              dup2\n              add\n              swap1\n              tag_77\n              swap2\n              swap1\n              tag_78\n              jump\t// in\n            tag_77:\n                /* \"blogs.sol\":2208:2310  require(factory.isSubscribedToAuthor(blogAuthor, msg.sender), \"User is not subscribed to this author\") */\n              tag_79\n              jumpi\n              mload(0x40)\n              0x08c379a000000000000000000000000000000000000000000000000000000000\n              dup2\n              mstore\n              0x04\n              add\n              tag_80\n              swap1\n              tag_81\n              jump\t// in\n            tag_80:\n              mload(0x40)\n              dup1\n              swap2\n              sub\n              swap1\n              revert\n            tag_79:\n                /* \"blogs.sol\":2328:2338  blogAuthor */\n              0x01\n              0x00\n              swap1\n              sload\n              swap1\n              0x0100\n              exp\n              swap1\n              div\n              0xffffffffffffffffffffffffffffffffffffffff\n              and\n                /* \"blogs.sol\":2340:2349  blogTitle */\n              0x02\n                /* \"blogs.sol\":2351:2362  blogContent */\n              0x03\n                /* \"blogs.sol\":2364:2381  blogCreatedAtDate */\n              0x04\n                /* \"blogs.sol\":2320:2382  return (blogAuthor, blogTitle, blogContent, blogCreatedAtDate) */\n              dup3\n              dup1\n              sload\n              tag_82\n              swap1\n              tag_46\n              jump\t// in\n            tag_82:\n              dup1\n              0x1f\n              add\n              0x20\n              dup1\n              swap2\n              div\n              mul\n              0x20\n              add\n              mload(0x40)\n              swap1\n              dup2\n              add\n              0x40\n              mstore\n              dup1\n              swap3\n              swap2\n              swap1\n              dup2\n              dup2\n              mstore\n              0x20\n              add\n              dup3\n              dup1\n              sload\n              tag_83\n              swap1\n              tag_46\n              jump\t// in\n            tag_83:\n              dup1\n              iszero\n              tag_84\n              jumpi\n              dup1\n              0x1f\n              lt\n              tag_85\n              jumpi\n              0x0100\n              dup1\n              dup4\n              sload\n              div\n              mul\n              dup4\n              mstore\n              swap2\n              0x20\n              add\n              swap2\n              jump(tag_84)\n            tag_85:\n              dup3\n              add\n              swap2\n              swap1\n              0x00\n              mstore\n              keccak256(0x00, 0x20)\n              swap1\n            tag_86:\n              dup2\n              sload\n              dup2\n              mstore\n              swap1\n              0x01\n              add\n              swap1\n              0x20\n              add\n              dup1\n              dup4\n              gt\n              tag_86\n              jumpi\n              dup3\n              swap1\n              sub\n              0x1f\n              and\n              dup3\n              add\n              swap2\n            tag_84:\n              pop\n              pop\n              pop\n              pop\n              pop\n              swap3\n              pop\n              dup2\n              dup1\n              sload\n              tag_87\n              swap1\n              tag_46\n              jump\t// in\n            tag_87:\n              dup1\n              0x1f\n              add\n              0x20\n              dup1\n              swap2\n              div\n              mul\n              0x20\n              add\n              mload(0x40)\n              swap1\n              dup2\n              add\n              0x40\n              mstore\n              dup1\n              swap3\n              swap2\n              swap1\n              dup2\n              dup2\n              mstore\n              0x20\n              add\n              dup3\n              dup1\n              sload\n              tag_88\n              swap1\n              tag_46\n              jump\t// in\n            tag_88:\n              dup1\n              iszero\n              tag_89\n              jumpi\n              dup1\n              0x1f\n              lt\n              tag_90\n              jumpi\n              0x0100\n              dup1\n              dup4\n              sload\n              div\n              mul\n              dup4\n              mstore\n              swap2\n              0x20\n              add\n              swap2\n              jump(tag_89)\n            tag_90:\n              dup3\n              add\n              swap2\n              swap1\n              0x00\n              mstore\n              keccak256(0x00, 0x20)\n              swap1\n            tag_91:\n              dup2\n              sload\n              dup2\n              mstore\n              swap1\n              0x01\n              add\n              swap1\n              0x20\n              add\n              dup1\n              dup4\n              gt\n              tag_91\n              jumpi\n              dup3\n              swap1\n              sub\n              0x1f\n              and\n              dup3\n              add\n              swap2\n            tag_89:\n              pop\n              pop\n              pop\n              pop\n              pop\n              swap2\n              pop\n              dup1\n              dup1\n              sload\n              tag_92\n              swap1\n              tag_46\n              jump\t// in\n            tag_92:\n              dup1\n              0x1f\n              add\n              0x20\n              dup1\n              swap2\n              div\n              mul\n              0x20\n              add\n              mload(0x40)\n              swap1\n              dup2\n              add\n              0x40\n              mstore\n              dup1\n              swap3\n              swap2\n              swap1\n              dup2\n              dup2\n              mstore\n              0x20\n              add\n              dup3\n              dup1\n              sload\n              tag_93\n              swap1\n              tag_46\n              jump\t// in\n            tag_93:\n              dup1\n              iszero\n              tag_94\n              jumpi\n              dup1\n              0x1f\n              lt\n              tag_95\n              jumpi\n              0x0100\n              dup1\n              dup4\n              sload\n              div\n              mul\n              dup4\n              mstore\n              swap2\n              0x20\n              add\n              swap2\n              jump(tag_94)\n            tag_95:\n              dup3\n              add\n              swap2\n              swap1\n              0x00\n              mstore\n              keccak256(0x00, 0x20)\n              swap1\n            tag_96:\n              dup2\n              sload\n              dup2\n              mstore\n              swap1\n              0x01\n              add\n              swap1\n              0x20\n              add\n              dup1\n              dup4\n              gt\n              tag_96\n              jumpi\n              dup3\n              swap1\n              sub\n              0x1f\n              and\n              dup3\n              add\n              swap2\n            tag_94:\n              pop\n              pop\n              pop\n              pop\n              pop\n              swap1\n              pop\n              swap4\n              pop\n              swap4\n              pop\n              swap4\n              pop\n              swap4\n              pop\n                /* \"blogs.sol\":2072:2389  function readBlogPost() external view returns(address author, string memory title, string memory content, string memory date) {... */\n              swap1\n              swap2\n              swap3\n              swap4\n              jump\t// out\n                /* \"blogs.sol\":1294:1319  address public blogAuthor */\n            tag_30:\n              0x01\n              0x00\n              swap1\n              sload\n              swap1\n              0x0100\n              exp\n              swap1\n              div\n              0xffffffffffffffffffffffffffffffffffffffff\n              and\n              dup2\n              jump\t// out\n                /* \"blogs.sol\":1325:1348  string public blogTitle */\n            tag_34:\n              0x02\n              dup1\n              sload\n              tag_97\n              swap1\n              tag_46\n              jump\t// in\n            tag_97:\n              dup1\n              0x1f\n              add\n              0x20\n              dup1\n              swap2\n              div\n              mul\n              0x20\n              add\n              mload(0x40)\n              swap1\n              dup2\n              add\n              0x40\n              mstore\n              dup1\n              swap3\n              swap2\n              swap1\n              dup2\n              dup2\n              mstore\n              0x20\n              add\n              dup3\n              dup1\n              sload\n              tag_98\n              swap1\n              tag_46\n              jump\t// in\n            tag_98:\n              dup1\n              iszero\n              tag_99\n              jumpi\n              dup1\n              0x1f\n              lt\n              tag_100\n              jumpi\n              0x0100\n              dup1\n              dup4\n              sload\n              div\n              mul\n              dup4\n              mstore\n              swap2\n              0x20\n              add\n              swap2\n              jump(tag_99)\n            tag_100:\n              dup3\n              add\n              swap2\n              swap1\n              0x00\n              mstore\n              keccak256(0x00, 0x20)\n              swap1\n            tag_101:\n              dup2\n              sload\n              dup2\n              mstore\n              swap1\n              0x01\n              add\n              swap1\n              0x20\n              add\n              dup1\n              dup4\n              gt\n              tag_101\n              jumpi\n              dup3\n              swap1\n              sub\n              0x1f\n              and\n              dup3\n              add\n              swap2\n            tag_99:\n              pop\n              pop\n              pop\n              pop\n              pop\n              dup2\n              jump\t// out\n                /* \"#utility.yul\":7:82   */\n            tag_102:\n                /* \"#utility.yul\":40:46   */\n              0x00\n                /* \"#utility.yul\":73:75   */\n              0x40\n                /* \"#utility.yul\":67:76   */\n              mload\n                /* \"#utility.yul\":57:76   */\n              swap1\n              pop\n                /* \"#utility.yul\":7:82   */\n              swap1\n              jump\t// out\n                /* \"#utility.yul\":88:205   */\n            tag_103:\n                /* \"#utility.yul\":197:198   */\n              0x00\n                /* \"#utility.yul\":194:195   */\n              0x00\n                /* \"#utility.yul\":187:199   */\n              revert\n                /* \"#utility.yul\":211:328   */\n            tag_104:\n                /* \"#utility.yul\":320:321   */\n              0x00\n                /* \"#utility.yul\":317:318   */\n              0x00\n                /* \"#utility.yul\":310:322   */\n              revert\n                /* \"#utility.yul\":334:451   */\n            tag_105:\n                /* \"#utility.yul\":443:444   */\n              0x00\n                /* \"#utility.yul\":440:441   */\n              0x00\n                /* \"#utility.yul\":433:445   */\n              revert\n                /* \"#utility.yul\":457:574   */\n            tag_106:\n                /* \"#utility.yul\":566:567   */\n              0x00\n                /* \"#utility.yul\":563:564   */\n              0x00\n                /* \"#utility.yul\":556:568   */\n              revert\n                /* \"#utility.yul\":580:682   */\n            tag_107:\n                /* \"#utility.yul\":621:627   */\n              0x00\n                /* \"#utility.yul\":672:674   */\n              0x1f\n                /* \"#utility.yul\":668:675   */\n              not\n                /* \"#utility.yul\":663:665   */\n              0x1f\n                /* \"#utility.yul\":656:661   */\n              dup4\n                /* \"#utility.yul\":652:666   */\n              add\n                /* \"#utility.yul\":648:676   */\n              and\n                /* \"#utility.yul\":638:676   */\n              swap1\n              pop\n                /* \"#utility.yul\":580:682   */\n              swap2\n              swap1\n              pop\n              jump\t// out\n                /* \"#utility.yul\":688:868   */\n            tag_108:\n                /* \"#utility.yul\":736:813   */\n              0x4e487b7100000000000000000000000000000000000000000000000000000000\n                /* \"#utility.yul\":733:734   */\n              0x00\n                /* \"#utility.yul\":726:814   */\n              mstore\n                /* \"#utility.yul\":833:837   */\n              0x41\n                /* \"#utility.yul\":830:831   */\n              0x04\n                /* \"#utility.yul\":823:838   */\n              mstore\n                /* \"#utility.yul\":857:861   */\n              0x24\n                /* \"#utility.yul\":854:855   */\n              0x00\n                /* \"#utility.yul\":847:862   */\n              revert\n                /* \"#utility.yul\":874:1155   */\n            tag_109:\n                /* \"#utility.yul\":957:984   */\n              tag_155\n                /* \"#utility.yul\":979:983   */\n              dup3\n                /* \"#utility.yul\":957:984   */\n              tag_107\n              jump\t// in\n            tag_155:\n                /* \"#utility.yul\":949:955   */\n              dup2\n                /* \"#utility.yul\":945:985   */\n              add\n                /* \"#utility.yul\":1087:1093   */\n              dup2\n                /* \"#utility.yul\":1075:1085   */\n              dup2\n                /* \"#utility.yul\":1072:1094   */\n              lt\n                /* \"#utility.yul\":1051:1069   */\n              0xffffffffffffffff\n                /* \"#utility.yul\":1039:1049   */\n              dup3\n                /* \"#utility.yul\":1036:1070   */\n              gt\n                /* \"#utility.yul\":1033:1095   */\n              or\n                /* \"#utility.yul\":1030:1118   */\n              iszero\n              tag_156\n              jumpi\n                /* \"#utility.yul\":1098:1116   */\n              tag_157\n              tag_108\n              jump\t// in\n            tag_157:\n                /* \"#utility.yul\":1030:1118   */\n            tag_156:\n                /* \"#utility.yul\":1138:1148   */\n              dup1\n                /* \"#utility.yul\":1134:1136   */\n              0x40\n                /* \"#utility.yul\":1127:1149   */\n              mstore\n                /* \"#utility.yul\":917:1155   */\n              pop\n                /* \"#utility.yul\":874:1155   */\n              pop\n              pop\n              jump\t// out\n                /* \"#utility.yul\":1161:1290   */\n            tag_110:\n                /* \"#utility.yul\":1195:1201   */\n              0x00\n                /* \"#utility.yul\":1222:1242   */\n              tag_159\n              tag_102\n              jump\t// in\n            tag_159:\n                /* \"#utility.yul\":1212:1242   */\n              swap1\n              pop\n                /* \"#utility.yul\":1251:1284   */\n              tag_160\n                /* \"#utility.yul\":1279:1283   */\n              dup3\n                /* \"#utility.yul\":1271:1277   */\n              dup3\n                /* \"#utility.yul\":1251:1284   */\n              tag_109\n              jump\t// in\n            tag_160:\n                /* \"#utility.yul\":1161:1290   */\n              swap2\n              swap1\n              pop\n              jump\t// out\n                /* \"#utility.yul\":1296:1604   */\n            tag_111:\n                /* \"#utility.yul\":1358:1362   */\n              0x00\n                /* \"#utility.yul\":1448:1466   */\n              0xffffffffffffffff\n                /* \"#utility.yul\":1440:1446   */\n              dup3\n                /* \"#utility.yul\":1437:1467   */\n              gt\n                /* \"#utility.yul\":1434:1490   */\n              iszero\n              tag_162\n              jumpi\n                /* \"#utility.yul\":1470:1488   */\n              tag_163\n              tag_108\n              jump\t// in\n            tag_163:\n                /* \"#utility.yul\":1434:1490   */\n            tag_162:\n                /* \"#utility.yul\":1508:1537   */\n              tag_164\n                /* \"#utility.yul\":1530:1536   */\n              dup3\n                /* \"#utility.yul\":1508:1537   */\n              tag_107\n              jump\t// in\n            tag_164:\n                /* \"#utility.yul\":1500:1537   */\n              swap1\n              pop\n                /* \"#utility.yul\":1592:1596   */\n              0x20\n                /* \"#utility.yul\":1586:1590   */\n              dup2\n                /* \"#utility.yul\":1582:1597   */\n              add\n                /* \"#utility.yul\":1574:1597   */\n              swap1\n              pop\n                /* \"#utility.yul\":1296:1604   */\n              swap2\n              swap1\n              pop\n              jump\t// out\n                /* \"#utility.yul\":1610:1758   */\n            tag_112:\n                /* \"#utility.yul\":1708:1714   */\n              dup3\n                /* \"#utility.yul\":1703:1706   */\n              dup2\n                /* \"#utility.yul\":1698:1701   */\n              dup4\n                /* \"#utility.yul\":1685:1715   */\n              calldatacopy\n                /* \"#utility.yul\":1749:1750   */\n              0x00\n                /* \"#utility.yul\":1740:1746   */\n              dup4\n                /* \"#utility.yul\":1735:1738   */\n              dup4\n                /* \"#utility.yul\":1731:1747   */\n              add\n                /* \"#utility.yul\":1724:1751   */\n              mstore\n                /* \"#utility.yul\":1610:1758   */\n              pop\n              pop\n              pop\n              jump\t// out\n                /* \"#utility.yul\":1764:2189   */\n            tag_113:\n                /* \"#utility.yul\":1842:1847   */\n              0x00\n                /* \"#utility.yul\":1867:1933   */\n              tag_167\n                /* \"#utility.yul\":1883:1932   */\n              tag_168\n                /* \"#utility.yul\":1925:1931   */\n              dup5\n                /* \"#utility.yul\":1883:1932   */\n              tag_111\n              jump\t// in\n            tag_168:\n                /* \"#utility.yul\":1867:1933   */\n              tag_110\n              jump\t// in\n            tag_167:\n                /* \"#utility.yul\":1858:1933   */\n              swap1\n              pop\n                /* \"#utility.yul\":1956:1962   */\n              dup3\n                /* \"#utility.yul\":1949:1954   */\n              dup2\n                /* \"#utility.yul\":1942:1963   */\n              mstore\n                /* \"#utility.yul\":1994:1998   */\n              0x20\n                /* \"#utility.yul\":1987:1992   */\n              dup2\n                /* \"#utility.yul\":1983:1999   */\n              add\n                /* \"#utility.yul\":2032:2035   */\n              dup5\n                /* \"#utility.yul\":2023:2029   */\n              dup5\n                /* \"#utility.yul\":2018:2021   */\n              dup5\n                /* \"#utility.yul\":2014:2030   */\n              add\n                /* \"#utility.yul\":2011:2036   */\n              gt\n                /* \"#utility.yul\":2008:2120   */\n              iszero\n              tag_169\n              jumpi\n                /* \"#utility.yul\":2039:2118   */\n              tag_170\n              tag_106\n              jump\t// in\n            tag_170:\n                /* \"#utility.yul\":2008:2120   */\n            tag_169:\n                /* \"#utility.yul\":2129:2183   */\n              tag_171\n                /* \"#utility.yul\":2176:2182   */\n              dup5\n                /* \"#utility.yul\":2171:2174   */\n              dup3\n                /* \"#utility.yul\":2166:2169   */\n              dup6\n                /* \"#utility.yul\":2129:2183   */\n              tag_112\n              jump\t// in\n            tag_171:\n                /* \"#utility.yul\":1848:2189   */\n              pop\n                /* \"#utility.yul\":1764:2189   */\n              swap4\n              swap3\n              pop\n              pop\n              pop\n              jump\t// out\n                /* \"#utility.yul\":2209:2549   */\n            tag_114:\n                /* \"#utility.yul\":2265:2270   */\n              0x00\n                /* \"#utility.yul\":2314:2317   */\n              dup3\n                /* \"#utility.yul\":2307:2311   */\n              0x1f\n                /* \"#utility.yul\":2299:2305   */\n              dup4\n                /* \"#utility.yul\":2295:2312   */\n              add\n                /* \"#utility.yul\":2291:2318   */\n              slt\n                /* \"#utility.yul\":2281:2403   */\n              tag_173\n              jumpi\n                /* \"#utility.yul\":2322:2401   */\n              tag_174\n              tag_105\n              jump\t// in\n            tag_174:\n                /* \"#utility.yul\":2281:2403   */\n            tag_173:\n                /* \"#utility.yul\":2439:2445   */\n              dup2\n                /* \"#utility.yul\":2426:2446   */\n              calldataload\n                /* \"#utility.yul\":2464:2543   */\n              tag_175\n                /* \"#utility.yul\":2539:2542   */\n              dup5\n                /* \"#utility.yul\":2531:2537   */\n              dup3\n                /* \"#utility.yul\":2524:2528   */\n              0x20\n                /* \"#utility.yul\":2516:2522   */\n              dup7\n                /* \"#utility.yul\":2512:2529   */\n              add\n                /* \"#utility.yul\":2464:2543   */\n              tag_113\n              jump\t// in\n            tag_175:\n                /* \"#utility.yul\":2455:2543   */\n              swap2\n              pop\n                /* \"#utility.yul\":2271:2549   */\n              pop\n                /* \"#utility.yul\":2209:2549   */\n              swap3\n              swap2\n              pop\n              pop\n              jump\t// out\n                /* \"#utility.yul\":2555:3714   */\n            tag_13:\n                /* \"#utility.yul\":2662:2668   */\n              0x00\n                /* \"#utility.yul\":2670:2676   */\n              0x00\n                /* \"#utility.yul\":2678:2684   */\n              0x00\n                /* \"#utility.yul\":2727:2729   */\n              0x60\n                /* \"#utility.yul\":2715:2724   */\n              dup5\n                /* \"#utility.yul\":2706:2713   */\n              dup7\n                /* \"#utility.yul\":2702:2725   */\n              sub\n                /* \"#utility.yul\":2698:2730   */\n              slt\n                /* \"#utility.yul\":2695:2814   */\n              iszero\n              tag_177\n              jumpi\n                /* \"#utility.yul\":2733:2812   */\n              tag_178\n              tag_103\n              jump\t// in\n            tag_178:\n                /* \"#utility.yul\":2695:2814   */\n            tag_177:\n                /* \"#utility.yul\":2881:2882   */\n              0x00\n                /* \"#utility.yul\":2870:2879   */\n              dup5\n                /* \"#utility.yul\":2866:2883   */\n              add\n                /* \"#utility.yul\":2853:2884   */\n              calldataload\n                /* \"#utility.yul\":2911:2929   */\n              0xffffffffffffffff\n                /* \"#utility.yul\":2903:2909   */\n              dup2\n                /* \"#utility.yul\":2900:2930   */\n              gt\n                /* \"#utility.yul\":2897:3014   */\n              iszero\n              tag_179\n              jumpi\n                /* \"#utility.yul\":2933:3012   */\n              tag_180\n              tag_104\n              jump\t// in\n            tag_180:\n                /* \"#utility.yul\":2897:3014   */\n            tag_179:\n                /* \"#utility.yul\":3038:3101   */\n              tag_181\n                /* \"#utility.yul\":3093:3100   */\n              dup7\n                /* \"#utility.yul\":3084:3090   */\n              dup3\n                /* \"#utility.yul\":3073:3082   */\n              dup8\n                /* \"#utility.yul\":3069:3091   */\n              add\n                /* \"#utility.yul\":3038:3101   */\n              tag_114\n              jump\t// in\n            tag_181:\n                /* \"#utility.yul\":3028:3101   */\n              swap4\n              pop\n                /* \"#utility.yul\":2824:3111   */\n              pop\n                /* \"#utility.yul\":3178:3180   */\n              0x20\n                /* \"#utility.yul\":3167:3176   */\n              dup5\n                /* \"#utility.yul\":3163:3181   */\n              add\n                /* \"#utility.yul\":3150:3182   */\n              calldataload\n                /* \"#utility.yul\":3209:3227   */\n              0xffffffffffffffff\n                /* \"#utility.yul\":3201:3207   */\n              dup2\n                /* \"#utility.yul\":3198:3228   */\n              gt\n                /* \"#utility.yul\":3195:3312   */\n              iszero\n              tag_182\n              jumpi\n                /* \"#utility.yul\":3231:3310   */\n              tag_183\n              tag_104\n              jump\t// in\n            tag_183:\n                /* \"#utility.yul\":3195:3312   */\n            tag_182:\n                /* \"#utility.yul\":3336:3399   */\n              tag_184\n                /* \"#utility.yul\":3391:3398   */\n              dup7\n                /* \"#utility.yul\":3382:3388   */\n              dup3\n                /* \"#utility.yul\":3371:3380   */\n              dup8\n                /* \"#utility.yul\":3367:3389   */\n              add\n                /* \"#utility.yul\":3336:3399   */\n              tag_114\n              jump\t// in\n            tag_184:\n                /* \"#utility.yul\":3326:3399   */\n              swap3\n              pop\n                /* \"#utility.yul\":3121:3409   */\n              pop\n                /* \"#utility.yul\":3476:3478   */\n              0x40\n                /* \"#utility.yul\":3465:3474   */\n              dup5\n                /* \"#utility.yul\":3461:3479   */\n              add\n                /* \"#utility.yul\":3448:3480   */\n              calldataload\n                /* \"#utility.yul\":3507:3525   */\n              0xffffffffffffffff\n                /* \"#utility.yul\":3499:3505   */\n              dup2\n                /* \"#utility.yul\":3496:3526   */\n              gt\n                /* \"#utility.yul\":3493:3610   */\n              iszero\n              tag_185\n              jumpi\n                /* \"#utility.yul\":3529:3608   */\n              tag_186\n              tag_104\n              jump\t// in\n            tag_186:\n                /* \"#utility.yul\":3493:3610   */\n            tag_185:\n                /* \"#utility.yul\":3634:3697   */\n              tag_187\n                /* \"#utility.yul\":3689:3696   */\n              dup7\n                /* \"#utility.yul\":3680:3686   */\n              dup3\n                /* \"#utility.yul\":3669:3678   */\n              dup8\n                /* \"#utility.yul\":3665:3687   */\n              add\n                /* \"#utility.yul\":3634:3697   */\n              tag_114\n              jump\t// in\n            tag_187:\n                /* \"#utility.yul\":3624:3697   */\n              swap2\n              pop\n                /* \"#utility.yul\":3419:3707   */\n              pop\n                /* \"#utility.yul\":2555:3714   */\n              swap3\n              pop\n              swap3\n              pop\n              swap3\n              jump\t// out\n                /* \"#utility.yul\":3720:3819   */\n            tag_115:\n                /* \"#utility.yul\":3772:3778   */\n              0x00\n                /* \"#utility.yul\":3806:3811   */\n              dup2\n                /* \"#utility.yul\":3800:3812   */\n              mload\n                /* \"#utility.yul\":3790:3812   */\n              swap1\n              pop\n                /* \"#utility.yul\":3720:3819   */\n              swap2\n              swap1\n              pop\n              jump\t// out\n                /* \"#utility.yul\":3825:3994   */\n            tag_116:\n                /* \"#utility.yul\":3909:3920   */\n              0x00\n                /* \"#utility.yul\":3943:3949   */\n              dup3\n                /* \"#utility.yul\":3938:3941   */\n              dup3\n                /* \"#utility.yul\":3931:3950   */\n              mstore\n                /* \"#utility.yul\":3983:3987   */\n              0x20\n                /* \"#utility.yul\":3978:3981   */\n              dup3\n                /* \"#utility.yul\":3974:3988   */\n              add\n                /* \"#utility.yul\":3959:3988   */\n              swap1\n              pop\n                /* \"#utility.yul\":3825:3994   */\n              swap3\n              swap2\n              pop\n              pop\n              jump\t// out\n                /* \"#utility.yul\":4000:4139   */\n            tag_117:\n                /* \"#utility.yul\":4089:4095   */\n              dup3\n                /* \"#utility.yul\":4084:4087   */\n              dup2\n                /* \"#utility.yul\":4079:4082   */\n              dup4\n                /* \"#utility.yul\":4073:4096   */\n              mcopy\n                /* \"#utility.yul\":4130:4131   */\n              0x00\n                /* \"#utility.yul\":4121:4127   */\n              dup4\n                /* \"#utility.yul\":4116:4119   */\n              dup4\n                /* \"#utility.yul\":4112:4128   */\n              add\n                /* \"#utility.yul\":4105:4132   */\n              mstore\n                /* \"#utility.yul\":4000:4139   */\n              pop\n              pop\n              pop\n              jump\t// out\n                /* \"#utility.yul\":4145:4522   */\n            tag_118:\n                /* \"#utility.yul\":4233:4236   */\n              0x00\n                /* \"#utility.yul\":4261:4300   */\n              tag_192\n                /* \"#utility.yul\":4294:4299   */\n              dup3\n                /* \"#utility.yul\":4261:4300   */\n              tag_115\n              jump\t// in\n            tag_192:\n                /* \"#utility.yul\":4316:4387   */\n              tag_193\n                /* \"#utility.yul\":4380:4386   */\n              dup2\n                /* \"#utility.yul\":4375:4378   */\n              dup6\n                /* \"#utility.yul\":4316:4387   */\n              tag_116\n              jump\t// in\n            tag_193:\n                /* \"#utility.yul\":4309:4387   */\n              swap4\n              pop\n                /* \"#utility.yul\":4396:4461   */\n              tag_194\n                /* \"#utility.yul\":4454:4460   */\n              dup2\n                /* \"#utility.yul\":4449:4452   */\n              dup6\n                /* \"#utility.yul\":4442:4446   */\n              0x20\n                /* \"#utility.yul\":4435:4440   */\n              dup7\n                /* \"#utility.yul\":4431:4447   */\n              add\n                /* \"#utility.yul\":4396:4461   */\n              tag_117\n              jump\t// in\n            tag_194:\n                /* \"#utility.yul\":4486:4515   */\n              tag_195\n                /* \"#utility.yul\":4508:4514   */\n              dup2\n                /* \"#utility.yul\":4486:4515   */\n              tag_107\n              jump\t// in\n            tag_195:\n                /* \"#utility.yul\":4481:4484   */\n              dup5\n                /* \"#utility.yul\":4477:4516   */\n              add\n                /* \"#utility.yul\":4470:4516   */\n              swap2\n              pop\n                /* \"#utility.yul\":4237:4522   */\n              pop\n                /* \"#utility.yul\":4145:4522   */\n              swap3\n              swap2\n              pop\n              pop\n              jump\t// out\n                /* \"#utility.yul\":4528:4841   */\n            tag_18:\n                /* \"#utility.yul\":4641:4645   */\n              0x00\n                /* \"#utility.yul\":4679:4681   */\n              0x20\n                /* \"#utility.yul\":4668:4677   */\n              dup3\n                /* \"#utility.yul\":4664:4682   */\n              add\n                /* \"#utility.yul\":4656:4682   */\n              swap1\n              pop\n                /* \"#utility.yul\":4728:4737   */\n              dup2\n                /* \"#utility.yul\":4722:4726   */\n              dup2\n                /* \"#utility.yul\":4718:4738   */\n              sub\n                /* \"#utility.yul\":4714:4715   */\n              0x00\n                /* \"#utility.yul\":4703:4712   */\n              dup4\n                /* \"#utility.yul\":4699:4716   */\n              add\n                /* \"#utility.yul\":4692:4739   */\n              mstore\n                /* \"#utility.yul\":4756:4834   */\n              tag_197\n                /* \"#utility.yul\":4829:4833   */\n              dup2\n                /* \"#utility.yul\":4820:4826   */\n              dup5\n                /* \"#utility.yul\":4756:4834   */\n              tag_118\n              jump\t// in\n            tag_197:\n                /* \"#utility.yul\":4748:4834   */\n              swap1\n              pop\n                /* \"#utility.yul\":4528:4841   */\n              swap3\n              swap2\n              pop\n              pop\n              jump\t// out\n                /* \"#utility.yul\":4847:4973   */\n            tag_119:\n                /* \"#utility.yul\":4884:4891   */\n              0x00\n                /* \"#utility.yul\":4924:4966   */\n              0xffffffffffffffffffffffffffffffffffffffff\n                /* \"#utility.yul\":4917:4922   */\n              dup3\n                /* \"#utility.yul\":4913:4967   */\n              and\n                /* \"#utility.yul\":4902:4967   */\n              swap1\n              pop\n                /* \"#utility.yul\":4847:4973   */\n              swap2\n              swap1\n              pop\n              jump\t// out\n                /* \"#utility.yul\":4979:5075   */\n            tag_120:\n                /* \"#utility.yul\":5016:5023   */\n              0x00\n                /* \"#utility.yul\":5045:5069   */\n              tag_200\n                /* \"#utility.yul\":5063:5068   */\n              dup3\n                /* \"#utility.yul\":5045:5069   */\n              tag_119\n              jump\t// in\n            tag_200:\n                /* \"#utility.yul\":5034:5069   */\n              swap1\n              pop\n                /* \"#utility.yul\":4979:5075   */\n              swap2\n              swap1\n              pop\n              jump\t// out\n                /* \"#utility.yul\":5081:5199   */\n            tag_121:\n                /* \"#utility.yul\":5168:5192   */\n              tag_202\n                /* \"#utility.yul\":5186:5191   */\n              dup2\n                /* \"#utility.yul\":5168:5192   */\n              tag_120\n              jump\t// in\n            tag_202:\n                /* \"#utility.yul\":5163:5166   */\n              dup3\n                /* \"#utility.yul\":5156:5193   */\n              mstore\n                /* \"#utility.yul\":5081:5199   */\n              pop\n              pop\n              jump\t// out\n                /* \"#utility.yul\":5205:6031   */\n            tag_25:\n                /* \"#utility.yul\":5442:5446   */\n              0x00\n                /* \"#utility.yul\":5480:5483   */\n              0x80\n                /* \"#utility.yul\":5469:5478   */\n              dup3\n                /* \"#utility.yul\":5465:5484   */\n              add\n                /* \"#utility.yul\":5457:5484   */\n              swap1\n              pop\n                /* \"#utility.yul\":5494:5565   */\n              tag_204\n                /* \"#utility.yul\":5562:5563   */\n              0x00\n                /* \"#utility.yul\":5551:5560   */\n              dup4\n                /* \"#utility.yul\":5547:5564   */\n              add\n                /* \"#utility.yul\":5538:5544   */\n              dup8\n                /* \"#utility.yul\":5494:5565   */\n              tag_121\n              jump\t// in\n            tag_204:\n                /* \"#utility.yul\":5612:5621   */\n              dup2\n                /* \"#utility.yul\":5606:5610   */\n              dup2\n                /* \"#utility.yul\":5602:5622   */\n              sub\n                /* \"#utility.yul\":5597:5599   */\n              0x20\n                /* \"#utility.yul\":5586:5595   */\n              dup4\n                /* \"#utility.yul\":5582:5600   */\n              add\n                /* \"#utility.yul\":5575:5623   */\n              mstore\n                /* \"#utility.yul\":5640:5718   */\n              tag_205\n                /* \"#utility.yul\":5713:5717   */\n              dup2\n                /* \"#utility.yul\":5704:5710   */\n              dup7\n                /* \"#utility.yul\":5640:5718   */\n              tag_118\n              jump\t// in\n            tag_205:\n                /* \"#utility.yul\":5632:5718   */\n              swap1\n              pop\n                /* \"#utility.yul\":5765:5774   */\n              dup2\n                /* \"#utility.yul\":5759:5763   */\n              dup2\n                /* \"#utility.yul\":5755:5775   */\n              sub\n                /* \"#utility.yul\":5750:5752   */\n              0x40\n                /* \"#utility.yul\":5739:5748   */\n              dup4\n                /* \"#utility.yul\":5735:5753   */\n              add\n                /* \"#utility.yul\":5728:5776   */\n              mstore\n                /* \"#utility.yul\":5793:5871   */\n              tag_206\n                /* \"#utility.yul\":5866:5870   */\n              dup2\n                /* \"#utility.yul\":5857:5863   */\n              dup6\n                /* \"#utility.yul\":5793:5871   */\n              tag_118\n              jump\t// in\n            tag_206:\n                /* \"#utility.yul\":5785:5871   */\n              swap1\n              pop\n                /* \"#utility.yul\":5918:5927   */\n              dup2\n                /* \"#utility.yul\":5912:5916   */\n              dup2\n                /* \"#utility.yul\":5908:5928   */\n              sub\n                /* \"#utility.yul\":5903:5905   */\n              0x60\n                /* \"#utility.yul\":5892:5901   */\n              dup4\n                /* \"#utility.yul\":5888:5906   */\n              add\n                /* \"#utility.yul\":5881:5929   */\n              mstore\n                /* \"#utility.yul\":5946:6024   */\n              tag_207\n                /* \"#utility.yul\":6019:6023   */\n              dup2\n                /* \"#utility.yul\":6010:6016   */\n              dup5\n                /* \"#utility.yul\":5946:6024   */\n              tag_118\n              jump\t// in\n            tag_207:\n                /* \"#utility.yul\":5938:6024   */\n              swap1\n              pop\n                /* \"#utility.yul\":5205:6031   */\n              swap6\n              swap5\n              pop\n              pop\n              pop\n              pop\n              pop\n              jump\t// out\n                /* \"#utility.yul\":6037:6259   */\n            tag_32:\n                /* \"#utility.yul\":6130:6134   */\n              0x00\n                /* \"#utility.yul\":6168:6170   */\n              0x20\n                /* \"#utility.yul\":6157:6166   */\n              dup3\n                /* \"#utility.yul\":6153:6171   */\n              add\n                /* \"#utility.yul\":6145:6171   */\n              swap1\n              pop\n                /* \"#utility.yul\":6181:6252   */\n              tag_209\n                /* \"#utility.yul\":6249:6250   */\n              0x00\n                /* \"#utility.yul\":6238:6247   */\n              dup4\n                /* \"#utility.yul\":6234:6251   */\n              add\n                /* \"#utility.yul\":6225:6231   */\n              dup5\n                /* \"#utility.yul\":6181:6252   */\n              tag_121\n              jump\t// in\n            tag_209:\n                /* \"#utility.yul\":6037:6259   */\n              swap3\n              swap2\n              pop\n              pop\n              jump\t// out\n                /* \"#utility.yul\":6265:6440   */\n            tag_122:\n                /* \"#utility.yul\":6405:6432   */\n              0x43616c6c6572206973206e6f7420746865206d616e6167657200000000000000\n                /* \"#utility.yul\":6401:6402   */\n              0x00\n                /* \"#utility.yul\":6393:6399   */\n              dup3\n                /* \"#utility.yul\":6389:6403   */\n              add\n                /* \"#utility.yul\":6382:6433   */\n              mstore\n                /* \"#utility.yul\":6265:6440   */\n              pop\n              jump\t// out\n                /* \"#utility.yul\":6446:6812   */\n            tag_123:\n                /* \"#utility.yul\":6588:6591   */\n              0x00\n                /* \"#utility.yul\":6609:6676   */\n              tag_212\n                /* \"#utility.yul\":6673:6675   */\n              0x19\n                /* \"#utility.yul\":6668:6671   */\n              dup4\n                /* \"#utility.yul\":6609:6676   */\n              tag_116\n              jump\t// in\n            tag_212:\n                /* \"#utility.yul\":6602:6676   */\n              swap2\n              pop\n                /* \"#utility.yul\":6685:6778   */\n              tag_213\n                /* \"#utility.yul\":6774:6777   */\n              dup3\n                /* \"#utility.yul\":6685:6778   */\n              tag_122\n              jump\t// in\n            tag_213:\n                /* \"#utility.yul\":6803:6805   */\n              0x20\n                /* \"#utility.yul\":6798:6801   */\n              dup3\n                /* \"#utility.yul\":6794:6806   */\n              add\n                /* \"#utility.yul\":6787:6806   */\n              swap1\n              pop\n                /* \"#utility.yul\":6446:6812   */\n              swap2\n              swap1\n              pop\n              jump\t// out\n                /* \"#utility.yul\":6818:7237   */\n            tag_39:\n                /* \"#utility.yul\":6984:6988   */\n              0x00\n                /* \"#utility.yul\":7022:7024   */\n              0x20\n                /* \"#utility.yul\":7011:7020   */\n              dup3\n                /* \"#utility.yul\":7007:7025   */\n              add\n                /* \"#utility.yul\":6999:7025   */\n              swap1\n              pop\n                /* \"#utility.yul\":7071:7080   */\n              dup2\n                /* \"#utility.yul\":7065:7069   */\n              dup2\n                /* \"#utility.yul\":7061:7081   */\n              sub\n                /* \"#utility.yul\":7057:7058   */\n              0x00\n                /* \"#utility.yul\":7046:7055   */\n              dup4\n                /* \"#utility.yul\":7042:7059   */\n              add\n                /* \"#utility.yul\":7035:7082   */\n              mstore\n                /* \"#utility.yul\":7099:7230   */\n              tag_215\n                /* \"#utility.yul\":7225:7229   */\n              dup2\n                /* \"#utility.yul\":7099:7230   */\n              tag_123\n              jump\t// in\n            tag_215:\n                /* \"#utility.yul\":7091:7230   */\n              swap1\n              pop\n                /* \"#utility.yul\":6818:7237   */\n              swap2\n              swap1\n              pop\n              jump\t// out\n                /* \"#utility.yul\":7243:7423   */\n            tag_124:\n                /* \"#utility.yul\":7291:7368   */\n              0x4e487b7100000000000000000000000000000000000000000000000000000000\n                /* \"#utility.yul\":7288:7289   */\n              0x00\n                /* \"#utility.yul\":7281:7369   */\n              mstore\n                /* \"#utility.yul\":7388:7392   */\n              0x22\n                /* \"#utility.yul\":7385:7386   */\n              0x04\n                /* \"#utility.yul\":7378:7393   */\n              mstore\n                /* \"#utility.yul\":7412:7416   */\n              0x24\n                /* \"#utility.yul\":7409:7410   */\n              0x00\n                /* \"#utility.yul\":7402:7417   */\n              revert\n                /* \"#utility.yul\":7429:7749   */\n            tag_46:\n                /* \"#utility.yul\":7473:7479   */\n              0x00\n                /* \"#utility.yul\":7510:7511   */\n              0x02\n                /* \"#utility.yul\":7504:7508   */\n              dup3\n                /* \"#utility.yul\":7500:7512   */\n              div\n                /* \"#utility.yul\":7490:7512   */\n              swap1\n              pop\n                /* \"#utility.yul\":7557:7558   */\n              0x01\n                /* \"#utility.yul\":7551:7555   */\n              dup3\n                /* \"#utility.yul\":7547:7559   */\n              and\n                /* \"#utility.yul\":7578:7596   */\n              dup1\n                /* \"#utility.yul\":7568:7649   */\n              tag_218\n              jumpi\n                /* \"#utility.yul\":7634:7638   */\n              0x7f\n                /* \"#utility.yul\":7626:7632   */\n              dup3\n                /* \"#utility.yul\":7622:7639   */\n              and\n                /* \"#utility.yul\":7612:7639   */\n              swap2\n              pop\n                /* \"#utility.yul\":7568:7649   */\n            tag_218:\n                /* \"#utility.yul\":7696:7698   */\n              0x20\n                /* \"#utility.yul\":7688:7694   */\n              dup3\n                /* \"#utility.yul\":7685:7699   */\n              lt\n                /* \"#utility.yul\":7665:7683   */\n              dup2\n                /* \"#utility.yul\":7662:7700   */\n              sub\n                /* \"#utility.yul\":7659:7743   */\n              tag_219\n              jumpi\n                /* \"#utility.yul\":7715:7733   */\n              tag_220\n              tag_124\n              jump\t// in\n            tag_220:\n                /* \"#utility.yul\":7659:7743   */\n            tag_219:\n                /* \"#utility.yul\":7480:7749   */\n              pop\n                /* \"#utility.yul\":7429:7749   */\n              swap2\n              swap1\n              pop\n              jump\t// out\n                /* \"#utility.yul\":7755:7896   */\n            tag_125:\n                /* \"#utility.yul\":7804:7808   */\n              0x00\n                /* \"#utility.yul\":7827:7830   */\n              dup2\n                /* \"#utility.yul\":7819:7830   */\n              swap1\n              pop\n                /* \"#utility.yul\":7850:7853   */\n              dup2\n                /* \"#utility.yul\":7847:7848   */\n              0x00\n                /* \"#utility.yul\":7840:7854   */\n              mstore\n                /* \"#utility.yul\":7884:7888   */\n              0x20\n                /* \"#utility.yul\":7881:7882   */\n              0x00\n                /* \"#utility.yul\":7871:7889   */\n              keccak256\n                /* \"#utility.yul\":7863:7889   */\n              swap1\n              pop\n                /* \"#utility.yul\":7755:7896   */\n              swap2\n              swap1\n              pop\n              jump\t// out\n                /* \"#utility.yul\":7902:7995   */\n            tag_126:\n                /* \"#utility.yul\":7939:7945   */\n              0x00\n                /* \"#utility.yul\":7986:7988   */\n              0x20\n                /* \"#utility.yul\":7981:7983   */\n              0x1f\n                /* \"#utility.yul\":7974:7979   */\n              dup4\n                /* \"#utility.yul\":7970:7984   */\n              add\n                /* \"#utility.yul\":7966:7989   */\n              div\n                /* \"#utility.yul\":7956:7989   */\n              swap1\n              pop\n                /* \"#utility.yul\":7902:7995   */\n              swap2\n              swap1\n              pop\n              jump\t// out\n                /* \"#utility.yul\":8001:8108   */\n            tag_127:\n                /* \"#utility.yul\":8045:8053   */\n              0x00\n                /* \"#utility.yul\":8095:8100   */\n              dup3\n                /* \"#utility.yul\":8089:8093   */\n              dup3\n                /* \"#utility.yul\":8085:8101   */\n              shl\n                /* \"#utility.yul\":8064:8101   */\n              swap1\n              pop\n                /* \"#utility.yul\":8001:8108   */\n              swap3\n              swap2\n              pop\n              pop\n              jump\t// out\n                /* \"#utility.yul\":8114:8507   */\n            tag_128:\n                /* \"#utility.yul\":8183:8189   */\n              0x00\n                /* \"#utility.yul\":8233:8234   */\n              0x08\n                /* \"#utility.yul\":8221:8231   */\n              dup4\n                /* \"#utility.yul\":8217:8235   */\n              mul\n                /* \"#utility.yul\":8256:8353   */\n              tag_225\n                /* \"#utility.yul\":8286:8352   */\n              0xffffffffffffffffffffffffffffffffffffffffffffffffffffffffffffffff\n                /* \"#utility.yul\":8275:8284   */\n              dup3\n                /* \"#utility.yul\":8256:8353   */\n              tag_127\n              jump\t// in\n            tag_225:\n                /* \"#utility.yul\":8374:8413   */\n              tag_226\n                /* \"#utility.yul\":8404:8412   */\n              dup7\n                /* \"#utility.yul\":8393:8402   */\n              dup4\n                /* \"#utility.yul\":8374:8413   */\n              tag_127\n              jump\t// in\n            tag_226:\n                /* \"#utility.yul\":8362:8413   */\n              swap6\n              pop\n                /* \"#utility.yul\":8446:8450   */\n              dup1\n                /* \"#utility.yul\":8442:8451   */\n              not\n                /* \"#utility.yul\":8435:8440   */\n              dup5\n                /* \"#utility.yul\":8431:8452   */\n              and\n                /* \"#utility.yul\":8422:8452   */\n              swap4\n              pop\n                /* \"#utility.yul\":8495:8499   */\n              dup1\n                /* \"#utility.yul\":8485:8493   */\n              dup7\n                /* \"#utility.yul\":8481:8500   */\n              and\n                /* \"#utility.yul\":8474:8479   */\n              dup5\n                /* \"#utility.yul\":8471:8501   */\n              or\n                /* \"#utility.yul\":8461:8501   */\n              swap3\n              pop\n                /* \"#utility.yul\":8190:8507   */\n              pop\n              pop\n                /* \"#utility.yul\":8114:8507   */\n              swap4\n              swap3\n              pop\n              pop\n              pop\n              jump\t// out\n                /* \"#utility.yul\":8513:8590   */\n            tag_129:\n                /* \"#utility.yul\":8550:8557   */\n              0x00\n                /* \"#utility.yul\":8579:8584   */\n              dup2\n                /* \"#utility.yul\":8568:8584   */\n              swap1\n              pop\n                /* \"#utility.yul\":8513:8590   */\n              swap2\n              swap1\n              pop\n              jump\t// out\n                /* \"#utility.yul\":8596:8656   */\n            tag_130:\n                /* \"#utility.yul\":8624:8627   */\n              0x00\n                /* \"#utility.yul\":8645:8650   */\n              dup2\n                /* \"#utility.yul\":8638:8650   */\n              swap1\n              pop\n                /* \"#utility.yul\":8596:8656   */\n              swap2\n              swap1\n              pop\n              jump\t// out\n                /* \"#utility.yul\":8662:8804   */\n            tag_131:\n                /* \"#utility.yul\":8712:8721   */\n              0x00\n                /* \"#utility.yul\":8745:8798   */\n              tag_230\n                /* \"#utility.yul\":8763:8797   */\n              tag_231\n                /* \"#utility.yul\":8772:8796   */\n              tag_232\n                /* \"#utility.yul\":8790:8795   */\n              dup5\n                /* \"#utility.yul\":8772:8796   */\n              tag_129\n              jump\t// in\n            tag_232:\n                /* \"#utility.yul\":8763:8797   */\n              tag_130\n              jump\t// in\n            tag_231:\n                /* \"#utility.yul\":8745:8798   */\n              tag_129\n              jump\t// in\n            tag_230:\n                /* \"#utility.yul\":8732:8798   */\n              swap1\n              pop\n                /* \"#utility.yul\":8662:8804   */\n              swap2\n              swap1\n              pop\n              jump\t// out\n                /* \"#utility.yul\":8810:8885   */\n            tag_132:\n                /* \"#utility.yul\":8853:8856   */\n              0x00\n                /* \"#utility.yul\":8874:8879   */\n              dup2\n                /* \"#utility.yul\":8867:8879   */\n              swap1\n              pop\n                /* \"#utility.yul\":8810:8885   */\n              swap2\n              swap1\n              pop\n              jump\t// out\n                /* \"#utility.yul\":8891:9160   */\n            tag_133:\n                /* \"#utility.yul\":9001:9040   */\n              tag_235\n                /* \"#utility.yul\":9032:9039   */\n              dup4\n                /* \"#utility.yul\":9001:9040   */\n              tag_131\n              jump\t// in\n            tag_235:\n                /* \"#utility.yul\":9062:9153   */\n              tag_236\n                /* \"#utility.yul\":9111:9152   */\n              tag_237\n                /* \"#utility.yul\":9135:9151   */\n              dup3\n                /* \"#utility.yul\":9111:9152   */\n              tag_132\n              jump\t// in\n            tag_237:\n                /* \"#utility.yul\":9103:9109   */\n              dup5\n                /* \"#utility.yul\":9096:9100   */\n              dup5\n                /* \"#utility.yul\":9090:9101   */\n              sload\n                /* \"#utility.yul\":9062:9153   */\n              tag_128\n              jump\t// in\n            tag_236:\n                /* \"#utility.yul\":9056:9060   */\n              dup3\n                /* \"#utility.yul\":9049:9154   */\n              sstore\n                /* \"#utility.yul\":8967:9160   */\n              pop\n                /* \"#utility.yul\":8891:9160   */\n              pop\n              pop\n              pop\n              jump\t// out\n                /* \"#utility.yul\":9166:9239   */\n            tag_134:\n                /* \"#utility.yul\":9211:9214   */\n              0x00\n                /* \"#utility.yul\":9232:9233   */\n              0x00\n                /* \"#utility.yul\":9225:9233   */\n              swap1\n              pop\n                /* \"#utility.yul\":9166:9239   */\n              swap1\n              jump\t// out\n                /* \"#utility.yul\":9245:9434   */\n            tag_135:\n                /* \"#utility.yul\":9322:9354   */\n              tag_240\n              tag_134\n              jump\t// in\n            tag_240:\n                /* \"#utility.yul\":9363:9428   */\n              tag_241\n                /* \"#utility.yul\":9421:9427   */\n              dup2\n                /* \"#utility.yul\":9413:9419   */\n              dup5\n                /* \"#utility.yul\":9407:9411   */\n              dup5\n                /* \"#utility.yul\":9363:9428   */\n              tag_133\n              jump\t// in\n            tag_241:\n                /* \"#utility.yul\":9298:9434   */\n              pop\n                /* \"#utility.yul\":9245:9434   */\n              pop\n              pop\n              jump\t// out\n                /* \"#utility.yul\":9440:9626   */\n            tag_136:\n                /* \"#utility.yul\":9500:9620   */\n            tag_243:\n                /* \"#utility.yul\":9517:9520   */\n              dup2\n                /* \"#utility.yul\":9510:9515   */\n              dup2\n                /* \"#utility.yul\":9507:9521   */\n              lt\n                /* \"#utility.yul\":9500:9620   */\n              iszero\n              tag_245\n              jumpi\n                /* \"#utility.yul\":9571:9610   */\n              tag_246\n                /* \"#utility.yul\":9608:9609   */\n              0x00\n                /* \"#utility.yul\":9601:9606   */\n              dup3\n                /* \"#utility.yul\":9571:9610   */\n              tag_135\n              jump\t// in\n            tag_246:\n                /* \"#utility.yul\":9544:9545   */\n              0x01\n                /* \"#utility.yul\":9537:9542   */\n              dup2\n                /* \"#utility.yul\":9533:9546   */\n              add\n                /* \"#utility.yul\":9524:9546   */\n              swap1\n              pop\n                /* \"#utility.yul\":9500:9620   */\n              jump(tag_243)\n            tag_245:\n                /* \"#utility.yul\":9440:9626   */\n              pop\n              pop\n              jump\t// out\n                /* \"#utility.yul\":9632:10175   */\n            tag_137:\n                /* \"#utility.yul\":9733:9735   */\n              0x1f\n                /* \"#utility.yul\":9728:9731   */\n              dup3\n                /* \"#utility.yul\":9725:9736   */\n              gt\n                /* \"#utility.yul\":9722:10168   */\n              iszero\n              tag_248\n              jumpi\n                /* \"#utility.yul\":9767:9805   */\n              tag_249\n                /* \"#utility.yul\":9799:9804   */\n              dup2\n                /* \"#utility.yul\":9767:9805   */\n              tag_125\n              jump\t// in\n            tag_249:\n                /* \"#utility.yul\":9851:9880   */\n              tag_250\n                /* \"#utility.yul\":9869:9879   */\n              dup5\n                /* \"#utility.yul\":9851:9880   */\n              tag_126\n              jump\t// in\n            tag_250:\n                /* \"#utility.yul\":9841:9849   */\n              dup2\n                /* \"#utility.yul\":9837:9881   */\n              add\n                /* \"#utility.yul\":10034:10036   */\n              0x20\n                /* \"#utility.yul\":10022:10032   */\n              dup6\n                /* \"#utility.yul\":10019:10037   */\n              lt\n                /* \"#utility.yul\":10016:10065   */\n              iszero\n              tag_251\n              jumpi\n                /* \"#utility.yul\":10055:10063   */\n              dup2\n                /* \"#utility.yul\":10040:10063   */\n              swap1\n              pop\n                /* \"#utility.yul\":10016:10065   */\n            tag_251:\n                /* \"#utility.yul\":10078:10158   */\n              tag_252\n                /* \"#utility.yul\":10134:10156   */\n              tag_253\n                /* \"#utility.yul\":10152:10155   */\n              dup6\n                /* \"#utility.yul\":10134:10156   */\n              tag_126\n              jump\t// in\n            tag_253:\n                /* \"#utility.yul\":10124:10132   */\n              dup4\n                /* \"#utility.yul\":10120:10157   */\n              add\n                /* \"#utility.yul\":10107:10118   */\n              dup3\n                /* \"#utility.yul\":10078:10158   */\n              tag_136\n              jump\t// in\n            tag_252:\n                /* \"#utility.yul\":9737:10168   */\n              pop\n              pop\n                /* \"#utility.yul\":9722:10168   */\n            tag_248:\n                /* \"#utility.yul\":9632:10175   */\n              pop\n              pop\n              pop\n              jump\t// out\n                /* \"#utility.yul\":10181:10298   */\n            tag_138:\n                /* \"#utility.yul\":10235:10243   */\n              0x00\n                /* \"#utility.yul\":10285:10290   */\n              dup3\n                /* \"#utility.yul\":10279:10283   */\n              dup3\n                /* \"#utility.yul\":10275:10291   */\n              shr\n                /* \"#utility.yul\":10254:10291   */\n              swap1\n              pop\n                /* \"#utility.yul\":10181:10298   */\n              swap3\n              swap2\n              pop\n              pop\n              jump\t// out\n                /* \"#utility.yul\":10304:10473   */\n            tag_139:\n                /* \"#utility.yul\":10348:10354   */\n              0x00\n                /* \"#utility.yul\":10381:10432   */\n              tag_256\n                /* \"#utility.yul\":10429:10430   */\n              0x00\n                /* \"#utility.yul\":10425:10431   */\n              not\n                /* \"#utility.yul\":10417:10422   */\n              dup5\n                /* \"#utility.yul\":10414:10415   */\n              0x08\n                /* \"#utility.yul\":10410:10423   */\n              mul\n                /* \"#utility.yul\":10381:10432   */\n              tag_138\n              jump\t// in\n            tag_256:\n                /* \"#utility.yul\":10377:10433   */\n              not\n                /* \"#utility.yul\":10462:10466   */\n              dup1\n                /* \"#utility.yul\":10456:10460   */\n              dup4\n                /* \"#utility.yul\":10452:10467   */\n              and\n                /* \"#utility.yul\":10442:10467   */\n              swap2\n              pop\n                /* \"#utility.yul\":10355:10473   */\n              pop\n                /* \"#utility.yul\":10304:10473   */\n              swap3\n              swap2\n              pop\n              pop\n              jump\t// out\n                /* \"#utility.yul\":10478:10773   */\n            tag_140:\n                /* \"#utility.yul\":10554:10558   */\n              0x00\n                /* \"#utility.yul\":10700:10729   */\n              tag_258\n                /* \"#utility.yul\":10725:10728   */\n              dup4\n                /* \"#utility.yul\":10719:10723   */\n              dup4\n                /* \"#utility.yul\":10700:10729   */\n              tag_139\n              jump\t// in\n            tag_258:\n                /* \"#utility.yul\":10692:10729   */\n              swap2\n              pop\n                /* \"#utility.yul\":10762:10765   */\n              dup3\n                /* \"#utility.yul\":10759:10760   */\n              0x02\n                /* \"#utility.yul\":10755:10766   */\n              mul\n                /* \"#utility.yul\":10749:10753   */\n              dup3\n                /* \"#utility.yul\":10746:10767   */\n              or\n                /* \"#utility.yul\":10738:10767   */\n              swap1\n              pop\n                /* \"#utility.yul\":10478:10773   */\n              swap3\n              swap2\n              pop\n              pop\n              jump\t// out\n                /* \"#utility.yul\":10778:12173   */\n            tag_42:\n                /* \"#utility.yul\":10895:10932   */\n              tag_260\n                /* \"#utility.yul\":10928:10931   */\n              dup3\n                /* \"#utility.yul\":10895:10932   */\n              tag_115\n              jump\t// in\n            tag_260:\n                /* \"#utility.yul\":10997:11015   */\n              0xffffffffffffffff\n                /* \"#utility.yul\":10989:10995   */\n              dup2\n                /* \"#utility.yul\":10986:11016   */\n              gt\n                /* \"#utility.yul\":10983:11039   */\n              iszero\n              tag_261\n              jumpi\n                /* \"#utility.yul\":11019:11037   */\n              tag_262\n              tag_108\n              jump\t// in\n            tag_262:\n                /* \"#utility.yul\":10983:11039   */\n            tag_261:\n                /* \"#utility.yul\":11063:11101   */\n              tag_263\n                /* \"#utility.yul\":11095:11099   */\n              dup3\n                /* \"#utility.yul\":11089:11100   */\n              sload\n                /* \"#utility.yul\":11063:11101   */\n              tag_46\n              jump\t// in\n            tag_263:\n                /* \"#utility.yul\":11148:11215   */\n              tag_264\n                /* \"#utility.yul\":11208:11214   */\n              dup3\n                /* \"#utility.yul\":11200:11206   */\n              dup3\n                /* \"#utility.yul\":11194:11198   */\n              dup6\n                /* \"#utility.yul\":11148:11215   */\n              tag_137\n              jump\t// in\n            tag_264:\n                /* \"#utility.yul\":11242:11243   */\n              0x00\n                /* \"#utility.yul\":11266:11270   */\n              0x20\n                /* \"#utility.yul\":11253:11270   */\n              swap1\n              pop\n                /* \"#utility.yul\":11298:11300   */\n              0x1f\n                /* \"#utility.yul\":11290:11296   */\n              dup4\n                /* \"#utility.yul\":11287:11301   */\n              gt\n                /* \"#utility.yul\":11315:11316   */\n              0x01\n                /* \"#utility.yul\":11310:11928   */\n              dup2\n              eq\n              tag_266\n              jumpi\n                /* \"#utility.yul\":11972:11973   */\n              0x00\n                /* \"#utility.yul\":11989:11995   */\n              dup5\n                /* \"#utility.yul\":11986:12063   */\n              iszero\n              tag_267\n              jumpi\n                /* \"#utility.yul\":12038:12047   */\n              dup3\n                /* \"#utility.yul\":12033:12036   */\n              dup8\n                /* \"#utility.yul\":12029:12048   */\n              add\n                /* \"#utility.yul\":12023:12049   */\n              mload\n                /* \"#utility.yul\":12014:12049   */\n              swap1\n              pop\n                /* \"#utility.yul\":11986:12063   */\n            tag_267:\n                /* \"#utility.yul\":12089:12156   */\n              tag_268\n                /* \"#utility.yul\":12149:12155   */\n              dup6\n                /* \"#utility.yul\":12142:12147   */\n              dup3\n                /* \"#utility.yul\":12089:12156   */\n              tag_140\n              jump\t// in\n            tag_268:\n                /* \"#utility.yul\":12083:12087   */\n              dup7\n                /* \"#utility.yul\":12076:12157   */\n              sstore\n                /* \"#utility.yul\":11945:12167   */\n              pop\n                /* \"#utility.yul\":11280:12167   */\n              jump(tag_265)\n                /* \"#utility.yul\":11310:11928   */\n            tag_266:\n                /* \"#utility.yul\":11362:11366   */\n              0x1f\n                /* \"#utility.yul\":11358:11367   */\n              not\n                /* \"#utility.yul\":11350:11356   */\n              dup5\n                /* \"#utility.yul\":11346:11368   */\n              and\n                /* \"#utility.yul\":11396:11433   */\n              tag_269\n                /* \"#utility.yul\":11428:11432   */\n              dup7\n                /* \"#utility.yul\":11396:11433   */\n              tag_125\n              jump\t// in\n            tag_269:\n                /* \"#utility.yul\":11455:11456   */\n              0x00\n                /* \"#utility.yul\":11469:11677   */\n            tag_270:\n                /* \"#utility.yul\":11483:11490   */\n              dup3\n                /* \"#utility.yul\":11480:11481   */\n              dup2\n                /* \"#utility.yul\":11477:11491   */\n              lt\n                /* \"#utility.yul\":11469:11677   */\n              iszero\n              tag_272\n              jumpi\n                /* \"#utility.yul\":11562:11571   */\n              dup5\n                /* \"#utility.yul\":11557:11560   */\n              dup10\n                /* \"#utility.yul\":11553:11572   */\n              add\n                /* \"#utility.yul\":11547:11573   */\n              mload\n                /* \"#utility.yul\":11539:11545   */\n              dup3\n                /* \"#utility.yul\":11532:11574   */\n              sstore\n                /* \"#utility.yul\":11613:11614   */\n              0x01\n                /* \"#utility.yul\":11605:11611   */\n              dup3\n                /* \"#utility.yul\":11601:11615   */\n              add\n                /* \"#utility.yul\":11591:11615   */\n              swap2\n              pop\n                /* \"#utility.yul\":11660:11662   */\n              0x20\n                /* \"#utility.yul\":11649:11658   */\n              dup6\n                /* \"#utility.yul\":11645:11663   */\n              add\n                /* \"#utility.yul\":11632:11663   */\n              swap5\n              pop\n                /* \"#utility.yul\":11506:11510   */\n              0x20\n                /* \"#utility.yul\":11503:11504   */\n              dup2\n                /* \"#utility.yul\":11499:11511   */\n              add\n                /* \"#utility.yul\":11494:11511   */\n              swap1\n              pop\n                /* \"#utility.yul\":11469:11677   */\n              jump(tag_270)\n            tag_272:\n                /* \"#utility.yul\":11705:11711   */\n              dup7\n                /* \"#utility.yul\":11696:11703   */\n              dup4\n                /* \"#utility.yul\":11693:11712   */\n              lt\n                /* \"#utility.yul\":11690:11869   */\n              iszero\n              tag_273\n              jumpi\n                /* \"#utility.yul\":11763:11772   */\n              dup5\n                /* \"#utility.yul\":11758:11761   */\n              dup10\n                /* \"#utility.yul\":11754:11773   */\n              add\n                /* \"#utility.yul\":11748:11774   */\n              mload\n                /* \"#utility.yul\":11806:11854   */\n              tag_274\n                /* \"#utility.yul\":11848:11852   */\n              0x1f\n                /* \"#utility.yul\":11840:11846   */\n              dup10\n                /* \"#utility.yul\":11836:11853   */\n              and\n                /* \"#utility.yul\":11825:11834   */\n              dup3\n                /* \"#utility.yul\":11806:11854   */\n              tag_139\n              jump\t// in\n            tag_274:\n                /* \"#utility.yul\":11798:11804   */\n              dup4\n                /* \"#utility.yul\":11791:11855   */\n              sstore\n                /* \"#utility.yul\":11713:11869   */\n              pop\n                /* \"#utility.yul\":11690:11869   */\n            tag_273:\n                /* \"#utility.yul\":11915:11916   */\n              0x01\n                /* \"#utility.yul\":11911:11912   */\n              0x02\n                /* \"#utility.yul\":11903:11909   */\n              dup9\n                /* \"#utility.yul\":11899:11913   */\n              mul\n                /* \"#utility.yul\":11895:11917   */\n              add\n                /* \"#utility.yul\":11889:11893   */\n              dup9\n                /* \"#utility.yul\":11882:11918   */\n              sstore\n                /* \"#utility.yul\":11317:11928   */\n              pop\n              pop\n              pop\n                /* \"#utility.yul\":11280:12167   */\n            tag_265:\n              pop\n                /* \"#utility.yul\":10870:12173   */\n              pop\n              pop\n              pop\n                /* \"#utility.yul\":10778:12173   */\n              pop\n              pop\n              jump\t// out\n                /* \"#utility.yul\":12179:12511   */\n            tag_74:\n                /* \"#utility.yul\":12300:12304   */\n              0x00\n                /* \"#utility.yul\":12338:12340   */\n              0x40\n                /* \"#utility.yul\":12327:12336   */\n              dup3\n                /* \"#utility.yul\":12323:12341   */\n              add\n                /* \"#utility.yul\":12315:12341   */\n              swap1\n              pop\n                /* \"#utility.yul\":12351:12422   */\n              tag_276\n                /* \"#utility.yul\":12419:12420   */\n              0x00\n                /* \"#utility.yul\":12408:12417   */\n              dup4\n                /* \"#utility.yul\":12404:12421   */\n              add\n                /* \"#utility.yul\":12395:12401   */\n              dup6\n                /* \"#utility.yul\":12351:12422   */\n              tag_121\n              jump\t// in\n            tag_276:\n                /* \"#utility.yul\":12432:12504   */\n              tag_277\n                /* \"#utility.yul\":12500:12502   */\n              0x20\n                /* \"#utility.yul\":12489:12498   */\n              dup4\n                /* \"#utility.yul\":12485:12503   */\n              add\n                /* \"#utility.yul\":12476:12482   */\n              dup5\n                /* \"#utility.yul\":12432:12504   */\n              tag_121\n              jump\t// in\n            tag_277:\n                /* \"#utility.yul\":12179:12511   */\n              swap4\n              swap3\n              pop\n              pop\n              pop\n              jump\t// out\n                /* \"#utility.yul\":12517:12607   */\n            tag_141:\n                /* \"#utility.yul\":12551:12558   */\n              0x00\n                /* \"#utility.yul\":12594:12599   */\n              dup2\n                /* \"#utility.yul\":12587:12600   */\n              iszero\n                /* \"#utility.yul\":12580:12601   */\n              iszero\n                /* \"#utility.yul\":12569:12601   */\n              swap1\n              pop\n                /* \"#utility.yul\":12517:12607   */\n              swap2\n              swap1\n              pop\n              jump\t// out\n                /* \"#utility.yul\":12613:12729   */\n            tag_142:\n                /* \"#utility.yul\":12683:12704   */\n              tag_280\n                /* \"#utility.yul\":12698:12703   */\n              dup2\n                /* \"#utility.yul\":12683:12704   */\n              tag_141\n              jump\t// in\n            tag_280:\n                /* \"#utility.yul\":12676:12681   */\n              dup2\n                /* \"#utility.yul\":12673:12705   */\n              eq\n                /* \"#utility.yul\":12663:12723   */\n              tag_281\n              jumpi\n                /* \"#utility.yul\":12719:12720   */\n              0x00\n                /* \"#utility.yul\":12716:12717   */\n              0x00\n                /* \"#utility.yul\":12709:12721   */\n              revert\n                /* \"#utility.yul\":12663:12723   */\n            tag_281:\n                /* \"#utility.yul\":12613:12729   */\n              pop\n              jump\t// out\n                /* \"#utility.yul\":12735:12872   */\n            tag_143:\n                /* \"#utility.yul\":12789:12794   */\n              0x00\n                /* \"#utility.yul\":12820:12826   */\n              dup2\n                /* \"#utility.yul\":12814:12827   */\n              mload\n                /* \"#utility.yul\":12805:12827   */\n              swap1\n              pop\n                /* \"#utility.yul\":12836:12866   */\n              tag_283\n                /* \"#utility.yul\":12860:12865   */\n              dup2\n                /* \"#utility.yul\":12836:12866   */\n              tag_142\n              jump\t// in\n            tag_283:\n                /* \"#utility.yul\":12735:12872   */\n              swap3\n              swap2\n              pop\n              pop\n              jump\t// out\n                /* \"#utility.yul\":12878:13223   */\n            tag_78:\n                /* \"#utility.yul\":12945:12951   */\n              0x00\n                /* \"#utility.yul\":12994:12996   */\n              0x20\n                /* \"#utility.yul\":12982:12991   */\n              dup3\n                /* \"#utility.yul\":12973:12980   */\n              dup5\n                /* \"#utility.yul\":12969:12992   */\n              sub\n                /* \"#utility.yul\":12965:12997   */\n              slt\n                /* \"#utility.yul\":12962:13081   */\n              iszero\n              tag_285\n              jumpi\n                /* \"#utility.yul\":13000:13079   */\n              tag_286\n              tag_103\n              jump\t// in\n            tag_286:\n                /* \"#utility.yul\":12962:13081   */\n            tag_285:\n                /* \"#utility.yul\":13120:13121   */\n              0x00\n                /* \"#utility.yul\":13145:13206   */\n              tag_287\n                /* \"#utility.yul\":13198:13205   */\n              dup5\n                /* \"#utility.yul\":13189:13195   */\n              dup3\n                /* \"#utility.yul\":13178:13187   */\n              dup6\n                /* \"#utility.yul\":13174:13196   */\n              add\n                /* \"#utility.yul\":13145:13206   */\n              tag_143\n              jump\t// in\n            tag_287:\n                /* \"#utility.yul\":13135:13206   */\n              swap2\n              pop\n                /* \"#utility.yul\":13091:13216   */\n              pop\n                /* \"#utility.yul\":12878:13223   */\n              swap3\n              swap2\n              pop\n              pop\n              jump\t// out\n                /* \"#utility.yul\":13229:13453   */\n            tag_144:\n                /* \"#utility.yul\":13369:13403   */\n              0x55736572206973206e6f74207375627363726962656420746f20746869732061\n                /* \"#utility.yul\":13365:13366   */\n              0x00\n                /* \"#utility.yul\":13357:13363   */\n              dup3\n                /* \"#utility.yul\":13353:13367   */\n              add\n                /* \"#utility.yul\":13346:13404   */\n              mstore\n                /* \"#utility.yul\":13438:13445   */\n              0x7574686f72000000000000000000000000000000000000000000000000000000\n                /* \"#utility.yul\":13433:13435   */\n              0x20\n                /* \"#utility.yul\":13425:13431   */\n              dup3\n                /* \"#utility.yul\":13421:13436   */\n              add\n                /* \"#utility.yul\":13414:13446   */\n              mstore\n                /* \"#utility.yul\":13229:13453   */\n              pop\n              jump\t// out\n                /* \"#utility.yul\":13459:13825   */\n            tag_145:\n                /* \"#utility.yul\":13601:13604   */\n              0x00\n                /* \"#utility.yul\":13622:13689   */\n              tag_290\n                /* \"#utility.yul\":13686:13688   */\n              0x25\n                /* \"#utility.yul\":13681:13684   */\n              dup4\n                /* \"#utility.yul\":13622:13689   */\n              tag_116\n              jump\t// in\n            tag_290:\n                /* \"#utility.yul\":13615:13689   */\n              swap2\n              pop\n                /* \"#utility.yul\":13698:13791   */\n              tag_291\n                /* \"#utility.yul\":13787:13790   */\n              dup3\n                /* \"#utility.yul\":13698:13791   */\n              tag_144\n              jump\t// in\n            tag_291:\n                /* \"#utility.yul\":13816:13818   */\n              0x40\n                /* \"#utility.yul\":13811:13814   */\n              dup3\n                /* \"#utility.yul\":13807:13819   */\n              add\n                /* \"#utility.yul\":13800:13819   */\n              swap1\n              pop\n                /* \"#utility.yul\":13459:13825   */\n              swap2\n              swap1\n              pop\n              jump\t// out\n                /* \"#utility.yul\":13831:14250   */\n            tag_81:\n                /* \"#utility.yul\":13997:14001   */\n              0x00\n                /* \"#utility.yul\":14035:14037   */\n              0x20\n                /* \"#utility.yul\":14024:14033   */\n              dup3\n                /* \"#utility.yul\":14020:14038   */\n              add\n                /* \"#utility.yul\":14012:14038   */\n              swap1\n              pop\n                /* \"#utility.yul\":14084:14093   */\n              dup2\n                /* \"#utility.yul\":14078:14082   */\n              dup2\n                /* \"#utility.yul\":14074:14094   */\n              sub\n                /* \"#utility.yul\":14070:14071   */\n              0x00\n                /* \"#utility.yul\":14059:14068   */\n              dup4\n                /* \"#utility.yul\":14055:14072   */\n              add\n                /* \"#utility.yul\":14048:14095   */\n              mstore\n                /* \"#utility.yul\":14112:14243   */\n              tag_293\n                /* \"#utility.yul\":14238:14242   */\n              dup2\n                /* \"#utility.yul\":14112:14243   */\n              tag_145\n              jump\t// in\n            tag_293:\n                /* \"#utility.yul\":14104:14243   */\n              swap1\n              pop\n                /* \"#utility.yul\":13831:14250   */\n              swap2\n              swap1\n              pop\n              jump\t// out\n\n            auxdata: 0xa264697066735822122082d2b8ddfa0d97ed7fe2324f9c4b7defc3e58333164d6f7cfde8bd45ab4eff7d64736f6c634300081c0033\n        }\n    }\n\n    auxdata: 0xa2646970667358221220d5ec049f460c51460ce522c11ba31334b051b5c158a12af9a89ecd66e80ac4fd64736f6c634300081c0033\n}\n","bytecode":{"linkReferences":{},"object":"6080604052348015600e575f5ffd5b5061235d8061001c5f395ff3fe60806040526004361061007a575f3560e01c806385d481f31161004d57806385d481f314610148578063a651989914610184578063ce278e75146101c0578063f9f01c23146101dc5761007a565b80630194424c1461007e5780632e9b93ed146100ba5780633bdd49cf146100f65780636ac8495614610120575b5f5ffd5b348015610089575f5ffd5b506100a4600480360381019061009f9190610681565b610204565b6040516100b191906106c4565b60405180910390f35b3480156100c5575f5ffd5b506100e060048036038101906100db91906106dd565b610219565b6040516100ed9190610735565b60405180910390f35b348015610101575f5ffd5b5061010a610243565b6040516101179190610805565b60405180910390f35b34801561012b575f5ffd5b506101466004803603810190610141919061084f565b6102cd565b005b348015610153575f5ffd5b5061016e600480360381019061016991906106dd565b610312565b60405161017b9190610735565b60405180910390f35b34801561018f575f5ffd5b506101aa60048036038101906101a5919061084f565b6103a0565b6040516101b79190610889565b60405180910390f35b6101da60048036038101906101d59190610681565b6103da565b005b3480156101e7575f5ffd5b5061020260048036038101906101fd91906109de565b610568565b005b6001602052805f5260405f205f915090505481565b6002602052815f5260405f20602052805f5260405f205f915091509054906101000a900460ff1681565b60605f8054806020026020016040519081016040528092919081815260200182805480156102c357602002820191905f5260205f20905b815f9054906101000a900473ffffffffffffffffffffffffffffffffffffffff1673ffffffffffffffffffffffffffffffffffffffff168152602001906001019080831161027a575b5050505050905090565b8060015f3373ffffffffffffffffffffffffffffffffffffffff1673ffffffffffffffffffffffffffffffffffffffff1681526020019081526020015f208190555050565b5f60025f8473ffffffffffffffffffffffffffffffffffffffff1673ffffffffffffffffffffffffffffffffffffffff1681526020019081526020015f205f8373ffffffffffffffffffffffffffffffffffffffff1673ffffffffffffffffffffffffffffffffffffffff1681526020019081526020015f205f9054906101000a900460ff16905092915050565b5f81815481106103ae575f80fd5b905f5260205f20015f915054906101000a900473ffffffffffffffffffffffffffffffffffffffff1681565b5f60015f8373ffffffffffffffffffffffffffffffffffffffff1673ffffffffffffffffffffffffffffffffffffffff1681526020019081526020015f205490505f811161045d576040517f08c379a000000000000000000000000000000000000000000000000000000000815260040161045490610b02565b60405180910390fd5b80341461049f576040517f08c379a000000000000000000000000000000000000000000000000000000000815260040161049690610b6a565b60405180910390fd5b60025f8373ffffffffffffffffffffffffffffffffffffffff1673ffffffffffffffffffffffffffffffffffffffff1681526020019081526020015f205f3373ffffffffffffffffffffffffffffffffffffffff1673ffffffffffffffffffffffffffffffffffffffff1681526020019081526020015f205f9054906101000a900460ff1615610564576040517f08c379a000000000000000000000000000000000000000000000000000000000815260040161055b90610bd2565b60405180910390fd5b5050565b5f303385858560405161057a90610609565b610588959493929190610c40565b604051809103905ff0801580156105a1573d5f5f3e3d5ffd5b5090505f81908060018154018082558091505060019003905f5260205f20015f9091909190916101000a81548173ffffffffffffffffffffffffffffffffffffffff021916908373ffffffffffffffffffffffffffffffffffffffff16021790555050505050565b61168180610ca783390190565b5f604051905090565b5f5ffd5b5f5ffd5b5f73ffffffffffffffffffffffffffffffffffffffff82169050919050565b5f61065082610627565b9050919050565b61066081610646565b811461066a575f5ffd5b50565b5f8135905061067b81610657565b92915050565b5f602082840312156106965761069561061f565b5b5f6106a38482850161066d565b91505092915050565b5f819050919050565b6106be816106ac565b82525050565b5f6020820190506106d75f8301846106b5565b92915050565b5f5f604083850312156106f3576106f261061f565b5b5f6107008582860161066d565b92505060206107118582860161066d565b9150509250929050565b5f8115159050919050565b61072f8161071b565b82525050565b5f6020820190506107485f830184610726565b92915050565b5f81519050919050565b5f82825260208201905092915050565b5f819050602082019050919050565b61078081610646565b82525050565b5f6107918383610777565b60208301905092915050565b5f602082019050919050565b5f6107b38261074e565b6107bd8185610758565b93506107c883610768565b805f5b838110156107f85781516107df8882610786565b97506107ea8361079d565b9250506001810190506107cb565b5085935050505092915050565b5f6020820190508181035f83015261081d81846107a9565b905092915050565b61082e816106ac565b8114610838575f5ffd5b50565b5f8135905061084981610825565b92915050565b5f602082840312156108645761086361061f565b5b5f6108718482850161083b565b91505092915050565b61088381610646565b82525050565b5f60208201905061089c5f83018461087a565b92915050565b5f5ffd5b5f5ffd5b5f601f19601f8301169050919050565b7f4e487b71000000000000000000000000000000000000000000000000000000005f52604160045260245ffd5b6108f0826108aa565b810181811067ffffffffffffffff8211171561090f5761090e6108ba565b5b80604052505050565b5f610921610616565b905061092d82826108e7565b919050565b5f67ffffffffffffffff82111561094c5761094b6108ba565b5b610955826108aa565b9050602081019050919050565b828183375f83830152505050565b5f61098261097d84610932565b610918565b90508281526020810184848401111561099e5761099d6108a6565b5b6109a9848285610962565b509392505050565b5f82601f8301126109c5576109c46108a2565b5b81356109d5848260208601610970565b91505092915050565b5f5f5f606084860312156109f5576109f461061f565b5b5f84013567ffffffffffffffff811115610a1257610a11610623565b5b610a1e868287016109b1565b935050602084013567ffffffffffffffff811115610a3f57610a3e610623565b5b610a4b868287016109b1565b925050604084013567ffffffffffffffff811115610a6c57610a6b610623565b5b610a78868287016109b1565b9150509250925092565b5f82825260208201905092915050565b7f417574686f7220686173206e6f7420736574206120737562736372697074696f5f8201527f6e20666565000000000000000000000000000000000000000000000000000000602082015250565b5f610aec602583610a82565b9150610af782610a92565b604082019050919050565b5f6020820190508181035f830152610b1981610ae0565b9050919050565b7f496e636f727265637420737562736372697074696f6e206665652073656e74005f82015250565b5f610b54601f83610a82565b9150610b5f82610b20565b602082019050919050565b5f6020820190508181035f830152610b8181610b48565b9050919050565b7f416c7265616479207375627363726962656400000000000000000000000000005f82015250565b5f610bbc601283610a82565b9150610bc782610b88565b602082019050919050565b5f6020820190508181035f830152610be981610bb0565b9050919050565b5f81519050919050565b8281835e5f83830152505050565b5f610c1282610bf0565b610c1c8185610a82565b9350610c2c818560208601610bfa565b610c35816108aa565b840191505092915050565b5f60a082019050610c535f83018861087a565b610c60602083018761087a565b8181036040830152610c728186610c08565b90508181036060830152610c868185610c08565b90508181036080830152610c9a8184610c08565b9050969550505050505056fe608060405234801561000f575f5ffd5b5060405161168138038061168183398181016040528101906100319190610291565b845f5f6101000a81548173ffffffffffffffffffffffffffffffffffffffff021916908373ffffffffffffffffffffffffffffffffffffffff1602179055508360015f6101000a81548173ffffffffffffffffffffffffffffffffffffffff021916908373ffffffffffffffffffffffffffffffffffffffff16021790555082600290816100bf919061056c565b5081600390816100cf919061056c565b5080600490816100df919061056c565b50505050505061063b565b5f604051905090565b5f5ffd5b5f5ffd5b5f73ffffffffffffffffffffffffffffffffffffffff82169050919050565b5f610124826100fb565b9050919050565b6101348161011a565b811461013e575f5ffd5b50565b5f8151905061014f8161012b565b92915050565b5f5ffd5b5f5ffd5b5f601f19601f8301169050919050565b7f4e487b71000000000000000000000000000000000000000000000000000000005f52604160045260245ffd5b6101a38261015d565b810181811067ffffffffffffffff821117156101c2576101c161016d565b5b80604052505050565b5f6101d46100ea565b90506101e0828261019a565b919050565b5f67ffffffffffffffff8211156101ff576101fe61016d565b5b6102088261015d565b9050602081019050919050565b8281835e5f83830152505050565b5f610235610230846101e5565b6101cb565b90508281526020810184848401111561025157610250610159565b5b61025c848285610215565b509392505050565b5f82601f83011261027857610277610155565b5b8151610288848260208601610223565b91505092915050565b5f5f5f5f5f60a086880312156102aa576102a96100f3565b5b5f6102b788828901610141565b95505060206102c888828901610141565b945050604086015167ffffffffffffffff8111156102e9576102e86100f7565b5b6102f588828901610264565b935050606086015167ffffffffffffffff811115610316576103156100f7565b5b61032288828901610264565b925050608086015167ffffffffffffffff811115610343576103426100f7565b5b61034f88828901610264565b9150509295509295909350565b5f81519050919050565b7f4e487b71000000000000000000000000000000000000000000000000000000005f52602260045260245ffd5b5f60028204905060018216806103aa57607f821691505b6020821081036103bd576103bc610366565b5b50919050565b5f819050815f5260205f209050919050565b5f6020601f8301049050919050565b5f82821b905092915050565b5f6008830261041f7fffffffffffffffffffffffffffffffffffffffffffffffffffffffffffffffff826103e4565b61042986836103e4565b95508019841693508086168417925050509392505050565b5f819050919050565b5f819050919050565b5f61046d61046861046384610441565b61044a565b610441565b9050919050565b5f819050919050565b61048683610453565b61049a61049282610474565b8484546103f0565b825550505050565b5f5f905090565b6104b16104a2565b6104bc81848461047d565b505050565b5b818110156104df576104d45f826104a9565b6001810190506104c2565b5050565b601f821115610524576104f5816103c3565b6104fe846103d5565b8101602085101561050d578190505b610521610519856103d5565b8301826104c1565b50505b505050565b5f82821c905092915050565b5f6105445f1984600802610529565b1980831691505092915050565b5f61055c8383610535565b9150826002028217905092915050565b6105758261035c565b67ffffffffffffffff81111561058e5761058d61016d565b5b6105988254610393565b6105a38282856104e3565b5f60209050601f8311600181146105d4575f84156105c2578287015190505b6105cc8582610551565b865550610633565b601f1984166105e2866103c3565b5f5b82811015610609578489015182556001820191506020850194506020810190506105e4565b868310156106265784890151610622601f891682610535565b8355505b6001600288020188555050505b505050505050565b611039806106485f395ff3fe608060405234801561000f575f5ffd5b506004361061007b575f3560e01c80635e8ae07d116100595780635e8ae07d146100d75780638c8a2adc146100f8578063c46b0b1414610119578063e8a25269146101375761007b565b806315ecd3561461007f57806326942bf01461009b57806342f40c21146100b9575b5f5ffd5b610099600480360381019061009491906109dd565b610155565b005b6100a3610219565b6040516100b09190610ae1565b60405180910390f35b6100c16102a5565b6040516100ce9190610ae1565b60405180910390f35b6100df610331565b6040516100ef9493929190610b40565b60405180910390f35b61010061050b565b6040516101109493929190610b40565b60405180910390f35b6101216107df565b60405161012e9190610b98565b60405180910390f35b61013f610804565b60405161014c9190610ae1565b60405180910390f35b60015f9054906101000a900473ffffffffffffffffffffffffffffffffffffffff1673ffffffffffffffffffffffffffffffffffffffff163373ffffffffffffffffffffffffffffffffffffffff16146101e4576040517f08c379a00000000000000000000000000000000000000000000000000000000081526004016101db90610bfb565b60405180910390fd5b82600290816101f39190610e1f565b5081600390816102039190610e1f565b5080600490816102139190610e1f565b50505050565b6004805461022690610c46565b80601f016020809104026020016040519081016040528092919081815260200182805461025290610c46565b801561029d5780601f106102745761010080835404028352916020019161029d565b820191905f5260205f20905b81548152906001019060200180831161028057829003601f168201915b505050505081565b600380546102b290610c46565b80601f01602080910402602001604051908101604052809291908181526020018280546102de90610c46565b80156103295780601f1061030057610100808354040283529160200191610329565b820191905f5260205f20905b81548152906001019060200180831161030c57829003601f168201915b505050505081565b5f606080606060015f9054906101000a900473ffffffffffffffffffffffffffffffffffffffff1660026003600482805461036b90610c46565b80601f016020809104026020016040519081016040528092919081815260200182805461039790610c46565b80156103e25780601f106103b9576101008083540402835291602001916103e2565b820191905f5260205f20905b8154815290600101906020018083116103c557829003601f168201915b505050505092508180546103f590610c46565b80601f016020809104026020016040519081016040528092919081815260200182805461042190610c46565b801561046c5780601f106104435761010080835404028352916020019161046c565b820191905f5260205f20905b81548152906001019060200180831161044f57829003601f168201915b5050505050915080805461047f90610c46565b80601f01602080910402602001604051908101604052809291908181526020018280546104ab90610c46565b80156104f65780601f106104cd576101008083540402835291602001916104f6565b820191905f5260205f20905b8154815290600101906020018083116104d957829003601f168201915b50505050509050935093509350935090919293565b5f60608060605f5f9054906101000a900473ffffffffffffffffffffffffffffffffffffffff1673ffffffffffffffffffffffffffffffffffffffff166385d481f360015f9054906101000a900473ffffffffffffffffffffffffffffffffffffffff16336040518363ffffffff1660e01b815260040161058d929190610eee565b602060405180830381865afa1580156105a8573d5f5f3e3d5ffd5b505050506040513d601f19601f820116820180604052508101906105cc9190610f4a565b61060b576040517f08c379a000000000000000000000000000000000000000000000000000000000815260040161060290610fe5565b60405180910390fd5b60015f9054906101000a900473ffffffffffffffffffffffffffffffffffffffff1660026003600482805461063f90610c46565b80601f016020809104026020016040519081016040528092919081815260200182805461066b90610c46565b80156106b65780601f1061068d576101008083540402835291602001916106b6565b820191905f5260205f20905b81548152906001019060200180831161069957829003601f168201915b505050505092508180546106c990610c46565b80601f01602080910402602001604051908101604052809291908181526020018280546106f590610c46565b80156107405780601f1061071757610100808354040283529160200191610740565b820191905f5260205f20905b81548152906001019060200180831161072357829003601f168201915b5050505050915080805461075390610c46565b80601f016020809104026020016040519081016040528092919081815260200182805461077f90610c46565b80156107ca5780601f106107a1576101008083540402835291602001916107ca565b820191905f5260205f20905b8154815290600101906020018083116107ad57829003601f168201915b50505050509050935093509350935090919293565b60015f9054906101000a900473ffffffffffffffffffffffffffffffffffffffff1681565b6002805461081190610c46565b80601f016020809104026020016040519081016040528092919081815260200182805461083d90610c46565b80156108885780601f1061085f57610100808354040283529160200191610888565b820191905f5260205f20905b81548152906001019060200180831161086b57829003601f168201915b505050505081565b5f604051905090565b5f5ffd5b5f5ffd5b5f5ffd5b5f5ffd5b5f601f19601f8301169050919050565b7f4e487b71000000000000000000000000000000000000000000000000000000005f52604160045260245ffd5b6108ef826108a9565b810181811067ffffffffffffffff8211171561090e5761090d6108b9565b5b80604052505050565b5f610920610890565b905061092c82826108e6565b919050565b5f67ffffffffffffffff82111561094b5761094a6108b9565b5b610954826108a9565b9050602081019050919050565b828183375f83830152505050565b5f61098161097c84610931565b610917565b90508281526020810184848401111561099d5761099c6108a5565b5b6109a8848285610961565b509392505050565b5f82601f8301126109c4576109c36108a1565b5b81356109d484826020860161096f565b91505092915050565b5f5f5f606084860312156109f4576109f3610899565b5b5f84013567ffffffffffffffff811115610a1157610a1061089d565b5b610a1d868287016109b0565b935050602084013567ffffffffffffffff811115610a3e57610a3d61089d565b5b610a4a868287016109b0565b925050604084013567ffffffffffffffff811115610a6b57610a6a61089d565b5b610a77868287016109b0565b9150509250925092565b5f81519050919050565b5f82825260208201905092915050565b8281835e5f83830152505050565b5f610ab382610a81565b610abd8185610a8b565b9350610acd818560208601610a9b565b610ad6816108a9565b840191505092915050565b5f6020820190508181035f830152610af98184610aa9565b905092915050565b5f73ffffffffffffffffffffffffffffffffffffffff82169050919050565b5f610b2a82610b01565b9050919050565b610b3a81610b20565b82525050565b5f608082019050610b535f830187610b31565b8181036020830152610b658186610aa9565b90508181036040830152610b798185610aa9565b90508181036060830152610b8d8184610aa9565b905095945050505050565b5f602082019050610bab5f830184610b31565b92915050565b7f43616c6c6572206973206e6f7420746865206d616e61676572000000000000005f82015250565b5f610be5601983610a8b565b9150610bf082610bb1565b602082019050919050565b5f6020820190508181035f830152610c1281610bd9565b9050919050565b7f4e487b71000000000000000000000000000000000000000000000000000000005f52602260045260245ffd5b5f6002820490506001821680610c5d57607f821691505b602082108103610c7057610c6f610c19565b5b50919050565b5f819050815f5260205f209050919050565b5f6020601f8301049050919050565b5f82821b905092915050565b5f60088302610cd27fffffffffffffffffffffffffffffffffffffffffffffffffffffffffffffffff82610c97565b610cdc8683610c97565b95508019841693508086168417925050509392505050565b5f819050919050565b5f819050919050565b5f610d20610d1b610d1684610cf4565b610cfd565b610cf4565b9050919050565b5f819050919050565b610d3983610d06565b610d4d610d4582610d27565b848454610ca3565b825550505050565b5f5f905090565b610d64610d55565b610d6f818484610d30565b505050565b5b81811015610d9257610d875f82610d5c565b600181019050610d75565b5050565b601f821115610dd757610da881610c76565b610db184610c88565b81016020851015610dc0578190505b610dd4610dcc85610c88565b830182610d74565b50505b505050565b5f82821c905092915050565b5f610df75f1984600802610ddc565b1980831691505092915050565b5f610e0f8383610de8565b9150826002028217905092915050565b610e2882610a81565b67ffffffffffffffff811115610e4157610e406108b9565b5b610e4b8254610c46565b610e56828285610d96565b5f60209050601f831160018114610e87575f8415610e75578287015190505b610e7f8582610e04565b865550610ee6565b601f198416610e9586610c76565b5f5b82811015610ebc57848901518255600182019150602085019450602081019050610e97565b86831015610ed95784890151610ed5601f891682610de8565b8355505b6001600288020188555050505b505050505050565b5f604082019050610f015f830185610b31565b610f0e6020830184610b31565b9392505050565b5f8115159050919050565b610f2981610f15565b8114610f33575f5ffd5b50565b5f81519050610f4481610f20565b92915050565b5f60208284031215610f5f57610f5e610899565b5b5f610f6c84828501610f36565b91505092915050565b7f55736572206973206e6f74207375627363726962656420746f207468697320615f8201527f7574686f72000000000000000000000000000000000000000000000000000000602082015250565b5f610fcf602583610a8b565b9150610fda82610f75565b604082019050919050565b5f6020820190508181035f830152610ffc81610fc3565b905091905056fea264697066735822122082d2b8ddfa0d97ed7fe2324f9c4b7defc3e58333164d6f7cfde8bd45ab4eff7d64736f6c634300081c0033a2646970667358221220d5ec049f460c51460ce522c11ba31334b051b5c158a12af9a89ecd66e80ac4fd64736f6c634300081c0033","opcodes":"PUSH1 0x80 PUSH1 0x40 MSTORE CALLVALUE DUP1 ISZERO PUSH1 0xE JUMPI PUSH0 PUSH0 REVERT JUMPDEST POP PUSH2 0x235D DUP1 PUSH2 0x1C PUSH0 CODECOPY PUSH0 RETURN INVALID PUSH1 0x80 PUSH1 0x40 MSTORE PUSH1 0x4 CALLDATASIZE LT PUSH2 0x7A JUMPI PUSH0 CALLDATALOAD PUSH1 0xE0 SHR DUP1 PUSH4 0x85D481F3 GT PUSH2 0x4D JUMPI DUP1 PUSH4 0x85D481F3 EQ PUSH2 0x148 JUMPI DUP1 PUSH4 0xA6519899 EQ PUSH2 0x184 JUMPI DUP1 PUSH4 0xCE278E75 EQ PUSH2 0x1C0 JUMPI DUP1 PUSH4 0xF9F01C23 EQ PUSH2 0x1DC JUMPI PUSH2 0x7A JUMP JUMPDEST DUP1 PUSH4 0x194424C EQ PUSH2 0x7E JUMPI DUP1 PUSH4 0x2E9B93ED EQ PUSH2 0xBA JUMPI DUP1 PUSH4 0x3BDD49CF EQ PUSH2 0xF6 JUMPI DUP1 PUSH4 0x6AC84956 EQ PUSH2 0x120 JUMPI JUMPDEST PUSH0 PUSH0 REVERT JUMPDEST CALLVALUE DUP1 ISZERO PUSH2 0x89 JUMPI PUSH0 PUSH0 REVERT JUMPDEST POP PUSH2 0xA4 PUSH1 0x4 DUP1 CALLDATASIZE SUB DUP2 ADD SWAP1 PUSH2 0x9F SWAP2 SWAP1 PUSH2 0x681 JUMP JUMPDEST PUSH2 0x204 JUMP JUMPDEST PUSH1 0x40 MLOAD PUSH2 0xB1 SWAP2 SWAP1 PUSH2 0x6C4 JUMP JUMPDEST PUSH1 0x40 MLOAD DUP1 SWAP2 SUB SWAP1 RETURN JUMPDEST CALLVALUE DUP1 ISZERO PUSH2 0xC5 JUMPI PUSH0 PUSH0 REVERT JUMPDEST POP PUSH2 0xE0 PUSH1 0x4 DUP1 CALLDATASIZE SUB DUP2 ADD SWAP1 PUSH2 0xDB SWAP2 SWAP1 PUSH2 0x6DD JUMP JUMPDEST PUSH2 0x219 JUMP JUMPDEST PUSH1 0x40 MLOAD PUSH2 0xED SWAP2 SWAP1 PUSH2 0x735 JUMP JUMPDEST PUSH1 0x40 MLOAD DUP1 SWAP2 SUB SWAP1 RETURN JUMPDEST CALLVALUE DUP1 ISZERO PUSH2 0x101 JUMPI PUSH0 PUSH0 REVERT JUMPDEST POP PUSH2 0x10A PUSH2 0x243 JUMP JUMPDEST PUSH1 0x40 MLOAD PUSH2 0x117 SWAP2 SWAP1 PUSH2 0x805 JUMP JUMPDEST PUSH1 0x40 MLOAD DUP1 SWAP2 SUB SWAP1 RETURN JUMPDEST CALLVALUE DUP1 ISZERO PUSH2 0x12B JUMPI PUSH0 PUSH0 REVERT JUMPDEST POP PUSH2 0x146 PUSH1 0x4 DUP1 CALLDATASIZE SUB DUP2 ADD SWAP1 PUSH2 0x141 SWAP2 SWAP1 PUSH2 0x84F JUMP JUMPDEST PUSH2 0x2CD JUMP JUMPDEST STOP JUMPDEST CALLVALUE DUP1 ISZERO PUSH2 0x153 JUMPI PUSH0 PUSH0 REVERT JUMPDEST POP PUSH2 0x16E PUSH1 0x4 DUP1 CALLDATASIZE SUB DUP2 ADD SWAP1 PUSH2 0x169 SWAP2 SWAP1 PUSH2 0x6DD JUMP JUMPDEST PUSH2 0x312 JUMP JUMPDEST PUSH1 0x40 MLOAD PUSH2 0x17B SWAP2 SWAP1 PUSH2 0x735 JUMP JUMPDEST PUSH1 0x40 MLOAD DUP1 SWAP2 SUB SWAP1 RETURN JUMPDEST CALLVALUE DUP1 ISZERO PUSH2 0x18F JUMPI PUSH0 PUSH0 REVERT JUMPDEST POP PUSH2 0x1AA PUSH1 0x4 DUP1 CALLDATASIZE SUB DUP2 ADD SWAP1 PUSH2 0x1A5 SWAP2 SWAP1 PUSH2 0x84F JUMP JUMPDEST PUSH2 0x3A0 JUMP JUMPDEST PUSH1 0x40 MLOAD PUSH2 0x1B7 SWAP2 SWAP1 PUSH2 0x889 JUMP JUMPDEST PUSH1 0x40 MLOAD DUP1 SWAP2 SUB SWAP1 RETURN JUMPDEST PUSH2 0x1DA PUSH1 0x4 DUP1 CALLDATASIZE SUB DUP2 ADD SWAP1 PUSH2 0x1D5 SWAP2 SWAP1 PUSH2 0x681 JUMP JUMPDEST PUSH2 0x3DA JUMP JUMPDEST STOP JUMPDEST CALLVALUE DUP1 ISZERO PUSH2 0x1E7 JUMPI PUSH0 PUSH0 REVERT JUMPDEST POP PUSH2 0x202 PUSH1 0x4 DUP1 CALLDATASIZE SUB DUP2 ADD SWAP1 PUSH2 0x1FD SWAP2 SWAP1 PUSH2 0x9DE JUMP JUMPDEST PUSH2 0x568 JUMP JUMPDEST STOP JUMPDEST PUSH1 0x1 PUSH1 0x20 MSTORE DUP1 PUSH0 MSTORE PUSH1 0x40 PUSH0 KECCAK256 PUSH0 SWAP2 POP SWAP1 POP SLOAD DUP2 JUMP JUMPDEST PUSH1 0x2 PUSH1 0x20 MSTORE DUP2 PUSH0 MSTORE PUSH1 0x40 PUSH0 KECCAK256 PUSH1 0x20 MSTORE DUP1 PUSH0 MSTORE PUSH1 0x40 PUSH0 KECCAK256 PUSH0 SWAP2 POP SWAP2 POP SWAP1 SLOAD SWAP1 PUSH2 0x100 EXP SWAP1 DIV PUSH1 0xFF AND DUP2 JUMP JUMPDEST PUSH1 0x60 PUSH0 DUP1 SLOAD DUP1 PUSH1 0x20 MUL PUSH1 0x20 ADD PUSH1 0x40 MLOAD SWAP1 DUP2 ADD PUSH1 0x40 MSTORE DUP1 SWAP3 SWAP2 SWAP1 DUP2 DUP2 MSTORE PUSH1 0x20 ADD DUP3 DUP1 SLOAD DUP1 ISZERO PUSH2 0x2C3 JUMPI PUSH1 0x20 MUL DUP3 ADD SWAP2 SWAP1 PUSH0 MSTORE PUSH1 0x20 PUSH0 KECCAK256 SWAP1 JUMPDEST DUP2 PUSH0 SWAP1 SLOAD SWAP1 PUSH2 0x100 EXP SWAP1 DIV PUSH20 0xFFFFFFFFFFFFFFFFFFFFFFFFFFFFFFFFFFFFFFFF AND PUSH20 0xFFFFFFFFFFFFFFFFFFFFFFFFFFFFFFFFFFFFFFFF AND DUP2 MSTORE PUSH1 0x20 ADD SWAP1 PUSH1 0x1 ADD SWAP1 DUP1 DUP4 GT PUSH2 0x27A JUMPI JUMPDEST POP POP POP POP POP SWAP1 POP SWAP1 JUMP JUMPDEST DUP1 PUSH1 0x1 PUSH0 CALLER PUSH20 0xFFFFFFFFFFFFFFFFFFFFFFFFFFFFFFFFFFFFFFFF AND PUSH20 0xFFFFFFFFFFFFFFFFFFFFFFFFFFFFFFFFFFFFFFFF AND DUP2 MSTORE PUSH1 0x20 ADD SWAP1 DUP2 MSTORE PUSH1 0x20 ADD PUSH0 KECCAK256 DUP2 SWAP1 SSTORE POP POP JUMP JUMPDEST PUSH0 PUSH1 0x2 PUSH0 DUP5 PUSH20 0xFFFFFFFFFFFFFFFFFFFFFFFFFFFFFFFFFFFFFFFF AND PUSH20 0xFFFFFFFFFFFFFFFFFFFFFFFFFFFFFFFFFFFFFFFF AND DUP2 MSTORE PUSH1 0x20 ADD SWAP1 DUP2 MSTORE PUSH1 0x20 ADD PUSH0 KECCAK256 PUSH0 DUP4 PUSH20 0xFFFFFFFFFFFFFFFFFFFFFFFFFFFFFFFFFFFFFFFF AND PUSH20 0xFFFFFFFFFFFFFFFFFFFFFFFFFFFFFFFFFFFFFFFF AND DUP2 MSTORE PUSH1 0x20 ADD SWAP1 DUP2 MSTORE PUSH1 0x20 ADD PUSH0 KECCAK256 PUSH0 SWAP1 SLOAD SWAP1 PUSH2 0x100 EXP SWAP1 DIV PUSH1 0xFF AND SWAP1 POP SWAP3 SWAP2 POP POP JUMP JUMPDEST PUSH0 DUP2 DUP2 SLOAD DUP2 LT PUSH2 0x3AE JUMPI PUSH0 DUP1 REVERT JUMPDEST SWAP1 PUSH0 MSTORE PUSH1 0x20 PUSH0 KECCAK256 ADD PUSH0 SWAP2 POP SLOAD SWAP1 PUSH2 0x100 EXP SWAP1 DIV PUSH20 0xFFFFFFFFFFFFFFFFFFFFFFFFFFFFFFFFFFFFFFFF AND DUP2 JUMP JUMPDEST PUSH0 PUSH1 0x1 PUSH0 DUP4 PUSH20 0xFFFFFFFFFFFFFFFFFFFFFFFFFFFFFFFFFFFFFFFF AND PUSH20 0xFFFFFFFFFFFFFFFFFFFFFFFFFFFFFFFFFFFFFFFF AND DUP2 MSTORE PUSH1 0x20 ADD SWAP1 DUP2 MSTORE PUSH1 0x20 ADD PUSH0 KECCAK256 SLOAD SWAP1 POP PUSH0 DUP2 GT PUSH2 0x45D JUMPI PUSH1 0x40 MLOAD PUSH32 0x8C379A000000000000000000000000000000000000000000000000000000000 DUP2 MSTORE PUSH1 0x4 ADD PUSH2 0x454 SWAP1 PUSH2 0xB02 JUMP JUMPDEST PUSH1 0x40 MLOAD DUP1 SWAP2 SUB SWAP1 REVERT JUMPDEST DUP1 CALLVALUE EQ PUSH2 0x49F JUMPI PUSH1 0x40 MLOAD PUSH32 0x8C379A000000000000000000000000000000000000000000000000000000000 DUP2 MSTORE PUSH1 0x4 ADD PUSH2 0x496 SWAP1 PUSH2 0xB6A JUMP JUMPDEST PUSH1 0x40 MLOAD DUP1 SWAP2 SUB SWAP1 REVERT JUMPDEST PUSH1 0x2 PUSH0 DUP4 PUSH20 0xFFFFFFFFFFFFFFFFFFFFFFFFFFFFFFFFFFFFFFFF AND PUSH20 0xFFFFFFFFFFFFFFFFFFFFFFFFFFFFFFFFFFFFFFFF AND DUP2 MSTORE PUSH1 0x20 ADD SWAP1 DUP2 MSTORE PUSH1 0x20 ADD PUSH0 KECCAK256 PUSH0 CALLER PUSH20 0xFFFFFFFFFFFFFFFFFFFFFFFFFFFFFFFFFFFFFFFF AND PUSH20 0xFFFFFFFFFFFFFFFFFFFFFFFFFFFFFFFFFFFFFFFF AND DUP2 MSTORE PUSH1 0x20 ADD SWAP1 DUP2 MSTORE PUSH1 0x20 ADD PUSH0 KECCAK256 PUSH0 SWAP1 SLOAD SWAP1 PUSH2 0x100 EXP SWAP1 DIV PUSH1 0xFF AND ISZERO PUSH2 0x564 JUMPI PUSH1 0x40 MLOAD PUSH32 0x8C379A000000000000000000000000000000000000000000000000000000000 DUP2 MSTORE PUSH1 0x4 ADD PUSH2 0x55B SWAP1 PUSH2 0xBD2 JUMP JUMPDEST PUSH1 0x40 MLOAD DUP1 SWAP2 SUB SWAP1 REVERT JUMPDEST POP POP JUMP JUMPDEST PUSH0 ADDRESS CALLER DUP6 DUP6 DUP6 PUSH1 0x40 MLOAD PUSH2 0x57A SWAP1 PUSH2 0x609 JUMP JUMPDEST PUSH2 0x588 SWAP6 SWAP5 SWAP4 SWAP3 SWAP2 SWAP1 PUSH2 0xC40 JUMP JUMPDEST PUSH1 0x40 MLOAD DUP1 SWAP2 SUB SWAP1 PUSH0 CREATE DUP1 ISZERO DUP1 ISZERO PUSH2 0x5A1 JUMPI RETURNDATASIZE PUSH0 PUSH0 RETURNDATACOPY RETURNDATASIZE PUSH0 REVERT JUMPDEST POP SWAP1 POP PUSH0 DUP2 SWAP1 DUP1 PUSH1 0x1 DUP2 SLOAD ADD DUP1 DUP3 SSTORE DUP1 SWAP2 POP POP PUSH1 0x1 SWAP1 SUB SWAP1 PUSH0 MSTORE PUSH1 0x20 PUSH0 KECCAK256 ADD PUSH0 SWAP1 SWAP2 SWAP1 SWAP2 SWAP1 SWAP2 PUSH2 0x100 EXP DUP2 SLOAD DUP2 PUSH20 0xFFFFFFFFFFFFFFFFFFFFFFFFFFFFFFFFFFFFFFFF MUL NOT AND SWAP1 DUP4 PUSH20 0xFFFFFFFFFFFFFFFFFFFFFFFFFFFFFFFFFFFFFFFF AND MUL OR SWAP1 SSTORE POP POP POP POP POP JUMP JUMPDEST PUSH2 0x1681 DUP1 PUSH2 0xCA7 DUP4 CODECOPY ADD SWAP1 JUMP JUMPDEST PUSH0 PUSH1 0x40 MLOAD SWAP1 POP SWAP1 JUMP JUMPDEST PUSH0 PUSH0 REVERT JUMPDEST PUSH0 PUSH0 REVERT JUMPDEST PUSH0 PUSH20 0xFFFFFFFFFFFFFFFFFFFFFFFFFFFFFFFFFFFFFFFF DUP3 AND SWAP1 POP SWAP2 SWAP1 POP JUMP JUMPDEST PUSH0 PUSH2 0x650 DUP3 PUSH2 0x627 JUMP JUMPDEST SWAP1 POP SWAP2 SWAP1 POP JUMP JUMPDEST PUSH2 0x660 DUP2 PUSH2 0x646 JUMP JUMPDEST DUP2 EQ PUSH2 0x66A JUMPI PUSH0 PUSH0 REVERT JUMPDEST POP JUMP JUMPDEST PUSH0 DUP2 CALLDATALOAD SWAP1 POP PUSH2 0x67B DUP2 PUSH2 0x657 JUMP JUMPDEST SWAP3 SWAP2 POP POP JUMP JUMPDEST PUSH0 PUSH1 0x20 DUP3 DUP5 SUB SLT ISZERO PUSH2 0x696 JUMPI PUSH2 0x695 PUSH2 0x61F JUMP JUMPDEST JUMPDEST PUSH0 PUSH2 0x6A3 DUP5 DUP3 DUP6 ADD PUSH2 0x66D JUMP JUMPDEST SWAP2 POP POP SWAP3 SWAP2 POP POP JUMP JUMPDEST PUSH0 DUP2 SWAP1 POP SWAP2 SWAP1 POP JUMP JUMPDEST PUSH2 0x6BE DUP2 PUSH2 0x6AC JUMP JUMPDEST DUP3 MSTORE POP POP JUMP JUMPDEST PUSH0 PUSH1 0x20 DUP3 ADD SWAP1 POP PUSH2 0x6D7 PUSH0 DUP4 ADD DUP5 PUSH2 0x6B5 JUMP JUMPDEST SWAP3 SWAP2 POP POP JUMP JUMPDEST PUSH0 PUSH0 PUSH1 0x40 DUP4 DUP6 SUB SLT ISZERO PUSH2 0x6F3 JUMPI PUSH2 0x6F2 PUSH2 0x61F JUMP JUMPDEST JUMPDEST PUSH0 PUSH2 0x700 DUP6 DUP3 DUP7 ADD PUSH2 0x66D JUMP JUMPDEST SWAP3 POP POP PUSH1 0x20 PUSH2 0x711 DUP6 DUP3 DUP7 ADD PUSH2 0x66D JUMP JUMPDEST SWAP2 POP POP SWAP3 POP SWAP3 SWAP1 POP JUMP JUMPDEST PUSH0 DUP2 ISZERO ISZERO SWAP1 POP SWAP2 SWAP1 POP JUMP JUMPDEST PUSH2 0x72F DUP2 PUSH2 0x71B JUMP JUMPDEST DUP3 MSTORE POP POP JUMP JUMPDEST PUSH0 PUSH1 0x20 DUP3 ADD SWAP1 POP PUSH2 0x748 PUSH0 DUP4 ADD DUP5 PUSH2 0x726 JUMP JUMPDEST SWAP3 SWAP2 POP POP JUMP JUMPDEST PUSH0 DUP2 MLOAD SWAP1 POP SWAP2 SWAP1 POP JUMP JUMPDEST PUSH0 DUP3 DUP3 MSTORE PUSH1 0x20 DUP3 ADD SWAP1 POP SWAP3 SWAP2 POP POP JUMP JUMPDEST PUSH0 DUP2 SWAP1 POP PUSH1 0x20 DUP3 ADD SWAP1 POP SWAP2 SWAP1 POP JUMP JUMPDEST PUSH2 0x780 DUP2 PUSH2 0x646 JUMP JUMPDEST DUP3 MSTORE POP POP JUMP JUMPDEST PUSH0 PUSH2 0x791 DUP4 DUP4 PUSH2 0x777 JUMP JUMPDEST PUSH1 0x20 DUP4 ADD SWAP1 POP SWAP3 SWAP2 POP POP JUMP JUMPDEST PUSH0 PUSH1 0x20 DUP3 ADD SWAP1 POP SWAP2 SWAP1 POP JUMP JUMPDEST PUSH0 PUSH2 0x7B3 DUP3 PUSH2 0x74E JUMP JUMPDEST PUSH2 0x7BD DUP2 DUP6 PUSH2 0x758 JUMP JUMPDEST SWAP4 POP PUSH2 0x7C8 DUP4 PUSH2 0x768 JUMP JUMPDEST DUP1 PUSH0 JUMPDEST DUP4 DUP2 LT ISZERO PUSH2 0x7F8 JUMPI DUP2 MLOAD PUSH2 0x7DF DUP9 DUP3 PUSH2 0x786 JUMP JUMPDEST SWAP8 POP PUSH2 0x7EA DUP4 PUSH2 0x79D JUMP JUMPDEST SWAP3 POP POP PUSH1 0x1 DUP2 ADD SWAP1 POP PUSH2 0x7CB JUMP JUMPDEST POP DUP6 SWAP4 POP POP POP POP SWAP3 SWAP2 POP POP JUMP JUMPDEST PUSH0 PUSH1 0x20 DUP3 ADD SWAP1 POP DUP2 DUP2 SUB PUSH0 DUP4 ADD MSTORE PUSH2 0x81D DUP2 DUP5 PUSH2 0x7A9 JUMP JUMPDEST SWAP1 POP SWAP3 SWAP2 POP POP JUMP JUMPDEST PUSH2 0x82E DUP2 PUSH2 0x6AC JUMP JUMPDEST DUP2 EQ PUSH2 0x838 JUMPI PUSH0 PUSH0 REVERT JUMPDEST POP JUMP JUMPDEST PUSH0 DUP2 CALLDATALOAD SWAP1 POP PUSH2 0x849 DUP2 PUSH2 0x825 JUMP JUMPDEST SWAP3 SWAP2 POP POP JUMP JUMPDEST PUSH0 PUSH1 0x20 DUP3 DUP5 SUB SLT ISZERO PUSH2 0x864 JUMPI PUSH2 0x863 PUSH2 0x61F JUMP JUMPDEST JUMPDEST PUSH0 PUSH2 0x871 DUP5 DUP3 DUP6 ADD PUSH2 0x83B JUMP JUMPDEST SWAP2 POP POP SWAP3 SWAP2 POP POP JUMP JUMPDEST PUSH2 0x883 DUP2 PUSH2 0x646 JUMP JUMPDEST DUP3 MSTORE POP POP JUMP JUMPDEST PUSH0 PUSH1 0x20 DUP3 ADD SWAP1 POP PUSH2 0x89C PUSH0 DUP4 ADD DUP5 PUSH2 0x87A JUMP JUMPDEST SWAP3 SWAP2 POP POP JUMP JUMPDEST PUSH0 PUSH0 REVERT JUMPDEST PUSH0 PUSH0 REVERT JUMPDEST PUSH0 PUSH1 0x1F NOT PUSH1 0x1F DUP4 ADD AND SWAP1 POP SWAP2 SWAP1 POP JUMP JUMPDEST PUSH32 0x4E487B7100000000000000000000000000000000000000000000000000000000 PUSH0 MSTORE PUSH1 0x41 PUSH1 0x4 MSTORE PUSH1 0x24 PUSH0 REVERT JUMPDEST PUSH2 0x8F0 DUP3 PUSH2 0x8AA JUMP JUMPDEST DUP2 ADD DUP2 DUP2 LT PUSH8 0xFFFFFFFFFFFFFFFF DUP3 GT OR ISZERO PUSH2 0x90F JUMPI PUSH2 0x90E PUSH2 0x8BA JUMP JUMPDEST JUMPDEST DUP1 PUSH1 0x40 MSTORE POP POP POP JUMP JUMPDEST PUSH0 PUSH2 0x921 PUSH2 0x616 JUMP JUMPDEST SWAP1 POP PUSH2 0x92D DUP3 DUP3 PUSH2 0x8E7 JUMP JUMPDEST SWAP2 SWAP1 POP JUMP JUMPDEST PUSH0 PUSH8 0xFFFFFFFFFFFFFFFF DUP3 GT ISZERO PUSH2 0x94C JUMPI PUSH2 0x94B PUSH2 0x8BA JUMP JUMPDEST JUMPDEST PUSH2 0x955 DUP3 PUSH2 0x8AA JUMP JUMPDEST SWAP1 POP PUSH1 0x20 DUP2 ADD SWAP1 POP SWAP2 SWAP1 POP JUMP JUMPDEST DUP3 DUP2 DUP4 CALLDATACOPY PUSH0 DUP4 DUP4 ADD MSTORE POP POP POP JUMP JUMPDEST PUSH0 PUSH2 0x982 PUSH2 0x97D DUP5 PUSH2 0x932 JUMP JUMPDEST PUSH2 0x918 JUMP JUMPDEST SWAP1 POP DUP3 DUP2 MSTORE PUSH1 0x20 DUP2 ADD DUP5 DUP5 DUP5 ADD GT ISZERO PUSH2 0x99E JUMPI PUSH2 0x99D PUSH2 0x8A6 JUMP JUMPDEST JUMPDEST PUSH2 0x9A9 DUP5 DUP3 DUP6 PUSH2 0x962 JUMP JUMPDEST POP SWAP4 SWAP3 POP POP POP JUMP JUMPDEST PUSH0 DUP3 PUSH1 0x1F DUP4 ADD SLT PUSH2 0x9C5 JUMPI PUSH2 0x9C4 PUSH2 0x8A2 JUMP JUMPDEST JUMPDEST DUP2 CALLDATALOAD PUSH2 0x9D5 DUP5 DUP3 PUSH1 0x20 DUP7 ADD PUSH2 0x970 JUMP JUMPDEST SWAP2 POP POP SWAP3 SWAP2 POP POP JUMP JUMPDEST PUSH0 PUSH0 PUSH0 PUSH1 0x60 DUP5 DUP7 SUB SLT ISZERO PUSH2 0x9F5 JUMPI PUSH2 0x9F4 PUSH2 0x61F JUMP JUMPDEST JUMPDEST PUSH0 DUP5 ADD CALLDATALOAD PUSH8 0xFFFFFFFFFFFFFFFF DUP2 GT ISZERO PUSH2 0xA12 JUMPI PUSH2 0xA11 PUSH2 0x623 JUMP JUMPDEST JUMPDEST PUSH2 0xA1E DUP7 DUP3 DUP8 ADD PUSH2 0x9B1 JUMP JUMPDEST SWAP4 POP POP PUSH1 0x20 DUP5 ADD CALLDATALOAD PUSH8 0xFFFFFFFFFFFFFFFF DUP2 GT ISZERO PUSH2 0xA3F JUMPI PUSH2 0xA3E PUSH2 0x623 JUMP JUMPDEST JUMPDEST PUSH2 0xA4B DUP7 DUP3 DUP8 ADD PUSH2 0x9B1 JUMP JUMPDEST SWAP3 POP POP PUSH1 0x40 DUP5 ADD CALLDATALOAD PUSH8 0xFFFFFFFFFFFFFFFF DUP2 GT ISZERO PUSH2 0xA6C JUMPI PUSH2 0xA6B PUSH2 0x623 JUMP JUMPDEST JUMPDEST PUSH2 0xA78 DUP7 DUP3 DUP8 ADD PUSH2 0x9B1 JUMP JUMPDEST SWAP2 POP POP SWAP3 POP SWAP3 POP SWAP3 JUMP JUMPDEST PUSH0 DUP3 DUP3 MSTORE PUSH1 0x20 DUP3 ADD SWAP1 POP SWAP3 SWAP2 POP POP JUMP JUMPDEST PUSH32 0x417574686F7220686173206E6F7420736574206120737562736372697074696F PUSH0 DUP3 ADD MSTORE PUSH32 0x6E20666565000000000000000000000000000000000000000000000000000000 PUSH1 0x20 DUP3 ADD MSTORE POP JUMP JUMPDEST PUSH0 PUSH2 0xAEC PUSH1 0x25 DUP4 PUSH2 0xA82 JUMP JUMPDEST SWAP2 POP PUSH2 0xAF7 DUP3 PUSH2 0xA92 JUMP JUMPDEST PUSH1 0x40 DUP3 ADD SWAP1 POP SWAP2 SWAP1 POP JUMP JUMPDEST PUSH0 PUSH1 0x20 DUP3 ADD SWAP1 POP DUP2 DUP2 SUB PUSH0 DUP4 ADD MSTORE PUSH2 0xB19 DUP2 PUSH2 0xAE0 JUMP JUMPDEST SWAP1 POP SWAP2 SWAP1 POP JUMP JUMPDEST PUSH32 0x496E636F727265637420737562736372697074696F6E206665652073656E7400 PUSH0 DUP3 ADD MSTORE POP JUMP JUMPDEST PUSH0 PUSH2 0xB54 PUSH1 0x1F DUP4 PUSH2 0xA82 JUMP JUMPDEST SWAP2 POP PUSH2 0xB5F DUP3 PUSH2 0xB20 JUMP JUMPDEST PUSH1 0x20 DUP3 ADD SWAP1 POP SWAP2 SWAP1 POP JUMP JUMPDEST PUSH0 PUSH1 0x20 DUP3 ADD SWAP1 POP DUP2 DUP2 SUB PUSH0 DUP4 ADD MSTORE PUSH2 0xB81 DUP2 PUSH2 0xB48 JUMP JUMPDEST SWAP1 POP SWAP2 SWAP1 POP JUMP JUMPDEST PUSH32 0x416C726561647920737562736372696265640000000000000000000000000000 PUSH0 DUP3 ADD MSTORE POP JUMP JUMPDEST PUSH0 PUSH2 0xBBC PUSH1 0x12 DUP4 PUSH2 0xA82 JUMP JUMPDEST SWAP2 POP PUSH2 0xBC7 DUP3 PUSH2 0xB88 JUMP JUMPDEST PUSH1 0x20 DUP3 ADD SWAP1 POP SWAP2 SWAP1 POP JUMP JUMPDEST PUSH0 PUSH1 0x20 DUP3 ADD SWAP1 POP DUP2 DUP2 SUB PUSH0 DUP4 ADD MSTORE PUSH2 0xBE9 DUP2 PUSH2 0xBB0 JUMP JUMPDEST SWAP1 POP SWAP2 SWAP1 POP JUMP JUMPDEST PUSH0 DUP2 MLOAD SWAP1 POP SWAP2 SWAP1 POP JUMP JUMPDEST DUP3 DUP2 DUP4 MCOPY PUSH0 DUP4 DUP4 ADD MSTORE POP POP POP JUMP JUMPDEST PUSH0 PUSH2 0xC12 DUP3 PUSH2 0xBF0 JUMP JUMPDEST PUSH2 0xC1C DUP2 DUP6 PUSH2 0xA82 JUMP JUMPDEST SWAP4 POP PUSH2 0xC2C DUP2 DUP6 PUSH1 0x20 DUP7 ADD PUSH2 0xBFA JUMP JUMPDEST PUSH2 0xC35 DUP2 PUSH2 0x8AA JUMP JUMPDEST DUP5 ADD SWAP2 POP POP SWAP3 SWAP2 POP POP JUMP JUMPDEST PUSH0 PUSH1 0xA0 DUP3 ADD SWAP1 POP PUSH2 0xC53 PUSH0 DUP4 ADD DUP9 PUSH2 0x87A JUMP JUMPDEST PUSH2 0xC60 PUSH1 0x20 DUP4 ADD DUP8 PUSH2 0x87A JUMP JUMPDEST DUP2 DUP2 SUB PUSH1 0x40 DUP4 ADD MSTORE PUSH2 0xC72 DUP2 DUP7 PUSH2 0xC08 JUMP JUMPDEST SWAP1 POP DUP2 DUP2 SUB PUSH1 0x60 DUP4 ADD MSTORE PUSH2 0xC86 DUP2 DUP6 PUSH2 0xC08 JUMP JUMPDEST SWAP1 POP DUP2 DUP2 SUB PUSH1 0x80 DUP4 ADD MSTORE PUSH2 0xC9A DUP2 DUP5 PUSH2 0xC08 JUMP JUMPDEST SWAP1 POP SWAP7 SWAP6 POP POP POP POP POP POP JUMP INVALID PUSH1 0x80 PUSH1 0x40 MSTORE CALLVALUE DUP1 ISZERO PUSH2 0xF JUMPI PUSH0 PUSH0 REVERT JUMPDEST POP PUSH1 0x40 MLOAD PUSH2 0x1681 CODESIZE SUB DUP1 PUSH2 0x1681 DUP4 CODECOPY DUP2 DUP2 ADD PUSH1 0x40 MSTORE DUP2 ADD SWAP1 PUSH2 0x31 SWAP2 SWAP1 PUSH2 0x291 JUMP JUMPDEST DUP5 PUSH0 PUSH0 PUSH2 0x100 EXP DUP2 SLOAD DUP2 PUSH20 0xFFFFFFFFFFFFFFFFFFFFFFFFFFFFFFFFFFFFFFFF MUL NOT AND SWAP1 DUP4 PUSH20 0xFFFFFFFFFFFFFFFFFFFFFFFFFFFFFFFFFFFFFFFF AND MUL OR SWAP1 SSTORE POP DUP4 PUSH1 0x1 PUSH0 PUSH2 0x100 EXP DUP2 SLOAD DUP2 PUSH20 0xFFFFFFFFFFFFFFFFFFFFFFFFFFFFFFFFFFFFFFFF MUL NOT AND SWAP1 DUP4 PUSH20 0xFFFFFFFFFFFFFFFFFFFFFFFFFFFFFFFFFFFFFFFF AND MUL OR SWAP1 SSTORE POP DUP3 PUSH1 0x2 SWAP1 DUP2 PUSH2 0xBF SWAP2 SWAP1 PUSH2 0x56C JUMP JUMPDEST POP DUP2 PUSH1 0x3 SWAP1 DUP2 PUSH2 0xCF SWAP2 SWAP1 PUSH2 0x56C JUMP JUMPDEST POP DUP1 PUSH1 0x4 SWAP1 DUP2 PUSH2 0xDF SWAP2 SWAP1 PUSH2 0x56C JUMP JUMPDEST POP POP POP POP POP POP PUSH2 0x63B JUMP JUMPDEST PUSH0 PUSH1 0x40 MLOAD SWAP1 POP SWAP1 JUMP JUMPDEST PUSH0 PUSH0 REVERT JUMPDEST PUSH0 PUSH0 REVERT JUMPDEST PUSH0 PUSH20 0xFFFFFFFFFFFFFFFFFFFFFFFFFFFFFFFFFFFFFFFF DUP3 AND SWAP1 POP SWAP2 SWAP1 POP JUMP JUMPDEST PUSH0 PUSH2 0x124 DUP3 PUSH2 0xFB JUMP JUMPDEST SWAP1 POP SWAP2 SWAP1 POP JUMP JUMPDEST PUSH2 0x134 DUP2 PUSH2 0x11A JUMP JUMPDEST DUP2 EQ PUSH2 0x13E JUMPI PUSH0 PUSH0 REVERT JUMPDEST POP JUMP JUMPDEST PUSH0 DUP2 MLOAD SWAP1 POP PUSH2 0x14F DUP2 PUSH2 0x12B JUMP JUMPDEST SWAP3 SWAP2 POP POP JUMP JUMPDEST PUSH0 PUSH0 REVERT JUMPDEST PUSH0 PUSH0 REVERT JUMPDEST PUSH0 PUSH1 0x1F NOT PUSH1 0x1F DUP4 ADD AND SWAP1 POP SWAP2 SWAP1 POP JUMP JUMPDEST PUSH32 0x4E487B7100000000000000000000000000000000000000000000000000000000 PUSH0 MSTORE PUSH1 0x41 PUSH1 0x4 MSTORE PUSH1 0x24 PUSH0 REVERT JUMPDEST PUSH2 0x1A3 DUP3 PUSH2 0x15D JUMP JUMPDEST DUP2 ADD DUP2 DUP2 LT PUSH8 0xFFFFFFFFFFFFFFFF DUP3 GT OR ISZERO PUSH2 0x1C2 JUMPI PUSH2 0x1C1 PUSH2 0x16D JUMP JUMPDEST JUMPDEST DUP1 PUSH1 0x40 MSTORE POP POP POP JUMP JUMPDEST PUSH0 PUSH2 0x1D4 PUSH2 0xEA JUMP JUMPDEST SWAP1 POP PUSH2 0x1E0 DUP3 DUP3 PUSH2 0x19A JUMP JUMPDEST SWAP2 SWAP1 POP JUMP JUMPDEST PUSH0 PUSH8 0xFFFFFFFFFFFFFFFF DUP3 GT ISZERO PUSH2 0x1FF JUMPI PUSH2 0x1FE PUSH2 0x16D JUMP JUMPDEST JUMPDEST PUSH2 0x208 DUP3 PUSH2 0x15D JUMP JUMPDEST SWAP1 POP PUSH1 0x20 DUP2 ADD SWAP1 POP SWAP2 SWAP1 POP JUMP JUMPDEST DUP3 DUP2 DUP4 MCOPY PUSH0 DUP4 DUP4 ADD MSTORE POP POP POP JUMP JUMPDEST PUSH0 PUSH2 0x235 PUSH2 0x230 DUP5 PUSH2 0x1E5 JUMP JUMPDEST PUSH2 0x1CB JUMP JUMPDEST SWAP1 POP DUP3 DUP2 MSTORE PUSH1 0x20 DUP2 ADD DUP5 DUP5 DUP5 ADD GT ISZERO PUSH2 0x251 JUMPI PUSH2 0x250 PUSH2 0x159 JUMP JUMPDEST JUMPDEST PUSH2 0x25C DUP5 DUP3 DUP6 PUSH2 0x215 JUMP JUMPDEST POP SWAP4 SWAP3 POP POP POP JUMP JUMPDEST PUSH0 DUP3 PUSH1 0x1F DUP4 ADD SLT PUSH2 0x278 JUMPI PUSH2 0x277 PUSH2 0x155 JUMP JUMPDEST JUMPDEST DUP2 MLOAD PUSH2 0x288 DUP5 DUP3 PUSH1 0x20 DUP7 ADD PUSH2 0x223 JUMP JUMPDEST SWAP2 POP POP SWAP3 SWAP2 POP POP JUMP JUMPDEST PUSH0 PUSH0 PUSH0 PUSH0 PUSH0 PUSH1 0xA0 DUP7 DUP9 SUB SLT ISZERO PUSH2 0x2AA JUMPI PUSH2 0x2A9 PUSH2 0xF3 JUMP JUMPDEST JUMPDEST PUSH0 PUSH2 0x2B7 DUP9 DUP3 DUP10 ADD PUSH2 0x141 JUMP JUMPDEST SWAP6 POP POP PUSH1 0x20 PUSH2 0x2C8 DUP9 DUP3 DUP10 ADD PUSH2 0x141 JUMP JUMPDEST SWAP5 POP POP PUSH1 0x40 DUP7 ADD MLOAD PUSH8 0xFFFFFFFFFFFFFFFF DUP2 GT ISZERO PUSH2 0x2E9 JUMPI PUSH2 0x2E8 PUSH2 0xF7 JUMP JUMPDEST JUMPDEST PUSH2 0x2F5 DUP9 DUP3 DUP10 ADD PUSH2 0x264 JUMP JUMPDEST SWAP4 POP POP PUSH1 0x60 DUP7 ADD MLOAD PUSH8 0xFFFFFFFFFFFFFFFF DUP2 GT ISZERO PUSH2 0x316 JUMPI PUSH2 0x315 PUSH2 0xF7 JUMP JUMPDEST JUMPDEST PUSH2 0x322 DUP9 DUP3 DUP10 ADD PUSH2 0x264 JUMP JUMPDEST SWAP3 POP POP PUSH1 0x80 DUP7 ADD MLOAD PUSH8 0xFFFFFFFFFFFFFFFF DUP2 GT ISZERO PUSH2 0x343 JUMPI PUSH2 0x342 PUSH2 0xF7 JUMP JUMPDEST JUMPDEST PUSH2 0x34F DUP9 DUP3 DUP10 ADD PUSH2 0x264 JUMP JUMPDEST SWAP2 POP POP SWAP3 SWAP6 POP SWAP3 SWAP6 SWAP1 SWAP4 POP JUMP JUMPDEST PUSH0 DUP2 MLOAD SWAP1 POP SWAP2 SWAP1 POP JUMP JUMPDEST PUSH32 0x4E487B7100000000000000000000000000000000000000000000000000000000 PUSH0 MSTORE PUSH1 0x22 PUSH1 0x4 MSTORE PUSH1 0x24 PUSH0 REVERT JUMPDEST PUSH0 PUSH1 0x2 DUP3 DIV SWAP1 POP PUSH1 0x1 DUP3 AND DUP1 PUSH2 0x3AA JUMPI PUSH1 0x7F DUP3 AND SWAP2 POP JUMPDEST PUSH1 0x20 DUP3 LT DUP2 SUB PUSH2 0x3BD JUMPI PUSH2 0x3BC PUSH2 0x366 JUMP JUMPDEST JUMPDEST POP SWAP2 SWAP1 POP JUMP JUMPDEST PUSH0 DUP2 SWAP1 POP DUP2 PUSH0 MSTORE PUSH1 0x20 PUSH0 KECCAK256 SWAP1 POP SWAP2 SWAP1 POP JUMP JUMPDEST PUSH0 PUSH1 0x20 PUSH1 0x1F DUP4 ADD DIV SWAP1 POP SWAP2 SWAP1 POP JUMP JUMPDEST PUSH0 DUP3 DUP3 SHL SWAP1 POP SWAP3 SWAP2 POP POP JUMP JUMPDEST PUSH0 PUSH1 0x8 DUP4 MUL PUSH2 0x41F PUSH32 0xFFFFFFFFFFFFFFFFFFFFFFFFFFFFFFFFFFFFFFFFFFFFFFFFFFFFFFFFFFFFFFFF DUP3 PUSH2 0x3E4 JUMP JUMPDEST PUSH2 0x429 DUP7 DUP4 PUSH2 0x3E4 JUMP JUMPDEST SWAP6 POP DUP1 NOT DUP5 AND SWAP4 POP DUP1 DUP7 AND DUP5 OR SWAP3 POP POP POP SWAP4 SWAP3 POP POP POP JUMP JUMPDEST PUSH0 DUP2 SWAP1 POP SWAP2 SWAP1 POP JUMP JUMPDEST PUSH0 DUP2 SWAP1 POP SWAP2 SWAP1 POP JUMP JUMPDEST PUSH0 PUSH2 0x46D PUSH2 0x468 PUSH2 0x463 DUP5 PUSH2 0x441 JUMP JUMPDEST PUSH2 0x44A JUMP JUMPDEST PUSH2 0x441 JUMP JUMPDEST SWAP1 POP SWAP2 SWAP1 POP JUMP JUMPDEST PUSH0 DUP2 SWAP1 POP SWAP2 SWAP1 POP JUMP JUMPDEST PUSH2 0x486 DUP4 PUSH2 0x453 JUMP JUMPDEST PUSH2 0x49A PUSH2 0x492 DUP3 PUSH2 0x474 JUMP JUMPDEST DUP5 DUP5 SLOAD PUSH2 0x3F0 JUMP JUMPDEST DUP3 SSTORE POP POP POP POP JUMP JUMPDEST PUSH0 PUSH0 SWAP1 POP SWAP1 JUMP JUMPDEST PUSH2 0x4B1 PUSH2 0x4A2 JUMP JUMPDEST PUSH2 0x4BC DUP2 DUP5 DUP5 PUSH2 0x47D JUMP JUMPDEST POP POP POP JUMP JUMPDEST JUMPDEST DUP2 DUP2 LT ISZERO PUSH2 0x4DF JUMPI PUSH2 0x4D4 PUSH0 DUP3 PUSH2 0x4A9 JUMP JUMPDEST PUSH1 0x1 DUP2 ADD SWAP1 POP PUSH2 0x4C2 JUMP JUMPDEST POP POP JUMP JUMPDEST PUSH1 0x1F DUP3 GT ISZERO PUSH2 0x524 JUMPI PUSH2 0x4F5 DUP2 PUSH2 0x3C3 JUMP JUMPDEST PUSH2 0x4FE DUP5 PUSH2 0x3D5 JUMP JUMPDEST DUP2 ADD PUSH1 0x20 DUP6 LT ISZERO PUSH2 0x50D JUMPI DUP2 SWAP1 POP JUMPDEST PUSH2 0x521 PUSH2 0x519 DUP6 PUSH2 0x3D5 JUMP JUMPDEST DUP4 ADD DUP3 PUSH2 0x4C1 JUMP JUMPDEST POP POP JUMPDEST POP POP POP JUMP JUMPDEST PUSH0 DUP3 DUP3 SHR SWAP1 POP SWAP3 SWAP2 POP POP JUMP JUMPDEST PUSH0 PUSH2 0x544 PUSH0 NOT DUP5 PUSH1 0x8 MUL PUSH2 0x529 JUMP JUMPDEST NOT DUP1 DUP4 AND SWAP2 POP POP SWAP3 SWAP2 POP POP JUMP JUMPDEST PUSH0 PUSH2 0x55C DUP4 DUP4 PUSH2 0x535 JUMP JUMPDEST SWAP2 POP DUP3 PUSH1 0x2 MUL DUP3 OR SWAP1 POP SWAP3 SWAP2 POP POP JUMP JUMPDEST PUSH2 0x575 DUP3 PUSH2 0x35C JUMP JUMPDEST PUSH8 0xFFFFFFFFFFFFFFFF DUP2 GT ISZERO PUSH2 0x58E JUMPI PUSH2 0x58D PUSH2 0x16D JUMP JUMPDEST JUMPDEST PUSH2 0x598 DUP3 SLOAD PUSH2 0x393 JUMP JUMPDEST PUSH2 0x5A3 DUP3 DUP3 DUP6 PUSH2 0x4E3 JUMP JUMPDEST PUSH0 PUSH1 0x20 SWAP1 POP PUSH1 0x1F DUP4 GT PUSH1 0x1 DUP2 EQ PUSH2 0x5D4 JUMPI PUSH0 DUP5 ISZERO PUSH2 0x5C2 JUMPI DUP3 DUP8 ADD MLOAD SWAP1 POP JUMPDEST PUSH2 0x5CC DUP6 DUP3 PUSH2 0x551 JUMP JUMPDEST DUP7 SSTORE POP PUSH2 0x633 JUMP JUMPDEST PUSH1 0x1F NOT DUP5 AND PUSH2 0x5E2 DUP7 PUSH2 0x3C3 JUMP JUMPDEST PUSH0 JUMPDEST DUP3 DUP2 LT ISZERO PUSH2 0x609 JUMPI DUP5 DUP10 ADD MLOAD DUP3 SSTORE PUSH1 0x1 DUP3 ADD SWAP2 POP PUSH1 0x20 DUP6 ADD SWAP5 POP PUSH1 0x20 DUP2 ADD SWAP1 POP PUSH2 0x5E4 JUMP JUMPDEST DUP7 DUP4 LT ISZERO PUSH2 0x626 JUMPI DUP5 DUP10 ADD MLOAD PUSH2 0x622 PUSH1 0x1F DUP10 AND DUP3 PUSH2 0x535 JUMP JUMPDEST DUP4 SSTORE POP JUMPDEST PUSH1 0x1 PUSH1 0x2 DUP9 MUL ADD DUP9 SSTORE POP POP POP JUMPDEST POP POP POP POP POP POP JUMP JUMPDEST PUSH2 0x1039 DUP1 PUSH2 0x648 PUSH0 CODECOPY PUSH0 RETURN INVALID PUSH1 0x80 PUSH1 0x40 MSTORE CALLVALUE DUP1 ISZERO PUSH2 0xF JUMPI PUSH0 PUSH0 REVERT JUMPDEST POP PUSH1 0x4 CALLDATASIZE LT PUSH2 0x7B JUMPI PUSH0 CALLDATALOAD PUSH1 0xE0 SHR DUP1 PUSH4 0x5E8AE07D GT PUSH2 0x59 JUMPI DUP1 PUSH4 0x5E8AE07D EQ PUSH2 0xD7 JUMPI DUP1 PUSH4 0x8C8A2ADC EQ PUSH2 0xF8 JUMPI DUP1 PUSH4 0xC46B0B14 EQ PUSH2 0x119 JUMPI DUP1 PUSH4 0xE8A25269 EQ PUSH2 0x137 JUMPI PUSH2 0x7B JUMP JUMPDEST DUP1 PUSH4 0x15ECD356 EQ PUSH2 0x7F JUMPI DUP1 PUSH4 0x26942BF0 EQ PUSH2 0x9B JUMPI DUP1 PUSH4 0x42F40C21 EQ PUSH2 0xB9 JUMPI JUMPDEST PUSH0 PUSH0 REVERT JUMPDEST PUSH2 0x99 PUSH1 0x4 DUP1 CALLDATASIZE SUB DUP2 ADD SWAP1 PUSH2 0x94 SWAP2 SWAP1 PUSH2 0x9DD JUMP JUMPDEST PUSH2 0x155 JUMP JUMPDEST STOP JUMPDEST PUSH2 0xA3 PUSH2 0x219 JUMP JUMPDEST PUSH1 0x40 MLOAD PUSH2 0xB0 SWAP2 SWAP1 PUSH2 0xAE1 JUMP JUMPDEST PUSH1 0x40 MLOAD DUP1 SWAP2 SUB SWAP1 RETURN JUMPDEST PUSH2 0xC1 PUSH2 0x2A5 JUMP JUMPDEST PUSH1 0x40 MLOAD PUSH2 0xCE SWAP2 SWAP1 PUSH2 0xAE1 JUMP JUMPDEST PUSH1 0x40 MLOAD DUP1 SWAP2 SUB SWAP1 RETURN JUMPDEST PUSH2 0xDF PUSH2 0x331 JUMP JUMPDEST PUSH1 0x40 MLOAD PUSH2 0xEF SWAP5 SWAP4 SWAP3 SWAP2 SWAP1 PUSH2 0xB40 JUMP JUMPDEST PUSH1 0x40 MLOAD DUP1 SWAP2 SUB SWAP1 RETURN JUMPDEST PUSH2 0x100 PUSH2 0x50B JUMP JUMPDEST PUSH1 0x40 MLOAD PUSH2 0x110 SWAP5 SWAP4 SWAP3 SWAP2 SWAP1 PUSH2 0xB40 JUMP JUMPDEST PUSH1 0x40 MLOAD DUP1 SWAP2 SUB SWAP1 RETURN JUMPDEST PUSH2 0x121 PUSH2 0x7DF JUMP JUMPDEST PUSH1 0x40 MLOAD PUSH2 0x12E SWAP2 SWAP1 PUSH2 0xB98 JUMP JUMPDEST PUSH1 0x40 MLOAD DUP1 SWAP2 SUB SWAP1 RETURN JUMPDEST PUSH2 0x13F PUSH2 0x804 JUMP JUMPDEST PUSH1 0x40 MLOAD PUSH2 0x14C SWAP2 SWAP1 PUSH2 0xAE1 JUMP JUMPDEST PUSH1 0x40 MLOAD DUP1 SWAP2 SUB SWAP1 RETURN JUMPDEST PUSH1 0x1 PUSH0 SWAP1 SLOAD SWAP1 PUSH2 0x100 EXP SWAP1 DIV PUSH20 0xFFFFFFFFFFFFFFFFFFFFFFFFFFFFFFFFFFFFFFFF AND PUSH20 0xFFFFFFFFFFFFFFFFFFFFFFFFFFFFFFFFFFFFFFFF AND CALLER PUSH20 0xFFFFFFFFFFFFFFFFFFFFFFFFFFFFFFFFFFFFFFFF AND EQ PUSH2 0x1E4 JUMPI PUSH1 0x40 MLOAD PUSH32 0x8C379A000000000000000000000000000000000000000000000000000000000 DUP2 MSTORE PUSH1 0x4 ADD PUSH2 0x1DB SWAP1 PUSH2 0xBFB JUMP JUMPDEST PUSH1 0x40 MLOAD DUP1 SWAP2 SUB SWAP1 REVERT JUMPDEST DUP3 PUSH1 0x2 SWAP1 DUP2 PUSH2 0x1F3 SWAP2 SWAP1 PUSH2 0xE1F JUMP JUMPDEST POP DUP2 PUSH1 0x3 SWAP1 DUP2 PUSH2 0x203 SWAP2 SWAP1 PUSH2 0xE1F JUMP JUMPDEST POP DUP1 PUSH1 0x4 SWAP1 DUP2 PUSH2 0x213 SWAP2 SWAP1 PUSH2 0xE1F JUMP JUMPDEST POP POP POP POP JUMP JUMPDEST PUSH1 0x4 DUP1 SLOAD PUSH2 0x226 SWAP1 PUSH2 0xC46 JUMP JUMPDEST DUP1 PUSH1 0x1F ADD PUSH1 0x20 DUP1 SWAP2 DIV MUL PUSH1 0x20 ADD PUSH1 0x40 MLOAD SWAP1 DUP2 ADD PUSH1 0x40 MSTORE DUP1 SWAP3 SWAP2 SWAP1 DUP2 DUP2 MSTORE PUSH1 0x20 ADD DUP3 DUP1 SLOAD PUSH2 0x252 SWAP1 PUSH2 0xC46 JUMP JUMPDEST DUP1 ISZERO PUSH2 0x29D JUMPI DUP1 PUSH1 0x1F LT PUSH2 0x274 JUMPI PUSH2 0x100 DUP1 DUP4 SLOAD DIV MUL DUP4 MSTORE SWAP2 PUSH1 0x20 ADD SWAP2 PUSH2 0x29D JUMP JUMPDEST DUP3 ADD SWAP2 SWAP1 PUSH0 MSTORE PUSH1 0x20 PUSH0 KECCAK256 SWAP1 JUMPDEST DUP2 SLOAD DUP2 MSTORE SWAP1 PUSH1 0x1 ADD SWAP1 PUSH1 0x20 ADD DUP1 DUP4 GT PUSH2 0x280 JUMPI DUP3 SWAP1 SUB PUSH1 0x1F AND DUP3 ADD SWAP2 JUMPDEST POP POP POP POP POP DUP2 JUMP JUMPDEST PUSH1 0x3 DUP1 SLOAD PUSH2 0x2B2 SWAP1 PUSH2 0xC46 JUMP JUMPDEST DUP1 PUSH1 0x1F ADD PUSH1 0x20 DUP1 SWAP2 DIV MUL PUSH1 0x20 ADD PUSH1 0x40 MLOAD SWAP1 DUP2 ADD PUSH1 0x40 MSTORE DUP1 SWAP3 SWAP2 SWAP1 DUP2 DUP2 MSTORE PUSH1 0x20 ADD DUP3 DUP1 SLOAD PUSH2 0x2DE SWAP1 PUSH2 0xC46 JUMP JUMPDEST DUP1 ISZERO PUSH2 0x329 JUMPI DUP1 PUSH1 0x1F LT PUSH2 0x300 JUMPI PUSH2 0x100 DUP1 DUP4 SLOAD DIV MUL DUP4 MSTORE SWAP2 PUSH1 0x20 ADD SWAP2 PUSH2 0x329 JUMP JUMPDEST DUP3 ADD SWAP2 SWAP1 PUSH0 MSTORE PUSH1 0x20 PUSH0 KECCAK256 SWAP1 JUMPDEST DUP2 SLOAD DUP2 MSTORE SWAP1 PUSH1 0x1 ADD SWAP1 PUSH1 0x20 ADD DUP1 DUP4 GT PUSH2 0x30C JUMPI DUP3 SWAP1 SUB PUSH1 0x1F AND DUP3 ADD SWAP2 JUMPDEST POP POP POP POP POP DUP2 JUMP JUMPDEST PUSH0 PUSH1 0x60 DUP1 PUSH1 0x60 PUSH1 0x1 PUSH0 SWAP1 SLOAD SWAP1 PUSH2 0x100 EXP SWAP1 DIV PUSH20 0xFFFFFFFFFFFFFFFFFFFFFFFFFFFFFFFFFFFFFFFF AND PUSH1 0x2 PUSH1 0x3 PUSH1 0x4 DUP3 DUP1 SLOAD PUSH2 0x36B SWAP1 PUSH2 0xC46 JUMP JUMPDEST DUP1 PUSH1 0x1F ADD PUSH1 0x20 DUP1 SWAP2 DIV MUL PUSH1 0x20 ADD PUSH1 0x40 MLOAD SWAP1 DUP2 ADD PUSH1 0x40 MSTORE DUP1 SWAP3 SWAP2 SWAP1 DUP2 DUP2 MSTORE PUSH1 0x20 ADD DUP3 DUP1 SLOAD PUSH2 0x397 SWAP1 PUSH2 0xC46 JUMP JUMPDEST DUP1 ISZERO PUSH2 0x3E2 JUMPI DUP1 PUSH1 0x1F LT PUSH2 0x3B9 JUMPI PUSH2 0x100 DUP1 DUP4 SLOAD DIV MUL DUP4 MSTORE SWAP2 PUSH1 0x20 ADD SWAP2 PUSH2 0x3E2 JUMP JUMPDEST DUP3 ADD SWAP2 SWAP1 PUSH0 MSTORE PUSH1 0x20 PUSH0 KECCAK256 SWAP1 JUMPDEST DUP2 SLOAD DUP2 MSTORE SWAP1 PUSH1 0x1 ADD SWAP1 PUSH1 0x20 ADD DUP1 DUP4 GT PUSH2 0x3C5 JUMPI DUP3 SWAP1 SUB PUSH1 0x1F AND DUP3 ADD SWAP2 JUMPDEST POP POP POP POP POP SWAP3 POP DUP2 DUP1 SLOAD PUSH2 0x3F5 SWAP1 PUSH2 0xC46 JUMP JUMPDEST DUP1 PUSH1 0x1F ADD PUSH1 0x20 DUP1 SWAP2 DIV MUL PUSH1 0x20 ADD PUSH1 0x40 MLOAD SWAP1 DUP2 ADD PUSH1 0x40 MSTORE DUP1 SWAP3 SWAP2 SWAP1 DUP2 DUP2 MSTORE PUSH1 0x20 ADD DUP3 DUP1 SLOAD PUSH2 0x421 SWAP1 PUSH2 0xC46 JUMP JUMPDEST DUP1 ISZERO PUSH2 0x46C JUMPI DUP1 PUSH1 0x1F LT PUSH2 0x443 JUMPI PUSH2 0x100 DUP1 DUP4 SLOAD DIV MUL DUP4 MSTORE SWAP2 PUSH1 0x20 ADD SWAP2 PUSH2 0x46C JUMP JUMPDEST DUP3 ADD SWAP2 SWAP1 PUSH0 MSTORE PUSH1 0x20 PUSH0 KECCAK256 SWAP1 JUMPDEST DUP2 SLOAD DUP2 MSTORE SWAP1 PUSH1 0x1 ADD SWAP1 PUSH1 0x20 ADD DUP1 DUP4 GT PUSH2 0x44F JUMPI DUP3 SWAP1 SUB PUSH1 0x1F AND DUP3 ADD SWAP2 JUMPDEST POP POP POP POP POP SWAP2 POP DUP1 DUP1 SLOAD PUSH2 0x47F SWAP1 PUSH2 0xC46 JUMP JUMPDEST DUP1 PUSH1 0x1F ADD PUSH1 0x20 DUP1 SWAP2 DIV MUL PUSH1 0x20 ADD PUSH1 0x40 MLOAD SWAP1 DUP2 ADD PUSH1 0x40 MSTORE DUP1 SWAP3 SWAP2 SWAP1 DUP2 DUP2 MSTORE PUSH1 0x20 ADD DUP3 DUP1 SLOAD PUSH2 0x4AB SWAP1 PUSH2 0xC46 JUMP JUMPDEST DUP1 ISZERO PUSH2 0x4F6 JUMPI DUP1 PUSH1 0x1F LT PUSH2 0x4CD JUMPI PUSH2 0x100 DUP1 DUP4 SLOAD DIV MUL DUP4 MSTORE SWAP2 PUSH1 0x20 ADD SWAP2 PUSH2 0x4F6 JUMP JUMPDEST DUP3 ADD SWAP2 SWAP1 PUSH0 MSTORE PUSH1 0x20 PUSH0 KECCAK256 SWAP1 JUMPDEST DUP2 SLOAD DUP2 MSTORE SWAP1 PUSH1 0x1 ADD SWAP1 PUSH1 0x20 ADD DUP1 DUP4 GT PUSH2 0x4D9 JUMPI DUP3 SWAP1 SUB PUSH1 0x1F AND DUP3 ADD SWAP2 JUMPDEST POP POP POP POP POP SWAP1 POP SWAP4 POP SWAP4 POP SWAP4 POP SWAP4 POP SWAP1 SWAP2 SWAP3 SWAP4 JUMP JUMPDEST PUSH0 PUSH1 0x60 DUP1 PUSH1 0x60 PUSH0 PUSH0 SWAP1 SLOAD SWAP1 PUSH2 0x100 EXP SWAP1 DIV PUSH20 0xFFFFFFFFFFFFFFFFFFFFFFFFFFFFFFFFFFFFFFFF AND PUSH20 0xFFFFFFFFFFFFFFFFFFFFFFFFFFFFFFFFFFFFFFFF AND PUSH4 0x85D481F3 PUSH1 0x1 PUSH0 SWAP1 SLOAD SWAP1 PUSH2 0x100 EXP SWAP1 DIV PUSH20 0xFFFFFFFFFFFFFFFFFFFFFFFFFFFFFFFFFFFFFFFF AND CALLER PUSH1 0x40 MLOAD DUP4 PUSH4 0xFFFFFFFF AND PUSH1 0xE0 SHL DUP2 MSTORE PUSH1 0x4 ADD PUSH2 0x58D SWAP3 SWAP2 SWAP1 PUSH2 0xEEE JUMP JUMPDEST PUSH1 0x20 PUSH1 0x40 MLOAD DUP1 DUP4 SUB DUP2 DUP7 GAS STATICCALL ISZERO DUP1 ISZERO PUSH2 0x5A8 JUMPI RETURNDATASIZE PUSH0 PUSH0 RETURNDATACOPY RETURNDATASIZE PUSH0 REVERT JUMPDEST POP POP POP POP PUSH1 0x40 MLOAD RETURNDATASIZE PUSH1 0x1F NOT PUSH1 0x1F DUP3 ADD AND DUP3 ADD DUP1 PUSH1 0x40 MSTORE POP DUP2 ADD SWAP1 PUSH2 0x5CC SWAP2 SWAP1 PUSH2 0xF4A JUMP JUMPDEST PUSH2 0x60B JUMPI PUSH1 0x40 MLOAD PUSH32 0x8C379A000000000000000000000000000000000000000000000000000000000 DUP2 MSTORE PUSH1 0x4 ADD PUSH2 0x602 SWAP1 PUSH2 0xFE5 JUMP JUMPDEST PUSH1 0x40 MLOAD DUP1 SWAP2 SUB SWAP1 REVERT JUMPDEST PUSH1 0x1 PUSH0 SWAP1 SLOAD SWAP1 PUSH2 0x100 EXP SWAP1 DIV PUSH20 0xFFFFFFFFFFFFFFFFFFFFFFFFFFFFFFFFFFFFFFFF AND PUSH1 0x2 PUSH1 0x3 PUSH1 0x4 DUP3 DUP1 SLOAD PUSH2 0x63F SWAP1 PUSH2 0xC46 JUMP JUMPDEST DUP1 PUSH1 0x1F ADD PUSH1 0x20 DUP1 SWAP2 DIV MUL PUSH1 0x20 ADD PUSH1 0x40 MLOAD SWAP1 DUP2 ADD PUSH1 0x40 MSTORE DUP1 SWAP3 SWAP2 SWAP1 DUP2 DUP2 MSTORE PUSH1 0x20 ADD DUP3 DUP1 SLOAD PUSH2 0x66B SWAP1 PUSH2 0xC46 JUMP JUMPDEST DUP1 ISZERO PUSH2 0x6B6 JUMPI DUP1 PUSH1 0x1F LT PUSH2 0x68D JUMPI PUSH2 0x100 DUP1 DUP4 SLOAD DIV MUL DUP4 MSTORE SWAP2 PUSH1 0x20 ADD SWAP2 PUSH2 0x6B6 JUMP JUMPDEST DUP3 ADD SWAP2 SWAP1 PUSH0 MSTORE PUSH1 0x20 PUSH0 KECCAK256 SWAP1 JUMPDEST DUP2 SLOAD DUP2 MSTORE SWAP1 PUSH1 0x1 ADD SWAP1 PUSH1 0x20 ADD DUP1 DUP4 GT PUSH2 0x699 JUMPI DUP3 SWAP1 SUB PUSH1 0x1F AND DUP3 ADD SWAP2 JUMPDEST POP POP POP POP POP SWAP3 POP DUP2 DUP1 SLOAD PUSH2 0x6C9 SWAP1 PUSH2 0xC46 JUMP JUMPDEST DUP1 PUSH1 0x1F ADD PUSH1 0x20 DUP1 SWAP2 DIV MUL PUSH1 0x20 ADD PUSH1 0x40 MLOAD SWAP1 DUP2 ADD PUSH1 0x40 MSTORE DUP1 SWAP3 SWAP2 SWAP1 DUP2 DUP2 MSTORE PUSH1 0x20 ADD DUP3 DUP1 SLOAD PUSH2 0x6F5 SWAP1 PUSH2 0xC46 JUMP JUMPDEST DUP1 ISZERO PUSH2 0x740 JUMPI DUP1 PUSH1 0x1F LT PUSH2 0x717 JUMPI PUSH2 0x100 DUP1 DUP4 SLOAD DIV MUL DUP4 MSTORE SWAP2 PUSH1 0x20 ADD SWAP2 PUSH2 0x740 JUMP JUMPDEST DUP3 ADD SWAP2 SWAP1 PUSH0 MSTORE PUSH1 0x20 PUSH0 KECCAK256 SWAP1 JUMPDEST DUP2 SLOAD DUP2 MSTORE SWAP1 PUSH1 0x1 ADD SWAP1 PUSH1 0x20 ADD DUP1 DUP4 GT PUSH2 0x723 JUMPI DUP3 SWAP1 SUB PUSH1 0x1F AND DUP3 ADD SWAP2 JUMPDEST POP POP POP POP POP SWAP2 POP DUP1 DUP1 SLOAD PUSH2 0x753 SWAP1 PUSH2 0xC46 JUMP JUMPDEST DUP1 PUSH1 0x1F ADD PUSH1 0x20 DUP1 SWAP2 DIV MUL PUSH1 0x20 ADD PUSH1 0x40 MLOAD SWAP1 DUP2 ADD PUSH1 0x40 MSTORE DUP1 SWAP3 SWAP2 SWAP1 DUP2 DUP2 MSTORE PUSH1 0x20 ADD DUP3 DUP1 SLOAD PUSH2 0x77F SWAP1 PUSH2 0xC46 JUMP JUMPDEST DUP1 ISZERO PUSH2 0x7CA JUMPI DUP1 PUSH1 0x1F LT PUSH2 0x7A1 JUMPI PUSH2 0x100 DUP1 DUP4 SLOAD DIV MUL DUP4 MSTORE SWAP2 PUSH1 0x20 ADD SWAP2 PUSH2 0x7CA JUMP JUMPDEST DUP3 ADD SWAP2 SWAP1 PUSH0 MSTORE PUSH1 0x20 PUSH0 KECCAK256 SWAP1 JUMPDEST DUP2 SLOAD DUP2 MSTORE SWAP1 PUSH1 0x1 ADD SWAP1 PUSH1 0x20 ADD DUP1 DUP4 GT PUSH2 0x7AD JUMPI DUP3 SWAP1 SUB PUSH1 0x1F AND DUP3 ADD SWAP2 JUMPDEST POP POP POP POP POP SWAP1 POP SWAP4 POP SWAP4 POP SWAP4 POP SWAP4 POP SWAP1 SWAP2 SWAP3 SWAP4 JUMP JUMPDEST PUSH1 0x1 PUSH0 SWAP1 SLOAD SWAP1 PUSH2 0x100 EXP SWAP1 DIV PUSH20 0xFFFFFFFFFFFFFFFFFFFFFFFFFFFFFFFFFFFFFFFF AND DUP2 JUMP JUMPDEST PUSH1 0x2 DUP1 SLOAD PUSH2 0x811 SWAP1 PUSH2 0xC46 JUMP JUMPDEST DUP1 PUSH1 0x1F ADD PUSH1 0x20 DUP1 SWAP2 DIV MUL PUSH1 0x20 ADD PUSH1 0x40 MLOAD SWAP1 DUP2 ADD PUSH1 0x40 MSTORE DUP1 SWAP3 SWAP2 SWAP1 DUP2 DUP2 MSTORE PUSH1 0x20 ADD DUP3 DUP1 SLOAD PUSH2 0x83D SWAP1 PUSH2 0xC46 JUMP JUMPDEST DUP1 ISZERO PUSH2 0x888 JUMPI DUP1 PUSH1 0x1F LT PUSH2 0x85F JUMPI PUSH2 0x100 DUP1 DUP4 SLOAD DIV MUL DUP4 MSTORE SWAP2 PUSH1 0x20 ADD SWAP2 PUSH2 0x888 JUMP JUMPDEST DUP3 ADD SWAP2 SWAP1 PUSH0 MSTORE PUSH1 0x20 PUSH0 KECCAK256 SWAP1 JUMPDEST DUP2 SLOAD DUP2 MSTORE SWAP1 PUSH1 0x1 ADD SWAP1 PUSH1 0x20 ADD DUP1 DUP4 GT PUSH2 0x86B JUMPI DUP3 SWAP1 SUB PUSH1 0x1F AND DUP3 ADD SWAP2 JUMPDEST POP POP POP POP POP DUP2 JUMP JUMPDEST PUSH0 PUSH1 0x40 MLOAD SWAP1 POP SWAP1 JUMP JUMPDEST PUSH0 PUSH0 REVERT JUMPDEST PUSH0 PUSH0 REVERT JUMPDEST PUSH0 PUSH0 REVERT JUMPDEST PUSH0 PUSH0 REVERT JUMPDEST PUSH0 PUSH1 0x1F NOT PUSH1 0x1F DUP4 ADD AND SWAP1 POP SWAP2 SWAP1 POP JUMP JUMPDEST PUSH32 0x4E487B7100000000000000000000000000000000000000000000000000000000 PUSH0 MSTORE PUSH1 0x41 PUSH1 0x4 MSTORE PUSH1 0x24 PUSH0 REVERT JUMPDEST PUSH2 0x8EF DUP3 PUSH2 0x8A9 JUMP JUMPDEST DUP2 ADD DUP2 DUP2 LT PUSH8 0xFFFFFFFFFFFFFFFF DUP3 GT OR ISZERO PUSH2 0x90E JUMPI PUSH2 0x90D PUSH2 0x8B9 JUMP JUMPDEST JUMPDEST DUP1 PUSH1 0x40 MSTORE POP POP POP JUMP JUMPDEST PUSH0 PUSH2 0x920 PUSH2 0x890 JUMP JUMPDEST SWAP1 POP PUSH2 0x92C DUP3 DUP3 PUSH2 0x8E6 JUMP JUMPDEST SWAP2 SWAP1 POP JUMP JUMPDEST PUSH0 PUSH8 0xFFFFFFFFFFFFFFFF DUP3 GT ISZERO PUSH2 0x94B JUMPI PUSH2 0x94A PUSH2 0x8B9 JUMP JUMPDEST JUMPDEST PUSH2 0x954 DUP3 PUSH2 0x8A9 JUMP JUMPDEST SWAP1 POP PUSH1 0x20 DUP2 ADD SWAP1 POP SWAP2 SWAP1 POP JUMP JUMPDEST DUP3 DUP2 DUP4 CALLDATACOPY PUSH0 DUP4 DUP4 ADD MSTORE POP POP POP JUMP JUMPDEST PUSH0 PUSH2 0x981 PUSH2 0x97C DUP5 PUSH2 0x931 JUMP JUMPDEST PUSH2 0x917 JUMP JUMPDEST SWAP1 POP DUP3 DUP2 MSTORE PUSH1 0x20 DUP2 ADD DUP5 DUP5 DUP5 ADD GT ISZERO PUSH2 0x99D JUMPI PUSH2 0x99C PUSH2 0x8A5 JUMP JUMPDEST JUMPDEST PUSH2 0x9A8 DUP5 DUP3 DUP6 PUSH2 0x961 JUMP JUMPDEST POP SWAP4 SWAP3 POP POP POP JUMP JUMPDEST PUSH0 DUP3 PUSH1 0x1F DUP4 ADD SLT PUSH2 0x9C4 JUMPI PUSH2 0x9C3 PUSH2 0x8A1 JUMP JUMPDEST JUMPDEST DUP2 CALLDATALOAD PUSH2 0x9D4 DUP5 DUP3 PUSH1 0x20 DUP7 ADD PUSH2 0x96F JUMP JUMPDEST SWAP2 POP POP SWAP3 SWAP2 POP POP JUMP JUMPDEST PUSH0 PUSH0 PUSH0 PUSH1 0x60 DUP5 DUP7 SUB SLT ISZERO PUSH2 0x9F4 JUMPI PUSH2 0x9F3 PUSH2 0x899 JUMP JUMPDEST JUMPDEST PUSH0 DUP5 ADD CALLDATALOAD PUSH8 0xFFFFFFFFFFFFFFFF DUP2 GT ISZERO PUSH2 0xA11 JUMPI PUSH2 0xA10 PUSH2 0x89D JUMP JUMPDEST JUMPDEST PUSH2 0xA1D DUP7 DUP3 DUP8 ADD PUSH2 0x9B0 JUMP JUMPDEST SWAP4 POP POP PUSH1 0x20 DUP5 ADD CALLDATALOAD PUSH8 0xFFFFFFFFFFFFFFFF DUP2 GT ISZERO PUSH2 0xA3E JUMPI PUSH2 0xA3D PUSH2 0x89D JUMP JUMPDEST JUMPDEST PUSH2 0xA4A DUP7 DUP3 DUP8 ADD PUSH2 0x9B0 JUMP JUMPDEST SWAP3 POP POP PUSH1 0x40 DUP5 ADD CALLDATALOAD PUSH8 0xFFFFFFFFFFFFFFFF DUP2 GT ISZERO PUSH2 0xA6B JUMPI PUSH2 0xA6A PUSH2 0x89D JUMP JUMPDEST JUMPDEST PUSH2 0xA77 DUP7 DUP3 DUP8 ADD PUSH2 0x9B0 JUMP JUMPDEST SWAP2 POP POP SWAP3 POP SWAP3 POP SWAP3 JUMP JUMPDEST PUSH0 DUP2 MLOAD SWAP1 POP SWAP2 SWAP1 POP JUMP JUMPDEST PUSH0 DUP3 DUP3 MSTORE PUSH1 0x20 DUP3 ADD SWAP1 POP SWAP3 SWAP2 POP POP JUMP JUMPDEST DUP3 DUP2 DUP4 MCOPY PUSH0 DUP4 DUP4 ADD MSTORE POP POP POP JUMP JUMPDEST PUSH0 PUSH2 0xAB3 DUP3 PUSH2 0xA81 JUMP JUMPDEST PUSH2 0xABD DUP2 DUP6 PUSH2 0xA8B JUMP JUMPDEST SWAP4 POP PUSH2 0xACD DUP2 DUP6 PUSH1 0x20 DUP7 ADD PUSH2 0xA9B JUMP JUMPDEST PUSH2 0xAD6 DUP2 PUSH2 0x8A9 JUMP JUMPDEST DUP5 ADD SWAP2 POP POP SWAP3 SWAP2 POP POP JUMP JUMPDEST PUSH0 PUSH1 0x20 DUP3 ADD SWAP1 POP DUP2 DUP2 SUB PUSH0 DUP4 ADD MSTORE PUSH2 0xAF9 DUP2 DUP5 PUSH2 0xAA9 JUMP JUMPDEST SWAP1 POP SWAP3 SWAP2 POP POP JUMP JUMPDEST PUSH0 PUSH20 0xFFFFFFFFFFFFFFFFFFFFFFFFFFFFFFFFFFFFFFFF DUP3 AND SWAP1 POP SWAP2 SWAP1 POP JUMP JUMPDEST PUSH0 PUSH2 0xB2A DUP3 PUSH2 0xB01 JUMP JUMPDEST SWAP1 POP SWAP2 SWAP1 POP JUMP JUMPDEST PUSH2 0xB3A DUP2 PUSH2 0xB20 JUMP JUMPDEST DUP3 MSTORE POP POP JUMP JUMPDEST PUSH0 PUSH1 0x80 DUP3 ADD SWAP1 POP PUSH2 0xB53 PUSH0 DUP4 ADD DUP8 PUSH2 0xB31 JUMP JUMPDEST DUP2 DUP2 SUB PUSH1 0x20 DUP4 ADD MSTORE PUSH2 0xB65 DUP2 DUP7 PUSH2 0xAA9 JUMP JUMPDEST SWAP1 POP DUP2 DUP2 SUB PUSH1 0x40 DUP4 ADD MSTORE PUSH2 0xB79 DUP2 DUP6 PUSH2 0xAA9 JUMP JUMPDEST SWAP1 POP DUP2 DUP2 SUB PUSH1 0x60 DUP4 ADD MSTORE PUSH2 0xB8D DUP2 DUP5 PUSH2 0xAA9 JUMP JUMPDEST SWAP1 POP SWAP6 SWAP5 POP POP POP POP POP JUMP JUMPDEST PUSH0 PUSH1 0x20 DUP3 ADD SWAP1 POP PUSH2 0xBAB PUSH0 DUP4 ADD DUP5 PUSH2 0xB31 JUMP JUMPDEST SWAP3 SWAP2 POP POP JUMP JUMPDEST PUSH32 0x43616C6C6572206973206E6F7420746865206D616E6167657200000000000000 PUSH0 DUP3 ADD MSTORE POP JUMP JUMPDEST PUSH0 PUSH2 0xBE5 PUSH1 0x19 DUP4 PUSH2 0xA8B JUMP JUMPDEST SWAP2 POP PUSH2 0xBF0 DUP3 PUSH2 0xBB1 JUMP JUMPDEST PUSH1 0x20 DUP3 ADD SWAP1 POP SWAP2 SWAP1 POP JUMP JUMPDEST PUSH0 PUSH1 0x20 DUP3 ADD SWAP1 POP DUP2 DUP2 SUB PUSH0 DUP4 ADD MSTORE PUSH2 0xC12 DUP2 PUSH2 0xBD9 JUMP JUMPDEST SWAP1 POP SWAP2 SWAP1 POP JUMP JUMPDEST PUSH32 0x4E487B7100000000000000000000000000000000000000000000000000000000 PUSH0 MSTORE PUSH1 0x22 PUSH1 0x4 MSTORE PUSH1 0x24 PUSH0 REVERT JUMPDEST PUSH0 PUSH1 0x2 DUP3 DIV SWAP1 POP PUSH1 0x1 DUP3 AND DUP1 PUSH2 0xC5D JUMPI PUSH1 0x7F DUP3 AND SWAP2 POP JUMPDEST PUSH1 0x20 DUP3 LT DUP2 SUB PUSH2 0xC70 JUMPI PUSH2 0xC6F PUSH2 0xC19 JUMP JUMPDEST JUMPDEST POP SWAP2 SWAP1 POP JUMP JUMPDEST PUSH0 DUP2 SWAP1 POP DUP2 PUSH0 MSTORE PUSH1 0x20 PUSH0 KECCAK256 SWAP1 POP SWAP2 SWAP1 POP JUMP JUMPDEST PUSH0 PUSH1 0x20 PUSH1 0x1F DUP4 ADD DIV SWAP1 POP SWAP2 SWAP1 POP JUMP JUMPDEST PUSH0 DUP3 DUP3 SHL SWAP1 POP SWAP3 SWAP2 POP POP JUMP JUMPDEST PUSH0 PUSH1 0x8 DUP4 MUL PUSH2 0xCD2 PUSH32 0xFFFFFFFFFFFFFFFFFFFFFFFFFFFFFFFFFFFFFFFFFFFFFFFFFFFFFFFFFFFFFFFF DUP3 PUSH2 0xC97 JUMP JUMPDEST PUSH2 0xCDC DUP7 DUP4 PUSH2 0xC97 JUMP JUMPDEST SWAP6 POP DUP1 NOT DUP5 AND SWAP4 POP DUP1 DUP7 AND DUP5 OR SWAP3 POP POP POP SWAP4 SWAP3 POP POP POP JUMP JUMPDEST PUSH0 DUP2 SWAP1 POP SWAP2 SWAP1 POP JUMP JUMPDEST PUSH0 DUP2 SWAP1 POP SWAP2 SWAP1 POP JUMP JUMPDEST PUSH0 PUSH2 0xD20 PUSH2 0xD1B PUSH2 0xD16 DUP5 PUSH2 0xCF4 JUMP JUMPDEST PUSH2 0xCFD JUMP JUMPDEST PUSH2 0xCF4 JUMP JUMPDEST SWAP1 POP SWAP2 SWAP1 POP JUMP JUMPDEST PUSH0 DUP2 SWAP1 POP SWAP2 SWAP1 POP JUMP JUMPDEST PUSH2 0xD39 DUP4 PUSH2 0xD06 JUMP JUMPDEST PUSH2 0xD4D PUSH2 0xD45 DUP3 PUSH2 0xD27 JUMP JUMPDEST DUP5 DUP5 SLOAD PUSH2 0xCA3 JUMP JUMPDEST DUP3 SSTORE POP POP POP POP JUMP JUMPDEST PUSH0 PUSH0 SWAP1 POP SWAP1 JUMP JUMPDEST PUSH2 0xD64 PUSH2 0xD55 JUMP JUMPDEST PUSH2 0xD6F DUP2 DUP5 DUP5 PUSH2 0xD30 JUMP JUMPDEST POP POP POP JUMP JUMPDEST JUMPDEST DUP2 DUP2 LT ISZERO PUSH2 0xD92 JUMPI PUSH2 0xD87 PUSH0 DUP3 PUSH2 0xD5C JUMP JUMPDEST PUSH1 0x1 DUP2 ADD SWAP1 POP PUSH2 0xD75 JUMP JUMPDEST POP POP JUMP JUMPDEST PUSH1 0x1F DUP3 GT ISZERO PUSH2 0xDD7 JUMPI PUSH2 0xDA8 DUP2 PUSH2 0xC76 JUMP JUMPDEST PUSH2 0xDB1 DUP5 PUSH2 0xC88 JUMP JUMPDEST DUP2 ADD PUSH1 0x20 DUP6 LT ISZERO PUSH2 0xDC0 JUMPI DUP2 SWAP1 POP JUMPDEST PUSH2 0xDD4 PUSH2 0xDCC DUP6 PUSH2 0xC88 JUMP JUMPDEST DUP4 ADD DUP3 PUSH2 0xD74 JUMP JUMPDEST POP POP JUMPDEST POP POP POP JUMP JUMPDEST PUSH0 DUP3 DUP3 SHR SWAP1 POP SWAP3 SWAP2 POP POP JUMP JUMPDEST PUSH0 PUSH2 0xDF7 PUSH0 NOT DUP5 PUSH1 0x8 MUL PUSH2 0xDDC JUMP JUMPDEST NOT DUP1 DUP4 AND SWAP2 POP POP SWAP3 SWAP2 POP POP JUMP JUMPDEST PUSH0 PUSH2 0xE0F DUP4 DUP4 PUSH2 0xDE8 JUMP JUMPDEST SWAP2 POP DUP3 PUSH1 0x2 MUL DUP3 OR SWAP1 POP SWAP3 SWAP2 POP POP JUMP JUMPDEST PUSH2 0xE28 DUP3 PUSH2 0xA81 JUMP JUMPDEST PUSH8 0xFFFFFFFFFFFFFFFF DUP2 GT ISZERO PUSH2 0xE41 JUMPI PUSH2 0xE40 PUSH2 0x8B9 JUMP JUMPDEST JUMPDEST PUSH2 0xE4B DUP3 SLOAD PUSH2 0xC46 JUMP JUMPDEST PUSH2 0xE56 DUP3 DUP3 DUP6 PUSH2 0xD96 JUMP JUMPDEST PUSH0 PUSH1 0x20 SWAP1 POP PUSH1 0x1F DUP4 GT PUSH1 0x1 DUP2 EQ PUSH2 0xE87 JUMPI PUSH0 DUP5 ISZERO PUSH2 0xE75 JUMPI DUP3 DUP8 ADD MLOAD SWAP1 POP JUMPDEST PUSH2 0xE7F DUP6 DUP3 PUSH2 0xE04 JUMP JUMPDEST DUP7 SSTORE POP PUSH2 0xEE6 JUMP JUMPDEST PUSH1 0x1F NOT DUP5 AND PUSH2 0xE95 DUP7 PUSH2 0xC76 JUMP JUMPDEST PUSH0 JUMPDEST DUP3 DUP2 LT ISZERO PUSH2 0xEBC JUMPI DUP5 DUP10 ADD MLOAD DUP3 SSTORE PUSH1 0x1 DUP3 ADD SWAP2 POP PUSH1 0x20 DUP6 ADD SWAP5 POP PUSH1 0x20 DUP2 ADD SWAP1 POP PUSH2 0xE97 JUMP JUMPDEST DUP7 DUP4 LT ISZERO PUSH2 0xED9 JUMPI DUP5 DUP10 ADD MLOAD PUSH2 0xED5 PUSH1 0x1F DUP10 AND DUP3 PUSH2 0xDE8 JUMP JUMPDEST DUP4 SSTORE POP JUMPDEST PUSH1 0x1 PUSH1 0x2 DUP9 MUL ADD DUP9 SSTORE POP POP POP JUMPDEST POP POP POP POP POP POP JUMP JUMPDEST PUSH0 PUSH1 0x40 DUP3 ADD SWAP1 POP PUSH2 0xF01 PUSH0 DUP4 ADD DUP6 PUSH2 0xB31 JUMP JUMPDEST PUSH2 0xF0E PUSH1 0x20 DUP4 ADD DUP5 PUSH2 0xB31 JUMP JUMPDEST SWAP4 SWAP3 POP POP POP JUMP JUMPDEST PUSH0 DUP2 ISZERO ISZERO SWAP1 POP SWAP2 SWAP1 POP JUMP JUMPDEST PUSH2 0xF29 DUP2 PUSH2 0xF15 JUMP JUMPDEST DUP2 EQ PUSH2 0xF33 JUMPI PUSH0 PUSH0 REVERT JUMPDEST POP JUMP JUMPDEST PUSH0 DUP2 MLOAD SWAP1 POP PUSH2 0xF44 DUP2 PUSH2 0xF20 JUMP JUMPDEST SWAP3 SWAP2 POP POP JUMP JUMPDEST PUSH0 PUSH1 0x20 DUP3 DUP5 SUB SLT ISZERO PUSH2 0xF5F JUMPI PUSH2 0xF5E PUSH2 0x899 JUMP JUMPDEST JUMPDEST PUSH0 PUSH2 0xF6C DUP5 DUP3 DUP6 ADD PUSH2 0xF36 JUMP JUMPDEST SWAP2 POP POP SWAP3 SWAP2 POP POP JUMP JUMPDEST PUSH32 0x55736572206973206E6F74207375627363726962656420746F20746869732061 PUSH0 DUP3 ADD MSTORE PUSH32 0x7574686F72000000000000000000000000000000000000000000000000000000 PUSH1 0x20 DUP3 ADD MSTORE POP JUMP JUMPDEST PUSH0 PUSH2 0xFCF PUSH1 0x25 DUP4 PUSH2 0xA8B JUMP JUMPDEST SWAP2 POP PUSH2 0xFDA DUP3 PUSH2 0xF75 JUMP JUMPDEST PUSH1 0x40 DUP3 ADD SWAP1 POP SWAP2 SWAP1 POP JUMP JUMPDEST PUSH0 PUSH1 0x20 DUP3 ADD SWAP1 POP DUP2 DUP2 SUB PUSH0 DUP4 ADD MSTORE PUSH2 0xFFC DUP2 PUSH2 0xFC3 JUMP JUMPDEST SWAP1 POP SWAP2 SWAP1 POP JUMP INVALID LOG2 PUSH5 0x6970667358 0x22 SLT KECCAK256 DUP3 0xD2 0xB8 0xDD STATICCALL 0xD SWAP8 0xED PUSH32 0xE2324F9C4B7DEFC3E58333164D6F7CFDE8BD45AB4EFF7D64736F6C634300081C STOP CALLER LOG2 PUSH5 0x6970667358 0x22 SLT KECCAK256 0xD5 0xEC DIV SWAP16 CHAINID 0xC MLOAD CHAINID 0xC 0xE5 0x22 0xC1 SHL LOG3 SGT CALLVALUE 0xB0 MLOAD 0xB5 0xC1 PC LOG1 0x2A 0xF9 0xA8 SWAP15 0xCD PUSH7 0xE80AC4FD64736F PUSH13 0x634300081C0033000000000000 "},"gasEstimates":{"creation":{"codeDepositCost":"1810600","executionCost":"1903","totalCost":"1812503"},"external":{"createBlogPost(string,string,string)":"infinite","deployedBlogPosts(uint256)":"4965","getDeployedBlogPosts()":"infinite","isSubscribedToAuthor(address,address)":"infinite","setSubscriptionFee(uint256)":"22669","subscribeToAuthor(address)":"5323","subscribed(address,address)":"infinite","subscriptionFees(address)":"2803"}},"methodIdentifiers":{"createBlogPost(string,string,string)":"f9f01c23","deployedBlogPosts(uint256)":"a6519899","getDeployedBlogPosts()":"3bdd49cf","isSubscribedToAuthor(address,address)":"85d481f3","setSubscriptionFee(uint256)":"6ac84956","subscribeToAuthor(address)":"ce278e75","subscribed(address,address)":"2e9b93ed","subscriptionFees(address)":"0194424c"}},"storageLayout":{"storage":[{"astId":4,"contract":"blogs.sol:BlogPostFactory","label":"deployedBlogPosts","offset":0,"slot":"0","type":"t_array(t_address)dyn_storage"},{"astId":8,"contract":"blogs.sol:BlogPostFactory","label":"subscriptionFees","offset":0,"slot":"1","type":"t_mapping(t_address,t_uint256)"},{"astId":14,"contract":"blogs.sol:BlogPostFactory","label":"subscribed","offset":0,"slot":"2","type":"t_mapping(t_address,t_mapping(t_address,t_bool))"}],"types":{"t_address":{"encoding":"inplace","label":"address","numberOfBytes":"20"},"t_array(t_address)dyn_storage":{"base":"t_address","encoding":"dynamic_array","label":"address[]","numberOfBytes":"32"},"t_bool":{"encoding":"inplace","label":"bool","numberOfBytes":"1"},"t_mapping(t_address,t_bool)":{"encoding":"mapping","key":"t_address","label":"mapping(address => bool)","numberOfBytes":"32","value":"t_bool"},"t_mapping(t_address,t_mapping(t_address,t_bool))":{"encoding":"mapping","key":"t_address","label":"mapping(address => mapping(address => bool))","numberOfBytes":"32","value":"t_mapping(t_address,t_bool)"},"t_mapping(t_address,t_uint256)":{"encoding":"mapping","key":"t_address","label":"mapping(address => uint256)","numberOfBytes":"32","value":"t_uint256"},"t_uint256":{"encoding":"inplace","label":"uint256","numberOfBytes":"32"}}},"transientStorageLayout":{"storage":[],"types":null},"userdoc":{"kind":"user","methods":{},"version":1}}