{"abi":[{"anonymous":false,"inputs":[{"indexed":true,"internalType":"address","name":"author","type":"address"},{"indexed":true,"internalType":"address","name":"subscriber","type":"address"}],"name":"NewSubscription","type":"event"},{"anonymous":false,"inputs":[{"indexed":true,"internalType":"address","name":"author","type":"address"},{"indexed":false,"internalType":"uint256","name":"fee","type":"uint256"}],"name":"SubscriptionFeeUpdated","type":"event"},{"inputs":[{"internalType":"address","name":"_author","type":"address"}],"name":"getSubscriptionFee","outputs":[{"internalType":"uint256","name":"","type":"uint256"}],"stateMutability":"view","type":"function"},{"inputs":[{"internalType":"address","name":"_author","type":"address"},{"internalType":"address","name":"_reader","type":"address"}],"name":"isSubscribedToAuthor","outputs":[{"internalType":"bool","name":"","type":"bool"}],"stateMutability":"view","type":"function"},{"inputs":[{"internalType":"uint256","name":"_fee","type":"uint256"}],"name":"setSubscriptionFee","outputs":[],"stateMutability":"nonpayable","type":"function"},{"inputs":[{"internalType":"address","name":"_author","type":"address"}],"name":"subscribeToAuthor","outputs":[],"stateMutability":"payable","type":"function"},{"inputs":[{"internalType":"address","name":"","type":"address"},{"internalType":"address","name":"","type":"address"}],"name":"subscribed","outputs":[{"internalType":"bool","name":"","type":"bool"}],"stateMutability":"view","type":"function"},{"inputs":[{"internalType":"address","name":"","type":"address"}],"name":"subscriptionFees","outputs":[{"internalType":"uint256","name":"","type":"uint256"}],"stateMutability":"view","type":"function"}],"devdoc":{"kind":"dev","methods":{},"version":1},"evm":{"assembly":"    /* \"blogs.sol\":59:1704  contract BlogSubscriptions {... */\n  mstore(0x40, 0x80)\n  callvalue\n  dup1\n  iszero\n  tag_1\n  jumpi\n  revert(0x00, 0x00)\ntag_1:\n  pop\n  dataSize(sub_0)\n  dup1\n  dataOffset(sub_0)\n  0x00\n  codecopy\n  0x00\n  return\nstop\n\nsub_0: assembly {\n        /* \"blogs.sol\":59:1704  contract BlogSubscriptions {... */\n      mstore(0x40, 0x80)\n      jumpi(tag_1, lt(calldatasize, 0x04))\n      shr(0xe0, calldataload(0x00))\n      dup1\n      0x0194424c\n      eq\n      tag_2\n      jumpi\n      dup1\n      0x2e9b93ed\n      eq\n      tag_3\n      jumpi\n      dup1\n      0x6ac84956\n      eq\n      tag_4\n      jumpi\n      dup1\n      0x85d481f3\n      eq\n      tag_5\n      jumpi\n      dup1\n      0xce278e75\n      eq\n      tag_6\n      jumpi\n      dup1\n      0xf912d6d8\n      eq\n      tag_7\n      jumpi\n    tag_1:\n      revert(0x00, 0x00)\n        /* \"blogs.sol\":153:204  mapping(address => uint256) public subscriptionFees */\n    tag_2:\n      callvalue\n      dup1\n      iszero\n      tag_8\n      jumpi\n      revert(0x00, 0x00)\n    tag_8:\n      pop\n      tag_9\n      0x04\n      dup1\n      calldatasize\n      sub\n      dup2\n      add\n      swap1\n      tag_10\n      swap2\n      swap1\n      tag_11\n      jump\t// in\n    tag_10:\n      tag_12\n      jump\t// in\n    tag_9:\n      mload(0x40)\n      tag_13\n      swap2\n      swap1\n      tag_14\n      jump\t// in\n    tag_13:\n      mload(0x40)\n      dup1\n      swap2\n      sub\n      swap1\n      return\n        /* \"blogs.sol\":295:357  mapping(address => mapping(address => bool)) public subscribed */\n    tag_3:\n      callvalue\n      dup1\n      iszero\n      tag_15\n      jumpi\n      revert(0x00, 0x00)\n    tag_15:\n      pop\n      tag_16\n      0x04\n      dup1\n      calldatasize\n      sub\n      dup2\n      add\n      swap1\n      tag_17\n      swap2\n      swap1\n      tag_18\n      jump\t// in\n    tag_17:\n      tag_19\n      jump\t// in\n    tag_16:\n      mload(0x40)\n      tag_20\n      swap2\n      swap1\n      tag_21\n      jump\t// in\n    tag_20:\n      mload(0x40)\n      dup1\n      swap2\n      sub\n      swap1\n      return\n        /* \"blogs.sol\":629:787  function setSubscriptionFee(uint256 _fee) external {... */\n    tag_4:\n      callvalue\n      dup1\n      iszero\n      tag_22\n      jumpi\n      revert(0x00, 0x00)\n    tag_22:\n      pop\n      tag_23\n      0x04\n      dup1\n      calldatasize\n      sub\n      dup2\n      add\n      swap1\n      tag_24\n      swap2\n      swap1\n      tag_25\n      jump\t// in\n    tag_24:\n      tag_26\n      jump\t// in\n    tag_23:\n      stop\n        /* \"blogs.sol\":1425:1570  function isSubscribedToAuthor(address _author, address _reader) external view returns (bool) {... */\n    tag_5:\n      callvalue\n      dup1\n      iszero\n      tag_27\n      jumpi\n      revert(0x00, 0x00)\n    tag_27:\n      pop\n      tag_28\n      0x04\n      dup1\n      calldatasize\n      sub\n      dup2\n      add\n      swap1\n      tag_29\n      swap2\n      swap1\n      tag_18\n      jump\t// in\n    tag_29:\n      tag_30\n      jump\t// in\n    tag_28:\n      mload(0x40)\n      tag_31\n      swap2\n      swap1\n      tag_21\n      jump\t// in\n    tag_31:\n      mload(0x40)\n      dup1\n      swap2\n      sub\n      swap1\n      return\n        /* \"blogs.sol\":793:1419  function subscribeToAuthor(address _author) external payable {... */\n    tag_6:\n      tag_32\n      0x04\n      dup1\n      calldatasize\n      sub\n      dup2\n      add\n      swap1\n      tag_33\n      swap2\n      swap1\n      tag_11\n      jump\t// in\n    tag_33:\n      tag_34\n      jump\t// in\n    tag_32:\n      stop\n        /* \"blogs.sol\":1576:1702  function getSubscriptionFee(address _author) external view returns (uint256) {... */\n    tag_7:\n      callvalue\n      dup1\n      iszero\n      tag_35\n      jumpi\n      revert(0x00, 0x00)\n    tag_35:\n      pop\n      tag_36\n      0x04\n      dup1\n      calldatasize\n      sub\n      dup2\n      add\n      swap1\n      tag_37\n      swap2\n      swap1\n      tag_11\n      jump\t// in\n    tag_37:\n      tag_38\n      jump\t// in\n    tag_36:\n      mload(0x40)\n      tag_39\n      swap2\n      swap1\n      tag_14\n      jump\t// in\n    tag_39:\n      mload(0x40)\n      dup1\n      swap2\n      sub\n      swap1\n      return\n        /* \"blogs.sol\":153:204  mapping(address => uint256) public subscriptionFees */\n    tag_12:\n      mstore(0x20, 0x00)\n      dup1\n      0x00\n      mstore\n      keccak256(0x00, 0x40)\n      0x00\n      swap2\n      pop\n      swap1\n      pop\n      sload\n      dup2\n      jump\t// out\n        /* \"blogs.sol\":295:357  mapping(address => mapping(address => bool)) public subscribed */\n    tag_19:\n      mstore(0x20, 0x01)\n      dup2\n      0x00\n      mstore\n      mstore(0x20, keccak256(0x00, 0x40))\n      dup1\n      0x00\n      mstore\n      keccak256(0x00, 0x40)\n      0x00\n      swap2\n      pop\n      swap2\n      pop\n      swap1\n      sload\n      swap1\n      0x0100\n      exp\n      swap1\n      div\n      0xff\n      and\n      dup2\n      jump\t// out\n        /* \"blogs.sol\":629:787  function setSubscriptionFee(uint256 _fee) external {... */\n    tag_26:\n        /* \"blogs.sol\":721:725  _fee */\n      dup1\n        /* \"blogs.sol\":690:706  subscriptionFees */\n      0x00\n        /* \"blogs.sol\":690:718  subscriptionFees[msg.sender] */\n      0x00\n        /* \"blogs.sol\":707:717  msg.sender */\n      caller\n        /* \"blogs.sol\":690:718  subscriptionFees[msg.sender] */\n      0xffffffffffffffffffffffffffffffffffffffff\n      and\n      0xffffffffffffffffffffffffffffffffffffffff\n      and\n      dup2\n      mstore\n      0x20\n      add\n      swap1\n      dup2\n      mstore\n      0x20\n      add\n      0x00\n      keccak256\n        /* \"blogs.sol\":690:725  subscriptionFees[msg.sender] = _fee */\n      dup2\n      swap1\n      sstore\n      pop\n        /* \"blogs.sol\":763:773  msg.sender */\n      caller\n        /* \"blogs.sol\":740:780  SubscriptionFeeUpdated(msg.sender, _fee) */\n      0xffffffffffffffffffffffffffffffffffffffff\n      and\n      0xb7269a4e053ed52f818b74e747e7c1883cd9eb8b6849be5291b1243ecfaac556\n        /* \"blogs.sol\":775:779  _fee */\n      dup3\n        /* \"blogs.sol\":740:780  SubscriptionFeeUpdated(msg.sender, _fee) */\n      mload(0x40)\n      tag_41\n      swap2\n      swap1\n      tag_14\n      jump\t// in\n    tag_41:\n      mload(0x40)\n      dup1\n      swap2\n      sub\n      swap1\n      log2\n        /* \"blogs.sol\":629:787  function setSubscriptionFee(uint256 _fee) external {... */\n      pop\n      jump\t// out\n        /* \"blogs.sol\":1425:1570  function isSubscribedToAuthor(address _author, address _reader) external view returns (bool) {... */\n    tag_30:\n        /* \"blogs.sol\":1512:1516  bool */\n      0x00\n        /* \"blogs.sol\":1535:1545  subscribed */\n      0x01\n        /* \"blogs.sol\":1535:1554  subscribed[_author] */\n      0x00\n        /* \"blogs.sol\":1546:1553  _author */\n      dup5\n        /* \"blogs.sol\":1535:1554  subscribed[_author] */\n      0xffffffffffffffffffffffffffffffffffffffff\n      and\n      0xffffffffffffffffffffffffffffffffffffffff\n      and\n      dup2\n      mstore\n      0x20\n      add\n      swap1\n      dup2\n      mstore\n      0x20\n      add\n      0x00\n      keccak256\n        /* \"blogs.sol\":1535:1563  subscribed[_author][_reader] */\n      0x00\n        /* \"blogs.sol\":1555:1562  _reader */\n      dup4\n        /* \"blogs.sol\":1535:1563  subscribed[_author][_reader] */\n      0xffffffffffffffffffffffffffffffffffffffff\n      and\n      0xffffffffffffffffffffffffffffffffffffffff\n      and\n      dup2\n      mstore\n      0x20\n      add\n      swap1\n      dup2\n      mstore\n      0x20\n      add\n      0x00\n      keccak256\n      0x00\n      swap1\n      sload\n      swap1\n      0x0100\n      exp\n      swap1\n      div\n      0xff\n      and\n        /* \"blogs.sol\":1528:1563  return subscribed[_author][_reader] */\n      swap1\n      pop\n        /* \"blogs.sol\":1425:1570  function isSubscribedToAuthor(address _author, address _reader) external view returns (bool) {... */\n      swap3\n      swap2\n      pop\n      pop\n      jump\t// out\n        /* \"blogs.sol\":793:1419  function subscribeToAuthor(address _author) external payable {... */\n    tag_34:\n        /* \"blogs.sol\":864:875  uint256 fee */\n      0x00\n        /* \"blogs.sol\":878:894  subscriptionFees */\n      0x00\n        /* \"blogs.sol\":878:903  subscriptionFees[_author] */\n      0x00\n        /* \"blogs.sol\":895:902  _author */\n      dup4\n        /* \"blogs.sol\":878:903  subscriptionFees[_author] */\n      0xffffffffffffffffffffffffffffffffffffffff\n      and\n      0xffffffffffffffffffffffffffffffffffffffff\n      and\n      dup2\n      mstore\n      0x20\n      add\n      swap1\n      dup2\n      mstore\n      0x20\n      add\n      0x00\n      keccak256\n      sload\n        /* \"blogs.sol\":864:903  uint256 fee = subscriptionFees[_author] */\n      swap1\n      pop\n        /* \"blogs.sol\":927:928  0 */\n      0x00\n        /* \"blogs.sol\":921:924  fee */\n      dup2\n        /* \"blogs.sol\":921:928  fee > 0 */\n      gt\n        /* \"blogs.sol\":913:970  require(fee > 0, \"Author has not set a subscription fee\") */\n      tag_44\n      jumpi\n      mload(0x40)\n      0x08c379a000000000000000000000000000000000000000000000000000000000\n      dup2\n      mstore\n      0x04\n      add\n      tag_45\n      swap1\n      tag_46\n      jump\t// in\n    tag_45:\n      mload(0x40)\n      dup1\n      swap2\n      sub\n      swap1\n      revert\n    tag_44:\n        /* \"blogs.sol\":1001:1004  fee */\n      dup1\n        /* \"blogs.sol\":988:997  msg.value */\n      callvalue\n        /* \"blogs.sol\":988:1004  msg.value == fee */\n      eq\n        /* \"blogs.sol\":980:1040  require(msg.value == fee, \"Incorrect subscription fee sent\") */\n      tag_47\n      jumpi\n      mload(0x40)\n      0x08c379a000000000000000000000000000000000000000000000000000000000\n      dup2\n      mstore\n      0x04\n      add\n      tag_48\n      swap1\n      tag_49\n      jump\t// in\n    tag_48:\n      mload(0x40)\n      dup1\n      swap2\n      sub\n      swap1\n      revert\n    tag_47:\n        /* \"blogs.sol\":1059:1069  subscribed */\n      0x01\n        /* \"blogs.sol\":1059:1078  subscribed[_author] */\n      0x00\n        /* \"blogs.sol\":1070:1077  _author */\n      dup4\n        /* \"blogs.sol\":1059:1078  subscribed[_author] */\n      0xffffffffffffffffffffffffffffffffffffffff\n      and\n      0xffffffffffffffffffffffffffffffffffffffff\n      and\n      dup2\n      mstore\n      0x20\n      add\n      swap1\n      dup2\n      mstore\n      0x20\n      add\n      0x00\n      keccak256\n        /* \"blogs.sol\":1059:1090  subscribed[_author][msg.sender] */\n      0x00\n        /* \"blogs.sol\":1079:1089  msg.sender */\n      caller\n        /* \"blogs.sol\":1059:1090  subscribed[_author][msg.sender] */\n      0xffffffffffffffffffffffffffffffffffffffff\n      and\n      0xffffffffffffffffffffffffffffffffffffffff\n      and\n      dup2\n      mstore\n      0x20\n      add\n      swap1\n      dup2\n      mstore\n      0x20\n      add\n      0x00\n      keccak256\n      0x00\n      swap1\n      sload\n      swap1\n      0x0100\n      exp\n      swap1\n      div\n      0xff\n      and\n        /* \"blogs.sol\":1058:1090  !subscribed[_author][msg.sender] */\n      iszero\n        /* \"blogs.sol\":1050:1113  require(!subscribed[_author][msg.sender], \"Already subscribed\") */\n      tag_50\n      jumpi\n      mload(0x40)\n      0x08c379a000000000000000000000000000000000000000000000000000000000\n      dup2\n      mstore\n      0x04\n      add\n      tag_51\n      swap1\n      tag_52\n      jump\t// in\n    tag_51:\n      mload(0x40)\n      dup1\n      swap2\n      sub\n      swap1\n      revert\n    tag_50:\n        /* \"blogs.sol\":1166:1170  true */\n      0x01\n        /* \"blogs.sol\":1132:1142  subscribed */\n      dup1\n        /* \"blogs.sol\":1132:1151  subscribed[_author] */\n      0x00\n        /* \"blogs.sol\":1143:1150  _author */\n      dup5\n        /* \"blogs.sol\":1132:1151  subscribed[_author] */\n      0xffffffffffffffffffffffffffffffffffffffff\n      and\n      0xffffffffffffffffffffffffffffffffffffffff\n      and\n      dup2\n      mstore\n      0x20\n      add\n      swap1\n      dup2\n      mstore\n      0x20\n      add\n      0x00\n      keccak256\n        /* \"blogs.sol\":1132:1163  subscribed[_author][msg.sender] */\n      0x00\n        /* \"blogs.sol\":1152:1162  msg.sender */\n      caller\n        /* \"blogs.sol\":1132:1163  subscribed[_author][msg.sender] */\n      0xffffffffffffffffffffffffffffffffffffffff\n      and\n      0xffffffffffffffffffffffffffffffffffffffff\n      and\n      dup2\n      mstore\n      0x20\n      add\n      swap1\n      dup2\n      mstore\n      0x20\n      add\n      0x00\n      keccak256\n      0x00\n        /* \"blogs.sol\":1132:1170  subscribed[_author][msg.sender] = true */\n      0x0100\n      exp\n      dup2\n      sload\n      dup2\n      0xff\n      mul\n      not\n      and\n      swap1\n      dup4\n      iszero\n      iszero\n      mul\n      or\n      swap1\n      sstore\n      pop\n        /* \"blogs.sol\":1245:1254  bool sent */\n      0x00\n        /* \"blogs.sol\":1260:1267  _author */\n      dup3\n        /* \"blogs.sol\":1260:1272  _author.call */\n      0xffffffffffffffffffffffffffffffffffffffff\n      and\n        /* \"blogs.sol\":1280:1289  msg.value */\n      callvalue\n        /* \"blogs.sol\":1260:1294  _author.call{value: msg.value}(\"\") */\n      mload(0x40)\n      tag_53\n      swap1\n      tag_54\n      jump\t// in\n    tag_53:\n      0x00\n      mload(0x40)\n      dup1\n      dup4\n      sub\n      dup2\n      dup6\n      dup8\n      gas\n      call\n      swap3\n      pop\n      pop\n      pop\n      returndatasize\n      dup1\n      0x00\n      dup2\n      eq\n      tag_57\n      jumpi\n      mload(0x40)\n      swap2\n      pop\n      and(add(returndatasize, 0x3f), not(0x1f))\n      dup3\n      add\n      0x40\n      mstore\n      returndatasize\n      dup3\n      mstore\n      returndatasize\n      0x00\n      0x20\n      dup5\n      add\n      returndatacopy\n      jump(tag_56)\n    tag_57:\n      0x60\n      swap2\n      pop\n    tag_56:\n      pop\n        /* \"blogs.sol\":1244:1294  (bool sent, ) = _author.call{value: msg.value}(\"\") */\n      pop\n      swap1\n      pop\n        /* \"blogs.sol\":1312:1316  sent */\n      dup1\n        /* \"blogs.sol\":1304:1352  require(sent, \"Failed to send subscription fee\") */\n      tag_58\n      jumpi\n      mload(0x40)\n      0x08c379a000000000000000000000000000000000000000000000000000000000\n      dup2\n      mstore\n      0x04\n      add\n      tag_59\n      swap1\n      tag_60\n      jump\t// in\n    tag_59:\n      mload(0x40)\n      dup1\n      swap2\n      sub\n      swap1\n      revert\n    tag_58:\n        /* \"blogs.sol\":1401:1411  msg.sender */\n      caller\n        /* \"blogs.sol\":1376:1412  NewSubscription(_author, msg.sender) */\n      0xffffffffffffffffffffffffffffffffffffffff\n      and\n        /* \"blogs.sol\":1392:1399  _author */\n      dup4\n        /* \"blogs.sol\":1376:1412  NewSubscription(_author, msg.sender) */\n      0xffffffffffffffffffffffffffffffffffffffff\n      and\n      0x3a0b5076ece6f2c8be8457bb8f3245313ca00f236efcc25031b8376662c224cf\n      mload(0x40)\n      mload(0x40)\n      dup1\n      swap2\n      sub\n      swap1\n      log3\n        /* \"blogs.sol\":854:1419  {... */\n      pop\n      pop\n        /* \"blogs.sol\":793:1419  function subscribeToAuthor(address _author) external payable {... */\n      pop\n      jump\t// out\n        /* \"blogs.sol\":1576:1702  function getSubscriptionFee(address _author) external view returns (uint256) {... */\n    tag_38:\n        /* \"blogs.sol\":1644:1651  uint256 */\n      0x00\n        /* \"blogs.sol\":1670:1686  subscriptionFees */\n      0x00\n        /* \"blogs.sol\":1670:1695  subscriptionFees[_author] */\n      0x00\n        /* \"blogs.sol\":1687:1694  _author */\n      dup4\n        /* \"blogs.sol\":1670:1695  subscriptionFees[_author] */\n      0xffffffffffffffffffffffffffffffffffffffff\n      and\n      0xffffffffffffffffffffffffffffffffffffffff\n      and\n      dup2\n      mstore\n      0x20\n      add\n      swap1\n      dup2\n      mstore\n      0x20\n      add\n      0x00\n      keccak256\n      sload\n        /* \"blogs.sol\":1663:1695  return subscriptionFees[_author] */\n      swap1\n      pop\n        /* \"blogs.sol\":1576:1702  function getSubscriptionFee(address _author) external view returns (uint256) {... */\n      swap2\n      swap1\n      pop\n      jump\t// out\n        /* \"#utility.yul\":88:205   */\n    tag_63:\n        /* \"#utility.yul\":197:198   */\n      0x00\n        /* \"#utility.yul\":194:195   */\n      0x00\n        /* \"#utility.yul\":187:199   */\n      revert\n        /* \"#utility.yul\":334:460   */\n    tag_65:\n        /* \"#utility.yul\":371:378   */\n      0x00\n        /* \"#utility.yul\":411:453   */\n      0xffffffffffffffffffffffffffffffffffffffff\n        /* \"#utility.yul\":404:409   */\n      dup3\n        /* \"#utility.yul\":400:454   */\n      and\n        /* \"#utility.yul\":389:454   */\n      swap1\n      pop\n        /* \"#utility.yul\":334:460   */\n      swap2\n      swap1\n      pop\n      jump\t// out\n        /* \"#utility.yul\":466:562   */\n    tag_66:\n        /* \"#utility.yul\":503:510   */\n      0x00\n        /* \"#utility.yul\":532:556   */\n      tag_93\n        /* \"#utility.yul\":550:555   */\n      dup3\n        /* \"#utility.yul\":532:556   */\n      tag_65\n      jump\t// in\n    tag_93:\n        /* \"#utility.yul\":521:556   */\n      swap1\n      pop\n        /* \"#utility.yul\":466:562   */\n      swap2\n      swap1\n      pop\n      jump\t// out\n        /* \"#utility.yul\":568:690   */\n    tag_67:\n        /* \"#utility.yul\":641:665   */\n      tag_95\n        /* \"#utility.yul\":659:664   */\n      dup2\n        /* \"#utility.yul\":641:665   */\n      tag_66\n      jump\t// in\n    tag_95:\n        /* \"#utility.yul\":634:639   */\n      dup2\n        /* \"#utility.yul\":631:666   */\n      eq\n        /* \"#utility.yul\":621:684   */\n      tag_96\n      jumpi\n        /* \"#utility.yul\":680:681   */\n      0x00\n        /* \"#utility.yul\":677:678   */\n      0x00\n        /* \"#utility.yul\":670:682   */\n      revert\n        /* \"#utility.yul\":621:684   */\n    tag_96:\n        /* \"#utility.yul\":568:690   */\n      pop\n      jump\t// out\n        /* \"#utility.yul\":696:835   */\n    tag_68:\n        /* \"#utility.yul\":742:747   */\n      0x00\n        /* \"#utility.yul\":780:786   */\n      dup2\n        /* \"#utility.yul\":767:787   */\n      calldataload\n        /* \"#utility.yul\":758:787   */\n      swap1\n      pop\n        /* \"#utility.yul\":796:829   */\n      tag_98\n        /* \"#utility.yul\":823:828   */\n      dup2\n        /* \"#utility.yul\":796:829   */\n      tag_67\n      jump\t// in\n    tag_98:\n        /* \"#utility.yul\":696:835   */\n      swap3\n      swap2\n      pop\n      pop\n      jump\t// out\n        /* \"#utility.yul\":841:1170   */\n    tag_11:\n        /* \"#utility.yul\":900:906   */\n      0x00\n        /* \"#utility.yul\":949:951   */\n      0x20\n        /* \"#utility.yul\":937:946   */\n      dup3\n        /* \"#utility.yul\":928:935   */\n      dup5\n        /* \"#utility.yul\":924:947   */\n      sub\n        /* \"#utility.yul\":920:952   */\n      slt\n        /* \"#utility.yul\":917:1036   */\n      iszero\n      tag_100\n      jumpi\n        /* \"#utility.yul\":955:1034   */\n      tag_101\n      tag_63\n      jump\t// in\n    tag_101:\n        /* \"#utility.yul\":917:1036   */\n    tag_100:\n        /* \"#utility.yul\":1075:1076   */\n      0x00\n        /* \"#utility.yul\":1100:1153   */\n      tag_102\n        /* \"#utility.yul\":1145:1152   */\n      dup5\n        /* \"#utility.yul\":1136:1142   */\n      dup3\n        /* \"#utility.yul\":1125:1134   */\n      dup6\n        /* \"#utility.yul\":1121:1143   */\n      add\n        /* \"#utility.yul\":1100:1153   */\n      tag_68\n      jump\t// in\n    tag_102:\n        /* \"#utility.yul\":1090:1153   */\n      swap2\n      pop\n        /* \"#utility.yul\":1046:1163   */\n      pop\n        /* \"#utility.yul\":841:1170   */\n      swap3\n      swap2\n      pop\n      pop\n      jump\t// out\n        /* \"#utility.yul\":1176:1253   */\n    tag_69:\n        /* \"#utility.yul\":1213:1220   */\n      0x00\n        /* \"#utility.yul\":1242:1247   */\n      dup2\n        /* \"#utility.yul\":1231:1247   */\n      swap1\n      pop\n        /* \"#utility.yul\":1176:1253   */\n      swap2\n      swap1\n      pop\n      jump\t// out\n        /* \"#utility.yul\":1259:1377   */\n    tag_70:\n        /* \"#utility.yul\":1346:1370   */\n      tag_105\n        /* \"#utility.yul\":1364:1369   */\n      dup2\n        /* \"#utility.yul\":1346:1370   */\n      tag_69\n      jump\t// in\n    tag_105:\n        /* \"#utility.yul\":1341:1344   */\n      dup3\n        /* \"#utility.yul\":1334:1371   */\n      mstore\n        /* \"#utility.yul\":1259:1377   */\n      pop\n      pop\n      jump\t// out\n        /* \"#utility.yul\":1383:1605   */\n    tag_14:\n        /* \"#utility.yul\":1476:1480   */\n      0x00\n        /* \"#utility.yul\":1514:1516   */\n      0x20\n        /* \"#utility.yul\":1503:1512   */\n      dup3\n        /* \"#utility.yul\":1499:1517   */\n      add\n        /* \"#utility.yul\":1491:1517   */\n      swap1\n      pop\n        /* \"#utility.yul\":1527:1598   */\n      tag_107\n        /* \"#utility.yul\":1595:1596   */\n      0x00\n        /* \"#utility.yul\":1584:1593   */\n      dup4\n        /* \"#utility.yul\":1580:1597   */\n      add\n        /* \"#utility.yul\":1571:1577   */\n      dup5\n        /* \"#utility.yul\":1527:1598   */\n      tag_70\n      jump\t// in\n    tag_107:\n        /* \"#utility.yul\":1383:1605   */\n      swap3\n      swap2\n      pop\n      pop\n      jump\t// out\n        /* \"#utility.yul\":1611:2085   */\n    tag_18:\n        /* \"#utility.yul\":1679:1685   */\n      0x00\n        /* \"#utility.yul\":1687:1693   */\n      0x00\n        /* \"#utility.yul\":1736:1738   */\n      0x40\n        /* \"#utility.yul\":1724:1733   */\n      dup4\n        /* \"#utility.yul\":1715:1722   */\n      dup6\n        /* \"#utility.yul\":1711:1734   */\n      sub\n        /* \"#utility.yul\":1707:1739   */\n      slt\n        /* \"#utility.yul\":1704:1823   */\n      iszero\n      tag_109\n      jumpi\n        /* \"#utility.yul\":1742:1821   */\n      tag_110\n      tag_63\n      jump\t// in\n    tag_110:\n        /* \"#utility.yul\":1704:1823   */\n    tag_109:\n        /* \"#utility.yul\":1862:1863   */\n      0x00\n        /* \"#utility.yul\":1887:1940   */\n      tag_111\n        /* \"#utility.yul\":1932:1939   */\n      dup6\n        /* \"#utility.yul\":1923:1929   */\n      dup3\n        /* \"#utility.yul\":1912:1921   */\n      dup7\n        /* \"#utility.yul\":1908:1930   */\n      add\n        /* \"#utility.yul\":1887:1940   */\n      tag_68\n      jump\t// in\n    tag_111:\n        /* \"#utility.yul\":1877:1940   */\n      swap3\n      pop\n        /* \"#utility.yul\":1833:1950   */\n      pop\n        /* \"#utility.yul\":1989:1991   */\n      0x20\n        /* \"#utility.yul\":2015:2068   */\n      tag_112\n        /* \"#utility.yul\":2060:2067   */\n      dup6\n        /* \"#utility.yul\":2051:2057   */\n      dup3\n        /* \"#utility.yul\":2040:2049   */\n      dup7\n        /* \"#utility.yul\":2036:2058   */\n      add\n        /* \"#utility.yul\":2015:2068   */\n      tag_68\n      jump\t// in\n    tag_112:\n        /* \"#utility.yul\":2005:2068   */\n      swap2\n      pop\n        /* \"#utility.yul\":1960:2078   */\n      pop\n        /* \"#utility.yul\":1611:2085   */\n      swap3\n      pop\n      swap3\n      swap1\n      pop\n      jump\t// out\n        /* \"#utility.yul\":2091:2181   */\n    tag_71:\n        /* \"#utility.yul\":2125:2132   */\n      0x00\n        /* \"#utility.yul\":2168:2173   */\n      dup2\n        /* \"#utility.yul\":2161:2174   */\n      iszero\n        /* \"#utility.yul\":2154:2175   */\n      iszero\n        /* \"#utility.yul\":2143:2175   */\n      swap1\n      pop\n        /* \"#utility.yul\":2091:2181   */\n      swap2\n      swap1\n      pop\n      jump\t// out\n        /* \"#utility.yul\":2187:2296   */\n    tag_72:\n        /* \"#utility.yul\":2268:2289   */\n      tag_115\n        /* \"#utility.yul\":2283:2288   */\n      dup2\n        /* \"#utility.yul\":2268:2289   */\n      tag_71\n      jump\t// in\n    tag_115:\n        /* \"#utility.yul\":2263:2266   */\n      dup3\n        /* \"#utility.yul\":2256:2290   */\n      mstore\n        /* \"#utility.yul\":2187:2296   */\n      pop\n      pop\n      jump\t// out\n        /* \"#utility.yul\":2302:2512   */\n    tag_21:\n        /* \"#utility.yul\":2389:2393   */\n      0x00\n        /* \"#utility.yul\":2427:2429   */\n      0x20\n        /* \"#utility.yul\":2416:2425   */\n      dup3\n        /* \"#utility.yul\":2412:2430   */\n      add\n        /* \"#utility.yul\":2404:2430   */\n      swap1\n      pop\n        /* \"#utility.yul\":2440:2505   */\n      tag_117\n        /* \"#utility.yul\":2502:2503   */\n      0x00\n        /* \"#utility.yul\":2491:2500   */\n      dup4\n        /* \"#utility.yul\":2487:2504   */\n      add\n        /* \"#utility.yul\":2478:2484   */\n      dup5\n        /* \"#utility.yul\":2440:2505   */\n      tag_72\n      jump\t// in\n    tag_117:\n        /* \"#utility.yul\":2302:2512   */\n      swap3\n      swap2\n      pop\n      pop\n      jump\t// out\n        /* \"#utility.yul\":2518:2640   */\n    tag_73:\n        /* \"#utility.yul\":2591:2615   */\n      tag_119\n        /* \"#utility.yul\":2609:2614   */\n      dup2\n        /* \"#utility.yul\":2591:2615   */\n      tag_69\n      jump\t// in\n    tag_119:\n        /* \"#utility.yul\":2584:2589   */\n      dup2\n        /* \"#utility.yul\":2581:2616   */\n      eq\n        /* \"#utility.yul\":2571:2634   */\n      tag_120\n      jumpi\n        /* \"#utility.yul\":2630:2631   */\n      0x00\n        /* \"#utility.yul\":2627:2628   */\n      0x00\n        /* \"#utility.yul\":2620:2632   */\n      revert\n        /* \"#utility.yul\":2571:2634   */\n    tag_120:\n        /* \"#utility.yul\":2518:2640   */\n      pop\n      jump\t// out\n        /* \"#utility.yul\":2646:2785   */\n    tag_74:\n        /* \"#utility.yul\":2692:2697   */\n      0x00\n        /* \"#utility.yul\":2730:2736   */\n      dup2\n        /* \"#utility.yul\":2717:2737   */\n      calldataload\n        /* \"#utility.yul\":2708:2737   */\n      swap1\n      pop\n        /* \"#utility.yul\":2746:2779   */\n      tag_122\n        /* \"#utility.yul\":2773:2778   */\n      dup2\n        /* \"#utility.yul\":2746:2779   */\n      tag_73\n      jump\t// in\n    tag_122:\n        /* \"#utility.yul\":2646:2785   */\n      swap3\n      swap2\n      pop\n      pop\n      jump\t// out\n        /* \"#utility.yul\":2791:3120   */\n    tag_25:\n        /* \"#utility.yul\":2850:2856   */\n      0x00\n        /* \"#utility.yul\":2899:2901   */\n      0x20\n        /* \"#utility.yul\":2887:2896   */\n      dup3\n        /* \"#utility.yul\":2878:2885   */\n      dup5\n        /* \"#utility.yul\":2874:2897   */\n      sub\n        /* \"#utility.yul\":2870:2902   */\n      slt\n        /* \"#utility.yul\":2867:2986   */\n      iszero\n      tag_124\n      jumpi\n        /* \"#utility.yul\":2905:2984   */\n      tag_125\n      tag_63\n      jump\t// in\n    tag_125:\n        /* \"#utility.yul\":2867:2986   */\n    tag_124:\n        /* \"#utility.yul\":3025:3026   */\n      0x00\n        /* \"#utility.yul\":3050:3103   */\n      tag_126\n        /* \"#utility.yul\":3095:3102   */\n      dup5\n        /* \"#utility.yul\":3086:3092   */\n      dup3\n        /* \"#utility.yul\":3075:3084   */\n      dup6\n        /* \"#utility.yul\":3071:3093   */\n      add\n        /* \"#utility.yul\":3050:3103   */\n      tag_74\n      jump\t// in\n    tag_126:\n        /* \"#utility.yul\":3040:3103   */\n      swap2\n      pop\n        /* \"#utility.yul\":2996:3113   */\n      pop\n        /* \"#utility.yul\":2791:3120   */\n      swap3\n      swap2\n      pop\n      pop\n      jump\t// out\n        /* \"#utility.yul\":3126:3295   */\n    tag_75:\n        /* \"#utility.yul\":3210:3221   */\n      0x00\n        /* \"#utility.yul\":3244:3250   */\n      dup3\n        /* \"#utility.yul\":3239:3242   */\n      dup3\n        /* \"#utility.yul\":3232:3251   */\n      mstore\n        /* \"#utility.yul\":3284:3288   */\n      0x20\n        /* \"#utility.yul\":3279:3282   */\n      dup3\n        /* \"#utility.yul\":3275:3289   */\n      add\n        /* \"#utility.yul\":3260:3289   */\n      swap1\n      pop\n        /* \"#utility.yul\":3126:3295   */\n      swap3\n      swap2\n      pop\n      pop\n      jump\t// out\n        /* \"#utility.yul\":3301:3525   */\n    tag_76:\n        /* \"#utility.yul\":3441:3475   */\n      0x417574686f7220686173206e6f7420736574206120737562736372697074696f\n        /* \"#utility.yul\":3437:3438   */\n      0x00\n        /* \"#utility.yul\":3429:3435   */\n      dup3\n        /* \"#utility.yul\":3425:3439   */\n      add\n        /* \"#utility.yul\":3418:3476   */\n      mstore\n        /* \"#utility.yul\":3510:3517   */\n      0x6e20666565000000000000000000000000000000000000000000000000000000\n        /* \"#utility.yul\":3505:3507   */\n      0x20\n        /* \"#utility.yul\":3497:3503   */\n      dup3\n        /* \"#utility.yul\":3493:3508   */\n      add\n        /* \"#utility.yul\":3486:3518   */\n      mstore\n        /* \"#utility.yul\":3301:3525   */\n      pop\n      jump\t// out\n        /* \"#utility.yul\":3531:3897   */\n    tag_77:\n        /* \"#utility.yul\":3673:3676   */\n      0x00\n        /* \"#utility.yul\":3694:3761   */\n      tag_130\n        /* \"#utility.yul\":3758:3760   */\n      0x25\n        /* \"#utility.yul\":3753:3756   */\n      dup4\n        /* \"#utility.yul\":3694:3761   */\n      tag_75\n      jump\t// in\n    tag_130:\n        /* \"#utility.yul\":3687:3761   */\n      swap2\n      pop\n        /* \"#utility.yul\":3770:3863   */\n      tag_131\n        /* \"#utility.yul\":3859:3862   */\n      dup3\n        /* \"#utility.yul\":3770:3863   */\n      tag_76\n      jump\t// in\n    tag_131:\n        /* \"#utility.yul\":3888:3890   */\n      0x40\n        /* \"#utility.yul\":3883:3886   */\n      dup3\n        /* \"#utility.yul\":3879:3891   */\n      add\n        /* \"#utility.yul\":3872:3891   */\n      swap1\n      pop\n        /* \"#utility.yul\":3531:3897   */\n      swap2\n      swap1\n      pop\n      jump\t// out\n        /* \"#utility.yul\":3903:4322   */\n    tag_46:\n        /* \"#utility.yul\":4069:4073   */\n      0x00\n        /* \"#utility.yul\":4107:4109   */\n      0x20\n        /* \"#utility.yul\":4096:4105   */\n      dup3\n        /* \"#utility.yul\":4092:4110   */\n      add\n        /* \"#utility.yul\":4084:4110   */\n      swap1\n      pop\n        /* \"#utility.yul\":4156:4165   */\n      dup2\n        /* \"#utility.yul\":4150:4154   */\n      dup2\n        /* \"#utility.yul\":4146:4166   */\n      sub\n        /* \"#utility.yul\":4142:4143   */\n      0x00\n        /* \"#utility.yul\":4131:4140   */\n      dup4\n        /* \"#utility.yul\":4127:4144   */\n      add\n        /* \"#utility.yul\":4120:4167   */\n      mstore\n        /* \"#utility.yul\":4184:4315   */\n      tag_133\n        /* \"#utility.yul\":4310:4314   */\n      dup2\n        /* \"#utility.yul\":4184:4315   */\n      tag_77\n      jump\t// in\n    tag_133:\n        /* \"#utility.yul\":4176:4315   */\n      swap1\n      pop\n        /* \"#utility.yul\":3903:4322   */\n      swap2\n      swap1\n      pop\n      jump\t// out\n        /* \"#utility.yul\":4328:4509   */\n    tag_78:\n        /* \"#utility.yul\":4468:4501   */\n      0x496e636f727265637420737562736372697074696f6e206665652073656e7400\n        /* \"#utility.yul\":4464:4465   */\n      0x00\n        /* \"#utility.yul\":4456:4462   */\n      dup3\n        /* \"#utility.yul\":4452:4466   */\n      add\n        /* \"#utility.yul\":4445:4502   */\n      mstore\n        /* \"#utility.yul\":4328:4509   */\n      pop\n      jump\t// out\n        /* \"#utility.yul\":4515:4881   */\n    tag_79:\n        /* \"#utility.yul\":4657:4660   */\n      0x00\n        /* \"#utility.yul\":4678:4745   */\n      tag_136\n        /* \"#utility.yul\":4742:4744   */\n      0x1f\n        /* \"#utility.yul\":4737:4740   */\n      dup4\n        /* \"#utility.yul\":4678:4745   */\n      tag_75\n      jump\t// in\n    tag_136:\n        /* \"#utility.yul\":4671:4745   */\n      swap2\n      pop\n        /* \"#utility.yul\":4754:4847   */\n      tag_137\n        /* \"#utility.yul\":4843:4846   */\n      dup3\n        /* \"#utility.yul\":4754:4847   */\n      tag_78\n      jump\t// in\n    tag_137:\n        /* \"#utility.yul\":4872:4874   */\n      0x20\n        /* \"#utility.yul\":4867:4870   */\n      dup3\n        /* \"#utility.yul\":4863:4875   */\n      add\n        /* \"#utility.yul\":4856:4875   */\n      swap1\n      pop\n        /* \"#utility.yul\":4515:4881   */\n      swap2\n      swap1\n      pop\n      jump\t// out\n        /* \"#utility.yul\":4887:5306   */\n    tag_49:\n        /* \"#utility.yul\":5053:5057   */\n      0x00\n        /* \"#utility.yul\":5091:5093   */\n      0x20\n        /* \"#utility.yul\":5080:5089   */\n      dup3\n        /* \"#utility.yul\":5076:5094   */\n      add\n        /* \"#utility.yul\":5068:5094   */\n      swap1\n      pop\n        /* \"#utility.yul\":5140:5149   */\n      dup2\n        /* \"#utility.yul\":5134:5138   */\n      dup2\n        /* \"#utility.yul\":5130:5150   */\n      sub\n        /* \"#utility.yul\":5126:5127   */\n      0x00\n        /* \"#utility.yul\":5115:5124   */\n      dup4\n        /* \"#utility.yul\":5111:5128   */\n      add\n        /* \"#utility.yul\":5104:5151   */\n      mstore\n        /* \"#utility.yul\":5168:5299   */\n      tag_139\n        /* \"#utility.yul\":5294:5298   */\n      dup2\n        /* \"#utility.yul\":5168:5299   */\n      tag_79\n      jump\t// in\n    tag_139:\n        /* \"#utility.yul\":5160:5299   */\n      swap1\n      pop\n        /* \"#utility.yul\":4887:5306   */\n      swap2\n      swap1\n      pop\n      jump\t// out\n        /* \"#utility.yul\":5312:5480   */\n    tag_80:\n        /* \"#utility.yul\":5452:5472   */\n      0x416c726561647920737562736372696265640000000000000000000000000000\n        /* \"#utility.yul\":5448:5449   */\n      0x00\n        /* \"#utility.yul\":5440:5446   */\n      dup3\n        /* \"#utility.yul\":5436:5450   */\n      add\n        /* \"#utility.yul\":5429:5473   */\n      mstore\n        /* \"#utility.yul\":5312:5480   */\n      pop\n      jump\t// out\n        /* \"#utility.yul\":5486:5852   */\n    tag_81:\n        /* \"#utility.yul\":5628:5631   */\n      0x00\n        /* \"#utility.yul\":5649:5716   */\n      tag_142\n        /* \"#utility.yul\":5713:5715   */\n      0x12\n        /* \"#utility.yul\":5708:5711   */\n      dup4\n        /* \"#utility.yul\":5649:5716   */\n      tag_75\n      jump\t// in\n    tag_142:\n        /* \"#utility.yul\":5642:5716   */\n      swap2\n      pop\n        /* \"#utility.yul\":5725:5818   */\n      tag_143\n        /* \"#utility.yul\":5814:5817   */\n      dup3\n        /* \"#utility.yul\":5725:5818   */\n      tag_80\n      jump\t// in\n    tag_143:\n        /* \"#utility.yul\":5843:5845   */\n      0x20\n        /* \"#utility.yul\":5838:5841   */\n      dup3\n        /* \"#utility.yul\":5834:5846   */\n      add\n        /* \"#utility.yul\":5827:5846   */\n      swap1\n      pop\n        /* \"#utility.yul\":5486:5852   */\n      swap2\n      swap1\n      pop\n      jump\t// out\n        /* \"#utility.yul\":5858:6277   */\n    tag_52:\n        /* \"#utility.yul\":6024:6028   */\n      0x00\n        /* \"#utility.yul\":6062:6064   */\n      0x20\n        /* \"#utility.yul\":6051:6060   */\n      dup3\n        /* \"#utility.yul\":6047:6065   */\n      add\n        /* \"#utility.yul\":6039:6065   */\n      swap1\n      pop\n        /* \"#utility.yul\":6111:6120   */\n      dup2\n        /* \"#utility.yul\":6105:6109   */\n      dup2\n        /* \"#utility.yul\":6101:6121   */\n      sub\n        /* \"#utility.yul\":6097:6098   */\n      0x00\n        /* \"#utility.yul\":6086:6095   */\n      dup4\n        /* \"#utility.yul\":6082:6099   */\n      add\n        /* \"#utility.yul\":6075:6122   */\n      mstore\n        /* \"#utility.yul\":6139:6270   */\n      tag_145\n        /* \"#utility.yul\":6265:6269   */\n      dup2\n        /* \"#utility.yul\":6139:6270   */\n      tag_81\n      jump\t// in\n    tag_145:\n        /* \"#utility.yul\":6131:6270   */\n      swap1\n      pop\n        /* \"#utility.yul\":5858:6277   */\n      swap2\n      swap1\n      pop\n      jump\t// out\n        /* \"#utility.yul\":6283:6430   */\n    tag_82:\n        /* \"#utility.yul\":6384:6395   */\n      0x00\n        /* \"#utility.yul\":6421:6424   */\n      dup2\n        /* \"#utility.yul\":6406:6424   */\n      swap1\n      pop\n        /* \"#utility.yul\":6283:6430   */\n      swap3\n      swap2\n      pop\n      pop\n      jump\t// out\n        /* \"#utility.yul\":6436:6550   */\n    tag_83:\n      pop\n      jump\t// out\n        /* \"#utility.yul\":6556:6954   */\n    tag_84:\n        /* \"#utility.yul\":6715:6718   */\n      0x00\n        /* \"#utility.yul\":6736:6819   */\n      tag_149\n        /* \"#utility.yul\":6817:6818   */\n      0x00\n        /* \"#utility.yul\":6812:6815   */\n      dup4\n        /* \"#utility.yul\":6736:6819   */\n      tag_82\n      jump\t// in\n    tag_149:\n        /* \"#utility.yul\":6729:6819   */\n      swap2\n      pop\n        /* \"#utility.yul\":6828:6921   */\n      tag_150\n        /* \"#utility.yul\":6917:6920   */\n      dup3\n        /* \"#utility.yul\":6828:6921   */\n      tag_83\n      jump\t// in\n    tag_150:\n        /* \"#utility.yul\":6946:6947   */\n      0x00\n        /* \"#utility.yul\":6941:6944   */\n      dup3\n        /* \"#utility.yul\":6937:6948   */\n      add\n        /* \"#utility.yul\":6930:6948   */\n      swap1\n      pop\n        /* \"#utility.yul\":6556:6954   */\n      swap2\n      swap1\n      pop\n      jump\t// out\n        /* \"#utility.yul\":6960:7339   */\n    tag_54:\n        /* \"#utility.yul\":7144:7147   */\n      0x00\n        /* \"#utility.yul\":7166:7313   */\n      tag_152\n        /* \"#utility.yul\":7309:7312   */\n      dup3\n        /* \"#utility.yul\":7166:7313   */\n      tag_84\n      jump\t// in\n    tag_152:\n        /* \"#utility.yul\":7159:7313   */\n      swap2\n      pop\n        /* \"#utility.yul\":7330:7333   */\n      dup2\n        /* \"#utility.yul\":7323:7333   */\n      swap1\n      pop\n        /* \"#utility.yul\":6960:7339   */\n      swap2\n      swap1\n      pop\n      jump\t// out\n        /* \"#utility.yul\":7345:7526   */\n    tag_85:\n        /* \"#utility.yul\":7485:7518   */\n      0x4661696c656420746f2073656e6420737562736372697074696f6e2066656500\n        /* \"#utility.yul\":7481:7482   */\n      0x00\n        /* \"#utility.yul\":7473:7479   */\n      dup3\n        /* \"#utility.yul\":7469:7483   */\n      add\n        /* \"#utility.yul\":7462:7519   */\n      mstore\n        /* \"#utility.yul\":7345:7526   */\n      pop\n      jump\t// out\n        /* \"#utility.yul\":7532:7898   */\n    tag_86:\n        /* \"#utility.yul\":7674:7677   */\n      0x00\n        /* \"#utility.yul\":7695:7762   */\n      tag_155\n        /* \"#utility.yul\":7759:7761   */\n      0x1f\n        /* \"#utility.yul\":7754:7757   */\n      dup4\n        /* \"#utility.yul\":7695:7762   */\n      tag_75\n      jump\t// in\n    tag_155:\n        /* \"#utility.yul\":7688:7762   */\n      swap2\n      pop\n        /* \"#utility.yul\":7771:7864   */\n      tag_156\n        /* \"#utility.yul\":7860:7863   */\n      dup3\n        /* \"#utility.yul\":7771:7864   */\n      tag_85\n      jump\t// in\n    tag_156:\n        /* \"#utility.yul\":7889:7891   */\n      0x20\n        /* \"#utility.yul\":7884:7887   */\n      dup3\n        /* \"#utility.yul\":7880:7892   */\n      add\n        /* \"#utility.yul\":7873:7892   */\n      swap1\n      pop\n        /* \"#utility.yul\":7532:7898   */\n      swap2\n      swap1\n      pop\n      jump\t// out\n        /* \"#utility.yul\":7904:8323   */\n    tag_60:\n        /* \"#utility.yul\":8070:8074   */\n      0x00\n        /* \"#utility.yul\":8108:8110   */\n      0x20\n        /* \"#utility.yul\":8097:8106   */\n      dup3\n        /* \"#utility.yul\":8093:8111   */\n      add\n        /* \"#utility.yul\":8085:8111   */\n      swap1\n      pop\n        /* \"#utility.yul\":8157:8166   */\n      dup2\n        /* \"#utility.yul\":8151:8155   */\n      dup2\n        /* \"#utility.yul\":8147:8167   */\n      sub\n        /* \"#utility.yul\":8143:8144   */\n      0x00\n        /* \"#utility.yul\":8132:8141   */\n      dup4\n        /* \"#utility.yul\":8128:8145   */\n      add\n        /* \"#utility.yul\":8121:8168   */\n      mstore\n        /* \"#utility.yul\":8185:8316   */\n      tag_158\n        /* \"#utility.yul\":8311:8315   */\n      dup2\n        /* \"#utility.yul\":8185:8316   */\n      tag_86\n      jump\t// in\n    tag_158:\n        /* \"#utility.yul\":8177:8316   */\n      swap1\n      pop\n        /* \"#utility.yul\":7904:8323   */\n      swap2\n      swap1\n      pop\n      jump\t// out\n\n    auxdata: 0xa26469706673582212201f37426ff4cbb02b37001096752730746251a9ed2912f7debfacec0497beb4e264736f6c634300081c0033\n}\n","bytecode":{"linkReferences":{},"object":"6080604052348015600e575f5ffd5b50610a1b8061001c5f395ff3fe608060405260043610610054575f3560e01c80630194424c146100585780632e9b93ed146100945780636ac84956146100d057806385d481f3146100f8578063ce278e7514610134578063f912d6d814610150575b5f5ffd5b348015610063575f5ffd5b5061007e600480360381019061007991906106ac565b61018c565b60405161008b91906106ef565b60405180910390f35b34801561009f575f5ffd5b506100ba60048036038101906100b59190610708565b6101a0565b6040516100c79190610760565b60405180910390f35b3480156100db575f5ffd5b506100f660048036038101906100f191906107a3565b6101ca565b005b348015610103575f5ffd5b5061011e60048036038101906101199190610708565b61025c565b60405161012b9190610760565b60405180910390f35b61014e600480360381019061014991906106ac565b6102ea565b005b34801561015b575f5ffd5b50610176600480360381019061017191906106ac565b610609565b60405161018391906106ef565b60405180910390f35b5f602052805f5260405f205f915090505481565b6001602052815f5260405f20602052805f5260405f205f915091509054906101000a900460ff1681565b805f5f3373ffffffffffffffffffffffffffffffffffffffff1673ffffffffffffffffffffffffffffffffffffffff1681526020019081526020015f20819055503373ffffffffffffffffffffffffffffffffffffffff167fb7269a4e053ed52f818b74e747e7c1883cd9eb8b6849be5291b1243ecfaac5568260405161025191906106ef565b60405180910390a250565b5f60015f8473ffffffffffffffffffffffffffffffffffffffff1673ffffffffffffffffffffffffffffffffffffffff1681526020019081526020015f205f8373ffffffffffffffffffffffffffffffffffffffff1673ffffffffffffffffffffffffffffffffffffffff1681526020019081526020015f205f9054906101000a900460ff16905092915050565b5f5f5f8373ffffffffffffffffffffffffffffffffffffffff1673ffffffffffffffffffffffffffffffffffffffff1681526020019081526020015f205490505f811161036c576040517f08c379a00000000000000000000000000000000000000000000000000000000081526004016103639061084e565b60405180910390fd5b8034146103ae576040517f08c379a00000000000000000000000000000000000000000000000000000000081526004016103a5906108b6565b60405180910390fd5b60015f8373ffffffffffffffffffffffffffffffffffffffff1673ffffffffffffffffffffffffffffffffffffffff1681526020019081526020015f205f3373ffffffffffffffffffffffffffffffffffffffff1673ffffffffffffffffffffffffffffffffffffffff1681526020019081526020015f205f9054906101000a900460ff1615610473576040517f08c379a000000000000000000000000000000000000000000000000000000000815260040161046a9061091e565b60405180910390fd5b6001805f8473ffffffffffffffffffffffffffffffffffffffff1673ffffffffffffffffffffffffffffffffffffffff1681526020019081526020015f205f3373ffffffffffffffffffffffffffffffffffffffff1673ffffffffffffffffffffffffffffffffffffffff1681526020019081526020015f205f6101000a81548160ff0219169083151502179055505f8273ffffffffffffffffffffffffffffffffffffffff163460405161052790610969565b5f6040518083038185875af1925050503d805f8114610561576040519150601f19603f3d011682016040523d82523d5f602084013e610566565b606091505b50509050806105aa576040517f08c379a00000000000000000000000000000000000000000000000000000000081526004016105a1906109c7565b60405180910390fd5b3373ffffffffffffffffffffffffffffffffffffffff168373ffffffffffffffffffffffffffffffffffffffff167f3a0b5076ece6f2c8be8457bb8f3245313ca00f236efcc25031b8376662c224cf60405160405180910390a3505050565b5f5f5f8373ffffffffffffffffffffffffffffffffffffffff1673ffffffffffffffffffffffffffffffffffffffff1681526020019081526020015f20549050919050565b5f5ffd5b5f73ffffffffffffffffffffffffffffffffffffffff82169050919050565b5f61067b82610652565b9050919050565b61068b81610671565b8114610695575f5ffd5b50565b5f813590506106a681610682565b92915050565b5f602082840312156106c1576106c061064e565b5b5f6106ce84828501610698565b91505092915050565b5f819050919050565b6106e9816106d7565b82525050565b5f6020820190506107025f8301846106e0565b92915050565b5f5f6040838503121561071e5761071d61064e565b5b5f61072b85828601610698565b925050602061073c85828601610698565b9150509250929050565b5f8115159050919050565b61075a81610746565b82525050565b5f6020820190506107735f830184610751565b92915050565b610782816106d7565b811461078c575f5ffd5b50565b5f8135905061079d81610779565b92915050565b5f602082840312156107b8576107b761064e565b5b5f6107c58482850161078f565b91505092915050565b5f82825260208201905092915050565b7f417574686f7220686173206e6f7420736574206120737562736372697074696f5f8201527f6e20666565000000000000000000000000000000000000000000000000000000602082015250565b5f6108386025836107ce565b9150610843826107de565b604082019050919050565b5f6020820190508181035f8301526108658161082c565b9050919050565b7f496e636f727265637420737562736372697074696f6e206665652073656e74005f82015250565b5f6108a0601f836107ce565b91506108ab8261086c565b602082019050919050565b5f6020820190508181035f8301526108cd81610894565b9050919050565b7f416c7265616479207375627363726962656400000000000000000000000000005f82015250565b5f6109086012836107ce565b9150610913826108d4565b602082019050919050565b5f6020820190508181035f830152610935816108fc565b9050919050565b5f81905092915050565b50565b5f6109545f8361093c565b915061095f82610946565b5f82019050919050565b5f61097382610949565b9150819050919050565b7f4661696c656420746f2073656e6420737562736372697074696f6e20666565005f82015250565b5f6109b1601f836107ce565b91506109bc8261097d565b602082019050919050565b5f6020820190508181035f8301526109de816109a5565b905091905056fea26469706673582212201f37426ff4cbb02b37001096752730746251a9ed2912f7debfacec0497beb4e264736f6c634300081c0033","opcodes":"PUSH1 0x80 PUSH1 0x40 MSTORE CALLVALUE DUP1 ISZERO PUSH1 0xE JUMPI PUSH0 PUSH0 REVERT JUMPDEST POP PUSH2 0xA1B DUP1 PUSH2 0x1C PUSH0 CODECOPY PUSH0 RETURN INVALID PUSH1 0x80 PUSH1 0x40 MSTORE PUSH1 0x4 CALLDATASIZE LT PUSH2 0x54 JUMPI PUSH0 CALLDATALOAD PUSH1 0xE0 SHR DUP1 PUSH4 0x194424C EQ PUSH2 0x58 JUMPI DUP1 PUSH4 0x2E9B93ED EQ PUSH2 0x94 JUMPI DUP1 PUSH4 0x6AC84956 EQ PUSH2 0xD0 JUMPI DUP1 PUSH4 0x85D481F3 EQ PUSH2 0xF8 JUMPI DUP1 PUSH4 0xCE278E75 EQ PUSH2 0x134 JUMPI DUP1 PUSH4 0xF912D6D8 EQ PUSH2 0x150 JUMPI JUMPDEST PUSH0 PUSH0 REVERT JUMPDEST CALLVALUE DUP1 ISZERO PUSH2 0x63 JUMPI PUSH0 PUSH0 REVERT JUMPDEST POP PUSH2 0x7E PUSH1 0x4 DUP1 CALLDATASIZE SUB DUP2 ADD SWAP1 PUSH2 0x79 SWAP2 SWAP1 PUSH2 0x6AC JUMP JUMPDEST PUSH2 0x18C JUMP JUMPDEST PUSH1 0x40 MLOAD PUSH2 0x8B SWAP2 SWAP1 PUSH2 0x6EF JUMP JUMPDEST PUSH1 0x40 MLOAD DUP1 SWAP2 SUB SWAP1 RETURN JUMPDEST CALLVALUE DUP1 ISZERO PUSH2 0x9F JUMPI PUSH0 PUSH0 REVERT JUMPDEST POP PUSH2 0xBA PUSH1 0x4 DUP1 CALLDATASIZE SUB DUP2 ADD SWAP1 PUSH2 0xB5 SWAP2 SWAP1 PUSH2 0x708 JUMP JUMPDEST PUSH2 0x1A0 JUMP JUMPDEST PUSH1 0x40 MLOAD PUSH2 0xC7 SWAP2 SWAP1 PUSH2 0x760 JUMP JUMPDEST PUSH1 0x40 MLOAD DUP1 SWAP2 SUB SWAP1 RETURN JUMPDEST CALLVALUE DUP1 ISZERO PUSH2 0xDB JUMPI PUSH0 PUSH0 REVERT JUMPDEST POP PUSH2 0xF6 PUSH1 0x4 DUP1 CALLDATASIZE SUB DUP2 ADD SWAP1 PUSH2 0xF1 SWAP2 SWAP1 PUSH2 0x7A3 JUMP JUMPDEST PUSH2 0x1CA JUMP JUMPDEST STOP JUMPDEST CALLVALUE DUP1 ISZERO PUSH2 0x103 JUMPI PUSH0 PUSH0 REVERT JUMPDEST POP PUSH2 0x11E PUSH1 0x4 DUP1 CALLDATASIZE SUB DUP2 ADD SWAP1 PUSH2 0x119 SWAP2 SWAP1 PUSH2 0x708 JUMP JUMPDEST PUSH2 0x25C JUMP JUMPDEST PUSH1 0x40 MLOAD PUSH2 0x12B SWAP2 SWAP1 PUSH2 0x760 JUMP JUMPDEST PUSH1 0x40 MLOAD DUP1 SWAP2 SUB SWAP1 RETURN JUMPDEST PUSH2 0x14E PUSH1 0x4 DUP1 CALLDATASIZE SUB DUP2 ADD SWAP1 PUSH2 0x149 SWAP2 SWAP1 PUSH2 0x6AC JUMP JUMPDEST PUSH2 0x2EA JUMP JUMPDEST STOP JUMPDEST CALLVALUE DUP1 ISZERO PUSH2 0x15B JUMPI PUSH0 PUSH0 REVERT JUMPDEST POP PUSH2 0x176 PUSH1 0x4 DUP1 CALLDATASIZE SUB DUP2 ADD SWAP1 PUSH2 0x171 SWAP2 SWAP1 PUSH2 0x6AC JUMP JUMPDEST PUSH2 0x609 JUMP JUMPDEST PUSH1 0x40 MLOAD PUSH2 0x183 SWAP2 SWAP1 PUSH2 0x6EF JUMP JUMPDEST PUSH1 0x40 MLOAD DUP1 SWAP2 SUB SWAP1 RETURN JUMPDEST PUSH0 PUSH1 0x20 MSTORE DUP1 PUSH0 MSTORE PUSH1 0x40 PUSH0 KECCAK256 PUSH0 SWAP2 POP SWAP1 POP SLOAD DUP2 JUMP JUMPDEST PUSH1 0x1 PUSH1 0x20 MSTORE DUP2 PUSH0 MSTORE PUSH1 0x40 PUSH0 KECCAK256 PUSH1 0x20 MSTORE DUP1 PUSH0 MSTORE PUSH1 0x40 PUSH0 KECCAK256 PUSH0 SWAP2 POP SWAP2 POP SWAP1 SLOAD SWAP1 PUSH2 0x100 EXP SWAP1 DIV PUSH1 0xFF AND DUP2 JUMP JUMPDEST DUP1 PUSH0 PUSH0 CALLER PUSH20 0xFFFFFFFFFFFFFFFFFFFFFFFFFFFFFFFFFFFFFFFF AND PUSH20 0xFFFFFFFFFFFFFFFFFFFFFFFFFFFFFFFFFFFFFFFF AND DUP2 MSTORE PUSH1 0x20 ADD SWAP1 DUP2 MSTORE PUSH1 0x20 ADD PUSH0 KECCAK256 DUP2 SWAP1 SSTORE POP CALLER PUSH20 0xFFFFFFFFFFFFFFFFFFFFFFFFFFFFFFFFFFFFFFFF AND PUSH32 0xB7269A4E053ED52F818B74E747E7C1883CD9EB8B6849BE5291B1243ECFAAC556 DUP3 PUSH1 0x40 MLOAD PUSH2 0x251 SWAP2 SWAP1 PUSH2 0x6EF JUMP JUMPDEST PUSH1 0x40 MLOAD DUP1 SWAP2 SUB SWAP1 LOG2 POP JUMP JUMPDEST PUSH0 PUSH1 0x1 PUSH0 DUP5 PUSH20 0xFFFFFFFFFFFFFFFFFFFFFFFFFFFFFFFFFFFFFFFF AND PUSH20 0xFFFFFFFFFFFFFFFFFFFFFFFFFFFFFFFFFFFFFFFF AND DUP2 MSTORE PUSH1 0x20 ADD SWAP1 DUP2 MSTORE PUSH1 0x20 ADD PUSH0 KECCAK256 PUSH0 DUP4 PUSH20 0xFFFFFFFFFFFFFFFFFFFFFFFFFFFFFFFFFFFFFFFF AND PUSH20 0xFFFFFFFFFFFFFFFFFFFFFFFFFFFFFFFFFFFFFFFF AND DUP2 MSTORE PUSH1 0x20 ADD SWAP1 DUP2 MSTORE PUSH1 0x20 ADD PUSH0 KECCAK256 PUSH0 SWAP1 SLOAD SWAP1 PUSH2 0x100 EXP SWAP1 DIV PUSH1 0xFF AND SWAP1 POP SWAP3 SWAP2 POP POP JUMP JUMPDEST PUSH0 PUSH0 PUSH0 DUP4 PUSH20 0xFFFFFFFFFFFFFFFFFFFFFFFFFFFFFFFFFFFFFFFF AND PUSH20 0xFFFFFFFFFFFFFFFFFFFFFFFFFFFFFFFFFFFFFFFF AND DUP2 MSTORE PUSH1 0x20 ADD SWAP1 DUP2 MSTORE PUSH1 0x20 ADD PUSH0 KECCAK256 SLOAD SWAP1 POP PUSH0 DUP2 GT PUSH2 0x36C JUMPI PUSH1 0x40 MLOAD PUSH32 0x8C379A000000000000000000000000000000000000000000000000000000000 DUP2 MSTORE PUSH1 0x4 ADD PUSH2 0x363 SWAP1 PUSH2 0x84E JUMP JUMPDEST PUSH1 0x40 MLOAD DUP1 SWAP2 SUB SWAP1 REVERT JUMPDEST DUP1 CALLVALUE EQ PUSH2 0x3AE JUMPI PUSH1 0x40 MLOAD PUSH32 0x8C379A000000000000000000000000000000000000000000000000000000000 DUP2 MSTORE PUSH1 0x4 ADD PUSH2 0x3A5 SWAP1 PUSH2 0x8B6 JUMP JUMPDEST PUSH1 0x40 MLOAD DUP1 SWAP2 SUB SWAP1 REVERT JUMPDEST PUSH1 0x1 PUSH0 DUP4 PUSH20 0xFFFFFFFFFFFFFFFFFFFFFFFFFFFFFFFFFFFFFFFF AND PUSH20 0xFFFFFFFFFFFFFFFFFFFFFFFFFFFFFFFFFFFFFFFF AND DUP2 MSTORE PUSH1 0x20 ADD SWAP1 DUP2 MSTORE PUSH1 0x20 ADD PUSH0 KECCAK256 PUSH0 CALLER PUSH20 0xFFFFFFFFFFFFFFFFFFFFFFFFFFFFFFFFFFFFFFFF AND PUSH20 0xFFFFFFFFFFFFFFFFFFFFFFFFFFFFFFFFFFFFFFFF AND DUP2 MSTORE PUSH1 0x20 ADD SWAP1 DUP2 MSTORE PUSH1 0x20 ADD PUSH0 KECCAK256 PUSH0 SWAP1 SLOAD SWAP1 PUSH2 0x100 EXP SWAP1 DIV PUSH1 0xFF AND ISZERO PUSH2 0x473 JUMPI PUSH1 0x40 MLOAD PUSH32 0x8C379A000000000000000000000000000000000000000000000000000000000 DUP2 MSTORE PUSH1 0x4 ADD PUSH2 0x46A SWAP1 PUSH2 0x91E JUMP JUMPDEST PUSH1 0x40 MLOAD DUP1 SWAP2 SUB SWAP1 REVERT JUMPDEST PUSH1 0x1 DUP1 PUSH0 DUP5 PUSH20 0xFFFFFFFFFFFFFFFFFFFFFFFFFFFFFFFFFFFFFFFF AND PUSH20 0xFFFFFFFFFFFFFFFFFFFFFFFFFFFFFFFFFFFFFFFF AND DUP2 MSTORE PUSH1 0x20 ADD SWAP1 DUP2 MSTORE PUSH1 0x20 ADD PUSH0 KECCAK256 PUSH0 CALLER PUSH20 0xFFFFFFFFFFFFFFFFFFFFFFFFFFFFFFFFFFFFFFFF AND PUSH20 0xFFFFFFFFFFFFFFFFFFFFFFFFFFFFFFFFFFFFFFFF AND DUP2 MSTORE PUSH1 0x20 ADD SWAP1 DUP2 MSTORE PUSH1 0x20 ADD PUSH0 KECCAK256 PUSH0 PUSH2 0x100 EXP DUP2 SLOAD DUP2 PUSH1 0xFF MUL NOT AND SWAP1 DUP4 ISZERO ISZERO MUL OR SWAP1 SSTORE POP PUSH0 DUP3 PUSH20 0xFFFFFFFFFFFFFFFFFFFFFFFFFFFFFFFFFFFFFFFF AND CALLVALUE PUSH1 0x40 MLOAD PUSH2 0x527 SWAP1 PUSH2 0x969 JUMP JUMPDEST PUSH0 PUSH1 0x40 MLOAD DUP1 DUP4 SUB DUP2 DUP6 DUP8 GAS CALL SWAP3 POP POP POP RETURNDATASIZE DUP1 PUSH0 DUP2 EQ PUSH2 0x561 JUMPI PUSH1 0x40 MLOAD SWAP2 POP PUSH1 0x1F NOT PUSH1 0x3F RETURNDATASIZE ADD AND DUP3 ADD PUSH1 0x40 MSTORE RETURNDATASIZE DUP3 MSTORE RETURNDATASIZE PUSH0 PUSH1 0x20 DUP5 ADD RETURNDATACOPY PUSH2 0x566 JUMP JUMPDEST PUSH1 0x60 SWAP2 POP JUMPDEST POP POP SWAP1 POP DUP1 PUSH2 0x5AA JUMPI PUSH1 0x40 MLOAD PUSH32 0x8C379A000000000000000000000000000000000000000000000000000000000 DUP2 MSTORE PUSH1 0x4 ADD PUSH2 0x5A1 SWAP1 PUSH2 0x9C7 JUMP JUMPDEST PUSH1 0x40 MLOAD DUP1 SWAP2 SUB SWAP1 REVERT JUMPDEST CALLER PUSH20 0xFFFFFFFFFFFFFFFFFFFFFFFFFFFFFFFFFFFFFFFF AND DUP4 PUSH20 0xFFFFFFFFFFFFFFFFFFFFFFFFFFFFFFFFFFFFFFFF AND PUSH32 0x3A0B5076ECE6F2C8BE8457BB8F3245313CA00F236EFCC25031B8376662C224CF PUSH1 0x40 MLOAD PUSH1 0x40 MLOAD DUP1 SWAP2 SUB SWAP1 LOG3 POP POP POP JUMP JUMPDEST PUSH0 PUSH0 PUSH0 DUP4 PUSH20 0xFFFFFFFFFFFFFFFFFFFFFFFFFFFFFFFFFFFFFFFF AND PUSH20 0xFFFFFFFFFFFFFFFFFFFFFFFFFFFFFFFFFFFFFFFF AND DUP2 MSTORE PUSH1 0x20 ADD SWAP1 DUP2 MSTORE PUSH1 0x20 ADD PUSH0 KECCAK256 SLOAD SWAP1 POP SWAP2 SWAP1 POP JUMP JUMPDEST PUSH0 PUSH0 REVERT JUMPDEST PUSH0 PUSH20 0xFFFFFFFFFFFFFFFFFFFFFFFFFFFFFFFFFFFFFFFF DUP3 AND SWAP1 POP SWAP2 SWAP1 POP JUMP JUMPDEST PUSH0 PUSH2 0x67B DUP3 PUSH2 0x652 JUMP JUMPDEST SWAP1 POP SWAP2 SWAP1 POP JUMP JUMPDEST PUSH2 0x68B DUP2 PUSH2 0x671 JUMP JUMPDEST DUP2 EQ PUSH2 0x695 JUMPI PUSH0 PUSH0 REVERT JUMPDEST POP JUMP JUMPDEST PUSH0 DUP2 CALLDATALOAD SWAP1 POP PUSH2 0x6A6 DUP2 PUSH2 0x682 JUMP JUMPDEST SWAP3 SWAP2 POP POP JUMP JUMPDEST PUSH0 PUSH1 0x20 DUP3 DUP5 SUB SLT ISZERO PUSH2 0x6C1 JUMPI PUSH2 0x6C0 PUSH2 0x64E JUMP JUMPDEST JUMPDEST PUSH0 PUSH2 0x6CE DUP5 DUP3 DUP6 ADD PUSH2 0x698 JUMP JUMPDEST SWAP2 POP POP SWAP3 SWAP2 POP POP JUMP JUMPDEST PUSH0 DUP2 SWAP1 POP SWAP2 SWAP1 POP JUMP JUMPDEST PUSH2 0x6E9 DUP2 PUSH2 0x6D7 JUMP JUMPDEST DUP3 MSTORE POP POP JUMP JUMPDEST PUSH0 PUSH1 0x20 DUP3 ADD SWAP1 POP PUSH2 0x702 PUSH0 DUP4 ADD DUP5 PUSH2 0x6E0 JUMP JUMPDEST SWAP3 SWAP2 POP POP JUMP JUMPDEST PUSH0 PUSH0 PUSH1 0x40 DUP4 DUP6 SUB SLT ISZERO PUSH2 0x71E JUMPI PUSH2 0x71D PUSH2 0x64E JUMP JUMPDEST JUMPDEST PUSH0 PUSH2 0x72B DUP6 DUP3 DUP7 ADD PUSH2 0x698 JUMP JUMPDEST SWAP3 POP POP PUSH1 0x20 PUSH2 0x73C DUP6 DUP3 DUP7 ADD PUSH2 0x698 JUMP JUMPDEST SWAP2 POP POP SWAP3 POP SWAP3 SWAP1 POP JUMP JUMPDEST PUSH0 DUP2 ISZERO ISZERO SWAP1 POP SWAP2 SWAP1 POP JUMP JUMPDEST PUSH2 0x75A DUP2 PUSH2 0x746 JUMP JUMPDEST DUP3 MSTORE POP POP JUMP JUMPDEST PUSH0 PUSH1 0x20 DUP3 ADD SWAP1 POP PUSH2 0x773 PUSH0 DUP4 ADD DUP5 PUSH2 0x751 JUMP JUMPDEST SWAP3 SWAP2 POP POP JUMP JUMPDEST PUSH2 0x782 DUP2 PUSH2 0x6D7 JUMP JUMPDEST DUP2 EQ PUSH2 0x78C JUMPI PUSH0 PUSH0 REVERT JUMPDEST POP JUMP JUMPDEST PUSH0 DUP2 CALLDATALOAD SWAP1 POP PUSH2 0x79D DUP2 PUSH2 0x779 JUMP JUMPDEST SWAP3 SWAP2 POP POP JUMP JUMPDEST PUSH0 PUSH1 0x20 DUP3 DUP5 SUB SLT ISZERO PUSH2 0x7B8 JUMPI PUSH2 0x7B7 PUSH2 0x64E JUMP JUMPDEST JUMPDEST PUSH0 PUSH2 0x7C5 DUP5 DUP3 DUP6 ADD PUSH2 0x78F JUMP JUMPDEST SWAP2 POP POP SWAP3 SWAP2 POP POP JUMP JUMPDEST PUSH0 DUP3 DUP3 MSTORE PUSH1 0x20 DUP3 ADD SWAP1 POP SWAP3 SWAP2 POP POP JUMP JUMPDEST PUSH32 0x417574686F7220686173206E6F7420736574206120737562736372697074696F PUSH0 DUP3 ADD MSTORE PUSH32 0x6E20666565000000000000000000000000000000000000000000000000000000 PUSH1 0x20 DUP3 ADD MSTORE POP JUMP JUMPDEST PUSH0 PUSH2 0x838 PUSH1 0x25 DUP4 PUSH2 0x7CE JUMP JUMPDEST SWAP2 POP PUSH2 0x843 DUP3 PUSH2 0x7DE JUMP JUMPDEST PUSH1 0x40 DUP3 ADD SWAP1 POP SWAP2 SWAP1 POP JUMP JUMPDEST PUSH0 PUSH1 0x20 DUP3 ADD SWAP1 POP DUP2 DUP2 SUB PUSH0 DUP4 ADD MSTORE PUSH2 0x865 DUP2 PUSH2 0x82C JUMP JUMPDEST SWAP1 POP SWAP2 SWAP1 POP JUMP JUMPDEST PUSH32 0x496E636F727265637420737562736372697074696F6E206665652073656E7400 PUSH0 DUP3 ADD MSTORE POP JUMP JUMPDEST PUSH0 PUSH2 0x8A0 PUSH1 0x1F DUP4 PUSH2 0x7CE JUMP JUMPDEST SWAP2 POP PUSH2 0x8AB DUP3 PUSH2 0x86C JUMP JUMPDEST PUSH1 0x20 DUP3 ADD SWAP1 POP SWAP2 SWAP1 POP JUMP JUMPDEST PUSH0 PUSH1 0x20 DUP3 ADD SWAP1 POP DUP2 DUP2 SUB PUSH0 DUP4 ADD MSTORE PUSH2 0x8CD DUP2 PUSH2 0x894 JUMP JUMPDEST SWAP1 POP SWAP2 SWAP1 POP JUMP JUMPDEST PUSH32 0x416C726561647920737562736372696265640000000000000000000000000000 PUSH0 DUP3 ADD MSTORE POP JUMP JUMPDEST PUSH0 PUSH2 0x908 PUSH1 0x12 DUP4 PUSH2 0x7CE JUMP JUMPDEST SWAP2 POP PUSH2 0x913 DUP3 PUSH2 0x8D4 JUMP JUMPDEST PUSH1 0x20 DUP3 ADD SWAP1 POP SWAP2 SWAP1 POP JUMP JUMPDEST PUSH0 PUSH1 0x20 DUP3 ADD SWAP1 POP DUP2 DUP2 SUB PUSH0 DUP4 ADD MSTORE PUSH2 0x935 DUP2 PUSH2 0x8FC JUMP JUMPDEST SWAP1 POP SWAP2 SWAP1 POP JUMP JUMPDEST PUSH0 DUP2 SWAP1 POP SWAP3 SWAP2 POP POP JUMP JUMPDEST POP JUMP JUMPDEST PUSH0 PUSH2 0x954 PUSH0 DUP4 PUSH2 0x93C JUMP JUMPDEST SWAP2 POP PUSH2 0x95F DUP3 PUSH2 0x946 JUMP JUMPDEST PUSH0 DUP3 ADD SWAP1 POP SWAP2 SWAP1 POP JUMP JUMPDEST PUSH0 PUSH2 0x973 DUP3 PUSH2 0x949 JUMP JUMPDEST SWAP2 POP DUP2 SWAP1 POP SWAP2 SWAP1 POP JUMP JUMPDEST PUSH32 0x4661696C656420746F2073656E6420737562736372697074696F6E2066656500 PUSH0 DUP3 ADD MSTORE POP JUMP JUMPDEST PUSH0 PUSH2 0x9B1 PUSH1 0x1F DUP4 PUSH2 0x7CE JUMP JUMPDEST SWAP2 POP PUSH2 0x9BC DUP3 PUSH2 0x97D JUMP JUMPDEST PUSH1 0x20 DUP3 ADD SWAP1 POP SWAP2 SWAP1 POP JUMP JUMPDEST PUSH0 PUSH1 0x20 DUP3 ADD SWAP1 POP DUP2 DUP2 SUB PUSH0 DUP4 ADD MSTORE PUSH2 0x9DE DUP2 PUSH2 0x9A5 JUMP JUMPDEST SWAP1 POP SWAP2 SWAP1 POP JUMP INVALID LOG2 PUSH5 0x6970667358 0x22 SLT KECCAK256 0x1F CALLDATACOPY TIMESTAMP PUSH16 0xF4CBB02B37001096752730746251A9ED 0x29 SLT 0xF7 0xDE 0xBF 0xAC 0xEC DIV SWAP8 0xBE 0xB4 0xE2 PUSH5 0x736F6C6343 STOP ADDMOD SHR STOP CALLER "},"gasEstimates":{"creation":{"codeDepositCost":"517400","executionCost":"547","totalCost":"517947"},"external":{"getSubscriptionFee(address)":"2916","isSubscribedToAuthor(address,address)":"infinite","setSubscriptionFee(uint256)":"infinite","subscribeToAuthor(address)":"infinite","subscribed(address,address)":"infinite","subscriptionFees(address)":"2779"}},"methodIdentifiers":{"getSubscriptionFee(address)":"f912d6d8","isSubscribedToAuthor(address,address)":"85d481f3","setSubscriptionFee(uint256)":"6ac84956","subscribeToAuthor(address)":"ce278e75","subscribed(address,address)":"2e9b93ed","subscriptionFees(address)":"0194424c"}},"storageLayout":{"storage":[{"astId":5,"contract":"blogs.sol:BlogSubscriptions","label":"subscriptionFees","offset":0,"slot":"0","type":"t_mapping(t_address,t_uint256)"},{"astId":11,"contract":"blogs.sol:BlogSubscriptions","label":"subscribed","offset":0,"slot":"1","type":"t_mapping(t_address,t_mapping(t_address,t_bool))"}],"types":{"t_address":{"encoding":"inplace","label":"address","numberOfBytes":"20"},"t_bool":{"encoding":"inplace","label":"bool","numberOfBytes":"1"},"t_mapping(t_address,t_bool)":{"encoding":"mapping","key":"t_address","label":"mapping(address => bool)","numberOfBytes":"32","value":"t_bool"},"t_mapping(t_address,t_mapping(t_address,t_bool))":{"encoding":"mapping","key":"t_address","label":"mapping(address => mapping(address => bool))","numberOfBytes":"32","value":"t_mapping(t_address,t_bool)"},"t_mapping(t_address,t_uint256)":{"encoding":"mapping","key":"t_address","label":"mapping(address => uint256)","numberOfBytes":"32","value":"t_uint256"},"t_uint256":{"encoding":"inplace","label":"uint256","numberOfBytes":"32"}}},"transientStorageLayout":{"storage":[],"types":null},"userdoc":{"kind":"user","methods":{},"version":1}}